{
  "_format": "hh-sol-artifact-1",
  "contractName": "Life",
  "sourceName": "contracts/Life.sol",
  "abi": [
    {
      "inputs": [],
      "stateMutability": "nonpayable",
      "type": "constructor"
    },
    {
      "anonymous": false,
      "inputs": [
        {
          "indexed": true,
          "internalType": "address",
          "name": "owner",
          "type": "address"
        },
        {
          "indexed": true,
          "internalType": "address",
          "name": "spender",
          "type": "address"
        },
        {
          "indexed": false,
          "internalType": "uint256",
          "name": "value",
          "type": "uint256"
        }
      ],
      "name": "Approval",
      "type": "event"
    },
    {
      "anonymous": false,
      "inputs": [
        {
          "indexed": true,
          "internalType": "address",
          "name": "previousOwner",
          "type": "address"
        },
        {
          "indexed": true,
          "internalType": "address",
          "name": "newOwner",
          "type": "address"
        }
      ],
      "name": "OwnershipTransferred",
      "type": "event"
    },
    {
      "anonymous": false,
      "inputs": [
        {
          "indexed": false,
          "internalType": "address",
          "name": "account",
          "type": "address"
        }
      ],
      "name": "Paused",
      "type": "event"
    },
    {
      "anonymous": false,
      "inputs": [
        {
          "indexed": true,
          "internalType": "address",
          "name": "from",
          "type": "address"
        },
        {
          "indexed": true,
          "internalType": "address",
          "name": "to",
          "type": "address"
        },
        {
          "indexed": false,
          "internalType": "uint256",
          "name": "value",
          "type": "uint256"
        }
      ],
      "name": "Transfer",
      "type": "event"
    },
    {
      "anonymous": false,
      "inputs": [
        {
          "indexed": false,
          "internalType": "address",
          "name": "account",
          "type": "address"
        }
      ],
      "name": "Unpaused",
      "type": "event"
    },
    {
      "inputs": [
        {
          "internalType": "address",
          "name": "owner",
          "type": "address"
        },
        {
          "internalType": "address",
          "name": "spender",
          "type": "address"
        }
      ],
      "name": "allowance",
      "outputs": [
        {
          "internalType": "uint256",
          "name": "",
          "type": "uint256"
        }
      ],
      "stateMutability": "view",
      "type": "function"
    },
    {
      "inputs": [
        {
          "internalType": "address",
          "name": "spender",
          "type": "address"
        },
        {
          "internalType": "uint256",
          "name": "amount",
          "type": "uint256"
        }
      ],
      "name": "approve",
      "outputs": [
        {
          "internalType": "bool",
          "name": "",
          "type": "bool"
        }
      ],
      "stateMutability": "nonpayable",
      "type": "function"
    },
    {
      "inputs": [
        {
          "internalType": "address",
          "name": "account",
          "type": "address"
        }
      ],
      "name": "balanceOf",
      "outputs": [
        {
          "internalType": "uint256",
          "name": "",
          "type": "uint256"
        }
      ],
      "stateMutability": "view",
      "type": "function"
    },
    {
      "inputs": [
        {
          "internalType": "address",
          "name": "from",
          "type": "address"
        },
        {
          "internalType": "uint256",
          "name": "amount",
          "type": "uint256"
        }
      ],
      "name": "burnLifeTokens",
      "outputs": [],
      "stateMutability": "nonpayable",
      "type": "function"
    },
    {
      "inputs": [],
      "name": "burningRate",
      "outputs": [
        {
          "internalType": "uint256",
          "name": "",
          "type": "uint256"
        }
      ],
      "stateMutability": "view",
      "type": "function"
    },
    {
      "inputs": [
        {
          "internalType": "uint256",
          "name": "tokenId",
          "type": "uint256"
        }
      ],
      "name": "claimStakingRewards",
      "outputs": [],
      "stateMutability": "nonpayable",
      "type": "function"
    },
    {
      "inputs": [
        {
          "internalType": "uint256",
          "name": "tokenId",
          "type": "uint256"
        }
      ],
      "name": "claimableStakingRewards",
      "outputs": [
        {
          "internalType": "uint256",
          "name": "",
          "type": "uint256"
        }
      ],
      "stateMutability": "view",
      "type": "function"
    },
    {
      "inputs": [],
      "name": "decimals",
      "outputs": [
        {
          "internalType": "uint8",
          "name": "",
          "type": "uint8"
        }
      ],
      "stateMutability": "view",
      "type": "function"
    },
    {
      "inputs": [
        {
          "internalType": "address",
          "name": "spender",
          "type": "address"
        },
        {
          "internalType": "uint256",
          "name": "subtractedValue",
          "type": "uint256"
        }
      ],
      "name": "decreaseAllowance",
      "outputs": [
        {
          "internalType": "bool",
          "name": "",
          "type": "bool"
        }
      ],
      "stateMutability": "nonpayable",
      "type": "function"
    },
    {
      "inputs": [
        {
          "internalType": "address",
          "name": "spender",
          "type": "address"
        },
        {
          "internalType": "uint256",
          "name": "addedValue",
          "type": "uint256"
        }
      ],
      "name": "increaseAllowance",
      "outputs": [
        {
          "internalType": "bool",
          "name": "",
          "type": "bool"
        }
      ],
      "stateMutability": "nonpayable",
      "type": "function"
    },
    {
      "inputs": [
        {
          "internalType": "uint256",
          "name": "tokenId",
          "type": "uint256"
        }
      ],
      "name": "initStakingRewards",
      "outputs": [],
      "stateMutability": "nonpayable",
      "type": "function"
    },
    {
      "inputs": [],
      "name": "manageLifeInvestorsNft",
      "outputs": [
        {
          "internalType": "address",
          "name": "",
          "type": "address"
        }
      ],
      "stateMutability": "view",
      "type": "function"
    },
    {
      "inputs": [],
      "name": "manageLifeToken",
      "outputs": [
        {
          "internalType": "address",
          "name": "",
          "type": "address"
        }
      ],
      "stateMutability": "view",
      "type": "function"
    },
    {
      "inputs": [
        {
          "internalType": "uint256",
          "name": "_amount",
          "type": "uint256"
        }
      ],
      "name": "mint",
      "outputs": [],
      "stateMutability": "nonpayable",
      "type": "function"
    },
    {
      "inputs": [
        {
          "internalType": "address",
          "name": "investorAddress",
          "type": "address"
        },
        {
          "internalType": "uint256",
          "name": "_amount",
          "type": "uint256"
        }
      ],
      "name": "mintInvestorsRewards",
      "outputs": [],
      "stateMutability": "nonpayable",
      "type": "function"
    },
    {
      "inputs": [],
      "name": "name",
      "outputs": [
        {
          "internalType": "string",
          "name": "",
          "type": "string"
        }
      ],
      "stateMutability": "view",
      "type": "function"
    },
    {
      "inputs": [],
      "name": "owner",
      "outputs": [
        {
          "internalType": "address",
          "name": "",
          "type": "address"
        }
      ],
      "stateMutability": "view",
      "type": "function"
    },
    {
      "inputs": [],
      "name": "pause",
      "outputs": [],
      "stateMutability": "nonpayable",
      "type": "function"
    },
    {
      "inputs": [],
      "name": "paused",
      "outputs": [
        {
          "internalType": "bool",
          "name": "",
          "type": "bool"
        }
      ],
      "stateMutability": "view",
      "type": "function"
    },
    {
      "inputs": [],
      "name": "renounceOwnership",
      "outputs": [],
      "stateMutability": "nonpayable",
      "type": "function"
    },
    {
      "inputs": [
        {
          "internalType": "address",
          "name": "manageLifeToken_",
          "type": "address"
        }
      ],
      "name": "setManageLifeToken",
      "outputs": [],
      "stateMutability": "nonpayable",
      "type": "function"
    },
    {
      "inputs": [
        {
          "internalType": "address",
          "name": "investorsNft_",
          "type": "address"
        }
      ],
      "name": "setNftiToken",
      "outputs": [],
      "stateMutability": "nonpayable",
      "type": "function"
    },
    {
      "inputs": [
        {
          "internalType": "uint256",
          "name": "",
          "type": "uint256"
        }
      ],
      "name": "startOfStakingRewards",
      "outputs": [
        {
          "internalType": "uint64",
          "name": "",
          "type": "uint64"
        }
      ],
      "stateMutability": "view",
      "type": "function"
    },
    {
      "inputs": [],
      "name": "symbol",
      "outputs": [
        {
          "internalType": "string",
          "name": "",
          "type": "string"
        }
      ],
      "stateMutability": "view",
      "type": "function"
    },
    {
      "inputs": [],
      "name": "totalSupply",
      "outputs": [
        {
          "internalType": "uint256",
          "name": "",
          "type": "uint256"
        }
      ],
      "stateMutability": "view",
      "type": "function"
    },
    {
      "inputs": [
        {
          "internalType": "address",
          "name": "to",
          "type": "address"
        },
        {
          "internalType": "uint256",
          "name": "amount",
          "type": "uint256"
        }
      ],
      "name": "transfer",
      "outputs": [
        {
          "internalType": "bool",
          "name": "",
          "type": "bool"
        }
      ],
      "stateMutability": "nonpayable",
      "type": "function"
    },
    {
      "inputs": [
        {
          "internalType": "address",
          "name": "from",
          "type": "address"
        },
        {
          "internalType": "address",
          "name": "to",
          "type": "address"
        },
        {
          "internalType": "uint256",
          "name": "amount",
          "type": "uint256"
        }
      ],
      "name": "transferFrom",
      "outputs": [
        {
          "internalType": "bool",
          "name": "",
          "type": "bool"
        }
      ],
      "stateMutability": "nonpayable",
      "type": "function"
    },
    {
      "inputs": [
        {
          "internalType": "address",
          "name": "newOwner",
          "type": "address"
        }
      ],
      "name": "transferOwnership",
      "outputs": [],
      "stateMutability": "nonpayable",
      "type": "function"
    },
    {
      "inputs": [],
      "name": "unpause",
      "outputs": [],
      "stateMutability": "nonpayable",
      "type": "function"
    },
    {
      "inputs": [
        {
          "internalType": "uint256",
          "name": "newBurningRate",
          "type": "uint256"
        }
      ],
      "name": "updateBurningRate",
      "outputs": [],
      "stateMutability": "nonpayable",
      "type": "function"
    },
    {
      "inputs": [
        {
          "internalType": "uint256",
          "name": "tokenId",
          "type": "uint256"
        },
        {
          "internalType": "uint64",
          "name": "newStartDate",
          "type": "uint64"
        }
      ],
      "name": "updateStartOfStaking",
      "outputs": [],
      "stateMutability": "nonpayable",
      "type": "function"
    }
  ],
  "bytecode": "0x608060405266f8b0a10e4700006009553480156200001c57600080fd5b506040518060400160405280600481526020017f4c696665000000000000000000000000000000000000000000000000000000008152506040518060400160405280600481526020017f4c494645000000000000000000000000000000000000000000000000000000008152508160039080519060200190620000a192919062000396565b508060049080519060200190620000ba92919062000396565b505050620000dd620000d16200013d60201b60201c565b6200014560201b60201c565b6000600560146101000a81548160ff02191690831515021790555062000137336200010d6200020b60201b60201c565b600a6200011b9190620005e0565b626acfc06200012b919062000631565b6200021460201b60201c565b62000804565b600033905090565b6000600560009054906101000a900473ffffffffffffffffffffffffffffffffffffffff16905081600560006101000a81548173ffffffffffffffffffffffffffffffffffffffff021916908373ffffffffffffffffffffffffffffffffffffffff1602179055508173ffffffffffffffffffffffffffffffffffffffff168173ffffffffffffffffffffffffffffffffffffffff167f8be0079c531659141344cd1fd0a4f28419497f9722a3daafe3b4186f6b6457e060405160405180910390a35050565b60006012905090565b600073ffffffffffffffffffffffffffffffffffffffff168273ffffffffffffffffffffffffffffffffffffffff160362000286576040517f08c379a00000000000000000000000000000000000000000000000000000000081526004016200027d90620006f3565b60405180910390fd5b6200029a600083836200038c60201b60201c565b8060026000828254620002ae919062000715565b92505081905550806000808473ffffffffffffffffffffffffffffffffffffffff1673ffffffffffffffffffffffffffffffffffffffff168152602001908152602001600020600082825462000305919062000715565b925050819055508173ffffffffffffffffffffffffffffffffffffffff16600073ffffffffffffffffffffffffffffffffffffffff167fddf252ad1be2c89b69c2b068fc378daa952ba7f163c4a11628f55a4df523b3ef836040516200036c919062000783565b60405180910390a362000388600083836200039160201b60201c565b5050565b505050565b505050565b828054620003a490620007cf565b90600052602060002090601f016020900481019282620003c8576000855562000414565b82601f10620003e357805160ff191683800117855562000414565b8280016001018555821562000414579182015b8281111562000413578251825591602001919060010190620003f6565b5b50905062000423919062000427565b5090565b5b808211156200044257600081600090555060010162000428565b5090565b7f4e487b7100000000000000000000000000000000000000000000000000000000600052601160045260246000fd5b60008160011c9050919050565b6000808291508390505b6001851115620004d457808604811115620004ac57620004ab62000446565b5b6001851615620004bc5780820291505b8081029050620004cc8562000475565b94506200048c565b94509492505050565b600082620004ef5760019050620005c2565b81620004ff5760009050620005c2565b8160018114620005185760028114620005235762000559565b6001915050620005c2565b60ff84111562000538576200053762000446565b5b8360020a91508482111562000552576200055162000446565b5b50620005c2565b5060208310610133831016604e8410600b8410161715620005935782820a9050838111156200058d576200058c62000446565b5b620005c2565b620005a2848484600162000482565b92509050818404811115620005bc57620005bb62000446565b5b81810290505b9392505050565b6000819050919050565b600060ff82169050919050565b6000620005ed82620005c9565b9150620005fa83620005d3565b9250620006297fffffffffffffffffffffffffffffffffffffffffffffffffffffffffffffffff8484620004dd565b905092915050565b60006200063e82620005c9565b91506200064b83620005c9565b9250817fffffffffffffffffffffffffffffffffffffffffffffffffffffffffffffffff048311821515161562000687576200068662000446565b5b828202905092915050565b600082825260208201905092915050565b7f45524332303a206d696e7420746f20746865207a65726f206164647265737300600082015250565b6000620006db601f8362000692565b9150620006e882620006a3565b602082019050919050565b600060208201905081810360008301526200070e81620006cc565b9050919050565b60006200072282620005c9565b91506200072f83620005c9565b9250827fffffffffffffffffffffffffffffffffffffffffffffffffffffffffffffffff0382111562000767576200076662000446565b5b828201905092915050565b6200077d81620005c9565b82525050565b60006020820190506200079a600083018462000772565b92915050565b7f4e487b7100000000000000000000000000000000000000000000000000000000600052602260045260246000fd5b60006002820490506001821680620007e857607f821691505b602082108103620007fe57620007fd620007a0565b5b50919050565b612b0480620008146000396000f3fe608060405234801561001057600080fd5b50600436106101e55760003560e01c8063834874981161010f578063a9059cbb116100a2578063e25a7f8911610071578063e25a7f8914610558578063e64c3e9214610574578063e64de75414610592578063f2fde38b146105c2576101e5565b8063a9059cbb146104ac578063acddc783146104dc578063b2256ba0146104f8578063dd62ed3e14610528576101e5565b806395d89b41116100de57806395d89b4114610426578063a0712d6814610444578063a457c2d714610460578063a85a039314610490576101e5565b806383487498146103c65780638456cb59146103e25780638da5cb5b146103ec5780638fad26271461040a576101e5565b806330e82a58116101875780634f162e5a116101565780634f162e5a146103505780635c975abb1461036e57806370a082311461038c578063715018a6146103bc576101e5565b806330e82a58146102da578063313ce567146102f857806339509351146103165780633f4ba83a14610346576101e5565b8063125d3990116101c3578063125d3990146102545780631350746d1461027057806318160ddd1461028c57806323b872dd146102aa576101e5565b8063058d5b18146101ea57806306fdde0314610206578063095ea7b314610224575b600080fd5b61020460048036038101906101ff9190611c70565b6105de565b005b61020e610744565b60405161021b9190611d36565b60405180910390f35b61023e60048036038101906102399190611db6565b6107d6565b60405161024b9190611e11565b60405180910390f35b61026e60048036038101906102699190611e2c565b6107f9565b005b61028a60048036038101906102859190611e2c565b61084d565b005b6102946108a1565b6040516102a19190611e68565b60405180910390f35b6102c460048036038101906102bf9190611e83565b6108ab565b6040516102d19190611e11565b60405180910390f35b6102e26108da565b6040516102ef9190611ee5565b60405180910390f35b610300610904565b60405161030d9190611f1c565b60405180910390f35b610330600480360381019061032b9190611db6565b61090d565b60405161033d9190611e11565b60405180910390f35b61034e610944565b005b61035861095e565b6040516103659190611ee5565b60405180910390f35b610376610988565b6040516103839190611e11565b60405180910390f35b6103a660048036038101906103a19190611e2c565b61099f565b6040516103b39190611e68565b60405180910390f35b6103c46109e7565b005b6103e060048036038101906103db9190611db6565b6109fb565b005b6103ea610a09565b005b6103f4610a23565b6040516104019190611ee5565b60405180910390f35b610424600480360381019061041f9190611c70565b610a4d565b005b61042e610db3565b60405161043b9190611d36565b60405180910390f35b61045e60048036038101906104599190611c70565b610e45565b005b61047a60048036038101906104759190611db6565b610e5a565b6040516104879190611e11565b60405180910390f35b6104aa60048036038101906104a59190611f77565b610ed1565b005b6104c660048036038101906104c19190611db6565b610f17565b6040516104d39190611e11565b60405180910390f35b6104f660048036038101906104f19190611c70565b610f3a565b005b610512600480360381019061050d9190611c70565b610f4c565b60405161051f9190611e68565b60405180910390f35b610542600480360381019061053d9190611fb7565b611038565b60405161054f9190611e68565b60405180910390f35b610572600480360381019061056d9190611db6565b6110bf565b005b61057c6110cd565b6040516105899190611e68565b60405180910390f35b6105ac60048036038101906105a79190611c70565b6110d3565b6040516105b99190612006565b60405180910390f35b6105dc60048036038101906105d79190611e2c565b6110fa565b005b6105e661117d565b600073ffffffffffffffffffffffffffffffffffffffff16600760009054906101000a900473ffffffffffffffffffffffffffffffffffffffff1673ffffffffffffffffffffffffffffffffffffffff1603610677576040517f08c379a000000000000000000000000000000000000000000000000000000000815260040161066e9061206d565b60405180910390fd5b600760009054906101000a900473ffffffffffffffffffffffffffffffffffffffff1673ffffffffffffffffffffffffffffffffffffffff163373ffffffffffffffffffffffffffffffffffffffff1614610707576040517f08c379a00000000000000000000000000000000000000000000000000000000081526004016106fe906120d9565b60405180910390fd5b426006600083815260200190815260200160002060006101000a81548167ffffffffffffffff021916908367ffffffffffffffff16021790555050565b60606003805461075390612128565b80601f016020809104026020016040519081016040528092919081815260200182805461077f90612128565b80156107cc5780601f106107a1576101008083540402835291602001916107cc565b820191906000526020600020905b8154815290600101906020018083116107af57829003601f168201915b5050505050905090565b6000806107e16111c7565b90506107ee8185856111cf565b600191505092915050565b610801611398565b61080961117d565b80600760006101000a81548173ffffffffffffffffffffffffffffffffffffffff021916908373ffffffffffffffffffffffffffffffffffffffff16021790555050565b610855611398565b61085d61117d565b80600860006101000a81548173ffffffffffffffffffffffffffffffffffffffff021916908373ffffffffffffffffffffffffffffffffffffffff16021790555050565b6000600254905090565b6000806108b66111c7565b90506108c3858285611416565b6108ce8585856114a2565b60019150509392505050565b6000600760009054906101000a900473ffffffffffffffffffffffffffffffffffffffff16905090565b60006012905090565b6000806109186111c7565b905061093981858561092a8589611038565b6109349190612188565b6111cf565b600191505092915050565b61094c611721565b610954611398565b61095c61176a565b565b6000600860009054906101000a900473ffffffffffffffffffffffffffffffffffffffff16905090565b6000600560149054906101000a900460ff16905090565b60008060008373ffffffffffffffffffffffffffffffffffffffff1673ffffffffffffffffffffffffffffffffffffffff168152602001908152602001600020549050919050565b6109ef611398565b6109f960006117cd565b565b610a058282611893565b5050565b610a1161117d565b610a19611398565b610a216119f2565b565b6000600560009054906101000a900473ffffffffffffffffffffffffffffffffffffffff16905090565b610a5561117d565b600073ffffffffffffffffffffffffffffffffffffffff16600760009054906101000a900473ffffffffffffffffffffffffffffffffffffffff1673ffffffffffffffffffffffffffffffffffffffff1603610ae6576040517f08c379a0000000000000000000000000000000000000000000000000000000008152600401610add9061206d565b60405180910390fd5b610aee610a23565b73ffffffffffffffffffffffffffffffffffffffff16600760009054906101000a900473ffffffffffffffffffffffffffffffffffffffff1673ffffffffffffffffffffffffffffffffffffffff16636352211e836040518263ffffffff1660e01b8152600401610b5f9190611e68565b602060405180830381865afa158015610b7c573d6000803e3d6000fd5b505050506040513d601f19601f82011682018060405250810190610ba091906121f3565b73ffffffffffffffffffffffffffffffffffffffff1603610bf6576040517f08c379a0000000000000000000000000000000000000000000000000000000008152600401610bed9061226c565b60405180910390fd5b610bfe610a23565b73ffffffffffffffffffffffffffffffffffffffff163373ffffffffffffffffffffffffffffffffffffffff161480610cfd5750600760009054906101000a900473ffffffffffffffffffffffffffffffffffffffff1673ffffffffffffffffffffffffffffffffffffffff16636352211e826040518263ffffffff1660e01b8152600401610c8d9190611e68565b602060405180830381865afa158015610caa573d6000803e3d6000fd5b505050506040513d601f19601f82011682018060405250810190610cce91906121f3565b73ffffffffffffffffffffffffffffffffffffffff163373ffffffffffffffffffffffffffffffffffffffff16145b15610db057610daf600760009054906101000a900473ffffffffffffffffffffffffffffffffffffffff1673ffffffffffffffffffffffffffffffffffffffff16636352211e836040518263ffffffff1660e01b8152600401610d609190611e68565b602060405180830381865afa158015610d7d573d6000803e3d6000fd5b505050506040513d601f19601f82011682018060405250810190610da191906121f3565b610daa83610f4c565b611893565b5b50565b606060048054610dc290612128565b80601f0160208091040260200160405190810160405280929190818152602001828054610dee90612128565b8015610e3b5780601f10610e1057610100808354040283529160200191610e3b565b820191906000526020600020905b815481529060010190602001808311610e1e57829003601f168201915b5050505050905090565b610e4d611398565b610e573382611893565b50565b600080610e656111c7565b90506000610e738286611038565b905083811015610eb8576040517f08c379a0000000000000000000000000000000000000000000000000000000008152600401610eaf906122fe565b60405180910390fd5b610ec582868684036111cf565b60019250505092915050565b610ed9611398565b806006600084815260200190815260200160002060006101000a81548167ffffffffffffffff021916908367ffffffffffffffff1602179055505050565b600080610f226111c7565b9050610f2f8185856114a2565b600191505092915050565b610f42611398565b8060098190555050565b6000600760009054906101000a900473ffffffffffffffffffffffffffffffffffffffff1673ffffffffffffffffffffffffffffffffffffffff16631b61f17e836040518263ffffffff1660e01b8152600401610fa99190611e68565b602060405180830381865afa158015610fc6573d6000803e3d6000fd5b505050506040513d601f19601f82011682018060405250810190610fea9190612333565b6006600084815260200190815260200160002060009054906101000a900467ffffffffffffffff164261101d9190612360565b67ffffffffffffffff166110319190612394565b9050919050565b6000600160008473ffffffffffffffffffffffffffffffffffffffff1673ffffffffffffffffffffffffffffffffffffffff16815260200190815260200160002060008373ffffffffffffffffffffffffffffffffffffffff1673ffffffffffffffffffffffffffffffffffffffff16815260200190815260200160002054905092915050565b6110c98282611a55565b5050565b60095481565b60066020528060005260406000206000915054906101000a900467ffffffffffffffff1681565b611102611398565b600073ffffffffffffffffffffffffffffffffffffffff168173ffffffffffffffffffffffffffffffffffffffff1603611171576040517f08c379a000000000000000000000000000000000000000000000000000000000815260040161116890612460565b60405180910390fd5b61117a816117cd565b50565b611185610988565b156111c5576040517f08c379a00000000000000000000000000000000000000000000000000000000081526004016111bc906124cc565b60405180910390fd5b565b600033905090565b600073ffffffffffffffffffffffffffffffffffffffff168373ffffffffffffffffffffffffffffffffffffffff160361123e576040517f08c379a00000000000000000000000000000000000000000000000000000000081526004016112359061255e565b60405180910390fd5b600073ffffffffffffffffffffffffffffffffffffffff168273ffffffffffffffffffffffffffffffffffffffff16036112ad576040517f08c379a00000000000000000000000000000000000000000000000000000000081526004016112a4906125f0565b60405180910390fd5b80600160008573ffffffffffffffffffffffffffffffffffffffff1673ffffffffffffffffffffffffffffffffffffffff16815260200190815260200160002060008473ffffffffffffffffffffffffffffffffffffffff1673ffffffffffffffffffffffffffffffffffffffff168152602001908152602001600020819055508173ffffffffffffffffffffffffffffffffffffffff168373ffffffffffffffffffffffffffffffffffffffff167f8c5be1e5ebec7d5bd14f71427d1e84f3dd0314c0f7b2291e5b200ac8c7c3b9258360405161138b9190611e68565b60405180910390a3505050565b6113a06111c7565b73ffffffffffffffffffffffffffffffffffffffff166113be610a23565b73ffffffffffffffffffffffffffffffffffffffff1614611414576040517f08c379a000000000000000000000000000000000000000000000000000000000815260040161140b9061265c565b60405180910390fd5b565b60006114228484611038565b90507fffffffffffffffffffffffffffffffffffffffffffffffffffffffffffffffff811461149c578181101561148e576040517f08c379a0000000000000000000000000000000000000000000000000000000008152600401611485906126c8565b60405180910390fd5b61149b84848484036111cf565b5b50505050565b600073ffffffffffffffffffffffffffffffffffffffff168373ffffffffffffffffffffffffffffffffffffffff1603611511576040517f08c379a00000000000000000000000000000000000000000000000000000000081526004016115089061275a565b60405180910390fd5b600073ffffffffffffffffffffffffffffffffffffffff168273ffffffffffffffffffffffffffffffffffffffff1603611580576040517f08c379a0000000000000000000000000000000000000000000000000000000008152600401611577906127ec565b60405180910390fd5b61158b838383611c2b565b60008060008573ffffffffffffffffffffffffffffffffffffffff1673ffffffffffffffffffffffffffffffffffffffff16815260200190815260200160002054905081811015611611576040517f08c379a00000000000000000000000000000000000000000000000000000000081526004016116089061287e565b60405180910390fd5b8181036000808673ffffffffffffffffffffffffffffffffffffffff1673ffffffffffffffffffffffffffffffffffffffff16815260200190815260200160002081905550816000808573ffffffffffffffffffffffffffffffffffffffff1673ffffffffffffffffffffffffffffffffffffffff16815260200190815260200160002060008282546116a49190612188565b925050819055508273ffffffffffffffffffffffffffffffffffffffff168473ffffffffffffffffffffffffffffffffffffffff167fddf252ad1be2c89b69c2b068fc378daa952ba7f163c4a11628f55a4df523b3ef846040516117089190611e68565b60405180910390a361171b848484611c30565b50505050565b611729610988565b611768576040517f08c379a000000000000000000000000000000000000000000000000000000000815260040161175f906128ea565b60405180910390fd5b565b611772611721565b6000600560146101000a81548160ff0219169083151502179055507f5db9ee0a495bf2e6ff9c91a7834c1ba4fdd244a5e8aa4e537bd38aeae4b073aa6117b66111c7565b6040516117c39190611ee5565b60405180910390a1565b6000600560009054906101000a900473ffffffffffffffffffffffffffffffffffffffff16905081600560006101000a81548173ffffffffffffffffffffffffffffffffffffffff021916908373ffffffffffffffffffffffffffffffffffffffff1602179055508173ffffffffffffffffffffffffffffffffffffffff168173ffffffffffffffffffffffffffffffffffffffff167f8be0079c531659141344cd1fd0a4f28419497f9722a3daafe3b4186f6b6457e060405160405180910390a35050565b600073ffffffffffffffffffffffffffffffffffffffff168273ffffffffffffffffffffffffffffffffffffffff1603611902576040517f08c379a00000000000000000000000000000000000000000000000000000000081526004016118f990612956565b60405180910390fd5b61190e60008383611c2b565b80600260008282546119209190612188565b92505081905550806000808473ffffffffffffffffffffffffffffffffffffffff1673ffffffffffffffffffffffffffffffffffffffff16815260200190815260200160002060008282546119759190612188565b925050819055508173ffffffffffffffffffffffffffffffffffffffff16600073ffffffffffffffffffffffffffffffffffffffff167fddf252ad1be2c89b69c2b068fc378daa952ba7f163c4a11628f55a4df523b3ef836040516119da9190611e68565b60405180910390a36119ee60008383611c30565b5050565b6119fa61117d565b6001600560146101000a81548160ff0219169083151502179055507f62e78cea01bee320cd4e420270b5ea74000d11b0c9f74754ebdbfc544b05a258611a3e6111c7565b604051611a4b9190611ee5565b60405180910390a1565b600073ffffffffffffffffffffffffffffffffffffffff168273ffffffffffffffffffffffffffffffffffffffff1603611ac4576040517f08c379a0000000000000000000000000000000000000000000000000000000008152600401611abb906129e8565b60405180910390fd5b611ad082600083611c2b565b60008060008473ffffffffffffffffffffffffffffffffffffffff1673ffffffffffffffffffffffffffffffffffffffff16815260200190815260200160002054905081811015611b56576040517f08c379a0000000000000000000000000000000000000000000000000000000008152600401611b4d90612a7a565b60405180910390fd5b8181036000808573ffffffffffffffffffffffffffffffffffffffff1673ffffffffffffffffffffffffffffffffffffffff168152602001908152602001600020819055508160026000828254611bad9190612a9a565b92505081905550600073ffffffffffffffffffffffffffffffffffffffff168373ffffffffffffffffffffffffffffffffffffffff167fddf252ad1be2c89b69c2b068fc378daa952ba7f163c4a11628f55a4df523b3ef84604051611c129190611e68565b60405180910390a3611c2683600084611c30565b505050565b505050565b505050565b600080fd5b6000819050919050565b611c4d81611c3a565b8114611c5857600080fd5b50565b600081359050611c6a81611c44565b92915050565b600060208284031215611c8657611c85611c35565b5b6000611c9484828501611c5b565b91505092915050565b600081519050919050565b600082825260208201905092915050565b60005b83811015611cd7578082015181840152602081019050611cbc565b83811115611ce6576000848401525b50505050565b6000601f19601f8301169050919050565b6000611d0882611c9d565b611d128185611ca8565b9350611d22818560208601611cb9565b611d2b81611cec565b840191505092915050565b60006020820190508181036000830152611d508184611cfd565b905092915050565b600073ffffffffffffffffffffffffffffffffffffffff82169050919050565b6000611d8382611d58565b9050919050565b611d9381611d78565b8114611d9e57600080fd5b50565b600081359050611db081611d8a565b92915050565b60008060408385031215611dcd57611dcc611c35565b5b6000611ddb85828601611da1565b9250506020611dec85828601611c5b565b9150509250929050565b60008115159050919050565b611e0b81611df6565b82525050565b6000602082019050611e266000830184611e02565b92915050565b600060208284031215611e4257611e41611c35565b5b6000611e5084828501611da1565b91505092915050565b611e6281611c3a565b82525050565b6000602082019050611e7d6000830184611e59565b92915050565b600080600060608486031215611e9c57611e9b611c35565b5b6000611eaa86828701611da1565b9350506020611ebb86828701611da1565b9250506040611ecc86828701611c5b565b9150509250925092565b611edf81611d78565b82525050565b6000602082019050611efa6000830184611ed6565b92915050565b600060ff82169050919050565b611f1681611f00565b82525050565b6000602082019050611f316000830184611f0d565b92915050565b600067ffffffffffffffff82169050919050565b611f5481611f37565b8114611f5f57600080fd5b50565b600081359050611f7181611f4b565b92915050565b60008060408385031215611f8e57611f8d611c35565b5b6000611f9c85828601611c5b565b9250506020611fad85828601611f62565b9150509250929050565b60008060408385031215611fce57611fcd611c35565b5b6000611fdc85828601611da1565b9250506020611fed85828601611da1565b9150509250929050565b61200081611f37565b82525050565b600060208201905061201b6000830184611ff7565b92915050565b7f4d616e6167654c69666520746f6b656e206973206e6f74207365740000000000600082015250565b6000612057601b83611ca8565b915061206282612021565b602082019050919050565b600060208201905081810360008301526120868161204a565b9050919050565b7f4f6e6c79204d616e6167654c69666520746f6b656e0000000000000000000000600082015250565b60006120c3601583611ca8565b91506120ce8261208d565b602082019050919050565b600060208201905081810360008301526120f2816120b6565b9050919050565b7f4e487b7100000000000000000000000000000000000000000000000000000000600052602260045260246000fd5b6000600282049050600182168061214057607f821691505b602082108103612153576121526120f9565b5b50919050565b7f4e487b7100000000000000000000000000000000000000000000000000000000600052601160045260246000fd5b600061219382611c3a565b915061219e83611c3a565b9250827fffffffffffffffffffffffffffffffffffffffffffffffffffffffffffffffff038211156121d3576121d2612159565b5b828201905092915050565b6000815190506121ed81611d8a565b92915050565b60006020828403121561220957612208611c35565b5b6000612217848285016121de565b91505092915050565b7f506c6174666f726d57616c6c65742063616e6e6f7420636c61696d0000000000600082015250565b6000612256601b83611ca8565b915061226182612220565b602082019050919050565b6000602082019050818103600083015261228581612249565b9050919050565b7f45524332303a2064656372656173656420616c6c6f77616e63652062656c6f7760008201527f207a65726f000000000000000000000000000000000000000000000000000000602082015250565b60006122e8602583611ca8565b91506122f38261228c565b604082019050919050565b60006020820190508181036000830152612317816122db565b9050919050565b60008151905061232d81611c44565b92915050565b60006020828403121561234957612348611c35565b5b60006123578482850161231e565b91505092915050565b600061236b82611f37565b915061237683611f37565b92508282101561238957612388612159565b5b828203905092915050565b600061239f82611c3a565b91506123aa83611c3a565b9250817fffffffffffffffffffffffffffffffffffffffffffffffffffffffffffffffff04831182151516156123e3576123e2612159565b5b828202905092915050565b7f4f776e61626c653a206e6577206f776e657220697320746865207a65726f206160008201527f6464726573730000000000000000000000000000000000000000000000000000602082015250565b600061244a602683611ca8565b9150612455826123ee565b604082019050919050565b600060208201905081810360008301526124798161243d565b9050919050565b7f5061757361626c653a2070617573656400000000000000000000000000000000600082015250565b60006124b6601083611ca8565b91506124c182612480565b602082019050919050565b600060208201905081810360008301526124e5816124a9565b9050919050565b7f45524332303a20617070726f76652066726f6d20746865207a65726f2061646460008201527f7265737300000000000000000000000000000000000000000000000000000000602082015250565b6000612548602483611ca8565b9150612553826124ec565b604082019050919050565b600060208201905081810360008301526125778161253b565b9050919050565b7f45524332303a20617070726f766520746f20746865207a65726f20616464726560008201527f7373000000000000000000000000000000000000000000000000000000000000602082015250565b60006125da602283611ca8565b91506125e58261257e565b604082019050919050565b60006020820190508181036000830152612609816125cd565b9050919050565b7f4f776e61626c653a2063616c6c6572206973206e6f7420746865206f776e6572600082015250565b6000612646602083611ca8565b915061265182612610565b602082019050919050565b6000602082019050818103600083015261267581612639565b9050919050565b7f45524332303a20696e73756666696369656e7420616c6c6f77616e6365000000600082015250565b60006126b2601d83611ca8565b91506126bd8261267c565b602082019050919050565b600060208201905081810360008301526126e1816126a5565b9050919050565b7f45524332303a207472616e736665722066726f6d20746865207a65726f20616460008201527f6472657373000000000000000000000000000000000000000000000000000000602082015250565b6000612744602583611ca8565b915061274f826126e8565b604082019050919050565b6000602082019050818103600083015261277381612737565b9050919050565b7f45524332303a207472616e7366657220746f20746865207a65726f206164647260008201527f6573730000000000000000000000000000000000000000000000000000000000602082015250565b60006127d6602383611ca8565b91506127e18261277a565b604082019050919050565b60006020820190508181036000830152612805816127c9565b9050919050565b7f45524332303a207472616e7366657220616d6f756e742065786365656473206260008201527f616c616e63650000000000000000000000000000000000000000000000000000602082015250565b6000612868602683611ca8565b91506128738261280c565b604082019050919050565b600060208201905081810360008301526128978161285b565b9050919050565b7f5061757361626c653a206e6f7420706175736564000000000000000000000000600082015250565b60006128d4601483611ca8565b91506128df8261289e565b602082019050919050565b60006020820190508181036000830152612903816128c7565b9050919050565b7f45524332303a206d696e7420746f20746865207a65726f206164647265737300600082015250565b6000612940601f83611ca8565b915061294b8261290a565b602082019050919050565b6000602082019050818103600083015261296f81612933565b9050919050565b7f45524332303a206275726e2066726f6d20746865207a65726f2061646472657360008201527f7300000000000000000000000000000000000000000000000000000000000000602082015250565b60006129d2602183611ca8565b91506129dd82612976565b604082019050919050565b60006020820190508181036000830152612a01816129c5565b9050919050565b7f45524332303a206275726e20616d6f756e7420657863656564732062616c616e60008201527f6365000000000000000000000000000000000000000000000000000000000000602082015250565b6000612a64602283611ca8565b9150612a6f82612a08565b604082019050919050565b60006020820190508181036000830152612a9381612a57565b9050919050565b6000612aa582611c3a565b9150612ab083611c3a565b925082821015612ac357612ac2612159565b5b82820390509291505056fea26469706673582212205221598a7ca29bfc2fe0841574f16b156896efbab1ea3eb61b78cfb2dc4f70d364736f6c634300080d0033",
  "linkReferences": {},
  "deployedLinkReferences": {}
}