{
  "_format": "hh-sol-artifact-1",
  "contractName": "Life",
  "sourceName": "contracts/Life.sol",
  "abi": [
    {
      "inputs": [],
      "stateMutability": "nonpayable",
      "type": "constructor"
    },
    {
      "anonymous": false,
      "inputs": [
        {
          "indexed": true,
          "internalType": "address",
          "name": "owner",
          "type": "address"
        },
        {
          "indexed": true,
          "internalType": "address",
          "name": "spender",
          "type": "address"
        },
        {
          "indexed": false,
          "internalType": "uint256",
          "name": "value",
          "type": "uint256"
        }
      ],
      "name": "Approval",
      "type": "event"
    },
    {
      "anonymous": false,
      "inputs": [
        {
          "indexed": true,
          "internalType": "address",
          "name": "previousOwner",
          "type": "address"
        },
        {
          "indexed": true,
          "internalType": "address",
          "name": "newOwner",
          "type": "address"
        }
      ],
      "name": "OwnershipTransferred",
      "type": "event"
    },
    {
      "anonymous": false,
      "inputs": [
        {
          "indexed": false,
          "internalType": "address",
          "name": "account",
          "type": "address"
        }
      ],
      "name": "Paused",
      "type": "event"
    },
    {
      "anonymous": false,
      "inputs": [
        {
          "indexed": true,
          "internalType": "address",
          "name": "from",
          "type": "address"
        },
        {
          "indexed": true,
          "internalType": "address",
          "name": "to",
          "type": "address"
        },
        {
          "indexed": false,
          "internalType": "uint256",
          "name": "value",
          "type": "uint256"
        }
      ],
      "name": "Transfer",
      "type": "event"
    },
    {
      "anonymous": false,
      "inputs": [
        {
          "indexed": false,
          "internalType": "address",
          "name": "account",
          "type": "address"
        }
      ],
      "name": "Unpaused",
      "type": "event"
    },
    {
      "inputs": [
        {
          "internalType": "address",
          "name": "owner",
          "type": "address"
        },
        {
          "internalType": "address",
          "name": "spender",
          "type": "address"
        }
      ],
      "name": "allowance",
      "outputs": [
        {
          "internalType": "uint256",
          "name": "",
          "type": "uint256"
        }
      ],
      "stateMutability": "view",
      "type": "function"
    },
    {
      "inputs": [
        {
          "internalType": "address",
          "name": "spender",
          "type": "address"
        },
        {
          "internalType": "uint256",
          "name": "amount",
          "type": "uint256"
        }
      ],
      "name": "approve",
      "outputs": [
        {
          "internalType": "bool",
          "name": "",
          "type": "bool"
        }
      ],
      "stateMutability": "nonpayable",
      "type": "function"
    },
    {
      "inputs": [
        {
          "internalType": "address",
          "name": "account",
          "type": "address"
        }
      ],
      "name": "balanceOf",
      "outputs": [
        {
          "internalType": "uint256",
          "name": "",
          "type": "uint256"
        }
      ],
      "stateMutability": "view",
      "type": "function"
    },
    {
      "inputs": [
        {
          "internalType": "uint256[]",
          "name": "tokenIds",
          "type": "uint256[]"
        }
      ],
      "name": "batchClaimStakingRewards",
      "outputs": [],
      "stateMutability": "nonpayable",
      "type": "function"
    },
    {
      "inputs": [
        {
          "internalType": "uint256[]",
          "name": "tokenIds",
          "type": "uint256[]"
        }
      ],
      "name": "batchClaimableStakingRewards",
      "outputs": [
        {
          "internalType": "uint256",
          "name": "",
          "type": "uint256"
        }
      ],
      "stateMutability": "view",
      "type": "function"
    },
    {
      "inputs": [
        {
          "internalType": "address",
          "name": "from",
          "type": "address"
        },
        {
          "internalType": "uint256",
          "name": "amount",
          "type": "uint256"
        }
      ],
      "name": "burnLifeTokens",
      "outputs": [],
      "stateMutability": "nonpayable",
      "type": "function"
    },
    {
      "inputs": [],
      "name": "burningRate",
      "outputs": [
        {
          "internalType": "uint256",
          "name": "",
          "type": "uint256"
        }
      ],
      "stateMutability": "view",
      "type": "function"
    },
    {
      "inputs": [
        {
          "internalType": "uint256",
          "name": "tokenId",
          "type": "uint256"
        }
      ],
      "name": "claimStakingRewards",
      "outputs": [],
      "stateMutability": "nonpayable",
      "type": "function"
    },
    {
      "inputs": [
        {
          "internalType": "uint256",
          "name": "tokenId",
          "type": "uint256"
        }
      ],
      "name": "claimableStakingRewards",
      "outputs": [
        {
          "internalType": "uint256",
          "name": "",
          "type": "uint256"
        }
      ],
      "stateMutability": "view",
      "type": "function"
    },
    {
      "inputs": [],
      "name": "decimals",
      "outputs": [
        {
          "internalType": "uint8",
          "name": "",
          "type": "uint8"
        }
      ],
      "stateMutability": "view",
      "type": "function"
    },
    {
      "inputs": [
        {
          "internalType": "address",
          "name": "spender",
          "type": "address"
        },
        {
          "internalType": "uint256",
          "name": "subtractedValue",
          "type": "uint256"
        }
      ],
      "name": "decreaseAllowance",
      "outputs": [
        {
          "internalType": "bool",
          "name": "",
          "type": "bool"
        }
      ],
      "stateMutability": "nonpayable",
      "type": "function"
    },
    {
      "inputs": [
        {
          "internalType": "address",
          "name": "spender",
          "type": "address"
        },
        {
          "internalType": "uint256",
          "name": "addedValue",
          "type": "uint256"
        }
      ],
      "name": "increaseAllowance",
      "outputs": [
        {
          "internalType": "bool",
          "name": "",
          "type": "bool"
        }
      ],
      "stateMutability": "nonpayable",
      "type": "function"
    },
    {
      "inputs": [
        {
          "internalType": "uint256",
          "name": "tokenId",
          "type": "uint256"
        }
      ],
      "name": "initStakingRewards",
      "outputs": [],
      "stateMutability": "nonpayable",
      "type": "function"
    },
    {
      "inputs": [],
      "name": "manageLifeInvestorsNft",
      "outputs": [
        {
          "internalType": "address",
          "name": "",
          "type": "address"
        }
      ],
      "stateMutability": "view",
      "type": "function"
    },
    {
      "inputs": [],
      "name": "manageLifeToken",
      "outputs": [
        {
          "internalType": "address",
          "name": "",
          "type": "address"
        }
      ],
      "stateMutability": "view",
      "type": "function"
    },
    {
      "inputs": [
        {
          "internalType": "uint256",
          "name": "_amount",
          "type": "uint256"
        }
      ],
      "name": "mint",
      "outputs": [],
      "stateMutability": "nonpayable",
      "type": "function"
    },
    {
      "inputs": [
        {
          "internalType": "address",
          "name": "investorAddress",
          "type": "address"
        },
        {
          "internalType": "uint256",
          "name": "_amount",
          "type": "uint256"
        }
      ],
      "name": "mintInvestorsRewards",
      "outputs": [],
      "stateMutability": "nonpayable",
      "type": "function"
    },
    {
      "inputs": [],
      "name": "name",
      "outputs": [
        {
          "internalType": "string",
          "name": "",
          "type": "string"
        }
      ],
      "stateMutability": "view",
      "type": "function"
    },
    {
      "inputs": [],
      "name": "owner",
      "outputs": [
        {
          "internalType": "address",
          "name": "",
          "type": "address"
        }
      ],
      "stateMutability": "view",
      "type": "function"
    },
    {
      "inputs": [],
      "name": "pause",
      "outputs": [],
      "stateMutability": "nonpayable",
      "type": "function"
    },
    {
      "inputs": [],
      "name": "paused",
      "outputs": [
        {
          "internalType": "bool",
          "name": "",
          "type": "bool"
        }
      ],
      "stateMutability": "view",
      "type": "function"
    },
    {
      "inputs": [],
      "name": "renounceOwnership",
      "outputs": [],
      "stateMutability": "nonpayable",
      "type": "function"
    },
    {
      "inputs": [
        {
          "internalType": "address",
          "name": "manageLifeToken_",
          "type": "address"
        }
      ],
      "name": "setManageLifeToken",
      "outputs": [],
      "stateMutability": "nonpayable",
      "type": "function"
    },
    {
      "inputs": [
        {
          "internalType": "address",
          "name": "investorsNft_",
          "type": "address"
        }
      ],
      "name": "setNftiToken",
      "outputs": [],
      "stateMutability": "nonpayable",
      "type": "function"
    },
    {
      "inputs": [
        {
          "internalType": "uint256",
          "name": "",
          "type": "uint256"
        }
      ],
      "name": "startOfStakingRewards",
      "outputs": [
        {
          "internalType": "uint64",
          "name": "",
          "type": "uint64"
        }
      ],
      "stateMutability": "view",
      "type": "function"
    },
    {
      "inputs": [],
      "name": "symbol",
      "outputs": [
        {
          "internalType": "string",
          "name": "",
          "type": "string"
        }
      ],
      "stateMutability": "view",
      "type": "function"
    },
    {
      "inputs": [],
      "name": "totalSupply",
      "outputs": [
        {
          "internalType": "uint256",
          "name": "",
          "type": "uint256"
        }
      ],
      "stateMutability": "view",
      "type": "function"
    },
    {
      "inputs": [
        {
          "internalType": "address",
          "name": "to",
          "type": "address"
        },
        {
          "internalType": "uint256",
          "name": "amount",
          "type": "uint256"
        }
      ],
      "name": "transfer",
      "outputs": [
        {
          "internalType": "bool",
          "name": "",
          "type": "bool"
        }
      ],
      "stateMutability": "nonpayable",
      "type": "function"
    },
    {
      "inputs": [
        {
          "internalType": "address",
          "name": "from",
          "type": "address"
        },
        {
          "internalType": "address",
          "name": "to",
          "type": "address"
        },
        {
          "internalType": "uint256",
          "name": "amount",
          "type": "uint256"
        }
      ],
      "name": "transferFrom",
      "outputs": [
        {
          "internalType": "bool",
          "name": "",
          "type": "bool"
        }
      ],
      "stateMutability": "nonpayable",
      "type": "function"
    },
    {
      "inputs": [
        {
          "internalType": "address",
          "name": "newOwner",
          "type": "address"
        }
      ],
      "name": "transferOwnership",
      "outputs": [],
      "stateMutability": "nonpayable",
      "type": "function"
    },
    {
      "inputs": [],
      "name": "unpause",
      "outputs": [],
      "stateMutability": "nonpayable",
      "type": "function"
    },
    {
      "inputs": [
        {
          "internalType": "uint256",
          "name": "newBurningRate",
          "type": "uint256"
        }
      ],
      "name": "updateBurningRate",
      "outputs": [],
      "stateMutability": "nonpayable",
      "type": "function"
    },
    {
      "inputs": [
        {
          "internalType": "uint256",
          "name": "tokenId",
          "type": "uint256"
        },
        {
          "internalType": "uint64",
          "name": "newStartDate",
          "type": "uint64"
        }
      ],
      "name": "updateStartOfStaking",
      "outputs": [],
      "stateMutability": "nonpayable",
      "type": "function"
    }
  ],
  "bytecode": "0x608060405266f8b0a10e4700006009553480156200001c57600080fd5b506040518060400160405280600481526020017f4c696665000000000000000000000000000000000000000000000000000000008152506040518060400160405280600481526020017f4c494645000000000000000000000000000000000000000000000000000000008152508160039080519060200190620000a192919062000396565b508060049080519060200190620000ba92919062000396565b505050620000dd620000d16200013d60201b60201c565b6200014560201b60201c565b6000600560146101000a81548160ff02191690831515021790555062000137336200010d6200020b60201b60201c565b600a6200011b9190620005e0565b626acfc06200012b919062000631565b6200021460201b60201c565b62000804565b600033905090565b6000600560009054906101000a900473ffffffffffffffffffffffffffffffffffffffff16905081600560006101000a81548173ffffffffffffffffffffffffffffffffffffffff021916908373ffffffffffffffffffffffffffffffffffffffff1602179055508173ffffffffffffffffffffffffffffffffffffffff168173ffffffffffffffffffffffffffffffffffffffff167f8be0079c531659141344cd1fd0a4f28419497f9722a3daafe3b4186f6b6457e060405160405180910390a35050565b60006012905090565b600073ffffffffffffffffffffffffffffffffffffffff168273ffffffffffffffffffffffffffffffffffffffff160362000286576040517f08c379a00000000000000000000000000000000000000000000000000000000081526004016200027d90620006f3565b60405180910390fd5b6200029a600083836200038c60201b60201c565b8060026000828254620002ae919062000715565b92505081905550806000808473ffffffffffffffffffffffffffffffffffffffff1673ffffffffffffffffffffffffffffffffffffffff168152602001908152602001600020600082825462000305919062000715565b925050819055508173ffffffffffffffffffffffffffffffffffffffff16600073ffffffffffffffffffffffffffffffffffffffff167fddf252ad1be2c89b69c2b068fc378daa952ba7f163c4a11628f55a4df523b3ef836040516200036c919062000783565b60405180910390a362000388600083836200039160201b60201c565b5050565b505050565b505050565b828054620003a490620007cf565b90600052602060002090601f016020900481019282620003c8576000855562000414565b82601f10620003e357805160ff191683800117855562000414565b8280016001018555821562000414579182015b8281111562000413578251825591602001919060010190620003f6565b5b50905062000423919062000427565b5090565b5b808211156200044257600081600090555060010162000428565b5090565b7f4e487b7100000000000000000000000000000000000000000000000000000000600052601160045260246000fd5b60008160011c9050919050565b6000808291508390505b6001851115620004d457808604811115620004ac57620004ab62000446565b5b6001851615620004bc5780820291505b8081029050620004cc8562000475565b94506200048c565b94509492505050565b600082620004ef5760019050620005c2565b81620004ff5760009050620005c2565b8160018114620005185760028114620005235762000559565b6001915050620005c2565b60ff84111562000538576200053762000446565b5b8360020a91508482111562000552576200055162000446565b5b50620005c2565b5060208310610133831016604e8410600b8410161715620005935782820a9050838111156200058d576200058c62000446565b5b620005c2565b620005a2848484600162000482565b92509050818404811115620005bc57620005bb62000446565b5b81810290505b9392505050565b6000819050919050565b600060ff82169050919050565b6000620005ed82620005c9565b9150620005fa83620005d3565b9250620006297fffffffffffffffffffffffffffffffffffffffffffffffffffffffffffffffff8484620004dd565b905092915050565b60006200063e82620005c9565b91506200064b83620005c9565b9250817fffffffffffffffffffffffffffffffffffffffffffffffffffffffffffffffff048311821515161562000687576200068662000446565b5b828202905092915050565b600082825260208201905092915050565b7f45524332303a206d696e7420746f20746865207a65726f206164647265737300600082015250565b6000620006db601f8362000692565b9150620006e882620006a3565b602082019050919050565b600060208201905081810360008301526200070e81620006cc565b9050919050565b60006200072282620005c9565b91506200072f83620005c9565b9250827fffffffffffffffffffffffffffffffffffffffffffffffffffffffffffffffff0382111562000767576200076662000446565b5b828201905092915050565b6200077d81620005c9565b82525050565b60006020820190506200079a600083018462000772565b92915050565b7f4e487b7100000000000000000000000000000000000000000000000000000000600052602260045260246000fd5b60006002820490506001821680620007e857607f821691505b602082108103620007fe57620007fd620007a0565b5b50919050565b612efd80620008146000396000f3fe608060405234801561001057600080fd5b50600436106101fb5760003560e01c80638456cb591161011a578063acddc783116100ad578063e25a7f891161007c578063e25a7f891461058a578063e64c3e92146105a6578063e64de754146105c4578063f13e3d5b146105f4578063f2fde38b14610624576101fb565b8063acddc783146104f2578063b2256ba01461050e578063b9d081271461053e578063dd62ed3e1461055a576101fb565b8063a0712d68116100e9578063a0712d681461045a578063a457c2d714610476578063a85a0393146104a6578063a9059cbb146104c2576101fb565b80638456cb59146103f85780638da5cb5b146104025780638fad26271461042057806395d89b411461043c576101fb565b8063313ce567116101925780635c975abb116101615780635c975abb1461038457806370a08231146103a2578063715018a6146103d257806383487498146103dc576101fb565b8063313ce5671461030e578063395093511461032c5780633f4ba83a1461035c5780634f162e5a14610366576101fb565b80631350746d116101ce5780631350746d1461028657806318160ddd146102a257806323b872dd146102c057806330e82a58146102f0576101fb565b8063058d5b181461020057806306fdde031461021c578063095ea7b31461023a578063125d39901461026a575b600080fd5b61021a60048036038101906102159190611e01565b610640565b005b6102246107a6565b6040516102319190611ec7565b60405180910390f35b610254600480360381019061024f9190611f47565b610838565b6040516102619190611fa2565b60405180910390f35b610284600480360381019061027f9190611fbd565b61085b565b005b6102a0600480360381019061029b9190611fbd565b6108af565b005b6102aa610903565b6040516102b79190611ff9565b60405180910390f35b6102da60048036038101906102d59190612014565b61090d565b6040516102e79190611fa2565b60405180910390f35b6102f861093c565b6040516103059190612076565b60405180910390f35b610316610966565b60405161032391906120ad565b60405180910390f35b61034660048036038101906103419190611f47565b61096f565b6040516103539190611fa2565b60405180910390f35b6103646109a6565b005b61036e6109c0565b60405161037b9190612076565b60405180910390f35b61038c6109ea565b6040516103999190611fa2565b60405180910390f35b6103bc60048036038101906103b79190611fbd565b610a01565b6040516103c99190611ff9565b60405180910390f35b6103da610a49565b005b6103f660048036038101906103f19190611f47565b610a5d565b005b610400610a6b565b005b61040a610a85565b6040516104179190612076565b60405180910390f35b61043a60048036038101906104359190611e01565b610aaf565b005b610444610e87565b6040516104519190611ec7565b60405180910390f35b610474600480360381019061046f9190611e01565b610f19565b005b610490600480360381019061048b9190611f47565b610f2e565b60405161049d9190611fa2565b60405180910390f35b6104c060048036038101906104bb9190612108565b610fa5565b005b6104dc60048036038101906104d79190611f47565b610feb565b6040516104e99190611fa2565b60405180910390f35b61050c60048036038101906105079190611e01565b61100e565b005b61052860048036038101906105239190611e01565b611020565b6040516105359190611ff9565b60405180910390f35b61055860048036038101906105539190612290565b61110c565b005b610574600480360381019061056f91906122d9565b61115a565b6040516105819190611ff9565b60405180910390f35b6105a4600480360381019061059f9190611f47565b6111e1565b005b6105ae6111ef565b6040516105bb9190611ff9565b60405180910390f35b6105de60048036038101906105d99190611e01565b6111f5565b6040516105eb9190612328565b60405180910390f35b61060e60048036038101906106099190612290565b61121c565b60405161061b9190611ff9565b60405180910390f35b61063e60048036038101906106399190611fbd565b61127c565b005b6106486112ff565b600073ffffffffffffffffffffffffffffffffffffffff16600760009054906101000a900473ffffffffffffffffffffffffffffffffffffffff1673ffffffffffffffffffffffffffffffffffffffff16036106d9576040517f08c379a00000000000000000000000000000000000000000000000000000000081526004016106d09061238f565b60405180910390fd5b600760009054906101000a900473ffffffffffffffffffffffffffffffffffffffff1673ffffffffffffffffffffffffffffffffffffffff163373ffffffffffffffffffffffffffffffffffffffff1614610769576040517f08c379a0000000000000000000000000000000000000000000000000000000008152600401610760906123fb565b60405180910390fd5b426006600083815260200190815260200160002060006101000a81548167ffffffffffffffff021916908367ffffffffffffffff16021790555050565b6060600380546107b59061244a565b80601f01602080910402602001604051908101604052809291908181526020018280546107e19061244a565b801561082e5780601f106108035761010080835404028352916020019161082e565b820191906000526020600020905b81548152906001019060200180831161081157829003601f168201915b5050505050905090565b600080610843611349565b9050610850818585611351565b600191505092915050565b61086361151a565b61086b6112ff565b80600760006101000a81548173ffffffffffffffffffffffffffffffffffffffff021916908373ffffffffffffffffffffffffffffffffffffffff16021790555050565b6108b761151a565b6108bf6112ff565b80600860006101000a81548173ffffffffffffffffffffffffffffffffffffffff021916908373ffffffffffffffffffffffffffffffffffffffff16021790555050565b6000600254905090565b600080610918611349565b9050610925858285611598565b610930858585611624565b60019150509392505050565b6000600760009054906101000a900473ffffffffffffffffffffffffffffffffffffffff16905090565b60006012905090565b60008061097a611349565b905061099b81858561098c858961115a565b61099691906124aa565b611351565b600191505092915050565b6109ae6118a3565b6109b661151a565b6109be6118ec565b565b6000600860009054906101000a900473ffffffffffffffffffffffffffffffffffffffff16905090565b6000600560149054906101000a900460ff16905090565b60008060008373ffffffffffffffffffffffffffffffffffffffff1673ffffffffffffffffffffffffffffffffffffffff168152602001908152602001600020549050919050565b610a5161151a565b610a5b600061194f565b565b610a678282611a15565b5050565b610a736112ff565b610a7b61151a565b610a83611b74565b565b6000600560009054906101000a900473ffffffffffffffffffffffffffffffffffffffff16905090565b610ab76112ff565b600073ffffffffffffffffffffffffffffffffffffffff16600760009054906101000a900473ffffffffffffffffffffffffffffffffffffffff1673ffffffffffffffffffffffffffffffffffffffff1603610b48576040517f08c379a0000000000000000000000000000000000000000000000000000000008152600401610b3f9061238f565b60405180910390fd5b610b50610a85565b73ffffffffffffffffffffffffffffffffffffffff16600760009054906101000a900473ffffffffffffffffffffffffffffffffffffffff1673ffffffffffffffffffffffffffffffffffffffff16636352211e836040518263ffffffff1660e01b8152600401610bc19190611ff9565b602060405180830381865afa158015610bde573d6000803e3d6000fd5b505050506040513d601f19601f82011682018060405250810190610c029190612515565b73ffffffffffffffffffffffffffffffffffffffff1603610c58576040517f08c379a0000000000000000000000000000000000000000000000000000000008152600401610c4f9061258e565b60405180910390fd5b610c60610a85565b73ffffffffffffffffffffffffffffffffffffffff163373ffffffffffffffffffffffffffffffffffffffff161480610d5f5750600760009054906101000a900473ffffffffffffffffffffffffffffffffffffffff1673ffffffffffffffffffffffffffffffffffffffff16636352211e826040518263ffffffff1660e01b8152600401610cef9190611ff9565b602060405180830381865afa158015610d0c573d6000803e3d6000fd5b505050506040513d601f19601f82011682018060405250810190610d309190612515565b73ffffffffffffffffffffffffffffffffffffffff163373ffffffffffffffffffffffffffffffffffffffff16145b15610e8457610e11600760009054906101000a900473ffffffffffffffffffffffffffffffffffffffff1673ffffffffffffffffffffffffffffffffffffffff16636352211e836040518263ffffffff1660e01b8152600401610dc29190611ff9565b602060405180830381865afa158015610ddf573d6000803e3d6000fd5b505050506040513d601f19601f82011682018060405250810190610e039190612515565b610e0c83611020565b611a15565b6000600954610e1f83611020565b610e2991906125ae565b9050610e4833670de0b6b3a764000083610e439190612637565b611bd7565b426006600084815260200190815260200160002060006101000a81548167ffffffffffffffff021916908367ffffffffffffffff160217905550505b50565b606060048054610e969061244a565b80601f0160208091040260200160405190810160405280929190818152602001828054610ec29061244a565b8015610f0f5780601f10610ee457610100808354040283529160200191610f0f565b820191906000526020600020905b815481529060010190602001808311610ef257829003601f168201915b5050505050905090565b610f2161151a565b610f2b3382611a15565b50565b600080610f39611349565b90506000610f47828661115a565b905083811015610f8c576040517f08c379a0000000000000000000000000000000000000000000000000000000008152600401610f83906126da565b60405180910390fd5b610f998286868403611351565b60019250505092915050565b610fad61151a565b806006600084815260200190815260200160002060006101000a81548167ffffffffffffffff021916908367ffffffffffffffff1602179055505050565b600080610ff6611349565b9050611003818585611624565b600191505092915050565b61101661151a565b8060098190555050565b6000600760009054906101000a900473ffffffffffffffffffffffffffffffffffffffff1673ffffffffffffffffffffffffffffffffffffffff16631b61f17e836040518263ffffffff1660e01b815260040161107d9190611ff9565b602060405180830381865afa15801561109a573d6000803e3d6000fd5b505050506040513d601f19601f820116820180604052508101906110be919061270f565b6006600084815260200190815260200160002060009054906101000a900467ffffffffffffffff16426110f1919061273c565b67ffffffffffffffff1661110591906125ae565b9050919050565b6111146112ff565b60005b81518110156111565761114382828151811061113657611135612770565b5b6020026020010151610aaf565b808061114e9061279f565b915050611117565b5050565b6000600160008473ffffffffffffffffffffffffffffffffffffffff1673ffffffffffffffffffffffffffffffffffffffff16815260200190815260200160002060008373ffffffffffffffffffffffffffffffffffffffff1673ffffffffffffffffffffffffffffffffffffffff16815260200190815260200160002054905092915050565b6111eb8282611bd7565b5050565b60095481565b60066020528060005260406000206000915054906101000a900467ffffffffffffffff1681565b6000806000905060005b83518110156112725761125284828151811061124557611244612770565b5b6020026020010151611020565b8261125d91906124aa565b9150808061126a9061279f565b915050611226565b5080915050919050565b61128461151a565b600073ffffffffffffffffffffffffffffffffffffffff168173ffffffffffffffffffffffffffffffffffffffff16036112f3576040517f08c379a00000000000000000000000000000000000000000000000000000000081526004016112ea90612859565b60405180910390fd5b6112fc8161194f565b50565b6113076109ea565b15611347576040517f08c379a000000000000000000000000000000000000000000000000000000000815260040161133e906128c5565b60405180910390fd5b565b600033905090565b600073ffffffffffffffffffffffffffffffffffffffff168373ffffffffffffffffffffffffffffffffffffffff16036113c0576040517f08c379a00000000000000000000000000000000000000000000000000000000081526004016113b790612957565b60405180910390fd5b600073ffffffffffffffffffffffffffffffffffffffff168273ffffffffffffffffffffffffffffffffffffffff160361142f576040517f08c379a0000000000000000000000000000000000000000000000000000000008152600401611426906129e9565b60405180910390fd5b80600160008573ffffffffffffffffffffffffffffffffffffffff1673ffffffffffffffffffffffffffffffffffffffff16815260200190815260200160002060008473ffffffffffffffffffffffffffffffffffffffff1673ffffffffffffffffffffffffffffffffffffffff168152602001908152602001600020819055508173ffffffffffffffffffffffffffffffffffffffff168373ffffffffffffffffffffffffffffffffffffffff167f8c5be1e5ebec7d5bd14f71427d1e84f3dd0314c0f7b2291e5b200ac8c7c3b9258360405161150d9190611ff9565b60405180910390a3505050565b611522611349565b73ffffffffffffffffffffffffffffffffffffffff16611540610a85565b73ffffffffffffffffffffffffffffffffffffffff1614611596576040517f08c379a000000000000000000000000000000000000000000000000000000000815260040161158d90612a55565b60405180910390fd5b565b60006115a4848461115a565b90507fffffffffffffffffffffffffffffffffffffffffffffffffffffffffffffffff811461161e5781811015611610576040517f08c379a000000000000000000000000000000000000000000000000000000000815260040161160790612ac1565b60405180910390fd5b61161d8484848403611351565b5b50505050565b600073ffffffffffffffffffffffffffffffffffffffff168373ffffffffffffffffffffffffffffffffffffffff1603611693576040517f08c379a000000000000000000000000000000000000000000000000000000000815260040161168a90612b53565b60405180910390fd5b600073ffffffffffffffffffffffffffffffffffffffff168273ffffffffffffffffffffffffffffffffffffffff1603611702576040517f08c379a00000000000000000000000000000000000000000000000000000000081526004016116f990612be5565b60405180910390fd5b61170d838383611dad565b60008060008573ffffffffffffffffffffffffffffffffffffffff1673ffffffffffffffffffffffffffffffffffffffff16815260200190815260200160002054905081811015611793576040517f08c379a000000000000000000000000000000000000000000000000000000000815260040161178a90612c77565b60405180910390fd5b8181036000808673ffffffffffffffffffffffffffffffffffffffff1673ffffffffffffffffffffffffffffffffffffffff16815260200190815260200160002081905550816000808573ffffffffffffffffffffffffffffffffffffffff1673ffffffffffffffffffffffffffffffffffffffff168152602001908152602001600020600082825461182691906124aa565b925050819055508273ffffffffffffffffffffffffffffffffffffffff168473ffffffffffffffffffffffffffffffffffffffff167fddf252ad1be2c89b69c2b068fc378daa952ba7f163c4a11628f55a4df523b3ef8460405161188a9190611ff9565b60405180910390a361189d848484611db2565b50505050565b6118ab6109ea565b6118ea576040517f08c379a00000000000000000000000000000000000000000000000000000000081526004016118e190612ce3565b60405180910390fd5b565b6118f46118a3565b6000600560146101000a81548160ff0219169083151502179055507f5db9ee0a495bf2e6ff9c91a7834c1ba4fdd244a5e8aa4e537bd38aeae4b073aa611938611349565b6040516119459190612076565b60405180910390a1565b6000600560009054906101000a900473ffffffffffffffffffffffffffffffffffffffff16905081600560006101000a81548173ffffffffffffffffffffffffffffffffffffffff021916908373ffffffffffffffffffffffffffffffffffffffff1602179055508173ffffffffffffffffffffffffffffffffffffffff168173ffffffffffffffffffffffffffffffffffffffff167f8be0079c531659141344cd1fd0a4f28419497f9722a3daafe3b4186f6b6457e060405160405180910390a35050565b600073ffffffffffffffffffffffffffffffffffffffff168273ffffffffffffffffffffffffffffffffffffffff1603611a84576040517f08c379a0000000000000000000000000000000000000000000000000000000008152600401611a7b90612d4f565b60405180910390fd5b611a9060008383611dad565b8060026000828254611aa291906124aa565b92505081905550806000808473ffffffffffffffffffffffffffffffffffffffff1673ffffffffffffffffffffffffffffffffffffffff1681526020019081526020016000206000828254611af791906124aa565b925050819055508173ffffffffffffffffffffffffffffffffffffffff16600073ffffffffffffffffffffffffffffffffffffffff167fddf252ad1be2c89b69c2b068fc378daa952ba7f163c4a11628f55a4df523b3ef83604051611b5c9190611ff9565b60405180910390a3611b7060008383611db2565b5050565b611b7c6112ff565b6001600560146101000a81548160ff0219169083151502179055507f62e78cea01bee320cd4e420270b5ea74000d11b0c9f74754ebdbfc544b05a258611bc0611349565b604051611bcd9190612076565b60405180910390a1565b600073ffffffffffffffffffffffffffffffffffffffff168273ffffffffffffffffffffffffffffffffffffffff1603611c46576040517f08c379a0000000000000000000000000000000000000000000000000000000008152600401611c3d90612de1565b60405180910390fd5b611c5282600083611dad565b60008060008473ffffffffffffffffffffffffffffffffffffffff1673ffffffffffffffffffffffffffffffffffffffff16815260200190815260200160002054905081811015611cd8576040517f08c379a0000000000000000000000000000000000000000000000000000000008152600401611ccf90612e73565b60405180910390fd5b8181036000808573ffffffffffffffffffffffffffffffffffffffff1673ffffffffffffffffffffffffffffffffffffffff168152602001908152602001600020819055508160026000828254611d2f9190612e93565b92505081905550600073ffffffffffffffffffffffffffffffffffffffff168373ffffffffffffffffffffffffffffffffffffffff167fddf252ad1be2c89b69c2b068fc378daa952ba7f163c4a11628f55a4df523b3ef84604051611d949190611ff9565b60405180910390a3611da883600084611db2565b505050565b505050565b505050565b6000604051905090565b600080fd5b600080fd5b6000819050919050565b611dde81611dcb565b8114611de957600080fd5b50565b600081359050611dfb81611dd5565b92915050565b600060208284031215611e1757611e16611dc1565b5b6000611e2584828501611dec565b91505092915050565b600081519050919050565b600082825260208201905092915050565b60005b83811015611e68578082015181840152602081019050611e4d565b83811115611e77576000848401525b50505050565b6000601f19601f8301169050919050565b6000611e9982611e2e565b611ea38185611e39565b9350611eb3818560208601611e4a565b611ebc81611e7d565b840191505092915050565b60006020820190508181036000830152611ee18184611e8e565b905092915050565b600073ffffffffffffffffffffffffffffffffffffffff82169050919050565b6000611f1482611ee9565b9050919050565b611f2481611f09565b8114611f2f57600080fd5b50565b600081359050611f4181611f1b565b92915050565b60008060408385031215611f5e57611f5d611dc1565b5b6000611f6c85828601611f32565b9250506020611f7d85828601611dec565b9150509250929050565b60008115159050919050565b611f9c81611f87565b82525050565b6000602082019050611fb76000830184611f93565b92915050565b600060208284031215611fd357611fd2611dc1565b5b6000611fe184828501611f32565b91505092915050565b611ff381611dcb565b82525050565b600060208201905061200e6000830184611fea565b92915050565b60008060006060848603121561202d5761202c611dc1565b5b600061203b86828701611f32565b935050602061204c86828701611f32565b925050604061205d86828701611dec565b9150509250925092565b61207081611f09565b82525050565b600060208201905061208b6000830184612067565b92915050565b600060ff82169050919050565b6120a781612091565b82525050565b60006020820190506120c2600083018461209e565b92915050565b600067ffffffffffffffff82169050919050565b6120e5816120c8565b81146120f057600080fd5b50565b600081359050612102816120dc565b92915050565b6000806040838503121561211f5761211e611dc1565b5b600061212d85828601611dec565b925050602061213e858286016120f3565b9150509250929050565b600080fd5b7f4e487b7100000000000000000000000000000000000000000000000000000000600052604160045260246000fd5b61218582611e7d565b810181811067ffffffffffffffff821117156121a4576121a361214d565b5b80604052505050565b60006121b7611db7565b90506121c3828261217c565b919050565b600067ffffffffffffffff8211156121e3576121e261214d565b5b602082029050602081019050919050565b600080fd5b600061220c612207846121c8565b6121ad565b9050808382526020820190506020840283018581111561222f5761222e6121f4565b5b835b8181101561225857806122448882611dec565b845260208401935050602081019050612231565b5050509392505050565b600082601f83011261227757612276612148565b5b81356122878482602086016121f9565b91505092915050565b6000602082840312156122a6576122a5611dc1565b5b600082013567ffffffffffffffff8111156122c4576122c3611dc6565b5b6122d084828501612262565b91505092915050565b600080604083850312156122f0576122ef611dc1565b5b60006122fe85828601611f32565b925050602061230f85828601611f32565b9150509250929050565b612322816120c8565b82525050565b600060208201905061233d6000830184612319565b92915050565b7f4d616e6167654c69666520746f6b656e206973206e6f74207365740000000000600082015250565b6000612379601b83611e39565b915061238482612343565b602082019050919050565b600060208201905081810360008301526123a88161236c565b9050919050565b7f4f6e6c79204d616e6167654c69666520746f6b656e0000000000000000000000600082015250565b60006123e5601583611e39565b91506123f0826123af565b602082019050919050565b60006020820190508181036000830152612414816123d8565b9050919050565b7f4e487b7100000000000000000000000000000000000000000000000000000000600052602260045260246000fd5b6000600282049050600182168061246257607f821691505b6020821081036124755761247461241b565b5b50919050565b7f4e487b7100000000000000000000000000000000000000000000000000000000600052601160045260246000fd5b60006124b582611dcb565b91506124c083611dcb565b9250827fffffffffffffffffffffffffffffffffffffffffffffffffffffffffffffffff038211156124f5576124f461247b565b5b828201905092915050565b60008151905061250f81611f1b565b92915050565b60006020828403121561252b5761252a611dc1565b5b600061253984828501612500565b91505092915050565b7f506c6174666f726d57616c6c65742063616e6e6f7420636c61696d0000000000600082015250565b6000612578601b83611e39565b915061258382612542565b602082019050919050565b600060208201905081810360008301526125a78161256b565b9050919050565b60006125b982611dcb565b91506125c483611dcb565b9250817fffffffffffffffffffffffffffffffffffffffffffffffffffffffffffffffff04831182151516156125fd576125fc61247b565b5b828202905092915050565b7f4e487b7100000000000000000000000000000000000000000000000000000000600052601260045260246000fd5b600061264282611dcb565b915061264d83611dcb565b92508261265d5761265c612608565b5b828204905092915050565b7f45524332303a2064656372656173656420616c6c6f77616e63652062656c6f7760008201527f207a65726f000000000000000000000000000000000000000000000000000000602082015250565b60006126c4602583611e39565b91506126cf82612668565b604082019050919050565b600060208201905081810360008301526126f3816126b7565b9050919050565b60008151905061270981611dd5565b92915050565b60006020828403121561272557612724611dc1565b5b6000612733848285016126fa565b91505092915050565b6000612747826120c8565b9150612752836120c8565b9250828210156127655761276461247b565b5b828203905092915050565b7f4e487b7100000000000000000000000000000000000000000000000000000000600052603260045260246000fd5b60006127aa82611dcb565b91507fffffffffffffffffffffffffffffffffffffffffffffffffffffffffffffffff82036127dc576127db61247b565b5b600182019050919050565b7f4f776e61626c653a206e6577206f776e657220697320746865207a65726f206160008201527f6464726573730000000000000000000000000000000000000000000000000000602082015250565b6000612843602683611e39565b915061284e826127e7565b604082019050919050565b6000602082019050818103600083015261287281612836565b9050919050565b7f5061757361626c653a2070617573656400000000000000000000000000000000600082015250565b60006128af601083611e39565b91506128ba82612879565b602082019050919050565b600060208201905081810360008301526128de816128a2565b9050919050565b7f45524332303a20617070726f76652066726f6d20746865207a65726f2061646460008201527f7265737300000000000000000000000000000000000000000000000000000000602082015250565b6000612941602483611e39565b915061294c826128e5565b604082019050919050565b6000602082019050818103600083015261297081612934565b9050919050565b7f45524332303a20617070726f766520746f20746865207a65726f20616464726560008201527f7373000000000000000000000000000000000000000000000000000000000000602082015250565b60006129d3602283611e39565b91506129de82612977565b604082019050919050565b60006020820190508181036000830152612a02816129c6565b9050919050565b7f4f776e61626c653a2063616c6c6572206973206e6f7420746865206f776e6572600082015250565b6000612a3f602083611e39565b9150612a4a82612a09565b602082019050919050565b60006020820190508181036000830152612a6e81612a32565b9050919050565b7f45524332303a20696e73756666696369656e7420616c6c6f77616e6365000000600082015250565b6000612aab601d83611e39565b9150612ab682612a75565b602082019050919050565b60006020820190508181036000830152612ada81612a9e565b9050919050565b7f45524332303a207472616e736665722066726f6d20746865207a65726f20616460008201527f6472657373000000000000000000000000000000000000000000000000000000602082015250565b6000612b3d602583611e39565b9150612b4882612ae1565b604082019050919050565b60006020820190508181036000830152612b6c81612b30565b9050919050565b7f45524332303a207472616e7366657220746f20746865207a65726f206164647260008201527f6573730000000000000000000000000000000000000000000000000000000000602082015250565b6000612bcf602383611e39565b9150612bda82612b73565b604082019050919050565b60006020820190508181036000830152612bfe81612bc2565b9050919050565b7f45524332303a207472616e7366657220616d6f756e742065786365656473206260008201527f616c616e63650000000000000000000000000000000000000000000000000000602082015250565b6000612c61602683611e39565b9150612c6c82612c05565b604082019050919050565b60006020820190508181036000830152612c9081612c54565b9050919050565b7f5061757361626c653a206e6f7420706175736564000000000000000000000000600082015250565b6000612ccd601483611e39565b9150612cd882612c97565b602082019050919050565b60006020820190508181036000830152612cfc81612cc0565b9050919050565b7f45524332303a206d696e7420746f20746865207a65726f206164647265737300600082015250565b6000612d39601f83611e39565b9150612d4482612d03565b602082019050919050565b60006020820190508181036000830152612d6881612d2c565b9050919050565b7f45524332303a206275726e2066726f6d20746865207a65726f2061646472657360008201527f7300000000000000000000000000000000000000000000000000000000000000602082015250565b6000612dcb602183611e39565b9150612dd682612d6f565b604082019050919050565b60006020820190508181036000830152612dfa81612dbe565b9050919050565b7f45524332303a206275726e20616d6f756e7420657863656564732062616c616e60008201527f6365000000000000000000000000000000000000000000000000000000000000602082015250565b6000612e5d602283611e39565b9150612e6882612e01565b604082019050919050565b60006020820190508181036000830152612e8c81612e50565b9050919050565b6000612e9e82611dcb565b9150612ea983611dcb565b925082821015612ebc57612ebb61247b565b5b82820390509291505056fea2646970667358221220bf8ba21bc955461d8f421b30077e9600eed69a2d285cb6b6a814be879aad3f9f64736f6c634300080d0033",
  "linkReferences": {},
  "deployedLinkReferences": {}
}