{
  "_format": "hh-sol-artifact-1",
  "contractName": "Life",
  "sourceName": "contracts/Life.sol",
  "abi": [
    {
      "inputs": [],
      "stateMutability": "nonpayable",
      "type": "constructor"
    },
    {
      "anonymous": false,
      "inputs": [
        {
          "indexed": true,
          "internalType": "address",
          "name": "owner",
          "type": "address"
        },
        {
          "indexed": true,
          "internalType": "address",
          "name": "spender",
          "type": "address"
        },
        {
          "indexed": false,
          "internalType": "uint256",
          "name": "value",
          "type": "uint256"
        }
      ],
      "name": "Approval",
      "type": "event"
    },
    {
      "anonymous": false,
      "inputs": [
        {
          "indexed": true,
          "internalType": "address",
          "name": "previousOwner",
          "type": "address"
        },
        {
          "indexed": true,
          "internalType": "address",
          "name": "newOwner",
          "type": "address"
        }
      ],
      "name": "OwnershipTransferred",
      "type": "event"
    },
    {
      "anonymous": false,
      "inputs": [
        {
          "indexed": false,
          "internalType": "address",
          "name": "account",
          "type": "address"
        }
      ],
      "name": "Paused",
      "type": "event"
    },
    {
      "anonymous": false,
      "inputs": [
        {
          "indexed": true,
          "internalType": "address",
          "name": "from",
          "type": "address"
        },
        {
          "indexed": true,
          "internalType": "address",
          "name": "to",
          "type": "address"
        },
        {
          "indexed": false,
          "internalType": "uint256",
          "name": "value",
          "type": "uint256"
        }
      ],
      "name": "Transfer",
      "type": "event"
    },
    {
      "anonymous": false,
      "inputs": [
        {
          "indexed": false,
          "internalType": "address",
          "name": "account",
          "type": "address"
        }
      ],
      "name": "Unpaused",
      "type": "event"
    },
    {
      "inputs": [
        {
          "internalType": "address",
          "name": "owner",
          "type": "address"
        },
        {
          "internalType": "address",
          "name": "spender",
          "type": "address"
        }
      ],
      "name": "allowance",
      "outputs": [
        {
          "internalType": "uint256",
          "name": "",
          "type": "uint256"
        }
      ],
      "stateMutability": "view",
      "type": "function"
    },
    {
      "inputs": [
        {
          "internalType": "address",
          "name": "spender",
          "type": "address"
        },
        {
          "internalType": "uint256",
          "name": "amount",
          "type": "uint256"
        }
      ],
      "name": "approve",
      "outputs": [
        {
          "internalType": "bool",
          "name": "",
          "type": "bool"
        }
      ],
      "stateMutability": "nonpayable",
      "type": "function"
    },
    {
      "inputs": [
        {
          "internalType": "address",
          "name": "account",
          "type": "address"
        }
      ],
      "name": "balanceOf",
      "outputs": [
        {
          "internalType": "uint256",
          "name": "",
          "type": "uint256"
        }
      ],
      "stateMutability": "view",
      "type": "function"
    },
    {
      "inputs": [
        {
          "internalType": "address",
          "name": "from",
          "type": "address"
        },
        {
          "internalType": "uint256",
          "name": "amount",
          "type": "uint256"
        },
        {
          "internalType": "uint256",
          "name": "tokenId",
          "type": "uint256"
        }
      ],
      "name": "burnLifeTokens",
      "outputs": [],
      "stateMutability": "nonpayable",
      "type": "function"
    },
    {
      "inputs": [],
      "name": "burningRate",
      "outputs": [
        {
          "internalType": "uint256",
          "name": "",
          "type": "uint256"
        }
      ],
      "stateMutability": "view",
      "type": "function"
    },
    {
      "inputs": [
        {
          "internalType": "uint256",
          "name": "tokenId",
          "type": "uint256"
        }
      ],
      "name": "claimStakingRewards",
      "outputs": [],
      "stateMutability": "nonpayable",
      "type": "function"
    },
    {
      "inputs": [
        {
          "internalType": "uint256",
          "name": "tokenId",
          "type": "uint256"
        }
      ],
      "name": "claimableStakingRewards",
      "outputs": [
        {
          "internalType": "uint256",
          "name": "",
          "type": "uint256"
        }
      ],
      "stateMutability": "view",
      "type": "function"
    },
    {
      "inputs": [],
      "name": "decimals",
      "outputs": [
        {
          "internalType": "uint8",
          "name": "",
          "type": "uint8"
        }
      ],
      "stateMutability": "view",
      "type": "function"
    },
    {
      "inputs": [
        {
          "internalType": "address",
          "name": "spender",
          "type": "address"
        },
        {
          "internalType": "uint256",
          "name": "subtractedValue",
          "type": "uint256"
        }
      ],
      "name": "decreaseAllowance",
      "outputs": [
        {
          "internalType": "bool",
          "name": "",
          "type": "bool"
        }
      ],
      "stateMutability": "nonpayable",
      "type": "function"
    },
    {
      "inputs": [
        {
          "internalType": "address",
          "name": "spender",
          "type": "address"
        },
        {
          "internalType": "uint256",
          "name": "addedValue",
          "type": "uint256"
        }
      ],
      "name": "increaseAllowance",
      "outputs": [
        {
          "internalType": "bool",
          "name": "",
          "type": "bool"
        }
      ],
      "stateMutability": "nonpayable",
      "type": "function"
    },
    {
      "inputs": [
        {
          "internalType": "uint256",
          "name": "tokenId",
          "type": "uint256"
        }
      ],
      "name": "initStakingRewards",
      "outputs": [],
      "stateMutability": "nonpayable",
      "type": "function"
    },
    {
      "inputs": [],
      "name": "manageLifeInvestorsNft",
      "outputs": [
        {
          "internalType": "address",
          "name": "",
          "type": "address"
        }
      ],
      "stateMutability": "view",
      "type": "function"
    },
    {
      "inputs": [],
      "name": "manageLifeToken",
      "outputs": [
        {
          "internalType": "address",
          "name": "",
          "type": "address"
        }
      ],
      "stateMutability": "view",
      "type": "function"
    },
    {
      "inputs": [
        {
          "internalType": "uint256",
          "name": "_amount",
          "type": "uint256"
        }
      ],
      "name": "mint",
      "outputs": [],
      "stateMutability": "nonpayable",
      "type": "function"
    },
    {
      "inputs": [
        {
          "internalType": "address",
          "name": "investorAddress",
          "type": "address"
        },
        {
          "internalType": "uint256",
          "name": "_amount",
          "type": "uint256"
        }
      ],
      "name": "mintInvestorsRewards",
      "outputs": [],
      "stateMutability": "nonpayable",
      "type": "function"
    },
    {
      "inputs": [],
      "name": "name",
      "outputs": [
        {
          "internalType": "string",
          "name": "",
          "type": "string"
        }
      ],
      "stateMutability": "view",
      "type": "function"
    },
    {
      "inputs": [],
      "name": "owner",
      "outputs": [
        {
          "internalType": "address",
          "name": "",
          "type": "address"
        }
      ],
      "stateMutability": "view",
      "type": "function"
    },
    {
      "inputs": [],
      "name": "pause",
      "outputs": [],
      "stateMutability": "nonpayable",
      "type": "function"
    },
    {
      "inputs": [],
      "name": "paused",
      "outputs": [
        {
          "internalType": "bool",
          "name": "",
          "type": "bool"
        }
      ],
      "stateMutability": "view",
      "type": "function"
    },
    {
      "inputs": [],
      "name": "renounceOwnership",
      "outputs": [],
      "stateMutability": "nonpayable",
      "type": "function"
    },
    {
      "inputs": [
        {
          "internalType": "address",
          "name": "manageLifeToken_",
          "type": "address"
        }
      ],
      "name": "setManageLifeToken",
      "outputs": [],
      "stateMutability": "nonpayable",
      "type": "function"
    },
    {
      "inputs": [
        {
          "internalType": "address",
          "name": "investorsNft_",
          "type": "address"
        }
      ],
      "name": "setNftiToken",
      "outputs": [],
      "stateMutability": "nonpayable",
      "type": "function"
    },
    {
      "inputs": [
        {
          "internalType": "uint256",
          "name": "",
          "type": "uint256"
        }
      ],
      "name": "startOfStakingRewards",
      "outputs": [
        {
          "internalType": "uint64",
          "name": "",
          "type": "uint64"
        }
      ],
      "stateMutability": "view",
      "type": "function"
    },
    {
      "inputs": [],
      "name": "symbol",
      "outputs": [
        {
          "internalType": "string",
          "name": "",
          "type": "string"
        }
      ],
      "stateMutability": "view",
      "type": "function"
    },
    {
      "inputs": [],
      "name": "totalSupply",
      "outputs": [
        {
          "internalType": "uint256",
          "name": "",
          "type": "uint256"
        }
      ],
      "stateMutability": "view",
      "type": "function"
    },
    {
      "inputs": [
        {
          "internalType": "address",
          "name": "to",
          "type": "address"
        },
        {
          "internalType": "uint256",
          "name": "amount",
          "type": "uint256"
        }
      ],
      "name": "transfer",
      "outputs": [
        {
          "internalType": "bool",
          "name": "",
          "type": "bool"
        }
      ],
      "stateMutability": "nonpayable",
      "type": "function"
    },
    {
      "inputs": [
        {
          "internalType": "address",
          "name": "from",
          "type": "address"
        },
        {
          "internalType": "address",
          "name": "to",
          "type": "address"
        },
        {
          "internalType": "uint256",
          "name": "amount",
          "type": "uint256"
        }
      ],
      "name": "transferFrom",
      "outputs": [
        {
          "internalType": "bool",
          "name": "",
          "type": "bool"
        }
      ],
      "stateMutability": "nonpayable",
      "type": "function"
    },
    {
      "inputs": [
        {
          "internalType": "address",
          "name": "newOwner",
          "type": "address"
        }
      ],
      "name": "transferOwnership",
      "outputs": [],
      "stateMutability": "nonpayable",
      "type": "function"
    },
    {
      "inputs": [],
      "name": "unpause",
      "outputs": [],
      "stateMutability": "nonpayable",
      "type": "function"
    },
    {
      "inputs": [
        {
          "internalType": "uint256",
          "name": "newBurningRate",
          "type": "uint256"
        }
      ],
      "name": "updateBurningRate",
      "outputs": [],
      "stateMutability": "nonpayable",
      "type": "function"
    },
    {
      "inputs": [
        {
          "internalType": "uint256",
          "name": "tokenId",
          "type": "uint256"
        },
        {
          "internalType": "uint64",
          "name": "newStartDate",
          "type": "uint64"
        }
      ],
      "name": "updateStartOfStaking",
      "outputs": [],
      "stateMutability": "nonpayable",
      "type": "function"
    }
  ],
  "bytecode": "0x608060405266f8b0a10e4700006009553480156200001c57600080fd5b506040518060400160405280600481526020017f4c696665000000000000000000000000000000000000000000000000000000008152506040518060400160405280600481526020017f4c4946450000000000000000000000000000000000000000000000000000000081525081600390816200009a919062000602565b508060049081620000ac919062000602565b505050620000cf620000c36200012f60201b60201c565b6200013760201b60201c565b6000600560146101000a81548160ff0219169083151502179055506200012933620000ff620001fd60201b60201c565b600a6200010d919062000879565b626acfc06200011d9190620008ca565b6200020660201b60201c565b62000a01565b600033905090565b6000600560009054906101000a900473ffffffffffffffffffffffffffffffffffffffff16905081600560006101000a81548173ffffffffffffffffffffffffffffffffffffffff021916908373ffffffffffffffffffffffffffffffffffffffff1602179055508173ffffffffffffffffffffffffffffffffffffffff168173ffffffffffffffffffffffffffffffffffffffff167f8be0079c531659141344cd1fd0a4f28419497f9722a3daafe3b4186f6b6457e060405160405180910390a35050565b60006012905090565b600073ffffffffffffffffffffffffffffffffffffffff168273ffffffffffffffffffffffffffffffffffffffff160362000278576040517f08c379a00000000000000000000000000000000000000000000000000000000081526004016200026f9062000976565b60405180910390fd5b6200028c600083836200037e60201b60201c565b8060026000828254620002a0919062000998565b92505081905550806000808473ffffffffffffffffffffffffffffffffffffffff1673ffffffffffffffffffffffffffffffffffffffff1681526020019081526020016000206000828254620002f7919062000998565b925050819055508173ffffffffffffffffffffffffffffffffffffffff16600073ffffffffffffffffffffffffffffffffffffffff167fddf252ad1be2c89b69c2b068fc378daa952ba7f163c4a11628f55a4df523b3ef836040516200035e9190620009e4565b60405180910390a36200037a600083836200038360201b60201c565b5050565b505050565b505050565b600081519050919050565b7f4e487b7100000000000000000000000000000000000000000000000000000000600052604160045260246000fd5b7f4e487b7100000000000000000000000000000000000000000000000000000000600052602260045260246000fd5b600060028204905060018216806200040a57607f821691505b60208210810362000420576200041f620003c2565b5b50919050565b60008190508160005260206000209050919050565b60006020601f8301049050919050565b600082821b905092915050565b6000600883026200048a7fffffffffffffffffffffffffffffffffffffffffffffffffffffffffffffffff826200044b565b6200049686836200044b565b95508019841693508086168417925050509392505050565b6000819050919050565b6000819050919050565b6000620004e3620004dd620004d784620004ae565b620004b8565b620004ae565b9050919050565b6000819050919050565b620004ff83620004c2565b620005176200050e82620004ea565b84845462000458565b825550505050565b600090565b6200052e6200051f565b6200053b818484620004f4565b505050565b5b8181101562000563576200055760008262000524565b60018101905062000541565b5050565b601f821115620005b2576200057c8162000426565b62000587846200043b565b8101602085101562000597578190505b620005af620005a6856200043b565b83018262000540565b50505b505050565b600082821c905092915050565b6000620005d760001984600802620005b7565b1980831691505092915050565b6000620005f28383620005c4565b9150826002028217905092915050565b6200060d8262000388565b67ffffffffffffffff81111562000629576200062862000393565b5b620006358254620003f1565b6200064282828562000567565b600060209050601f8311600181146200067a576000841562000665578287015190505b620006718582620005e4565b865550620006e1565b601f1984166200068a8662000426565b60005b82811015620006b4578489015182556001820191506020850194506020810190506200068d565b86831015620006d45784890151620006d0601f891682620005c4565b8355505b6001600288020188555050505b505050505050565b7f4e487b7100000000000000000000000000000000000000000000000000000000600052601160045260246000fd5b60008160011c9050919050565b6000808291508390505b600185111562000777578086048111156200074f576200074e620006e9565b5b60018516156200075f5780820291505b80810290506200076f8562000718565b94506200072f565b94509492505050565b60008262000792576001905062000865565b81620007a2576000905062000865565b8160018114620007bb5760028114620007c657620007fc565b600191505062000865565b60ff841115620007db57620007da620006e9565b5b8360020a915084821115620007f557620007f4620006e9565b5b5062000865565b5060208310610133831016604e8410600b8410161715620008365782820a90508381111562000830576200082f620006e9565b5b62000865565b62000845848484600162000725565b925090508184048111156200085f576200085e620006e9565b5b81810290505b9392505050565b600060ff82169050919050565b60006200088682620004ae565b915062000893836200086c565b9250620008c27fffffffffffffffffffffffffffffffffffffffffffffffffffffffffffffffff848462000780565b905092915050565b6000620008d782620004ae565b9150620008e483620004ae565b9250828202620008f481620004ae565b915082820484148315176200090e576200090d620006e9565b5b5092915050565b600082825260208201905092915050565b7f45524332303a206d696e7420746f20746865207a65726f206164647265737300600082015250565b60006200095e601f8362000915565b91506200096b8262000926565b602082019050919050565b6000602082019050818103600083015262000991816200094f565b9050919050565b6000620009a582620004ae565b9150620009b283620004ae565b9250828201905080821115620009cd57620009cc620006e9565b5b92915050565b620009de81620004ae565b82525050565b6000602082019050620009fb6000830184620009d3565b92915050565b612f878062000a116000396000f3fe608060405234801561001057600080fd5b50600436106101e55760003560e01c8063834874981161010f578063a9059cbb116100a2578063e5735f2111610071578063e5735f2114610558578063e64c3e9214610574578063e64de75414610592578063f2fde38b146105c2576101e5565b8063a9059cbb146104ac578063acddc783146104dc578063b2256ba0146104f8578063dd62ed3e14610528576101e5565b806395d89b41116100de57806395d89b4114610426578063a0712d6814610444578063a457c2d714610460578063a85a039314610490576101e5565b806383487498146103c65780638456cb59146103e25780638da5cb5b146103ec5780638fad26271461040a576101e5565b806330e82a58116101875780634f162e5a116101565780634f162e5a146103505780635c975abb1461036e57806370a082311461038c578063715018a6146103bc576101e5565b806330e82a58146102da578063313ce567146102f857806339509351146103165780633f4ba83a14610346576101e5565b8063125d3990116101c3578063125d3990146102545780631350746d1461027057806318160ddd1461028c57806323b872dd146102aa576101e5565b8063058d5b18146101ea57806306fdde0314610206578063095ea7b314610224575b600080fd5b61020460048036038101906101ff9190611fb7565b6105de565b005b61020e610744565b60405161021b9190612074565b60405180910390f35b61023e600480360381019061023991906120f4565b6107d6565b60405161024b919061214f565b60405180910390f35b61026e6004803603810190610269919061216a565b6107f9565b005b61028a6004803603810190610285919061216a565b61084d565b005b6102946108a1565b6040516102a191906121a6565b60405180910390f35b6102c460048036038101906102bf91906121c1565b6108ab565b6040516102d1919061214f565b60405180910390f35b6102e26108da565b6040516102ef9190612223565b60405180910390f35b610300610904565b60405161030d919061225a565b60405180910390f35b610330600480360381019061032b91906120f4565b61090d565b60405161033d919061214f565b60405180910390f35b61034e610944565b005b61035861095e565b6040516103659190612223565b60405180910390f35b610376610988565b604051610383919061214f565b60405180910390f35b6103a660048036038101906103a1919061216a565b61099f565b6040516103b391906121a6565b60405180910390f35b6103c46109e7565b005b6103e060048036038101906103db91906120f4565b6109fb565b005b6103ea610a09565b005b6103f4610a23565b6040516104019190612223565b60405180910390f35b610424600480360381019061041f9190611fb7565b610a4d565b005b61042e610e0b565b60405161043b9190612074565b60405180910390f35b61045e60048036038101906104599190611fb7565b610e9d565b005b61047a600480360381019061047591906120f4565b610eb2565b604051610487919061214f565b60405180910390f35b6104aa60048036038101906104a591906122b5565b610f29565b005b6104c660048036038101906104c191906120f4565b611034565b6040516104d3919061214f565b60405180910390f35b6104f660048036038101906104f19190611fb7565b611057565b005b610512600480360381019061050d9190611fb7565b611069565b60405161051f91906121a6565b60405180910390f35b610542600480360381019061053d91906122f5565b6111a2565b60405161054f91906121a6565b60405180910390f35b610572600480360381019061056d9190612335565b611229565b005b61057c611414565b60405161058991906121a6565b60405180910390f35b6105ac60048036038101906105a79190611fb7565b61141a565b6040516105b99190612397565b60405180910390f35b6105dc60048036038101906105d7919061216a565b611441565b005b6105e66114c4565b600073ffffffffffffffffffffffffffffffffffffffff16600760009054906101000a900473ffffffffffffffffffffffffffffffffffffffff1673ffffffffffffffffffffffffffffffffffffffff1603610677576040517f08c379a000000000000000000000000000000000000000000000000000000000815260040161066e906123fe565b60405180910390fd5b600760009054906101000a900473ffffffffffffffffffffffffffffffffffffffff1673ffffffffffffffffffffffffffffffffffffffff163373ffffffffffffffffffffffffffffffffffffffff1614610707576040517f08c379a00000000000000000000000000000000000000000000000000000000081526004016106fe9061246a565b60405180910390fd5b426006600083815260200190815260200160002060006101000a81548167ffffffffffffffff021916908367ffffffffffffffff16021790555050565b606060038054610753906124b9565b80601f016020809104026020016040519081016040528092919081815260200182805461077f906124b9565b80156107cc5780601f106107a1576101008083540402835291602001916107cc565b820191906000526020600020905b8154815290600101906020018083116107af57829003601f168201915b5050505050905090565b6000806107e161150e565b90506107ee818585611516565b600191505092915050565b6108016116df565b6108096114c4565b80600760006101000a81548173ffffffffffffffffffffffffffffffffffffffff021916908373ffffffffffffffffffffffffffffffffffffffff16021790555050565b6108556116df565b61085d6114c4565b80600860006101000a81548173ffffffffffffffffffffffffffffffffffffffff021916908373ffffffffffffffffffffffffffffffffffffffff16021790555050565b6000600254905090565b6000806108b661150e565b90506108c385828561175d565b6108ce8585856117e9565b60019150509392505050565b6000600760009054906101000a900473ffffffffffffffffffffffffffffffffffffffff16905090565b60006012905090565b60008061091861150e565b905061093981858561092a85896111a2565b6109349190612519565b611516565b600191505092915050565b61094c611a68565b6109546116df565b61095c611ab1565b565b6000600860009054906101000a900473ffffffffffffffffffffffffffffffffffffffff16905090565b6000600560149054906101000a900460ff16905090565b60008060008373ffffffffffffffffffffffffffffffffffffffff1673ffffffffffffffffffffffffffffffffffffffff168152602001908152602001600020549050919050565b6109ef6116df565b6109f96000611b14565b565b610a058282611bda565b5050565b610a116114c4565b610a196116df565b610a21611d39565b565b6000600560009054906101000a900473ffffffffffffffffffffffffffffffffffffffff16905090565b610a556114c4565b600073ffffffffffffffffffffffffffffffffffffffff16600760009054906101000a900473ffffffffffffffffffffffffffffffffffffffff1673ffffffffffffffffffffffffffffffffffffffff1603610ae6576040517f08c379a0000000000000000000000000000000000000000000000000000000008152600401610add906123fe565b60405180910390fd5b610aee610a23565b73ffffffffffffffffffffffffffffffffffffffff16600760009054906101000a900473ffffffffffffffffffffffffffffffffffffffff1673ffffffffffffffffffffffffffffffffffffffff16636352211e836040518263ffffffff1660e01b8152600401610b5f91906121a6565b602060405180830381865afa158015610b7c573d6000803e3d6000fd5b505050506040513d601f19601f82011682018060405250810190610ba09190612562565b73ffffffffffffffffffffffffffffffffffffffff1603610bf6576040517f08c379a0000000000000000000000000000000000000000000000000000000008152600401610bed906125db565b60405180910390fd5b610bfe610a23565b73ffffffffffffffffffffffffffffffffffffffff163373ffffffffffffffffffffffffffffffffffffffff161480610cfd5750600760009054906101000a900473ffffffffffffffffffffffffffffffffffffffff1673ffffffffffffffffffffffffffffffffffffffff16636352211e826040518263ffffffff1660e01b8152600401610c8d91906121a6565b602060405180830381865afa158015610caa573d6000803e3d6000fd5b505050506040513d601f19601f82011682018060405250810190610cce9190612562565b73ffffffffffffffffffffffffffffffffffffffff163373ffffffffffffffffffffffffffffffffffffffff16145b80610d555750600760009054906101000a900473ffffffffffffffffffffffffffffffffffffffff1673ffffffffffffffffffffffffffffffffffffffff163373ffffffffffffffffffffffffffffffffffffffff16145b15610e0857610e07600760009054906101000a900473ffffffffffffffffffffffffffffffffffffffff1673ffffffffffffffffffffffffffffffffffffffff16636352211e836040518263ffffffff1660e01b8152600401610db891906121a6565b602060405180830381865afa158015610dd5573d6000803e3d6000fd5b505050506040513d601f19601f82011682018060405250810190610df99190612562565b610e0283611069565b611bda565b5b50565b606060048054610e1a906124b9565b80601f0160208091040260200160405190810160405280929190818152602001828054610e46906124b9565b8015610e935780601f10610e6857610100808354040283529160200191610e93565b820191906000526020600020905b815481529060010190602001808311610e7657829003601f168201915b5050505050905090565b610ea56116df565b610eaf3382611bda565b50565b600080610ebd61150e565b90506000610ecb82866111a2565b905083811015610f10576040517f08c379a0000000000000000000000000000000000000000000000000000000008152600401610f079061266d565b60405180910390fd5b610f1d8286868403611516565b60019250505092915050565b610f31610a23565b73ffffffffffffffffffffffffffffffffffffffff163373ffffffffffffffffffffffffffffffffffffffff161480610fb75750600760009054906101000a900473ffffffffffffffffffffffffffffffffffffffff1673ffffffffffffffffffffffffffffffffffffffff163373ffffffffffffffffffffffffffffffffffffffff16145b610ff6576040517f08c379a0000000000000000000000000000000000000000000000000000000008152600401610fed906126ff565b60405180910390fd5b806006600084815260200190815260200160002060006101000a81548167ffffffffffffffff021916908367ffffffffffffffff1602179055505050565b60008061103f61150e565b905061104c8185856117e9565b600191505092915050565b61105f6116df565b8060098190555050565b60006006600083815260200190815260200160002060009054906101000a900467ffffffffffffffff1667ffffffffffffffff164267ffffffffffffffff1610156110b7576000905061119d565b600760009054906101000a900473ffffffffffffffffffffffffffffffffffffffff1673ffffffffffffffffffffffffffffffffffffffff16631b61f17e836040518263ffffffff1660e01b815260040161111291906121a6565b602060405180830381865afa15801561112f573d6000803e3d6000fd5b505050506040513d601f19601f820116820180604052508101906111539190612734565b6006600084815260200190815260200160002060009054906101000a900467ffffffffffffffff16426111869190612761565b67ffffffffffffffff1661119a919061279d565b90505b919050565b6000600160008473ffffffffffffffffffffffffffffffffffffffff1673ffffffffffffffffffffffffffffffffffffffff16815260200190815260200160002060008373ffffffffffffffffffffffffffffffffffffffff1673ffffffffffffffffffffffffffffffffffffffff16815260200190815260200160002054905092915050565b80600760009054906101000a900473ffffffffffffffffffffffffffffffffffffffff1673ffffffffffffffffffffffffffffffffffffffff16636352211e826040518263ffffffff1660e01b815260040161128591906121a6565b602060405180830381865afa1580156112a2573d6000803e3d6000fd5b505050506040513d601f19601f820116820180604052508101906112c69190612562565b73ffffffffffffffffffffffffffffffffffffffff163373ffffffffffffffffffffffffffffffffffffffff1614806113c55750600860009054906101000a900473ffffffffffffffffffffffffffffffffffffffff1673ffffffffffffffffffffffffffffffffffffffff16636352211e826040518263ffffffff1660e01b815260040161135591906121a6565b602060405180830381865afa158015611372573d6000803e3d6000fd5b505050506040513d601f19601f820116820180604052508101906113969190612562565b73ffffffffffffffffffffffffffffffffffffffff163373ffffffffffffffffffffffffffffffffffffffff16145b611404576040517f08c379a00000000000000000000000000000000000000000000000000000000081526004016113fb90612851565b60405180910390fd5b61140e8484611d9c565b50505050565b60095481565b60066020528060005260406000206000915054906101000a900467ffffffffffffffff1681565b6114496116df565b600073ffffffffffffffffffffffffffffffffffffffff168173ffffffffffffffffffffffffffffffffffffffff16036114b8576040517f08c379a00000000000000000000000000000000000000000000000000000000081526004016114af906128e3565b60405180910390fd5b6114c181611b14565b50565b6114cc610988565b1561150c576040517f08c379a00000000000000000000000000000000000000000000000000000000081526004016115039061294f565b60405180910390fd5b565b600033905090565b600073ffffffffffffffffffffffffffffffffffffffff168373ffffffffffffffffffffffffffffffffffffffff1603611585576040517f08c379a000000000000000000000000000000000000000000000000000000000815260040161157c906129e1565b60405180910390fd5b600073ffffffffffffffffffffffffffffffffffffffff168273ffffffffffffffffffffffffffffffffffffffff16036115f4576040517f08c379a00000000000000000000000000000000000000000000000000000000081526004016115eb90612a73565b60405180910390fd5b80600160008573ffffffffffffffffffffffffffffffffffffffff1673ffffffffffffffffffffffffffffffffffffffff16815260200190815260200160002060008473ffffffffffffffffffffffffffffffffffffffff1673ffffffffffffffffffffffffffffffffffffffff168152602001908152602001600020819055508173ffffffffffffffffffffffffffffffffffffffff168373ffffffffffffffffffffffffffffffffffffffff167f8c5be1e5ebec7d5bd14f71427d1e84f3dd0314c0f7b2291e5b200ac8c7c3b925836040516116d291906121a6565b60405180910390a3505050565b6116e761150e565b73ffffffffffffffffffffffffffffffffffffffff16611705610a23565b73ffffffffffffffffffffffffffffffffffffffff161461175b576040517f08c379a000000000000000000000000000000000000000000000000000000000815260040161175290612adf565b60405180910390fd5b565b600061176984846111a2565b90507fffffffffffffffffffffffffffffffffffffffffffffffffffffffffffffffff81146117e357818110156117d5576040517f08c379a00000000000000000000000000000000000000000000000000000000081526004016117cc90612b4b565b60405180910390fd5b6117e28484848403611516565b5b50505050565b600073ffffffffffffffffffffffffffffffffffffffff168373ffffffffffffffffffffffffffffffffffffffff1603611858576040517f08c379a000000000000000000000000000000000000000000000000000000000815260040161184f90612bdd565b60405180910390fd5b600073ffffffffffffffffffffffffffffffffffffffff168273ffffffffffffffffffffffffffffffffffffffff16036118c7576040517f08c379a00000000000000000000000000000000000000000000000000000000081526004016118be90612c6f565b60405180910390fd5b6118d2838383611f72565b60008060008573ffffffffffffffffffffffffffffffffffffffff1673ffffffffffffffffffffffffffffffffffffffff16815260200190815260200160002054905081811015611958576040517f08c379a000000000000000000000000000000000000000000000000000000000815260040161194f90612d01565b60405180910390fd5b8181036000808673ffffffffffffffffffffffffffffffffffffffff1673ffffffffffffffffffffffffffffffffffffffff16815260200190815260200160002081905550816000808573ffffffffffffffffffffffffffffffffffffffff1673ffffffffffffffffffffffffffffffffffffffff16815260200190815260200160002060008282546119eb9190612519565b925050819055508273ffffffffffffffffffffffffffffffffffffffff168473ffffffffffffffffffffffffffffffffffffffff167fddf252ad1be2c89b69c2b068fc378daa952ba7f163c4a11628f55a4df523b3ef84604051611a4f91906121a6565b60405180910390a3611a62848484611f77565b50505050565b611a70610988565b611aaf576040517f08c379a0000000000000000000000000000000000000000000000000000000008152600401611aa690612d6d565b60405180910390fd5b565b611ab9611a68565b6000600560146101000a81548160ff0219169083151502179055507f5db9ee0a495bf2e6ff9c91a7834c1ba4fdd244a5e8aa4e537bd38aeae4b073aa611afd61150e565b604051611b0a9190612223565b60405180910390a1565b6000600560009054906101000a900473ffffffffffffffffffffffffffffffffffffffff16905081600560006101000a81548173ffffffffffffffffffffffffffffffffffffffff021916908373ffffffffffffffffffffffffffffffffffffffff1602179055508173ffffffffffffffffffffffffffffffffffffffff168173ffffffffffffffffffffffffffffffffffffffff167f8be0079c531659141344cd1fd0a4f28419497f9722a3daafe3b4186f6b6457e060405160405180910390a35050565b600073ffffffffffffffffffffffffffffffffffffffff168273ffffffffffffffffffffffffffffffffffffffff1603611c49576040517f08c379a0000000000000000000000000000000000000000000000000000000008152600401611c4090612dd9565b60405180910390fd5b611c5560008383611f72565b8060026000828254611c679190612519565b92505081905550806000808473ffffffffffffffffffffffffffffffffffffffff1673ffffffffffffffffffffffffffffffffffffffff1681526020019081526020016000206000828254611cbc9190612519565b925050819055508173ffffffffffffffffffffffffffffffffffffffff16600073ffffffffffffffffffffffffffffffffffffffff167fddf252ad1be2c89b69c2b068fc378daa952ba7f163c4a11628f55a4df523b3ef83604051611d2191906121a6565b60405180910390a3611d3560008383611f77565b5050565b611d416114c4565b6001600560146101000a81548160ff0219169083151502179055507f62e78cea01bee320cd4e420270b5ea74000d11b0c9f74754ebdbfc544b05a258611d8561150e565b604051611d929190612223565b60405180910390a1565b600073ffffffffffffffffffffffffffffffffffffffff168273ffffffffffffffffffffffffffffffffffffffff1603611e0b576040517f08c379a0000000000000000000000000000000000000000000000000000000008152600401611e0290612e6b565b60405180910390fd5b611e1782600083611f72565b60008060008473ffffffffffffffffffffffffffffffffffffffff1673ffffffffffffffffffffffffffffffffffffffff16815260200190815260200160002054905081811015611e9d576040517f08c379a0000000000000000000000000000000000000000000000000000000008152600401611e9490612efd565b60405180910390fd5b8181036000808573ffffffffffffffffffffffffffffffffffffffff1673ffffffffffffffffffffffffffffffffffffffff168152602001908152602001600020819055508160026000828254611ef49190612f1d565b92505081905550600073ffffffffffffffffffffffffffffffffffffffff168373ffffffffffffffffffffffffffffffffffffffff167fddf252ad1be2c89b69c2b068fc378daa952ba7f163c4a11628f55a4df523b3ef84604051611f5991906121a6565b60405180910390a3611f6d83600084611f77565b505050565b505050565b505050565b600080fd5b6000819050919050565b611f9481611f81565b8114611f9f57600080fd5b50565b600081359050611fb181611f8b565b92915050565b600060208284031215611fcd57611fcc611f7c565b5b6000611fdb84828501611fa2565b91505092915050565b600081519050919050565b600082825260208201905092915050565b60005b8381101561201e578082015181840152602081019050612003565b60008484015250505050565b6000601f19601f8301169050919050565b600061204682611fe4565b6120508185611fef565b9350612060818560208601612000565b6120698161202a565b840191505092915050565b6000602082019050818103600083015261208e818461203b565b905092915050565b600073ffffffffffffffffffffffffffffffffffffffff82169050919050565b60006120c182612096565b9050919050565b6120d1816120b6565b81146120dc57600080fd5b50565b6000813590506120ee816120c8565b92915050565b6000806040838503121561210b5761210a611f7c565b5b6000612119858286016120df565b925050602061212a85828601611fa2565b9150509250929050565b60008115159050919050565b61214981612134565b82525050565b60006020820190506121646000830184612140565b92915050565b6000602082840312156121805761217f611f7c565b5b600061218e848285016120df565b91505092915050565b6121a081611f81565b82525050565b60006020820190506121bb6000830184612197565b92915050565b6000806000606084860312156121da576121d9611f7c565b5b60006121e8868287016120df565b93505060206121f9868287016120df565b925050604061220a86828701611fa2565b9150509250925092565b61221d816120b6565b82525050565b60006020820190506122386000830184612214565b92915050565b600060ff82169050919050565b6122548161223e565b82525050565b600060208201905061226f600083018461224b565b92915050565b600067ffffffffffffffff82169050919050565b61229281612275565b811461229d57600080fd5b50565b6000813590506122af81612289565b92915050565b600080604083850312156122cc576122cb611f7c565b5b60006122da85828601611fa2565b92505060206122eb858286016122a0565b9150509250929050565b6000806040838503121561230c5761230b611f7c565b5b600061231a858286016120df565b925050602061232b858286016120df565b9150509250929050565b60008060006060848603121561234e5761234d611f7c565b5b600061235c868287016120df565b935050602061236d86828701611fa2565b925050604061237e86828701611fa2565b9150509250925092565b61239181612275565b82525050565b60006020820190506123ac6000830184612388565b92915050565b7f4d616e6167654c69666520746f6b656e206973206e6f74207365740000000000600082015250565b60006123e8601b83611fef565b91506123f3826123b2565b602082019050919050565b60006020820190508181036000830152612417816123db565b9050919050565b7f4f6e6c79204d616e6167654c69666520746f6b656e0000000000000000000000600082015250565b6000612454601583611fef565b915061245f8261241e565b602082019050919050565b6000602082019050818103600083015261248381612447565b9050919050565b7f4e487b7100000000000000000000000000000000000000000000000000000000600052602260045260246000fd5b600060028204905060018216806124d157607f821691505b6020821081036124e4576124e361248a565b5b50919050565b7f4e487b7100000000000000000000000000000000000000000000000000000000600052601160045260246000fd5b600061252482611f81565b915061252f83611f81565b9250828201905080821115612547576125466124ea565b5b92915050565b60008151905061255c816120c8565b92915050565b60006020828403121561257857612577611f7c565b5b60006125868482850161254d565b91505092915050565b7f506c6174666f726d57616c6c65742063616e6e6f7420636c61696d0000000000600082015250565b60006125c5601b83611fef565b91506125d08261258f565b602082019050919050565b600060208201905081810360008301526125f4816125b8565b9050919050565b7f45524332303a2064656372656173656420616c6c6f77616e63652062656c6f7760008201527f207a65726f000000000000000000000000000000000000000000000000000000602082015250565b6000612657602583611fef565b9150612662826125fb565b604082019050919050565b600060208201905081810360008301526126868161264a565b9050919050565b7f4f6e792061646d696e732063616e20657865637574652074686973206f70657260008201527f6174696f6e000000000000000000000000000000000000000000000000000000602082015250565b60006126e9602583611fef565b91506126f48261268d565b604082019050919050565b60006020820190508181036000830152612718816126dc565b9050919050565b60008151905061272e81611f8b565b92915050565b60006020828403121561274a57612749611f7c565b5b60006127588482850161271f565b91505092915050565b600061276c82612275565b915061277783612275565b9250828203905067ffffffffffffffff811115612797576127966124ea565b5b92915050565b60006127a882611f81565b91506127b383611f81565b92508282026127c181611f81565b915082820484148315176127d8576127d76124ea565b5b5092915050565b7f4f6e6c7920686f6d65206f776e657220616e6420696e766573746f727320636160008201527f6e20657865637574652074686973000000000000000000000000000000000000602082015250565b600061283b602e83611fef565b9150612846826127df565b604082019050919050565b6000602082019050818103600083015261286a8161282e565b9050919050565b7f4f776e61626c653a206e6577206f776e657220697320746865207a65726f206160008201527f6464726573730000000000000000000000000000000000000000000000000000602082015250565b60006128cd602683611fef565b91506128d882612871565b604082019050919050565b600060208201905081810360008301526128fc816128c0565b9050919050565b7f5061757361626c653a2070617573656400000000000000000000000000000000600082015250565b6000612939601083611fef565b915061294482612903565b602082019050919050565b600060208201905081810360008301526129688161292c565b9050919050565b7f45524332303a20617070726f76652066726f6d20746865207a65726f2061646460008201527f7265737300000000000000000000000000000000000000000000000000000000602082015250565b60006129cb602483611fef565b91506129d68261296f565b604082019050919050565b600060208201905081810360008301526129fa816129be565b9050919050565b7f45524332303a20617070726f766520746f20746865207a65726f20616464726560008201527f7373000000000000000000000000000000000000000000000000000000000000602082015250565b6000612a5d602283611fef565b9150612a6882612a01565b604082019050919050565b60006020820190508181036000830152612a8c81612a50565b9050919050565b7f4f776e61626c653a2063616c6c6572206973206e6f7420746865206f776e6572600082015250565b6000612ac9602083611fef565b9150612ad482612a93565b602082019050919050565b60006020820190508181036000830152612af881612abc565b9050919050565b7f45524332303a20696e73756666696369656e7420616c6c6f77616e6365000000600082015250565b6000612b35601d83611fef565b9150612b4082612aff565b602082019050919050565b60006020820190508181036000830152612b6481612b28565b9050919050565b7f45524332303a207472616e736665722066726f6d20746865207a65726f20616460008201527f6472657373000000000000000000000000000000000000000000000000000000602082015250565b6000612bc7602583611fef565b9150612bd282612b6b565b604082019050919050565b60006020820190508181036000830152612bf681612bba565b9050919050565b7f45524332303a207472616e7366657220746f20746865207a65726f206164647260008201527f6573730000000000000000000000000000000000000000000000000000000000602082015250565b6000612c59602383611fef565b9150612c6482612bfd565b604082019050919050565b60006020820190508181036000830152612c8881612c4c565b9050919050565b7f45524332303a207472616e7366657220616d6f756e742065786365656473206260008201527f616c616e63650000000000000000000000000000000000000000000000000000602082015250565b6000612ceb602683611fef565b9150612cf682612c8f565b604082019050919050565b60006020820190508181036000830152612d1a81612cde565b9050919050565b7f5061757361626c653a206e6f7420706175736564000000000000000000000000600082015250565b6000612d57601483611fef565b9150612d6282612d21565b602082019050919050565b60006020820190508181036000830152612d8681612d4a565b9050919050565b7f45524332303a206d696e7420746f20746865207a65726f206164647265737300600082015250565b6000612dc3601f83611fef565b9150612dce82612d8d565b602082019050919050565b60006020820190508181036000830152612df281612db6565b9050919050565b7f45524332303a206275726e2066726f6d20746865207a65726f2061646472657360008201527f7300000000000000000000000000000000000000000000000000000000000000602082015250565b6000612e55602183611fef565b9150612e6082612df9565b604082019050919050565b60006020820190508181036000830152612e8481612e48565b9050919050565b7f45524332303a206275726e20616d6f756e7420657863656564732062616c616e60008201527f6365000000000000000000000000000000000000000000000000000000000000602082015250565b6000612ee7602283611fef565b9150612ef282612e8b565b604082019050919050565b60006020820190508181036000830152612f1681612eda565b9050919050565b6000612f2882611f81565b9150612f3383611f81565b9250828203905081811115612f4b57612f4a6124ea565b5b9291505056fea2646970667358221220621e5d0b149ceed8ea2ac7e4ed6228522931c6296a15a142dc1a3b5797c7fa1d64736f6c63430008110033",
  "linkReferences": {},
  "deployedLinkReferences": {}
}