{
  "_format": "hh-sol-artifact-1",
  "contractName": "ManageLife",
  "sourceName": "contracts/ManageLife.sol",
  "abi": [
    {
      "inputs": [],
      "stateMutability": "nonpayable",
      "type": "constructor"
    },
    {
      "anonymous": false,
      "inputs": [
        {
          "indexed": true,
          "internalType": "address",
          "name": "owner",
          "type": "address"
        },
        {
          "indexed": true,
          "internalType": "address",
          "name": "approved",
          "type": "address"
        },
        {
          "indexed": true,
          "internalType": "uint256",
          "name": "tokenId",
          "type": "uint256"
        }
      ],
      "name": "Approval",
      "type": "event"
    },
    {
      "anonymous": false,
      "inputs": [
        {
          "indexed": true,
          "internalType": "address",
          "name": "owner",
          "type": "address"
        },
        {
          "indexed": true,
          "internalType": "address",
          "name": "operator",
          "type": "address"
        },
        {
          "indexed": false,
          "internalType": "bool",
          "name": "approved",
          "type": "bool"
        }
      ],
      "name": "ApprovalForAll",
      "type": "event"
    },
    {
      "anonymous": false,
      "inputs": [
        {
          "indexed": false,
          "internalType": "uint256",
          "name": "tokenId",
          "type": "uint256"
        }
      ],
      "name": "FullyPayed",
      "type": "event"
    },
    {
      "anonymous": false,
      "inputs": [
        {
          "indexed": true,
          "internalType": "address",
          "name": "previousOwner",
          "type": "address"
        },
        {
          "indexed": true,
          "internalType": "address",
          "name": "newOwner",
          "type": "address"
        }
      ],
      "name": "OwnershipTransferred",
      "type": "event"
    },
    {
      "anonymous": false,
      "inputs": [
        {
          "indexed": false,
          "internalType": "address",
          "name": "newPropertyCustodian",
          "type": "address"
        }
      ],
      "name": "PropertyCustodianUpdated",
      "type": "event"
    },
    {
      "anonymous": false,
      "inputs": [
        {
          "indexed": true,
          "internalType": "address",
          "name": "from",
          "type": "address"
        },
        {
          "indexed": false,
          "internalType": "uint256",
          "name": "tokenId",
          "type": "uint256"
        }
      ],
      "name": "PropertyReturned",
      "type": "event"
    },
    {
      "anonymous": false,
      "inputs": [
        {
          "indexed": false,
          "internalType": "uint256",
          "name": "tokenId",
          "type": "uint256"
        }
      ],
      "name": "StakingIniatialized",
      "type": "event"
    },
    {
      "anonymous": false,
      "inputs": [
        {
          "indexed": false,
          "internalType": "uint256",
          "name": "token",
          "type": "uint256"
        },
        {
          "indexed": false,
          "internalType": "uint256",
          "name": "newLifeTokenIssuanceRate",
          "type": "uint256"
        }
      ],
      "name": "TokenIssuanceRateUpdated",
      "type": "event"
    },
    {
      "anonymous": false,
      "inputs": [
        {
          "indexed": true,
          "internalType": "address",
          "name": "from",
          "type": "address"
        },
        {
          "indexed": true,
          "internalType": "address",
          "name": "to",
          "type": "address"
        },
        {
          "indexed": true,
          "internalType": "uint256",
          "name": "tokenId",
          "type": "uint256"
        }
      ],
      "name": "Transfer",
      "type": "event"
    },
    {
      "inputs": [],
      "name": "PROPERTY_CUSTODIAN",
      "outputs": [
        {
          "internalType": "address",
          "name": "",
          "type": "address"
        }
      ],
      "stateMutability": "view",
      "type": "function"
    },
    {
      "inputs": [
        {
          "internalType": "address",
          "name": "to",
          "type": "address"
        },
        {
          "internalType": "uint256",
          "name": "tokenId",
          "type": "uint256"
        }
      ],
      "name": "approve",
      "outputs": [],
      "stateMutability": "nonpayable",
      "type": "function"
    },
    {
      "inputs": [
        {
          "internalType": "address",
          "name": "owner",
          "type": "address"
        }
      ],
      "name": "balanceOf",
      "outputs": [
        {
          "internalType": "uint256",
          "name": "",
          "type": "uint256"
        }
      ],
      "stateMutability": "view",
      "type": "function"
    },
    {
      "inputs": [
        {
          "internalType": "uint256",
          "name": "tokenId",
          "type": "uint256"
        }
      ],
      "name": "burn",
      "outputs": [],
      "stateMutability": "nonpayable",
      "type": "function"
    },
    {
      "inputs": [
        {
          "internalType": "uint256",
          "name": "tokenId",
          "type": "uint256"
        }
      ],
      "name": "fullyPayed",
      "outputs": [
        {
          "internalType": "bool",
          "name": "",
          "type": "bool"
        }
      ],
      "stateMutability": "view",
      "type": "function"
    },
    {
      "inputs": [
        {
          "internalType": "uint256",
          "name": "tokenId",
          "type": "uint256"
        }
      ],
      "name": "getApproved",
      "outputs": [
        {
          "internalType": "address",
          "name": "",
          "type": "address"
        }
      ],
      "stateMutability": "view",
      "type": "function"
    },
    {
      "inputs": [],
      "name": "getBaseURI",
      "outputs": [
        {
          "internalType": "string",
          "name": "",
          "type": "string"
        }
      ],
      "stateMutability": "pure",
      "type": "function"
    },
    {
      "inputs": [
        {
          "internalType": "address",
          "name": "owner",
          "type": "address"
        },
        {
          "internalType": "address",
          "name": "operator",
          "type": "address"
        }
      ],
      "name": "isApprovedForAll",
      "outputs": [
        {
          "internalType": "bool",
          "name": "",
          "type": "bool"
        }
      ],
      "stateMutability": "view",
      "type": "function"
    },
    {
      "inputs": [],
      "name": "lifeToken",
      "outputs": [
        {
          "internalType": "address",
          "name": "",
          "type": "address"
        }
      ],
      "stateMutability": "view",
      "type": "function"
    },
    {
      "inputs": [
        {
          "internalType": "uint256",
          "name": "tokenId",
          "type": "uint256"
        }
      ],
      "name": "lifeTokenIssuanceRate",
      "outputs": [
        {
          "internalType": "uint256",
          "name": "",
          "type": "uint256"
        }
      ],
      "stateMutability": "view",
      "type": "function"
    },
    {
      "inputs": [
        {
          "internalType": "uint256",
          "name": "tokenId",
          "type": "uint256"
        }
      ],
      "name": "markFullyPayed",
      "outputs": [],
      "stateMutability": "nonpayable",
      "type": "function"
    },
    {
      "inputs": [],
      "name": "marketplace",
      "outputs": [
        {
          "internalType": "address",
          "name": "",
          "type": "address"
        }
      ],
      "stateMutability": "view",
      "type": "function"
    },
    {
      "inputs": [
        {
          "internalType": "uint256",
          "name": "propertyId",
          "type": "uint256"
        },
        {
          "internalType": "uint256",
          "name": "lifeTokenIssuanceRate_",
          "type": "uint256"
        }
      ],
      "name": "mint",
      "outputs": [],
      "stateMutability": "nonpayable",
      "type": "function"
    },
    {
      "inputs": [],
      "name": "name",
      "outputs": [
        {
          "internalType": "string",
          "name": "",
          "type": "string"
        }
      ],
      "stateMutability": "view",
      "type": "function"
    },
    {
      "inputs": [],
      "name": "owner",
      "outputs": [
        {
          "internalType": "address",
          "name": "",
          "type": "address"
        }
      ],
      "stateMutability": "view",
      "type": "function"
    },
    {
      "inputs": [
        {
          "internalType": "uint256",
          "name": "tokenId",
          "type": "uint256"
        }
      ],
      "name": "ownerOf",
      "outputs": [
        {
          "internalType": "address",
          "name": "",
          "type": "address"
        }
      ],
      "stateMutability": "view",
      "type": "function"
    },
    {
      "inputs": [],
      "name": "renounceOwnership",
      "outputs": [],
      "stateMutability": "nonpayable",
      "type": "function"
    },
    {
      "inputs": [
        {
          "internalType": "uint256",
          "name": "tokenId",
          "type": "uint256"
        }
      ],
      "name": "retract",
      "outputs": [],
      "stateMutability": "nonpayable",
      "type": "function"
    },
    {
      "inputs": [
        {
          "internalType": "uint256",
          "name": "tokenId",
          "type": "uint256"
        }
      ],
      "name": "returnProperty",
      "outputs": [],
      "stateMutability": "nonpayable",
      "type": "function"
    },
    {
      "inputs": [
        {
          "internalType": "address",
          "name": "from",
          "type": "address"
        },
        {
          "internalType": "address",
          "name": "to",
          "type": "address"
        },
        {
          "internalType": "uint256",
          "name": "tokenId",
          "type": "uint256"
        }
      ],
      "name": "safeTransferFrom",
      "outputs": [],
      "stateMutability": "nonpayable",
      "type": "function"
    },
    {
      "inputs": [
        {
          "internalType": "address",
          "name": "from",
          "type": "address"
        },
        {
          "internalType": "address",
          "name": "to",
          "type": "address"
        },
        {
          "internalType": "uint256",
          "name": "tokenId",
          "type": "uint256"
        },
        {
          "internalType": "bytes",
          "name": "data",
          "type": "bytes"
        }
      ],
      "name": "safeTransferFrom",
      "outputs": [],
      "stateMutability": "nonpayable",
      "type": "function"
    },
    {
      "inputs": [
        {
          "internalType": "address",
          "name": "operator",
          "type": "address"
        },
        {
          "internalType": "bool",
          "name": "approved",
          "type": "bool"
        }
      ],
      "name": "setApprovalForAll",
      "outputs": [],
      "stateMutability": "nonpayable",
      "type": "function"
    },
    {
      "inputs": [
        {
          "internalType": "address",
          "name": "lifeToken_",
          "type": "address"
        }
      ],
      "name": "setLifeToken",
      "outputs": [],
      "stateMutability": "nonpayable",
      "type": "function"
    },
    {
      "inputs": [
        {
          "internalType": "address payable",
          "name": "marketplace_",
          "type": "address"
        }
      ],
      "name": "setMarketplace",
      "outputs": [],
      "stateMutability": "nonpayable",
      "type": "function"
    },
    {
      "inputs": [
        {
          "internalType": "bytes4",
          "name": "interfaceId",
          "type": "bytes4"
        }
      ],
      "name": "supportsInterface",
      "outputs": [
        {
          "internalType": "bool",
          "name": "",
          "type": "bool"
        }
      ],
      "stateMutability": "view",
      "type": "function"
    },
    {
      "inputs": [],
      "name": "symbol",
      "outputs": [
        {
          "internalType": "string",
          "name": "",
          "type": "string"
        }
      ],
      "stateMutability": "view",
      "type": "function"
    },
    {
      "inputs": [
        {
          "internalType": "uint256",
          "name": "tokenId",
          "type": "uint256"
        }
      ],
      "name": "tokenURI",
      "outputs": [
        {
          "internalType": "string",
          "name": "",
          "type": "string"
        }
      ],
      "stateMutability": "view",
      "type": "function"
    },
    {
      "inputs": [
        {
          "internalType": "address",
          "name": "from",
          "type": "address"
        },
        {
          "internalType": "address",
          "name": "to",
          "type": "address"
        },
        {
          "internalType": "uint256",
          "name": "tokenId",
          "type": "uint256"
        }
      ],
      "name": "transferFrom",
      "outputs": [],
      "stateMutability": "nonpayable",
      "type": "function"
    },
    {
      "inputs": [
        {
          "internalType": "address",
          "name": "newOwner",
          "type": "address"
        }
      ],
      "name": "transferOwnership",
      "outputs": [],
      "stateMutability": "nonpayable",
      "type": "function"
    },
    {
      "inputs": [
        {
          "internalType": "uint256",
          "name": "tokenId",
          "type": "uint256"
        },
        {
          "internalType": "uint256",
          "name": "newLifeTokenIssuanceRate",
          "type": "uint256"
        }
      ],
      "name": "updateLifeTokenIssuanceRate",
      "outputs": [],
      "stateMutability": "nonpayable",
      "type": "function"
    },
    {
      "inputs": [
        {
          "internalType": "address",
          "name": "_newPropertyCustodian",
          "type": "address"
        }
      ],
      "name": "updatePropertyCustodian",
      "outputs": [],
      "stateMutability": "nonpayable",
      "type": "function"
    }
  ],
  "bytecode": "0x608060405260016008553480156200001657600080fd5b506040518060400160405280600a81526020017f4d616e6167654c696665000000000000000000000000000000000000000000008152506040518060400160405280600581526020017f4d4c494645000000000000000000000000000000000000000000000000000000815250816000908162000094919062000458565b508060019081620000a6919062000458565b505050620000c9620000bd6200011060201b60201c565b6200011860201b60201c565b33600b60006101000a81548173ffffffffffffffffffffffffffffffffffffffff021916908373ffffffffffffffffffffffffffffffffffffffff1602179055506200053f565b600033905090565b6000600760009054906101000a900473ffffffffffffffffffffffffffffffffffffffff16905081600760006101000a81548173ffffffffffffffffffffffffffffffffffffffff021916908373ffffffffffffffffffffffffffffffffffffffff1602179055508173ffffffffffffffffffffffffffffffffffffffff168173ffffffffffffffffffffffffffffffffffffffff167f8be0079c531659141344cd1fd0a4f28419497f9722a3daafe3b4186f6b6457e060405160405180910390a35050565b600081519050919050565b7f4e487b7100000000000000000000000000000000000000000000000000000000600052604160045260246000fd5b7f4e487b7100000000000000000000000000000000000000000000000000000000600052602260045260246000fd5b600060028204905060018216806200026057607f821691505b60208210810362000276576200027562000218565b5b50919050565b60008190508160005260206000209050919050565b60006020601f8301049050919050565b600082821b905092915050565b600060088302620002e07fffffffffffffffffffffffffffffffffffffffffffffffffffffffffffffffff82620002a1565b620002ec8683620002a1565b95508019841693508086168417925050509392505050565b6000819050919050565b6000819050919050565b600062000339620003336200032d8462000304565b6200030e565b62000304565b9050919050565b6000819050919050565b620003558362000318565b6200036d620003648262000340565b848454620002ae565b825550505050565b600090565b6200038462000375565b620003918184846200034a565b505050565b5b81811015620003b957620003ad6000826200037a565b60018101905062000397565b5050565b601f8211156200040857620003d2816200027c565b620003dd8462000291565b81016020851015620003ed578190505b62000405620003fc8562000291565b83018262000396565b50505b505050565b600082821c905092915050565b60006200042d600019846008026200040d565b1980831691505092915050565b60006200044883836200041a565b9150826002028217905092915050565b6200046382620001de565b67ffffffffffffffff8111156200047f576200047e620001e9565b5b6200048b825462000247565b62000498828285620003bd565b600060209050601f831160018114620004d05760008415620004bb578287015190505b620004c785826200043a565b86555062000537565b601f198416620004e0866200027c565b60005b828110156200050a57848901518255600182019150602085019450602081019050620004e3565b868310156200052a578489015162000526601f8916826200041a565b8355505b6001600288020188555050505b505050505050565b613c81806200054f6000396000f3fe608060405234801561001057600080fd5b50600436106101e55760003560e01c806370bba7271161010f57806395d89b41116100a2578063b88d4fde11610071578063b88d4fde14610552578063c87b56dd1461056e578063e985e9c51461059e578063f2fde38b146105ce576101e5565b806395d89b41146104de5780639fab6656146104fc578063a22cb46514610518578063abc8c7af14610534576101e5565b8063749f0427116100de578063749f0427146104585780638da5cb5b146104745780638e412a86146104925780638ef6aa02146104c2576101e5565b806370bba727146103f8578063714c539814610414578063715018a61461043257806373ad6c2d1461043c576101e5565b80631b61f17e1161018757806342842e0e1161015657806342842e0e1461036057806342966c681461037c5780636352211e1461039857806370a08231146103c8576101e5565b80631b61f17e146102da57806323b872dd1461030a57806330037c1414610326578063373b19ec14610344576101e5565b8063095ea7b3116101c3578063095ea7b314610268578063106048f81461028457806316975dc2146102a25780631b2ef1ca146102be576101e5565b806301ffc9a7146101ea57806306fdde031461021a578063081812fc14610238575b600080fd5b61020460048036038101906101ff91906128ee565b6105ea565b6040516102119190612936565b60405180910390f35b6102226106cc565b60405161022f91906129e1565b60405180910390f35b610252600480360381019061024d9190612a39565b61075e565b60405161025f9190612aa7565b60405180910390f35b610282600480360381019061027d9190612aee565b6107a4565b005b61028c610897565b6040516102999190612aa7565b60405180910390f35b6102bc60048036038101906102b79190612b2e565b6108bd565b005b6102d860048036038101906102d39190612b5b565b610940565b005b6102f460048036038101906102ef9190612a39565b610a55565b6040516103019190612baa565b60405180910390f35b610324600480360381019061031f9190612bc5565b610a72565b005b61032e610ad2565b60405161033b9190612aa7565b60405180910390f35b61035e60048036038101906103599190612a39565b610afc565b005b61037a60048036038101906103759190612bc5565b610c3a565b005b61039660048036038101906103919190612a39565b610c5a565b005b6103b260048036038101906103ad9190612a39565b610c6e565b6040516103bf9190612aa7565b60405180910390f35b6103e260048036038101906103dd9190612b2e565b610d1f565b6040516103ef9190612baa565b60405180910390f35b610412600480360381019061040d9190612b5b565b610dd6565b005b61041c610f4f565b60405161042991906129e1565b60405180910390f35b61043a610f5e565b005b61045660048036038101906104519190612c56565b610f72565b005b610472600480360381019061046d9190612a39565b610fbe565b005b61047c6110bc565b6040516104899190612aa7565b60405180910390f35b6104ac60048036038101906104a79190612a39565b6110e6565b6040516104b99190612936565b60405180910390f35b6104dc60048036038101906104d79190612b2e565b611110565b005b6104e661115c565b6040516104f391906129e1565b60405180910390f35b61051660048036038101906105119190612a39565b6111ee565b005b610532600480360381019061052d9190612caf565b611223565b005b61053c611239565b6040516105499190612aa7565b60405180910390f35b61056c60048036038101906105679190612e24565b611263565b005b61058860048036038101906105839190612a39565b6112c5565b60405161059591906129e1565b60405180910390f35b6105b860048036038101906105b39190612ea7565b6112d7565b6040516105c59190612936565b60405180910390f35b6105e860048036038101906105e39190612b2e565b61136b565b005b60007f80ac58cd000000000000000000000000000000000000000000000000000000007bffffffffffffffffffffffffffffffffffffffffffffffffffffffff1916827bffffffffffffffffffffffffffffffffffffffffffffffffffffffff191614806106b557507f5b5e139f000000000000000000000000000000000000000000000000000000007bffffffffffffffffffffffffffffffffffffffffffffffffffffffff1916827bffffffffffffffffffffffffffffffffffffffffffffffffffffffff1916145b806106c557506106c4826113ee565b5b9050919050565b6060600080546106db90612f16565b80601f016020809104026020016040519081016040528092919081815260200182805461070790612f16565b80156107545780601f1061072957610100808354040283529160200191610754565b820191906000526020600020905b81548152906001019060200180831161073757829003601f168201915b5050505050905090565b600061076982611458565b6004600083815260200190815260200160002060009054906101000a900473ffffffffffffffffffffffffffffffffffffffff169050919050565b6107ad816110e6565b806107f257506107bb6110bc565b73ffffffffffffffffffffffffffffffffffffffff166107da82610c6e565b73ffffffffffffffffffffffffffffffffffffffff16145b8061084a5750600a60009054906101000a900473ffffffffffffffffffffffffffffffffffffffff1673ffffffffffffffffffffffffffffffffffffffff168273ffffffffffffffffffffffffffffffffffffffff16145b610889576040517f08c379a000000000000000000000000000000000000000000000000000000000815260040161088090612f93565b60405180910390fd5b61089382826114a3565b5050565b600b60009054906101000a900473ffffffffffffffffffffffffffffffffffffffff1681565b6108c56115ba565b80600b60006101000a81548173ffffffffffffffffffffffffffffffffffffffff021916908373ffffffffffffffffffffffffffffffffffffffff1602179055507f7596fcfae451a64cace636b766c44ba94097b9dd5d64062d3d936b3add911ec1816040516109359190612aa7565b60405180910390a150565b6109486115ba565b600073ffffffffffffffffffffffffffffffffffffffff16600960009054906101000a900473ffffffffffffffffffffffffffffffffffffffff1673ffffffffffffffffffffffffffffffffffffffff16036109d9576040517f08c379a00000000000000000000000000000000000000000000000000000000081526004016109d090612fff565b60405180910390fd5b60008290506109e781611638565b15610a27576040517f08c379a0000000000000000000000000000000000000000000000000000000008152600401610a1e9061306b565b60405180910390fd5b610a38610a326110bc565b846116a4565b81600c600083815260200190815260200160002081905550505050565b6000600c6000838152602001908152602001600020549050919050565b610a83610a7d61187d565b82611885565b610ac2576040517f08c379a0000000000000000000000000000000000000000000000000000000008152600401610ab9906130fd565b60405180910390fd5b610acd83838361191a565b505050565b6000600960009054906101000a900473ffffffffffffffffffffffffffffffffffffffff16905090565b610b046115ba565b6001600d600083815260200190815260200160002060006101000a81548160ff021916908315150217905550610b3981610c6e565b73ffffffffffffffffffffffffffffffffffffffff16610b576110bc565b73ffffffffffffffffffffffffffffffffffffffff1614610c0057600960009054906101000a900473ffffffffffffffffffffffffffffffffffffffff1673ffffffffffffffffffffffffffffffffffffffff16638fad2627826040518263ffffffff1660e01b8152600401610bcd9190612baa565b600060405180830381600087803b158015610be757600080fd5b505af1158015610bfb573d6000803e3d6000fd5b505050505b7fd5b366e46c30c0e5b650ac2df5d74200515693e8dddba83409a5db181d7c299281604051610c2f9190612baa565b60405180910390a150565b610c5583838360405180602001604052806000815250611263565b505050565b610c626115ba565b610c6b81611b80565b50565b6000806002600084815260200190815260200160002060009054906101000a900473ffffffffffffffffffffffffffffffffffffffff169050600073ffffffffffffffffffffffffffffffffffffffff168173ffffffffffffffffffffffffffffffffffffffff1603610d16576040517f08c379a0000000000000000000000000000000000000000000000000000000008152600401610d0d90613169565b60405180910390fd5b80915050919050565b60008073ffffffffffffffffffffffffffffffffffffffff168273ffffffffffffffffffffffffffffffffffffffff1603610d8f576040517f08c379a0000000000000000000000000000000000000000000000000000000008152600401610d86906131fb565b60405180910390fd5b600360008373ffffffffffffffffffffffffffffffffffffffff1673ffffffffffffffffffffffffffffffffffffffff168152602001908152602001600020549050919050565b610dde6115ba565b600960009054906101000a900473ffffffffffffffffffffffffffffffffffffffff1673ffffffffffffffffffffffffffffffffffffffff16638fad2627836040518263ffffffff1660e01b8152600401610e399190612baa565b600060405180830381600087803b158015610e5357600080fd5b505af1158015610e67573d6000803e3d6000fd5b5050505080600c600084815260200190815260200160002081905550600960009054906101000a900473ffffffffffffffffffffffffffffffffffffffff1673ffffffffffffffffffffffffffffffffffffffff1663a85a039383426040518363ffffffff1660e01b8152600401610ee092919061323e565b600060405180830381600087803b158015610efa57600080fd5b505af1158015610f0e573d6000803e3d6000fd5b505050507f65cd8169747e120e357190f330fa07804e78373538cb983ea2d369b00a26ffbc8282604051610f43929190613267565b60405180910390a15050565b6060610f59611b8c565b905090565b610f666115ba565b610f706000611bac565b565b610f7a6115ba565b80600a60006101000a81548173ffffffffffffffffffffffffffffffffffffffff021916908373ffffffffffffffffffffffffffffffffffffffff16021790555050565b610fc7816110e6565b611006576040517f08c379a0000000000000000000000000000000000000000000000000000000008152600401610ffd90613302565b60405180910390fd5b61100f81610c6e565b73ffffffffffffffffffffffffffffffffffffffff163373ffffffffffffffffffffffffffffffffffffffff161461107c576040517f08c379a000000000000000000000000000000000000000000000000000000000815260040161107390613394565b60405180910390fd5b6110b933600b60009054906101000a900473ffffffffffffffffffffffffffffffffffffffff168360405180602001604052806000815250611263565b50565b6000600760009054906101000a900473ffffffffffffffffffffffffffffffffffffffff16905090565b6000600d600083815260200190815260200160002060009054906101000a900460ff169050919050565b6111186115ba565b80600960006101000a81548173ffffffffffffffffffffffffffffffffffffffff021916908373ffffffffffffffffffffffffffffffffffffffff16021790555050565b60606001805461116b90612f16565b80601f016020809104026020016040519081016040528092919081815260200182805461119790612f16565b80156111e45780601f106111b9576101008083540402835291602001916111e4565b820191906000526020600020905b8154815290600101906020018083116111c757829003601f168201915b5050505050905090565b6111f66115ba565b61122061120282610c6e565b61120a6110bc565b8360405180602001604052806000815250611c72565b50565b61123561122e61187d565b8383611cce565b5050565b6000600a60009054906101000a900473ffffffffffffffffffffffffffffffffffffffff16905090565b61127461126e61187d565b83611885565b6112b3576040517f08c379a00000000000000000000000000000000000000000000000000000000081526004016112aa906130fd565b60405180910390fd5b6112bf84848484611c72565b50505050565b60606112d082611e3a565b9050919050565b6000600560008473ffffffffffffffffffffffffffffffffffffffff1673ffffffffffffffffffffffffffffffffffffffff16815260200190815260200160002060008373ffffffffffffffffffffffffffffffffffffffff1673ffffffffffffffffffffffffffffffffffffffff16815260200190815260200160002060009054906101000a900460ff16905092915050565b6113736115ba565b600073ffffffffffffffffffffffffffffffffffffffff168173ffffffffffffffffffffffffffffffffffffffff16036113e2576040517f08c379a00000000000000000000000000000000000000000000000000000000081526004016113d990613426565b60405180910390fd5b6113eb81611bac565b50565b60007f01ffc9a7000000000000000000000000000000000000000000000000000000007bffffffffffffffffffffffffffffffffffffffffffffffffffffffff1916827bffffffffffffffffffffffffffffffffffffffffffffffffffffffff1916149050919050565b61146181611638565b6114a0576040517f08c379a000000000000000000000000000000000000000000000000000000000815260040161149790613169565b60405180910390fd5b50565b60006114ae82610c6e565b90508073ffffffffffffffffffffffffffffffffffffffff168373ffffffffffffffffffffffffffffffffffffffff160361151e576040517f08c379a0000000000000000000000000000000000000000000000000000000008152600401611515906134b8565b60405180910390fd5b8073ffffffffffffffffffffffffffffffffffffffff1661153d61187d565b73ffffffffffffffffffffffffffffffffffffffff16148061156c575061156b8161156661187d565b6112d7565b5b6115ab576040517f08c379a00000000000000000000000000000000000000000000000000000000081526004016115a29061354a565b60405180910390fd5b6115b58383611f4c565b505050565b6115c261187d565b73ffffffffffffffffffffffffffffffffffffffff166115e06110bc565b73ffffffffffffffffffffffffffffffffffffffff1614611636576040517f08c379a000000000000000000000000000000000000000000000000000000000815260040161162d906135b6565b60405180910390fd5b565b60008073ffffffffffffffffffffffffffffffffffffffff166002600084815260200190815260200160002060009054906101000a900473ffffffffffffffffffffffffffffffffffffffff1673ffffffffffffffffffffffffffffffffffffffff1614159050919050565b600073ffffffffffffffffffffffffffffffffffffffff168273ffffffffffffffffffffffffffffffffffffffff1603611713576040517f08c379a000000000000000000000000000000000000000000000000000000000815260040161170a90613622565b60405180910390fd5b61171c81611638565b1561175c576040517f08c379a00000000000000000000000000000000000000000000000000000000081526004016117539061368e565b60405180910390fd5b61176860008383612005565b6001600360008473ffffffffffffffffffffffffffffffffffffffff1673ffffffffffffffffffffffffffffffffffffffff16815260200190815260200160002060008282546117b891906136dd565b92505081905550816002600083815260200190815260200160002060006101000a81548173ffffffffffffffffffffffffffffffffffffffff021916908373ffffffffffffffffffffffffffffffffffffffff160217905550808273ffffffffffffffffffffffffffffffffffffffff16600073ffffffffffffffffffffffffffffffffffffffff167fddf252ad1be2c89b69c2b068fc378daa952ba7f163c4a11628f55a4df523b3ef60405160405180910390a46118796000838361233e565b5050565b600033905090565b60008061189183610c6e565b90508073ffffffffffffffffffffffffffffffffffffffff168473ffffffffffffffffffffffffffffffffffffffff1614806118d357506118d281856112d7565b5b8061191157508373ffffffffffffffffffffffffffffffffffffffff166118f98461075e565b73ffffffffffffffffffffffffffffffffffffffff16145b91505092915050565b8273ffffffffffffffffffffffffffffffffffffffff1661193a82610c6e565b73ffffffffffffffffffffffffffffffffffffffff1614611990576040517f08c379a000000000000000000000000000000000000000000000000000000000815260040161198790613783565b60405180910390fd5b600073ffffffffffffffffffffffffffffffffffffffff168273ffffffffffffffffffffffffffffffffffffffff16036119ff576040517f08c379a00000000000000000000000000000000000000000000000000000000081526004016119f690613815565b60405180910390fd5b611a0a838383612005565b611a15600082611f4c565b6001600360008573ffffffffffffffffffffffffffffffffffffffff1673ffffffffffffffffffffffffffffffffffffffff1681526020019081526020016000206000828254611a659190613835565b925050819055506001600360008473ffffffffffffffffffffffffffffffffffffffff1673ffffffffffffffffffffffffffffffffffffffff1681526020019081526020016000206000828254611abc91906136dd565b92505081905550816002600083815260200190815260200160002060006101000a81548173ffffffffffffffffffffffffffffffffffffffff021916908373ffffffffffffffffffffffffffffffffffffffff160217905550808273ffffffffffffffffffffffffffffffffffffffff168473ffffffffffffffffffffffffffffffffffffffff167fddf252ad1be2c89b69c2b068fc378daa952ba7f163c4a11628f55a4df523b3ef60405160405180910390a4611b7b83838361233e565b505050565b611b8981612343565b50565b60606040518060600160405280602d8152602001613c1f602d9139905090565b6000600760009054906101000a900473ffffffffffffffffffffffffffffffffffffffff16905081600760006101000a81548173ffffffffffffffffffffffffffffffffffffffff021916908373ffffffffffffffffffffffffffffffffffffffff1602179055508173ffffffffffffffffffffffffffffffffffffffff168173ffffffffffffffffffffffffffffffffffffffff167f8be0079c531659141344cd1fd0a4f28419497f9722a3daafe3b4186f6b6457e060405160405180910390a35050565b611c7d84848461191a565b611c8984848484612396565b611cc8576040517f08c379a0000000000000000000000000000000000000000000000000000000008152600401611cbf906138db565b60405180910390fd5b50505050565b8173ffffffffffffffffffffffffffffffffffffffff168373ffffffffffffffffffffffffffffffffffffffff1603611d3c576040517f08c379a0000000000000000000000000000000000000000000000000000000008152600401611d3390613947565b60405180910390fd5b80600560008573ffffffffffffffffffffffffffffffffffffffff1673ffffffffffffffffffffffffffffffffffffffff16815260200190815260200160002060008473ffffffffffffffffffffffffffffffffffffffff1673ffffffffffffffffffffffffffffffffffffffff16815260200190815260200160002060006101000a81548160ff0219169083151502179055508173ffffffffffffffffffffffffffffffffffffffff168373ffffffffffffffffffffffffffffffffffffffff167f17307eab39ab6107e8899845ad3d59bd9653f200f220920489ca2b5937696c3183604051611e2d9190612936565b60405180910390a3505050565b6060611e4582611458565b6000600660008481526020019081526020016000208054611e6590612f16565b80601f0160208091040260200160405190810160405280929190818152602001828054611e9190612f16565b8015611ede5780601f10611eb357610100808354040283529160200191611ede565b820191906000526020600020905b815481529060010190602001808311611ec157829003601f168201915b505050505090506000611eef611b8c565b90506000815103611f04578192505050611f47565b600082511115611f39578082604051602001611f219291906139a3565b60405160208183030381529060405292505050611f47565b611f428461251d565b925050505b919050565b816004600083815260200190815260200160002060006101000a81548173ffffffffffffffffffffffffffffffffffffffff021916908373ffffffffffffffffffffffffffffffffffffffff160217905550808273ffffffffffffffffffffffffffffffffffffffff16611fbf83610c6e565b73ffffffffffffffffffffffffffffffffffffffff167f8c5be1e5ebec7d5bd14f71427d1e84f3dd0314c0f7b2291e5b200ac8c7c3b92560405160405180910390a45050565b61200e816110e6565b8061204b575061201c6110bc565b73ffffffffffffffffffffffffffffffffffffffff168373ffffffffffffffffffffffffffffffffffffffff16145b8061208857506120596110bc565b73ffffffffffffffffffffffffffffffffffffffff168273ffffffffffffffffffffffffffffffffffffffff16145b806120e05750600a60009054906101000a900473ffffffffffffffffffffffffffffffffffffffff1673ffffffffffffffffffffffffffffffffffffffff163373ffffffffffffffffffffffffffffffffffffffff16145b61211f576040517f08c379a000000000000000000000000000000000000000000000000000000000815260040161211690613a13565b60405180910390fd5b612128816110e6565b6122f7576121346110bc565b73ffffffffffffffffffffffffffffffffffffffff168373ffffffffffffffffffffffffffffffffffffffff16036121f457600960009054906101000a900473ffffffffffffffffffffffffffffffffffffffff1673ffffffffffffffffffffffffffffffffffffffff1663058d5b18826040518263ffffffff1660e01b81526004016121c19190612baa565b600060405180830381600087803b1580156121db57600080fd5b505af11580156121ef573d6000803e3d6000fd5b505050505b6121fc6110bc565b73ffffffffffffffffffffffffffffffffffffffff168273ffffffffffffffffffffffffffffffffffffffff161480156122635750600073ffffffffffffffffffffffffffffffffffffffff168373ffffffffffffffffffffffffffffffffffffffff1614155b156122f657600960009054906101000a900473ffffffffffffffffffffffffffffffffffffffff1673ffffffffffffffffffffffffffffffffffffffff16638fad2627826040518263ffffffff1660e01b81526004016122c39190612baa565b600060405180830381600087803b1580156122dd57600080fd5b505af11580156122f1573d6000803e3d6000fd5b505050505b5b7f34ca334bda0f9d747a840b13967297de3fed35e96484719795e0c2a4eb17f87b816040516123269190612baa565b60405180910390a1612339838383612005565b505050565b505050565b61234c81612585565b600060066000838152602001908152602001600020805461236c90612f16565b905014612393576006600082815260200190815260200160002060006123929190612825565b5b50565b60006123b78473ffffffffffffffffffffffffffffffffffffffff166126a2565b15612510578373ffffffffffffffffffffffffffffffffffffffff1663150b7a026123e061187d565b8786866040518563ffffffff1660e01b81526004016124029493929190613a88565b6020604051808303816000875af192505050801561243e57506040513d601f19601f8201168201806040525081019061243b9190613ae9565b60015b6124c0573d806000811461246e576040519150601f19603f3d011682016040523d82523d6000602084013e612473565b606091505b5060008151036124b8576040517f08c379a00000000000000000000000000000000000000000000000000000000081526004016124af906138db565b60405180910390fd5b805181602001fd5b63150b7a0260e01b7bffffffffffffffffffffffffffffffffffffffffffffffffffffffff1916817bffffffffffffffffffffffffffffffffffffffffffffffffffffffff191614915050612515565b600190505b949350505050565b606061252882611458565b6000612532611b8c565b90506000815111612552576040518060200160405280600081525061257d565b8061255c846126c5565b60405160200161256d9291906139a3565b6040516020818303038152906040525b915050919050565b600061259082610c6e565b905061259e81600084612005565b6125a9600083611f4c565b6001600360008373ffffffffffffffffffffffffffffffffffffffff1673ffffffffffffffffffffffffffffffffffffffff16815260200190815260200160002060008282546125f99190613835565b925050819055506002600083815260200190815260200160002060006101000a81549073ffffffffffffffffffffffffffffffffffffffff021916905581600073ffffffffffffffffffffffffffffffffffffffff168273ffffffffffffffffffffffffffffffffffffffff167fddf252ad1be2c89b69c2b068fc378daa952ba7f163c4a11628f55a4df523b3ef60405160405180910390a461269e8160008461233e565b5050565b6000808273ffffffffffffffffffffffffffffffffffffffff163b119050919050565b60606000820361270c576040518060400160405280600181526020017f30000000000000000000000000000000000000000000000000000000000000008152509050612820565b600082905060005b6000821461273e57808061272790613b16565b915050600a826127379190613b8d565b9150612714565b60008167ffffffffffffffff81111561275a57612759612cf9565b5b6040519080825280601f01601f19166020018201604052801561278c5781602001600182028036833780820191505090505b5090505b60008514612819576001826127a59190613835565b9150600a856127b49190613bbe565b60306127c091906136dd565b60f81b8183815181106127d6576127d5613bef565b5b60200101907effffffffffffffffffffffffffffffffffffffffffffffffffffffffffffff1916908160001a905350600a856128129190613b8d565b9450612790565b8093505050505b919050565b50805461283190612f16565b6000825580601f106128435750612862565b601f0160209004906000526020600020908101906128619190612865565b5b50565b5b8082111561287e576000816000905550600101612866565b5090565b6000604051905090565b600080fd5b600080fd5b60007fffffffff0000000000000000000000000000000000000000000000000000000082169050919050565b6128cb81612896565b81146128d657600080fd5b50565b6000813590506128e8816128c2565b92915050565b6000602082840312156129045761290361288c565b5b6000612912848285016128d9565b91505092915050565b60008115159050919050565b6129308161291b565b82525050565b600060208201905061294b6000830184612927565b92915050565b600081519050919050565b600082825260208201905092915050565b60005b8381101561298b578082015181840152602081019050612970565b60008484015250505050565b6000601f19601f8301169050919050565b60006129b382612951565b6129bd818561295c565b93506129cd81856020860161296d565b6129d681612997565b840191505092915050565b600060208201905081810360008301526129fb81846129a8565b905092915050565b6000819050919050565b612a1681612a03565b8114612a2157600080fd5b50565b600081359050612a3381612a0d565b92915050565b600060208284031215612a4f57612a4e61288c565b5b6000612a5d84828501612a24565b91505092915050565b600073ffffffffffffffffffffffffffffffffffffffff82169050919050565b6000612a9182612a66565b9050919050565b612aa181612a86565b82525050565b6000602082019050612abc6000830184612a98565b92915050565b612acb81612a86565b8114612ad657600080fd5b50565b600081359050612ae881612ac2565b92915050565b60008060408385031215612b0557612b0461288c565b5b6000612b1385828601612ad9565b9250506020612b2485828601612a24565b9150509250929050565b600060208284031215612b4457612b4361288c565b5b6000612b5284828501612ad9565b91505092915050565b60008060408385031215612b7257612b7161288c565b5b6000612b8085828601612a24565b9250506020612b9185828601612a24565b9150509250929050565b612ba481612a03565b82525050565b6000602082019050612bbf6000830184612b9b565b92915050565b600080600060608486031215612bde57612bdd61288c565b5b6000612bec86828701612ad9565b9350506020612bfd86828701612ad9565b9250506040612c0e86828701612a24565b9150509250925092565b6000612c2382612a66565b9050919050565b612c3381612c18565b8114612c3e57600080fd5b50565b600081359050612c5081612c2a565b92915050565b600060208284031215612c6c57612c6b61288c565b5b6000612c7a84828501612c41565b91505092915050565b612c8c8161291b565b8114612c9757600080fd5b50565b600081359050612ca981612c83565b92915050565b60008060408385031215612cc657612cc561288c565b5b6000612cd485828601612ad9565b9250506020612ce585828601612c9a565b9150509250929050565b600080fd5b600080fd5b7f4e487b7100000000000000000000000000000000000000000000000000000000600052604160045260246000fd5b612d3182612997565b810181811067ffffffffffffffff82111715612d5057612d4f612cf9565b5b80604052505050565b6000612d63612882565b9050612d6f8282612d28565b919050565b600067ffffffffffffffff821115612d8f57612d8e612cf9565b5b612d9882612997565b9050602081019050919050565b82818337600083830152505050565b6000612dc7612dc284612d74565b612d59565b905082815260208101848484011115612de357612de2612cf4565b5b612dee848285612da5565b509392505050565b600082601f830112612e0b57612e0a612cef565b5b8135612e1b848260208601612db4565b91505092915050565b60008060008060808587031215612e3e57612e3d61288c565b5b6000612e4c87828801612ad9565b9450506020612e5d87828801612ad9565b9350506040612e6e87828801612a24565b925050606085013567ffffffffffffffff811115612e8f57612e8e612891565b5b612e9b87828801612df6565b91505092959194509250565b60008060408385031215612ebe57612ebd61288c565b5b6000612ecc85828601612ad9565b9250506020612edd85828601612ad9565b9150509250929050565b7f4e487b7100000000000000000000000000000000000000000000000000000000600052602260045260246000fd5b60006002820490506001821680612f2e57607f821691505b602082108103612f4157612f40612ee7565b5b50919050565b7f417070726f76616c207265737472696374656400000000000000000000000000600082015250565b6000612f7d60138361295c565b9150612f8882612f47565b602082019050919050565b60006020820190508181036000830152612fac81612f70565b9050919050565b7f4c69666520746f6b656e206973206e6f74207365740000000000000000000000600082015250565b6000612fe960158361295c565b9150612ff482612fb3565b602082019050919050565b6000602082019050818103600083015261301881612fdc565b9050919050565b7f4572726f723a20546f6b656e496420616c7265616479206d696e746564000000600082015250565b6000613055601d8361295c565b91506130608261301f565b602082019050919050565b6000602082019050818103600083015261308481613048565b9050919050565b7f4552433732313a2063616c6c6572206973206e6f7420746f6b656e206f776e6560008201527f72206e6f7220617070726f766564000000000000000000000000000000000000602082015250565b60006130e7602e8361295c565b91506130f28261308b565b604082019050919050565b60006020820190508181036000830152613116816130da565b9050919050565b7f4552433732313a20696e76616c696420746f6b656e2049440000000000000000600082015250565b600061315360188361295c565b915061315e8261311d565b602082019050919050565b6000602082019050818103600083015261318281613146565b9050919050565b7f4552433732313a2061646472657373207a65726f206973206e6f74206120766160008201527f6c6964206f776e65720000000000000000000000000000000000000000000000602082015250565b60006131e560298361295c565b91506131f082613189565b604082019050919050565b60006020820190508181036000830152613214816131d8565b9050919050565b600067ffffffffffffffff82169050919050565b6132388161321b565b82525050565b60006040820190506132536000830185612b9b565b613260602083018461322f565b9392505050565b600060408201905061327c6000830185612b9b565b6132896020830184612b9b565b9392505050565b7f4e6f742066756c6c7920706169642e205472616e73666572732072657374726960008201527f6374656400000000000000000000000000000000000000000000000000000000602082015250565b60006132ec60248361295c565b91506132f782613290565b604082019050919050565b6000602082019050818103600083015261331b816132df565b9050919050565b7f5472616e73666572206661696c65643a20596f7520617265206e6f742074686560008201527f206f776e6572206f6620746869732070726f7065727479000000000000000000602082015250565b600061337e60378361295c565b915061338982613322565b604082019050919050565b600060208201905081810360008301526133ad81613371565b9050919050565b7f4f776e61626c653a206e6577206f776e657220697320746865207a65726f206160008201527f6464726573730000000000000000000000000000000000000000000000000000602082015250565b600061341060268361295c565b915061341b826133b4565b604082019050919050565b6000602082019050818103600083015261343f81613403565b9050919050565b7f4552433732313a20617070726f76616c20746f2063757272656e74206f776e6560008201527f7200000000000000000000000000000000000000000000000000000000000000602082015250565b60006134a260218361295c565b91506134ad82613446565b604082019050919050565b600060208201905081810360008301526134d181613495565b9050919050565b7f4552433732313a20617070726f76652063616c6c6572206973206e6f7420746f60008201527f6b656e206f776e6572206e6f7220617070726f76656420666f7220616c6c0000602082015250565b6000613534603e8361295c565b915061353f826134d8565b604082019050919050565b6000602082019050818103600083015261356381613527565b9050919050565b7f4f776e61626c653a2063616c6c6572206973206e6f7420746865206f776e6572600082015250565b60006135a060208361295c565b91506135ab8261356a565b602082019050919050565b600060208201905081810360008301526135cf81613593565b9050919050565b7f4552433732313a206d696e7420746f20746865207a65726f2061646472657373600082015250565b600061360c60208361295c565b9150613617826135d6565b602082019050919050565b6000602082019050818103600083015261363b816135ff565b9050919050565b7f4552433732313a20746f6b656e20616c7265616479206d696e74656400000000600082015250565b6000613678601c8361295c565b915061368382613642565b602082019050919050565b600060208201905081810360008301526136a78161366b565b9050919050565b7f4e487b7100000000000000000000000000000000000000000000000000000000600052601160045260246000fd5b60006136e882612a03565b91506136f383612a03565b925082820190508082111561370b5761370a6136ae565b5b92915050565b7f4552433732313a207472616e736665722066726f6d20696e636f72726563742060008201527f6f776e6572000000000000000000000000000000000000000000000000000000602082015250565b600061376d60258361295c565b915061377882613711565b604082019050919050565b6000602082019050818103600083015261379c81613760565b9050919050565b7f4552433732313a207472616e7366657220746f20746865207a65726f2061646460008201527f7265737300000000000000000000000000000000000000000000000000000000602082015250565b60006137ff60248361295c565b915061380a826137a3565b604082019050919050565b6000602082019050818103600083015261382e816137f2565b9050919050565b600061384082612a03565b915061384b83612a03565b9250828203905081811115613863576138626136ae565b5b92915050565b7f4552433732313a207472616e7366657220746f206e6f6e20455243373231526560008201527f63656976657220696d706c656d656e7465720000000000000000000000000000602082015250565b60006138c560328361295c565b91506138d082613869565b604082019050919050565b600060208201905081810360008301526138f4816138b8565b9050919050565b7f4552433732313a20617070726f766520746f2063616c6c657200000000000000600082015250565b600061393160198361295c565b915061393c826138fb565b602082019050919050565b6000602082019050818103600083015261396081613924565b9050919050565b600081905092915050565b600061397d82612951565b6139878185613967565b935061399781856020860161296d565b80840191505092915050565b60006139af8285613972565b91506139bb8284613972565b91508190509392505050565b7f5472616e73666572732072657374726963746564000000000000000000000000600082015250565b60006139fd60148361295c565b9150613a08826139c7565b602082019050919050565b60006020820190508181036000830152613a2c816139f0565b9050919050565b600081519050919050565b600082825260208201905092915050565b6000613a5a82613a33565b613a648185613a3e565b9350613a7481856020860161296d565b613a7d81612997565b840191505092915050565b6000608082019050613a9d6000830187612a98565b613aaa6020830186612a98565b613ab76040830185612b9b565b8181036060830152613ac98184613a4f565b905095945050505050565b600081519050613ae3816128c2565b92915050565b600060208284031215613aff57613afe61288c565b5b6000613b0d84828501613ad4565b91505092915050565b6000613b2182612a03565b91507fffffffffffffffffffffffffffffffffffffffffffffffffffffffffffffffff8203613b5357613b526136ae565b5b600182019050919050565b7f4e487b7100000000000000000000000000000000000000000000000000000000600052601260045260246000fd5b6000613b9882612a03565b9150613ba383612a03565b925082613bb357613bb2613b5e565b5b828204905092915050565b6000613bc982612a03565b9150613bd483612a03565b925082613be457613be3613b5e565b5b828206905092915050565b7f4e487b7100000000000000000000000000000000000000000000000000000000600052603260045260246000fdfe68747470733a2f2f6d6c2d6170692d6465762e6865726f6b756170702e636f6d2f6170692f76312f6e6674732fa264697066735822122000bc41408d791e4c5ae4783728c6732fcbbc7cf9d8f214c0cb93d32ee53ff0e164736f6c63430008110033",
  "linkReferences": {},
  "deployedLinkReferences": {}
}