{
  "_format": "hh-sol-artifact-1",
  "contractName": "ManageLife",
  "sourceName": "contracts/ManageLife.sol",
  "abi": [
    {
      "inputs": [],
      "stateMutability": "nonpayable",
      "type": "constructor"
    },
    {
      "anonymous": false,
      "inputs": [
        {
          "indexed": true,
          "internalType": "address",
          "name": "owner",
          "type": "address"
        },
        {
          "indexed": true,
          "internalType": "address",
          "name": "approved",
          "type": "address"
        },
        {
          "indexed": true,
          "internalType": "uint256",
          "name": "tokenId",
          "type": "uint256"
        }
      ],
      "name": "Approval",
      "type": "event"
    },
    {
      "anonymous": false,
      "inputs": [
        {
          "indexed": true,
          "internalType": "address",
          "name": "owner",
          "type": "address"
        },
        {
          "indexed": true,
          "internalType": "address",
          "name": "operator",
          "type": "address"
        },
        {
          "indexed": false,
          "internalType": "bool",
          "name": "approved",
          "type": "bool"
        }
      ],
      "name": "ApprovalForAll",
      "type": "event"
    },
    {
      "anonymous": false,
      "inputs": [
        {
          "indexed": false,
          "internalType": "uint256",
          "name": "tokenId",
          "type": "uint256"
        }
      ],
      "name": "FullyPayed",
      "type": "event"
    },
    {
      "anonymous": false,
      "inputs": [
        {
          "indexed": true,
          "internalType": "address",
          "name": "previousOwner",
          "type": "address"
        },
        {
          "indexed": true,
          "internalType": "address",
          "name": "newOwner",
          "type": "address"
        }
      ],
      "name": "OwnershipTransferred",
      "type": "event"
    },
    {
      "anonymous": false,
      "inputs": [
        {
          "indexed": false,
          "internalType": "address",
          "name": "newPropertyCustodian",
          "type": "address"
        }
      ],
      "name": "PropertyCustodianUpdated",
      "type": "event"
    },
    {
      "anonymous": false,
      "inputs": [
        {
          "indexed": true,
          "internalType": "address",
          "name": "from",
          "type": "address"
        },
        {
          "indexed": false,
          "internalType": "uint256",
          "name": "tokenId",
          "type": "uint256"
        }
      ],
      "name": "PropertyReturned",
      "type": "event"
    },
    {
      "anonymous": false,
      "inputs": [
        {
          "indexed": false,
          "internalType": "uint256",
          "name": "tokenId",
          "type": "uint256"
        }
      ],
      "name": "StakingIniatialized",
      "type": "event"
    },
    {
      "anonymous": false,
      "inputs": [
        {
          "indexed": false,
          "internalType": "uint256",
          "name": "token",
          "type": "uint256"
        },
        {
          "indexed": false,
          "internalType": "uint256",
          "name": "newLifeTokenIssuanceRate",
          "type": "uint256"
        }
      ],
      "name": "TokenIssuanceRateUpdated",
      "type": "event"
    },
    {
      "anonymous": false,
      "inputs": [
        {
          "indexed": true,
          "internalType": "address",
          "name": "from",
          "type": "address"
        },
        {
          "indexed": true,
          "internalType": "address",
          "name": "to",
          "type": "address"
        },
        {
          "indexed": true,
          "internalType": "uint256",
          "name": "tokenId",
          "type": "uint256"
        }
      ],
      "name": "Transfer",
      "type": "event"
    },
    {
      "inputs": [],
      "name": "PROPERTY_CUSTODIAN",
      "outputs": [
        {
          "internalType": "address",
          "name": "",
          "type": "address"
        }
      ],
      "stateMutability": "view",
      "type": "function"
    },
    {
      "inputs": [
        {
          "internalType": "address",
          "name": "to",
          "type": "address"
        },
        {
          "internalType": "uint256",
          "name": "tokenId",
          "type": "uint256"
        }
      ],
      "name": "approve",
      "outputs": [],
      "stateMutability": "nonpayable",
      "type": "function"
    },
    {
      "inputs": [
        {
          "internalType": "address",
          "name": "owner",
          "type": "address"
        }
      ],
      "name": "balanceOf",
      "outputs": [
        {
          "internalType": "uint256",
          "name": "",
          "type": "uint256"
        }
      ],
      "stateMutability": "view",
      "type": "function"
    },
    {
      "inputs": [
        {
          "internalType": "uint256",
          "name": "tokenId",
          "type": "uint256"
        }
      ],
      "name": "burn",
      "outputs": [],
      "stateMutability": "nonpayable",
      "type": "function"
    },
    {
      "inputs": [
        {
          "internalType": "uint256",
          "name": "tokenId",
          "type": "uint256"
        }
      ],
      "name": "fullyPayed",
      "outputs": [
        {
          "internalType": "bool",
          "name": "",
          "type": "bool"
        }
      ],
      "stateMutability": "view",
      "type": "function"
    },
    {
      "inputs": [
        {
          "internalType": "uint256",
          "name": "tokenId",
          "type": "uint256"
        }
      ],
      "name": "getApproved",
      "outputs": [
        {
          "internalType": "address",
          "name": "",
          "type": "address"
        }
      ],
      "stateMutability": "view",
      "type": "function"
    },
    {
      "inputs": [],
      "name": "getBaseURI",
      "outputs": [
        {
          "internalType": "string",
          "name": "",
          "type": "string"
        }
      ],
      "stateMutability": "pure",
      "type": "function"
    },
    {
      "inputs": [
        {
          "internalType": "address",
          "name": "owner",
          "type": "address"
        },
        {
          "internalType": "address",
          "name": "operator",
          "type": "address"
        }
      ],
      "name": "isApprovedForAll",
      "outputs": [
        {
          "internalType": "bool",
          "name": "",
          "type": "bool"
        }
      ],
      "stateMutability": "view",
      "type": "function"
    },
    {
      "inputs": [],
      "name": "lifeToken",
      "outputs": [
        {
          "internalType": "address",
          "name": "",
          "type": "address"
        }
      ],
      "stateMutability": "view",
      "type": "function"
    },
    {
      "inputs": [
        {
          "internalType": "uint256",
          "name": "tokenId",
          "type": "uint256"
        }
      ],
      "name": "lifeTokenIssuanceRate",
      "outputs": [
        {
          "internalType": "uint256",
          "name": "",
          "type": "uint256"
        }
      ],
      "stateMutability": "view",
      "type": "function"
    },
    {
      "inputs": [
        {
          "internalType": "uint256",
          "name": "tokenId",
          "type": "uint256"
        }
      ],
      "name": "markFullyPayed",
      "outputs": [],
      "stateMutability": "nonpayable",
      "type": "function"
    },
    {
      "inputs": [],
      "name": "marketplace",
      "outputs": [
        {
          "internalType": "address",
          "name": "",
          "type": "address"
        }
      ],
      "stateMutability": "view",
      "type": "function"
    },
    {
      "inputs": [
        {
          "internalType": "uint256",
          "name": "propertyId",
          "type": "uint256"
        },
        {
          "internalType": "uint256",
          "name": "lifeTokenIssuanceRate_",
          "type": "uint256"
        }
      ],
      "name": "mint",
      "outputs": [],
      "stateMutability": "nonpayable",
      "type": "function"
    },
    {
      "inputs": [],
      "name": "name",
      "outputs": [
        {
          "internalType": "string",
          "name": "",
          "type": "string"
        }
      ],
      "stateMutability": "view",
      "type": "function"
    },
    {
      "inputs": [],
      "name": "owner",
      "outputs": [
        {
          "internalType": "address",
          "name": "",
          "type": "address"
        }
      ],
      "stateMutability": "view",
      "type": "function"
    },
    {
      "inputs": [
        {
          "internalType": "uint256",
          "name": "tokenId",
          "type": "uint256"
        }
      ],
      "name": "ownerOf",
      "outputs": [
        {
          "internalType": "address",
          "name": "",
          "type": "address"
        }
      ],
      "stateMutability": "view",
      "type": "function"
    },
    {
      "inputs": [],
      "name": "renounceOwnership",
      "outputs": [],
      "stateMutability": "nonpayable",
      "type": "function"
    },
    {
      "inputs": [
        {
          "internalType": "uint256",
          "name": "tokenId",
          "type": "uint256"
        }
      ],
      "name": "retract",
      "outputs": [],
      "stateMutability": "nonpayable",
      "type": "function"
    },
    {
      "inputs": [
        {
          "internalType": "uint256",
          "name": "tokenId",
          "type": "uint256"
        }
      ],
      "name": "returnProperty",
      "outputs": [],
      "stateMutability": "nonpayable",
      "type": "function"
    },
    {
      "inputs": [
        {
          "internalType": "address",
          "name": "from",
          "type": "address"
        },
        {
          "internalType": "address",
          "name": "to",
          "type": "address"
        },
        {
          "internalType": "uint256",
          "name": "tokenId",
          "type": "uint256"
        }
      ],
      "name": "safeTransferFrom",
      "outputs": [],
      "stateMutability": "nonpayable",
      "type": "function"
    },
    {
      "inputs": [
        {
          "internalType": "address",
          "name": "from",
          "type": "address"
        },
        {
          "internalType": "address",
          "name": "to",
          "type": "address"
        },
        {
          "internalType": "uint256",
          "name": "tokenId",
          "type": "uint256"
        },
        {
          "internalType": "bytes",
          "name": "data",
          "type": "bytes"
        }
      ],
      "name": "safeTransferFrom",
      "outputs": [],
      "stateMutability": "nonpayable",
      "type": "function"
    },
    {
      "inputs": [
        {
          "internalType": "address",
          "name": "operator",
          "type": "address"
        },
        {
          "internalType": "bool",
          "name": "approved",
          "type": "bool"
        }
      ],
      "name": "setApprovalForAll",
      "outputs": [],
      "stateMutability": "nonpayable",
      "type": "function"
    },
    {
      "inputs": [
        {
          "internalType": "address",
          "name": "lifeToken_",
          "type": "address"
        }
      ],
      "name": "setLifeToken",
      "outputs": [],
      "stateMutability": "nonpayable",
      "type": "function"
    },
    {
      "inputs": [
        {
          "internalType": "address payable",
          "name": "marketplace_",
          "type": "address"
        }
      ],
      "name": "setMarketplace",
      "outputs": [],
      "stateMutability": "nonpayable",
      "type": "function"
    },
    {
      "inputs": [
        {
          "internalType": "bytes4",
          "name": "interfaceId",
          "type": "bytes4"
        }
      ],
      "name": "supportsInterface",
      "outputs": [
        {
          "internalType": "bool",
          "name": "",
          "type": "bool"
        }
      ],
      "stateMutability": "view",
      "type": "function"
    },
    {
      "inputs": [],
      "name": "symbol",
      "outputs": [
        {
          "internalType": "string",
          "name": "",
          "type": "string"
        }
      ],
      "stateMutability": "view",
      "type": "function"
    },
    {
      "inputs": [
        {
          "internalType": "uint256",
          "name": "tokenId",
          "type": "uint256"
        }
      ],
      "name": "tokenURI",
      "outputs": [
        {
          "internalType": "string",
          "name": "",
          "type": "string"
        }
      ],
      "stateMutability": "view",
      "type": "function"
    },
    {
      "inputs": [
        {
          "internalType": "address",
          "name": "from",
          "type": "address"
        },
        {
          "internalType": "address",
          "name": "to",
          "type": "address"
        },
        {
          "internalType": "uint256",
          "name": "tokenId",
          "type": "uint256"
        }
      ],
      "name": "transferFrom",
      "outputs": [],
      "stateMutability": "nonpayable",
      "type": "function"
    },
    {
      "inputs": [
        {
          "internalType": "address",
          "name": "newOwner",
          "type": "address"
        }
      ],
      "name": "transferOwnership",
      "outputs": [],
      "stateMutability": "nonpayable",
      "type": "function"
    },
    {
      "inputs": [
        {
          "internalType": "uint256",
          "name": "tokenId",
          "type": "uint256"
        },
        {
          "internalType": "uint256",
          "name": "newLifeTokenIssuanceRate",
          "type": "uint256"
        }
      ],
      "name": "updateLifeTokenIssuanceRate",
      "outputs": [],
      "stateMutability": "nonpayable",
      "type": "function"
    },
    {
      "inputs": [
        {
          "internalType": "address",
          "name": "_newPropertyCustodian",
          "type": "address"
        }
      ],
      "name": "updatePropertyCustodian",
      "outputs": [],
      "stateMutability": "nonpayable",
      "type": "function"
    }
  ],
  "bytecode": "0x608060405260016008553480156200001657600080fd5b506040518060400160405280600a81526020017f4d616e6167654c696665000000000000000000000000000000000000000000008152506040518060400160405280600581526020017f4d4c49464500000000000000000000000000000000000000000000000000000081525081600090805190602001906200009b929190620001ec565b508060019080519060200190620000b4929190620001ec565b505050620000d7620000cb6200011e60201b60201c565b6200012660201b60201c565b33600b60006101000a81548173ffffffffffffffffffffffffffffffffffffffff021916908373ffffffffffffffffffffffffffffffffffffffff16021790555062000300565b600033905090565b6000600760009054906101000a900473ffffffffffffffffffffffffffffffffffffffff16905081600760006101000a81548173ffffffffffffffffffffffffffffffffffffffff021916908373ffffffffffffffffffffffffffffffffffffffff1602179055508173ffffffffffffffffffffffffffffffffffffffff168173ffffffffffffffffffffffffffffffffffffffff167f8be0079c531659141344cd1fd0a4f28419497f9722a3daafe3b4186f6b6457e060405160405180910390a35050565b828054620001fa90620002cb565b90600052602060002090601f0160209004810192826200021e57600085556200026a565b82601f106200023957805160ff19168380011785556200026a565b828001600101855582156200026a579182015b82811115620002695782518255916020019190600101906200024c565b5b5090506200027991906200027d565b5090565b5b80821115620002985760008160009055506001016200027e565b5090565b7f4e487b7100000000000000000000000000000000000000000000000000000000600052602260045260246000fd5b60006002820490506001821680620002e457607f821691505b602082108103620002fa57620002f96200029c565b5b50919050565b613e9a80620003106000396000f3fe608060405234801561001057600080fd5b50600436106101e55760003560e01c806370bba7271161010f57806395d89b41116100a2578063b88d4fde11610071578063b88d4fde14610552578063c87b56dd1461056e578063e985e9c51461059e578063f2fde38b146105ce576101e5565b806395d89b41146104de5780639fab6656146104fc578063a22cb46514610518578063abc8c7af14610534576101e5565b8063749f0427116100de578063749f0427146104585780638da5cb5b146104745780638e412a86146104925780638ef6aa02146104c2576101e5565b806370bba727146103f8578063714c539814610414578063715018a61461043257806373ad6c2d1461043c576101e5565b80631b61f17e1161018757806342842e0e1161015657806342842e0e1461036057806342966c681461037c5780636352211e1461039857806370a08231146103c8576101e5565b80631b61f17e146102da57806323b872dd1461030a57806330037c1414610326578063373b19ec14610344576101e5565b8063095ea7b3116101c3578063095ea7b314610268578063106048f81461028457806316975dc2146102a25780631b2ef1ca146102be576101e5565b806301ffc9a7146101ea57806306fdde031461021a578063081812fc14610238575b600080fd5b61020460048036038101906101ff9190612a2c565b6105ea565b6040516102119190612a74565b60405180910390f35b6102226106cc565b60405161022f9190612b28565b60405180910390f35b610252600480360381019061024d9190612b80565b61075e565b60405161025f9190612bee565b60405180910390f35b610282600480360381019061027d9190612c35565b6107a4565b005b61028c610897565b6040516102999190612bee565b60405180910390f35b6102bc60048036038101906102b79190612c75565b6108bd565b005b6102d860048036038101906102d39190612ca2565b610940565b005b6102f460048036038101906102ef9190612b80565b610a55565b6040516103019190612cf1565b60405180910390f35b610324600480360381019061031f9190612d0c565b610a72565b005b61032e610ad2565b60405161033b9190612bee565b60405180910390f35b61035e60048036038101906103599190612b80565b610afc565b005b61037a60048036038101906103759190612d0c565b610c3a565b005b61039660048036038101906103919190612b80565b610c5a565b005b6103b260048036038101906103ad9190612b80565b610c6e565b6040516103bf9190612bee565b60405180910390f35b6103e260048036038101906103dd9190612c75565b610d1f565b6040516103ef9190612cf1565b60405180910390f35b610412600480360381019061040d9190612ca2565b610dd6565b005b61041c611088565b6040516104299190612b28565b60405180910390f35b61043a611097565b005b61045660048036038101906104519190612d9d565b6110ab565b005b610472600480360381019061046d9190612b80565b6110f7565b005b61047c6111f5565b6040516104899190612bee565b60405180910390f35b6104ac60048036038101906104a79190612b80565b61121f565b6040516104b99190612a74565b60405180910390f35b6104dc60048036038101906104d79190612c75565b611249565b005b6104e6611295565b6040516104f39190612b28565b60405180910390f35b61051660048036038101906105119190612b80565b611327565b005b610532600480360381019061052d9190612df6565b61135c565b005b61053c611372565b6040516105499190612bee565b60405180910390f35b61056c60048036038101906105679190612f6b565b61139c565b005b61058860048036038101906105839190612b80565b6113fe565b6040516105959190612b28565b60405180910390f35b6105b860048036038101906105b39190612fee565b611410565b6040516105c59190612a74565b60405180910390f35b6105e860048036038101906105e39190612c75565b6114a4565b005b60007f80ac58cd000000000000000000000000000000000000000000000000000000007bffffffffffffffffffffffffffffffffffffffffffffffffffffffff1916827bffffffffffffffffffffffffffffffffffffffffffffffffffffffff191614806106b557507f5b5e139f000000000000000000000000000000000000000000000000000000007bffffffffffffffffffffffffffffffffffffffffffffffffffffffff1916827bffffffffffffffffffffffffffffffffffffffffffffffffffffffff1916145b806106c557506106c482611527565b5b9050919050565b6060600080546106db9061305d565b80601f01602080910402602001604051908101604052809291908181526020018280546107079061305d565b80156107545780601f1061072957610100808354040283529160200191610754565b820191906000526020600020905b81548152906001019060200180831161073757829003601f168201915b5050505050905090565b600061076982611591565b6004600083815260200190815260200160002060009054906101000a900473ffffffffffffffffffffffffffffffffffffffff169050919050565b6107ad8161121f565b806107f257506107bb6111f5565b73ffffffffffffffffffffffffffffffffffffffff166107da82610c6e565b73ffffffffffffffffffffffffffffffffffffffff16145b8061084a5750600a60009054906101000a900473ffffffffffffffffffffffffffffffffffffffff1673ffffffffffffffffffffffffffffffffffffffff168273ffffffffffffffffffffffffffffffffffffffff16145b610889576040517f08c379a0000000000000000000000000000000000000000000000000000000008152600401610880906130da565b60405180910390fd5b61089382826115dc565b5050565b600b60009054906101000a900473ffffffffffffffffffffffffffffffffffffffff1681565b6108c56116f3565b80600b60006101000a81548173ffffffffffffffffffffffffffffffffffffffff021916908373ffffffffffffffffffffffffffffffffffffffff1602179055507f7596fcfae451a64cace636b766c44ba94097b9dd5d64062d3d936b3add911ec1816040516109359190612bee565b60405180910390a150565b6109486116f3565b600073ffffffffffffffffffffffffffffffffffffffff16600960009054906101000a900473ffffffffffffffffffffffffffffffffffffffff1673ffffffffffffffffffffffffffffffffffffffff16036109d9576040517f08c379a00000000000000000000000000000000000000000000000000000000081526004016109d090613146565b60405180910390fd5b60008290506109e781611771565b15610a27576040517f08c379a0000000000000000000000000000000000000000000000000000000008152600401610a1e906131b2565b60405180910390fd5b610a38610a326111f5565b846117dd565b81600c600083815260200190815260200160002081905550505050565b6000600c6000838152602001908152602001600020549050919050565b610a83610a7d6119b6565b826119be565b610ac2576040517f08c379a0000000000000000000000000000000000000000000000000000000008152600401610ab990613244565b60405180910390fd5b610acd838383611a53565b505050565b6000600960009054906101000a900473ffffffffffffffffffffffffffffffffffffffff16905090565b610b046116f3565b6001600d600083815260200190815260200160002060006101000a81548160ff021916908315150217905550610b3981610c6e565b73ffffffffffffffffffffffffffffffffffffffff16610b576111f5565b73ffffffffffffffffffffffffffffffffffffffff1614610c0057600960009054906101000a900473ffffffffffffffffffffffffffffffffffffffff1673ffffffffffffffffffffffffffffffffffffffff16638fad2627826040518263ffffffff1660e01b8152600401610bcd9190612cf1565b600060405180830381600087803b158015610be757600080fd5b505af1158015610bfb573d6000803e3d6000fd5b505050505b7fd5b366e46c30c0e5b650ac2df5d74200515693e8dddba83409a5db181d7c299281604051610c2f9190612cf1565b60405180910390a150565b610c558383836040518060200160405280600081525061139c565b505050565b610c626116f3565b610c6b81611cb9565b50565b6000806002600084815260200190815260200160002060009054906101000a900473ffffffffffffffffffffffffffffffffffffffff169050600073ffffffffffffffffffffffffffffffffffffffff168173ffffffffffffffffffffffffffffffffffffffff1603610d16576040517f08c379a0000000000000000000000000000000000000000000000000000000008152600401610d0d906132b0565b60405180910390fd5b80915050919050565b60008073ffffffffffffffffffffffffffffffffffffffff168273ffffffffffffffffffffffffffffffffffffffff1603610d8f576040517f08c379a0000000000000000000000000000000000000000000000000000000008152600401610d8690613342565b60405180910390fd5b600360008373ffffffffffffffffffffffffffffffffffffffff1673ffffffffffffffffffffffffffffffffffffffff168152602001908152602001600020549050919050565b610dde6116f3565b6001600960009054906101000a900473ffffffffffffffffffffffffffffffffffffffff1673ffffffffffffffffffffffffffffffffffffffff1663b2256ba0846040518263ffffffff1660e01b8152600401610e3b9190612cf1565b602060405180830381865afa158015610e58573d6000803e3d6000fd5b505050506040513d601f19601f82011682018060405250810190610e7c9190613377565b111561108457600960009054906101000a900473ffffffffffffffffffffffffffffffffffffffff1673ffffffffffffffffffffffffffffffffffffffff16638fad2627836040518263ffffffff1660e01b8152600401610edd9190612cf1565b600060405180830381600087803b158015610ef757600080fd5b505af1158015610f0b573d6000803e3d6000fd5b50505050600960009054906101000a900473ffffffffffffffffffffffffffffffffffffffff1673ffffffffffffffffffffffffffffffffffffffff1663a85a03938364040fc446006040518363ffffffff1660e01b8152600401610f719291906133fd565b600060405180830381600087803b158015610f8b57600080fd5b505af1158015610f9f573d6000803e3d6000fd5b5050505080600c600084815260200190815260200160002081905550600960009054906101000a900473ffffffffffffffffffffffffffffffffffffffff1673ffffffffffffffffffffffffffffffffffffffff1663a85a039383426040518363ffffffff1660e01b8152600401611018929190613435565b600060405180830381600087803b15801561103257600080fd5b505af1158015611046573d6000803e3d6000fd5b505050507f65cd8169747e120e357190f330fa07804e78373538cb983ea2d369b00a26ffbc828260405161107b92919061345e565b60405180910390a15b5050565b6060611092611cc5565b905090565b61109f6116f3565b6110a96000611ce5565b565b6110b36116f3565b80600a60006101000a81548173ffffffffffffffffffffffffffffffffffffffff021916908373ffffffffffffffffffffffffffffffffffffffff16021790555050565b6111008161121f565b61113f576040517f08c379a0000000000000000000000000000000000000000000000000000000008152600401611136906134f9565b60405180910390fd5b61114881610c6e565b73ffffffffffffffffffffffffffffffffffffffff163373ffffffffffffffffffffffffffffffffffffffff16146111b5576040517f08c379a00000000000000000000000000000000000000000000000000000000081526004016111ac9061358b565b60405180910390fd5b6111f233600b60009054906101000a900473ffffffffffffffffffffffffffffffffffffffff16836040518060200160405280600081525061139c565b50565b6000600760009054906101000a900473ffffffffffffffffffffffffffffffffffffffff16905090565b6000600d600083815260200190815260200160002060009054906101000a900460ff169050919050565b6112516116f3565b80600960006101000a81548173ffffffffffffffffffffffffffffffffffffffff021916908373ffffffffffffffffffffffffffffffffffffffff16021790555050565b6060600180546112a49061305d565b80601f01602080910402602001604051908101604052809291908181526020018280546112d09061305d565b801561131d5780601f106112f25761010080835404028352916020019161131d565b820191906000526020600020905b81548152906001019060200180831161130057829003601f168201915b5050505050905090565b61132f6116f3565b61135961133b82610c6e565b6113436111f5565b8360405180602001604052806000815250611dab565b50565b61136e6113676119b6565b8383611e07565b5050565b6000600a60009054906101000a900473ffffffffffffffffffffffffffffffffffffffff16905090565b6113ad6113a76119b6565b836119be565b6113ec576040517f08c379a00000000000000000000000000000000000000000000000000000000081526004016113e390613244565b60405180910390fd5b6113f884848484611dab565b50505050565b606061140982611f73565b9050919050565b6000600560008473ffffffffffffffffffffffffffffffffffffffff1673ffffffffffffffffffffffffffffffffffffffff16815260200190815260200160002060008373ffffffffffffffffffffffffffffffffffffffff1673ffffffffffffffffffffffffffffffffffffffff16815260200190815260200160002060009054906101000a900460ff16905092915050565b6114ac6116f3565b600073ffffffffffffffffffffffffffffffffffffffff168173ffffffffffffffffffffffffffffffffffffffff160361151b576040517f08c379a00000000000000000000000000000000000000000000000000000000081526004016115129061361d565b60405180910390fd5b61152481611ce5565b50565b60007f01ffc9a7000000000000000000000000000000000000000000000000000000007bffffffffffffffffffffffffffffffffffffffffffffffffffffffff1916827bffffffffffffffffffffffffffffffffffffffffffffffffffffffff1916149050919050565b61159a81611771565b6115d9576040517f08c379a00000000000000000000000000000000000000000000000000000000081526004016115d0906132b0565b60405180910390fd5b50565b60006115e782610c6e565b90508073ffffffffffffffffffffffffffffffffffffffff168373ffffffffffffffffffffffffffffffffffffffff1603611657576040517f08c379a000000000000000000000000000000000000000000000000000000000815260040161164e906136af565b60405180910390fd5b8073ffffffffffffffffffffffffffffffffffffffff166116766119b6565b73ffffffffffffffffffffffffffffffffffffffff1614806116a557506116a48161169f6119b6565b611410565b5b6116e4576040517f08c379a00000000000000000000000000000000000000000000000000000000081526004016116db90613741565b60405180910390fd5b6116ee8383612085565b505050565b6116fb6119b6565b73ffffffffffffffffffffffffffffffffffffffff166117196111f5565b73ffffffffffffffffffffffffffffffffffffffff161461176f576040517f08c379a0000000000000000000000000000000000000000000000000000000008152600401611766906137ad565b60405180910390fd5b565b60008073ffffffffffffffffffffffffffffffffffffffff166002600084815260200190815260200160002060009054906101000a900473ffffffffffffffffffffffffffffffffffffffff1673ffffffffffffffffffffffffffffffffffffffff1614159050919050565b600073ffffffffffffffffffffffffffffffffffffffff168273ffffffffffffffffffffffffffffffffffffffff160361184c576040517f08c379a000000000000000000000000000000000000000000000000000000000815260040161184390613819565b60405180910390fd5b61185581611771565b15611895576040517f08c379a000000000000000000000000000000000000000000000000000000000815260040161188c90613885565b60405180910390fd5b6118a16000838361213e565b6001600360008473ffffffffffffffffffffffffffffffffffffffff1673ffffffffffffffffffffffffffffffffffffffff16815260200190815260200160002060008282546118f191906138d4565b92505081905550816002600083815260200190815260200160002060006101000a81548173ffffffffffffffffffffffffffffffffffffffff021916908373ffffffffffffffffffffffffffffffffffffffff160217905550808273ffffffffffffffffffffffffffffffffffffffff16600073ffffffffffffffffffffffffffffffffffffffff167fddf252ad1be2c89b69c2b068fc378daa952ba7f163c4a11628f55a4df523b3ef60405160405180910390a46119b260008383612477565b5050565b600033905090565b6000806119ca83610c6e565b90508073ffffffffffffffffffffffffffffffffffffffff168473ffffffffffffffffffffffffffffffffffffffff161480611a0c5750611a0b8185611410565b5b80611a4a57508373ffffffffffffffffffffffffffffffffffffffff16611a328461075e565b73ffffffffffffffffffffffffffffffffffffffff16145b91505092915050565b8273ffffffffffffffffffffffffffffffffffffffff16611a7382610c6e565b73ffffffffffffffffffffffffffffffffffffffff1614611ac9576040517f08c379a0000000000000000000000000000000000000000000000000000000008152600401611ac09061399c565b60405180910390fd5b600073ffffffffffffffffffffffffffffffffffffffff168273ffffffffffffffffffffffffffffffffffffffff1603611b38576040517f08c379a0000000000000000000000000000000000000000000000000000000008152600401611b2f90613a2e565b60405180910390fd5b611b4383838361213e565b611b4e600082612085565b6001600360008573ffffffffffffffffffffffffffffffffffffffff1673ffffffffffffffffffffffffffffffffffffffff1681526020019081526020016000206000828254611b9e9190613a4e565b925050819055506001600360008473ffffffffffffffffffffffffffffffffffffffff1673ffffffffffffffffffffffffffffffffffffffff1681526020019081526020016000206000828254611bf591906138d4565b92505081905550816002600083815260200190815260200160002060006101000a81548173ffffffffffffffffffffffffffffffffffffffff021916908373ffffffffffffffffffffffffffffffffffffffff160217905550808273ffffffffffffffffffffffffffffffffffffffff168473ffffffffffffffffffffffffffffffffffffffff167fddf252ad1be2c89b69c2b068fc378daa952ba7f163c4a11628f55a4df523b3ef60405160405180910390a4611cb4838383612477565b505050565b611cc28161247c565b50565b60606040518060600160405280602d8152602001613e38602d9139905090565b6000600760009054906101000a900473ffffffffffffffffffffffffffffffffffffffff16905081600760006101000a81548173ffffffffffffffffffffffffffffffffffffffff021916908373ffffffffffffffffffffffffffffffffffffffff1602179055508173ffffffffffffffffffffffffffffffffffffffff168173ffffffffffffffffffffffffffffffffffffffff167f8be0079c531659141344cd1fd0a4f28419497f9722a3daafe3b4186f6b6457e060405160405180910390a35050565b611db6848484611a53565b611dc2848484846124cf565b611e01576040517f08c379a0000000000000000000000000000000000000000000000000000000008152600401611df890613af4565b60405180910390fd5b50505050565b8173ffffffffffffffffffffffffffffffffffffffff168373ffffffffffffffffffffffffffffffffffffffff1603611e75576040517f08c379a0000000000000000000000000000000000000000000000000000000008152600401611e6c90613b60565b60405180910390fd5b80600560008573ffffffffffffffffffffffffffffffffffffffff1673ffffffffffffffffffffffffffffffffffffffff16815260200190815260200160002060008473ffffffffffffffffffffffffffffffffffffffff1673ffffffffffffffffffffffffffffffffffffffff16815260200190815260200160002060006101000a81548160ff0219169083151502179055508173ffffffffffffffffffffffffffffffffffffffff168373ffffffffffffffffffffffffffffffffffffffff167f17307eab39ab6107e8899845ad3d59bd9653f200f220920489ca2b5937696c3183604051611f669190612a74565b60405180910390a3505050565b6060611f7e82611591565b6000600660008481526020019081526020016000208054611f9e9061305d565b80601f0160208091040260200160405190810160405280929190818152602001828054611fca9061305d565b80156120175780601f10611fec57610100808354040283529160200191612017565b820191906000526020600020905b815481529060010190602001808311611ffa57829003601f168201915b505050505090506000612028611cc5565b9050600081510361203d578192505050612080565b60008251111561207257808260405160200161205a929190613bbc565b60405160208183030381529060405292505050612080565b61207b84612656565b925050505b919050565b816004600083815260200190815260200160002060006101000a81548173ffffffffffffffffffffffffffffffffffffffff021916908373ffffffffffffffffffffffffffffffffffffffff160217905550808273ffffffffffffffffffffffffffffffffffffffff166120f883610c6e565b73ffffffffffffffffffffffffffffffffffffffff167f8c5be1e5ebec7d5bd14f71427d1e84f3dd0314c0f7b2291e5b200ac8c7c3b92560405160405180910390a45050565b6121478161121f565b8061218457506121556111f5565b73ffffffffffffffffffffffffffffffffffffffff168373ffffffffffffffffffffffffffffffffffffffff16145b806121c157506121926111f5565b73ffffffffffffffffffffffffffffffffffffffff168273ffffffffffffffffffffffffffffffffffffffff16145b806122195750600a60009054906101000a900473ffffffffffffffffffffffffffffffffffffffff1673ffffffffffffffffffffffffffffffffffffffff163373ffffffffffffffffffffffffffffffffffffffff16145b612258576040517f08c379a000000000000000000000000000000000000000000000000000000000815260040161224f90613c2c565b60405180910390fd5b6122618161121f565b6124305761226d6111f5565b73ffffffffffffffffffffffffffffffffffffffff168373ffffffffffffffffffffffffffffffffffffffff160361232d57600960009054906101000a900473ffffffffffffffffffffffffffffffffffffffff1673ffffffffffffffffffffffffffffffffffffffff1663058d5b18826040518263ffffffff1660e01b81526004016122fa9190612cf1565b600060405180830381600087803b15801561231457600080fd5b505af1158015612328573d6000803e3d6000fd5b505050505b6123356111f5565b73ffffffffffffffffffffffffffffffffffffffff168273ffffffffffffffffffffffffffffffffffffffff1614801561239c5750600073ffffffffffffffffffffffffffffffffffffffff168373ffffffffffffffffffffffffffffffffffffffff1614155b1561242f57600960009054906101000a900473ffffffffffffffffffffffffffffffffffffffff1673ffffffffffffffffffffffffffffffffffffffff16638fad2627826040518263ffffffff1660e01b81526004016123fc9190612cf1565b600060405180830381600087803b15801561241657600080fd5b505af115801561242a573d6000803e3d6000fd5b505050505b5b61243b8383836126be565b7f34ca334bda0f9d747a840b13967297de3fed35e96484719795e0c2a4eb17f87b8160405161246a9190612cf1565b60405180910390a1505050565b505050565b612485816126c3565b60006006600083815260200190815260200160002080546124a59061305d565b9050146124cc576006600082815260200190815260200160002060006124cb9190612963565b5b50565b60006124f08473ffffffffffffffffffffffffffffffffffffffff166127e0565b15612649578373ffffffffffffffffffffffffffffffffffffffff1663150b7a026125196119b6565b8786866040518563ffffffff1660e01b815260040161253b9493929190613ca1565b6020604051808303816000875af192505050801561257757506040513d601f19601f820116820180604052508101906125749190613d02565b60015b6125f9573d80600081146125a7576040519150601f19603f3d011682016040523d82523d6000602084013e6125ac565b606091505b5060008151036125f1576040517f08c379a00000000000000000000000000000000000000000000000000000000081526004016125e890613af4565b60405180910390fd5b805181602001fd5b63150b7a0260e01b7bffffffffffffffffffffffffffffffffffffffffffffffffffffffff1916817bffffffffffffffffffffffffffffffffffffffffffffffffffffffff19161491505061264e565b600190505b949350505050565b606061266182611591565b600061266b611cc5565b9050600081511161268b57604051806020016040528060008152506126b6565b8061269584612803565b6040516020016126a6929190613bbc565b6040516020818303038152906040525b915050919050565b505050565b60006126ce82610c6e565b90506126dc8160008461213e565b6126e7600083612085565b6001600360008373ffffffffffffffffffffffffffffffffffffffff1673ffffffffffffffffffffffffffffffffffffffff16815260200190815260200160002060008282546127379190613a4e565b925050819055506002600083815260200190815260200160002060006101000a81549073ffffffffffffffffffffffffffffffffffffffff021916905581600073ffffffffffffffffffffffffffffffffffffffff168273ffffffffffffffffffffffffffffffffffffffff167fddf252ad1be2c89b69c2b068fc378daa952ba7f163c4a11628f55a4df523b3ef60405160405180910390a46127dc81600084612477565b5050565b6000808273ffffffffffffffffffffffffffffffffffffffff163b119050919050565b60606000820361284a576040518060400160405280600181526020017f3000000000000000000000000000000000000000000000000000000000000000815250905061295e565b600082905060005b6000821461287c57808061286590613d2f565b915050600a826128759190613da6565b9150612852565b60008167ffffffffffffffff81111561289857612897612e40565b5b6040519080825280601f01601f1916602001820160405280156128ca5781602001600182028036833780820191505090505b5090505b60008514612957576001826128e39190613a4e565b9150600a856128f29190613dd7565b60306128fe91906138d4565b60f81b81838151811061291457612913613e08565b5b60200101907effffffffffffffffffffffffffffffffffffffffffffffffffffffffffffff1916908160001a905350600a856129509190613da6565b94506128ce565b8093505050505b919050565b50805461296f9061305d565b6000825580601f1061298157506129a0565b601f01602090049060005260206000209081019061299f91906129a3565b5b50565b5b808211156129bc5760008160009055506001016129a4565b5090565b6000604051905090565b600080fd5b600080fd5b60007fffffffff0000000000000000000000000000000000000000000000000000000082169050919050565b612a09816129d4565b8114612a1457600080fd5b50565b600081359050612a2681612a00565b92915050565b600060208284031215612a4257612a416129ca565b5b6000612a5084828501612a17565b91505092915050565b60008115159050919050565b612a6e81612a59565b82525050565b6000602082019050612a896000830184612a65565b92915050565b600081519050919050565b600082825260208201905092915050565b60005b83811015612ac9578082015181840152602081019050612aae565b83811115612ad8576000848401525b50505050565b6000601f19601f8301169050919050565b6000612afa82612a8f565b612b048185612a9a565b9350612b14818560208601612aab565b612b1d81612ade565b840191505092915050565b60006020820190508181036000830152612b428184612aef565b905092915050565b6000819050919050565b612b5d81612b4a565b8114612b6857600080fd5b50565b600081359050612b7a81612b54565b92915050565b600060208284031215612b9657612b956129ca565b5b6000612ba484828501612b6b565b91505092915050565b600073ffffffffffffffffffffffffffffffffffffffff82169050919050565b6000612bd882612bad565b9050919050565b612be881612bcd565b82525050565b6000602082019050612c036000830184612bdf565b92915050565b612c1281612bcd565b8114612c1d57600080fd5b50565b600081359050612c2f81612c09565b92915050565b60008060408385031215612c4c57612c4b6129ca565b5b6000612c5a85828601612c20565b9250506020612c6b85828601612b6b565b9150509250929050565b600060208284031215612c8b57612c8a6129ca565b5b6000612c9984828501612c20565b91505092915050565b60008060408385031215612cb957612cb86129ca565b5b6000612cc785828601612b6b565b9250506020612cd885828601612b6b565b9150509250929050565b612ceb81612b4a565b82525050565b6000602082019050612d066000830184612ce2565b92915050565b600080600060608486031215612d2557612d246129ca565b5b6000612d3386828701612c20565b9350506020612d4486828701612c20565b9250506040612d5586828701612b6b565b9150509250925092565b6000612d6a82612bad565b9050919050565b612d7a81612d5f565b8114612d8557600080fd5b50565b600081359050612d9781612d71565b92915050565b600060208284031215612db357612db26129ca565b5b6000612dc184828501612d88565b91505092915050565b612dd381612a59565b8114612dde57600080fd5b50565b600081359050612df081612dca565b92915050565b60008060408385031215612e0d57612e0c6129ca565b5b6000612e1b85828601612c20565b9250506020612e2c85828601612de1565b9150509250929050565b600080fd5b600080fd5b7f4e487b7100000000000000000000000000000000000000000000000000000000600052604160045260246000fd5b612e7882612ade565b810181811067ffffffffffffffff82111715612e9757612e96612e40565b5b80604052505050565b6000612eaa6129c0565b9050612eb68282612e6f565b919050565b600067ffffffffffffffff821115612ed657612ed5612e40565b5b612edf82612ade565b9050602081019050919050565b82818337600083830152505050565b6000612f0e612f0984612ebb565b612ea0565b905082815260208101848484011115612f2a57612f29612e3b565b5b612f35848285612eec565b509392505050565b600082601f830112612f5257612f51612e36565b5b8135612f62848260208601612efb565b91505092915050565b60008060008060808587031215612f8557612f846129ca565b5b6000612f9387828801612c20565b9450506020612fa487828801612c20565b9350506040612fb587828801612b6b565b925050606085013567ffffffffffffffff811115612fd657612fd56129cf565b5b612fe287828801612f3d565b91505092959194509250565b60008060408385031215613005576130046129ca565b5b600061301385828601612c20565b925050602061302485828601612c20565b9150509250929050565b7f4e487b7100000000000000000000000000000000000000000000000000000000600052602260045260246000fd5b6000600282049050600182168061307557607f821691505b6020821081036130885761308761302e565b5b50919050565b7f417070726f76616c207265737472696374656400000000000000000000000000600082015250565b60006130c4601383612a9a565b91506130cf8261308e565b602082019050919050565b600060208201905081810360008301526130f3816130b7565b9050919050565b7f4c69666520746f6b656e206973206e6f74207365740000000000000000000000600082015250565b6000613130601583612a9a565b915061313b826130fa565b602082019050919050565b6000602082019050818103600083015261315f81613123565b9050919050565b7f4572726f723a20546f6b656e496420616c7265616479206d696e746564000000600082015250565b600061319c601d83612a9a565b91506131a782613166565b602082019050919050565b600060208201905081810360008301526131cb8161318f565b9050919050565b7f4552433732313a2063616c6c6572206973206e6f7420746f6b656e206f776e6560008201527f72206e6f7220617070726f766564000000000000000000000000000000000000602082015250565b600061322e602e83612a9a565b9150613239826131d2565b604082019050919050565b6000602082019050818103600083015261325d81613221565b9050919050565b7f4552433732313a20696e76616c696420746f6b656e2049440000000000000000600082015250565b600061329a601883612a9a565b91506132a582613264565b602082019050919050565b600060208201905081810360008301526132c98161328d565b9050919050565b7f4552433732313a2061646472657373207a65726f206973206e6f74206120766160008201527f6c6964206f776e65720000000000000000000000000000000000000000000000602082015250565b600061332c602983612a9a565b9150613337826132d0565b604082019050919050565b6000602082019050818103600083015261335b8161331f565b9050919050565b60008151905061337181612b54565b92915050565b60006020828403121561338d5761338c6129ca565b5b600061339b84828501613362565b91505092915050565b6000819050919050565b600067ffffffffffffffff82169050919050565b6000819050919050565b60006133e76133e26133dd846133a4565b6133c2565b6133ae565b9050919050565b6133f7816133cc565b82525050565b60006040820190506134126000830185612ce2565b61341f60208301846133ee565b9392505050565b61342f816133ae565b82525050565b600060408201905061344a6000830185612ce2565b6134576020830184613426565b9392505050565b60006040820190506134736000830185612ce2565b6134806020830184612ce2565b9392505050565b7f4e6f742066756c6c7920706169642e205472616e73666572732072657374726960008201527f6374656400000000000000000000000000000000000000000000000000000000602082015250565b60006134e3602483612a9a565b91506134ee82613487565b604082019050919050565b60006020820190508181036000830152613512816134d6565b9050919050565b7f5472616e73666572206661696c65643a20596f7520617265206e6f742074686560008201527f206f776e6572206f6620746869732070726f7065727479000000000000000000602082015250565b6000613575603783612a9a565b915061358082613519565b604082019050919050565b600060208201905081810360008301526135a481613568565b9050919050565b7f4f776e61626c653a206e6577206f776e657220697320746865207a65726f206160008201527f6464726573730000000000000000000000000000000000000000000000000000602082015250565b6000613607602683612a9a565b9150613612826135ab565b604082019050919050565b60006020820190508181036000830152613636816135fa565b9050919050565b7f4552433732313a20617070726f76616c20746f2063757272656e74206f776e6560008201527f7200000000000000000000000000000000000000000000000000000000000000602082015250565b6000613699602183612a9a565b91506136a48261363d565b604082019050919050565b600060208201905081810360008301526136c88161368c565b9050919050565b7f4552433732313a20617070726f76652063616c6c6572206973206e6f7420746f60008201527f6b656e206f776e6572206e6f7220617070726f76656420666f7220616c6c0000602082015250565b600061372b603e83612a9a565b9150613736826136cf565b604082019050919050565b6000602082019050818103600083015261375a8161371e565b9050919050565b7f4f776e61626c653a2063616c6c6572206973206e6f7420746865206f776e6572600082015250565b6000613797602083612a9a565b91506137a282613761565b602082019050919050565b600060208201905081810360008301526137c68161378a565b9050919050565b7f4552433732313a206d696e7420746f20746865207a65726f2061646472657373600082015250565b6000613803602083612a9a565b915061380e826137cd565b602082019050919050565b60006020820190508181036000830152613832816137f6565b9050919050565b7f4552433732313a20746f6b656e20616c7265616479206d696e74656400000000600082015250565b600061386f601c83612a9a565b915061387a82613839565b602082019050919050565b6000602082019050818103600083015261389e81613862565b9050919050565b7f4e487b7100000000000000000000000000000000000000000000000000000000600052601160045260246000fd5b60006138df82612b4a565b91506138ea83612b4a565b9250827fffffffffffffffffffffffffffffffffffffffffffffffffffffffffffffffff0382111561391f5761391e6138a5565b5b828201905092915050565b7f4552433732313a207472616e736665722066726f6d20696e636f72726563742060008201527f6f776e6572000000000000000000000000000000000000000000000000000000602082015250565b6000613986602583612a9a565b91506139918261392a565b604082019050919050565b600060208201905081810360008301526139b581613979565b9050919050565b7f4552433732313a207472616e7366657220746f20746865207a65726f2061646460008201527f7265737300000000000000000000000000000000000000000000000000000000602082015250565b6000613a18602483612a9a565b9150613a23826139bc565b604082019050919050565b60006020820190508181036000830152613a4781613a0b565b9050919050565b6000613a5982612b4a565b9150613a6483612b4a565b925082821015613a7757613a766138a5565b5b828203905092915050565b7f4552433732313a207472616e7366657220746f206e6f6e20455243373231526560008201527f63656976657220696d706c656d656e7465720000000000000000000000000000602082015250565b6000613ade603283612a9a565b9150613ae982613a82565b604082019050919050565b60006020820190508181036000830152613b0d81613ad1565b9050919050565b7f4552433732313a20617070726f766520746f2063616c6c657200000000000000600082015250565b6000613b4a601983612a9a565b9150613b5582613b14565b602082019050919050565b60006020820190508181036000830152613b7981613b3d565b9050919050565b600081905092915050565b6000613b9682612a8f565b613ba08185613b80565b9350613bb0818560208601612aab565b80840191505092915050565b6000613bc88285613b8b565b9150613bd48284613b8b565b91508190509392505050565b7f5472616e73666572732072657374726963746564000000000000000000000000600082015250565b6000613c16601483612a9a565b9150613c2182613be0565b602082019050919050565b60006020820190508181036000830152613c4581613c09565b9050919050565b600081519050919050565b600082825260208201905092915050565b6000613c7382613c4c565b613c7d8185613c57565b9350613c8d818560208601612aab565b613c9681612ade565b840191505092915050565b6000608082019050613cb66000830187612bdf565b613cc36020830186612bdf565b613cd06040830185612ce2565b8181036060830152613ce28184613c68565b905095945050505050565b600081519050613cfc81612a00565b92915050565b600060208284031215613d1857613d176129ca565b5b6000613d2684828501613ced565b91505092915050565b6000613d3a82612b4a565b91507fffffffffffffffffffffffffffffffffffffffffffffffffffffffffffffffff8203613d6c57613d6b6138a5565b5b600182019050919050565b7f4e487b7100000000000000000000000000000000000000000000000000000000600052601260045260246000fd5b6000613db182612b4a565b9150613dbc83612b4a565b925082613dcc57613dcb613d77565b5b828204905092915050565b6000613de282612b4a565b9150613ded83612b4a565b925082613dfd57613dfc613d77565b5b828206905092915050565b7f4e487b7100000000000000000000000000000000000000000000000000000000600052603260045260246000fdfe68747470733a2f2f6d6c2d6170692d6465762e6865726f6b756170702e636f6d2f6170692f76312f6e6674732fa26469706673582212206df05374a1b3c3cad5895fdf096230814cf2714cfdb7456bc78ecdce6b44b82f64736f6c634300080d0033",
  "linkReferences": {},
  "deployedLinkReferences": {}
}