{
  "_format": "hh-sol-artifact-1",
  "contractName": "ManageLifeInvestorsNFT",
  "sourceName": "contracts/MLInvestorsNFT.sol",
  "abi": [
    {
      "inputs": [],
      "stateMutability": "nonpayable",
      "type": "constructor"
    },
    {
      "inputs": [],
      "name": "ApprovalCallerNotOwnerNorApproved",
      "type": "error"
    },
    {
      "inputs": [],
      "name": "ApprovalQueryForNonexistentToken",
      "type": "error"
    },
    {
      "inputs": [],
      "name": "BalanceQueryForZeroAddress",
      "type": "error"
    },
    {
      "inputs": [],
      "name": "MintERC2309QuantityExceedsLimit",
      "type": "error"
    },
    {
      "inputs": [],
      "name": "MintToZeroAddress",
      "type": "error"
    },
    {
      "inputs": [],
      "name": "MintZeroQuantity",
      "type": "error"
    },
    {
      "inputs": [],
      "name": "OwnerQueryForNonexistentToken",
      "type": "error"
    },
    {
      "inputs": [],
      "name": "OwnershipNotInitializedForExtraData",
      "type": "error"
    },
    {
      "inputs": [],
      "name": "TransferCallerNotOwnerNorApproved",
      "type": "error"
    },
    {
      "inputs": [],
      "name": "TransferFromIncorrectOwner",
      "type": "error"
    },
    {
      "inputs": [],
      "name": "TransferToNonERC721ReceiverImplementer",
      "type": "error"
    },
    {
      "inputs": [],
      "name": "TransferToZeroAddress",
      "type": "error"
    },
    {
      "inputs": [],
      "name": "URIQueryForNonexistentToken",
      "type": "error"
    },
    {
      "anonymous": false,
      "inputs": [
        {
          "indexed": true,
          "internalType": "address",
          "name": "owner",
          "type": "address"
        },
        {
          "indexed": true,
          "internalType": "address",
          "name": "approved",
          "type": "address"
        },
        {
          "indexed": true,
          "internalType": "uint256",
          "name": "tokenId",
          "type": "uint256"
        }
      ],
      "name": "Approval",
      "type": "event"
    },
    {
      "anonymous": false,
      "inputs": [
        {
          "indexed": true,
          "internalType": "address",
          "name": "owner",
          "type": "address"
        },
        {
          "indexed": true,
          "internalType": "address",
          "name": "operator",
          "type": "address"
        },
        {
          "indexed": false,
          "internalType": "bool",
          "name": "approved",
          "type": "bool"
        }
      ],
      "name": "ApprovalForAll",
      "type": "event"
    },
    {
      "anonymous": false,
      "inputs": [
        {
          "indexed": false,
          "internalType": "string",
          "name": "_newURIAddress",
          "type": "string"
        }
      ],
      "name": "BaseURIUpdated",
      "type": "event"
    },
    {
      "anonymous": false,
      "inputs": [
        {
          "indexed": false,
          "internalType": "uint256",
          "name": "tokenId",
          "type": "uint256"
        }
      ],
      "name": "BurnedNft",
      "type": "event"
    },
    {
      "anonymous": false,
      "inputs": [
        {
          "indexed": false,
          "internalType": "uint256",
          "name": "newTokenBurningRate",
          "type": "uint256"
        }
      ],
      "name": "BurningRateUpdated",
      "type": "event"
    },
    {
      "anonymous": false,
      "inputs": [
        {
          "indexed": true,
          "internalType": "uint256",
          "name": "fromTokenId",
          "type": "uint256"
        },
        {
          "indexed": false,
          "internalType": "uint256",
          "name": "toTokenId",
          "type": "uint256"
        },
        {
          "indexed": true,
          "internalType": "address",
          "name": "from",
          "type": "address"
        },
        {
          "indexed": true,
          "internalType": "address",
          "name": "to",
          "type": "address"
        }
      ],
      "name": "ConsecutiveTransfer",
      "type": "event"
    },
    {
      "anonymous": false,
      "inputs": [
        {
          "indexed": true,
          "internalType": "address",
          "name": "previousOwner",
          "type": "address"
        },
        {
          "indexed": true,
          "internalType": "address",
          "name": "newOwner",
          "type": "address"
        }
      ],
      "name": "OwnershipTransferred",
      "type": "event"
    },
    {
      "anonymous": false,
      "inputs": [
        {
          "indexed": false,
          "internalType": "uint256",
          "name": "tokenId",
          "type": "uint256"
        }
      ],
      "name": "StakingClaimed",
      "type": "event"
    },
    {
      "anonymous": false,
      "inputs": [
        {
          "indexed": true,
          "internalType": "uint256",
          "name": "tokenId",
          "type": "uint256"
        }
      ],
      "name": "StakingInitiated",
      "type": "event"
    },
    {
      "anonymous": false,
      "inputs": [
        {
          "indexed": true,
          "internalType": "address",
          "name": "burnFrom",
          "type": "address"
        },
        {
          "indexed": false,
          "internalType": "uint256",
          "name": "amount",
          "type": "uint256"
        }
      ],
      "name": "TokenBurned",
      "type": "event"
    },
    {
      "anonymous": false,
      "inputs": [
        {
          "indexed": true,
          "internalType": "uint256",
          "name": "tokenId",
          "type": "uint256"
        },
        {
          "indexed": false,
          "internalType": "uint256",
          "name": "newLifeTokenIssuanceRate",
          "type": "uint256"
        }
      ],
      "name": "TokenIssuanceRateUpdates",
      "type": "event"
    },
    {
      "anonymous": false,
      "inputs": [
        {
          "indexed": true,
          "internalType": "address",
          "name": "from",
          "type": "address"
        },
        {
          "indexed": true,
          "internalType": "address",
          "name": "to",
          "type": "address"
        },
        {
          "indexed": true,
          "internalType": "uint256",
          "name": "tokenId",
          "type": "uint256"
        }
      ],
      "name": "Transfer",
      "type": "event"
    },
    {
      "inputs": [
        {
          "internalType": "uint256",
          "name": "",
          "type": "uint256"
        }
      ],
      "name": "_stakingRewards",
      "outputs": [
        {
          "internalType": "uint64",
          "name": "",
          "type": "uint64"
        }
      ],
      "stateMutability": "view",
      "type": "function"
    },
    {
      "inputs": [
        {
          "internalType": "uint256",
          "name": "",
          "type": "uint256"
        }
      ],
      "name": "_unlockDate",
      "outputs": [
        {
          "internalType": "uint256",
          "name": "",
          "type": "uint256"
        }
      ],
      "stateMutability": "view",
      "type": "function"
    },
    {
      "inputs": [
        {
          "internalType": "address",
          "name": "to",
          "type": "address"
        },
        {
          "internalType": "uint256",
          "name": "tokenId",
          "type": "uint256"
        }
      ],
      "name": "approve",
      "outputs": [],
      "stateMutability": "payable",
      "type": "function"
    },
    {
      "inputs": [
        {
          "internalType": "address",
          "name": "owner",
          "type": "address"
        }
      ],
      "name": "balanceOf",
      "outputs": [
        {
          "internalType": "uint256",
          "name": "",
          "type": "uint256"
        }
      ],
      "stateMutability": "view",
      "type": "function"
    },
    {
      "inputs": [],
      "name": "baseURI",
      "outputs": [
        {
          "internalType": "string",
          "name": "",
          "type": "string"
        }
      ],
      "stateMutability": "view",
      "type": "function"
    },
    {
      "inputs": [
        {
          "internalType": "uint256",
          "name": "tokenId",
          "type": "uint256"
        }
      ],
      "name": "burnNFt",
      "outputs": [],
      "stateMutability": "nonpayable",
      "type": "function"
    },
    {
      "inputs": [
        {
          "internalType": "uint256",
          "name": "amount",
          "type": "uint256"
        },
        {
          "internalType": "uint256",
          "name": "tokenId",
          "type": "uint256"
        }
      ],
      "name": "burnTokens",
      "outputs": [],
      "stateMutability": "nonpayable",
      "type": "function"
    },
    {
      "inputs": [
        {
          "internalType": "uint256",
          "name": "tokenId",
          "type": "uint256"
        }
      ],
      "name": "checkClaimableStakingRewards",
      "outputs": [
        {
          "internalType": "uint256",
          "name": "",
          "type": "uint256"
        }
      ],
      "stateMutability": "view",
      "type": "function"
    },
    {
      "inputs": [
        {
          "internalType": "uint256",
          "name": "tokenId",
          "type": "uint256"
        }
      ],
      "name": "claimStakingRewards",
      "outputs": [],
      "stateMutability": "nonpayable",
      "type": "function"
    },
    {
      "inputs": [
        {
          "internalType": "uint256",
          "name": "tokenId",
          "type": "uint256"
        }
      ],
      "name": "forceClaimNft",
      "outputs": [],
      "stateMutability": "nonpayable",
      "type": "function"
    },
    {
      "inputs": [
        {
          "internalType": "uint256",
          "name": "tokenId",
          "type": "uint256"
        }
      ],
      "name": "getApproved",
      "outputs": [
        {
          "internalType": "address",
          "name": "",
          "type": "address"
        }
      ],
      "stateMutability": "view",
      "type": "function"
    },
    {
      "inputs": [
        {
          "internalType": "address",
          "name": "owner",
          "type": "address"
        },
        {
          "internalType": "address",
          "name": "operator",
          "type": "address"
        }
      ],
      "name": "isApprovedForAll",
      "outputs": [
        {
          "internalType": "bool",
          "name": "",
          "type": "bool"
        }
      ],
      "stateMutability": "view",
      "type": "function"
    },
    {
      "inputs": [
        {
          "internalType": "address",
          "name": "to",
          "type": "address"
        },
        {
          "internalType": "uint256",
          "name": "tokenId",
          "type": "uint256"
        },
        {
          "internalType": "uint256",
          "name": "lifeTokenIssuanceRate_",
          "type": "uint256"
        }
      ],
      "name": "issueNftToInvestor",
      "outputs": [],
      "stateMutability": "nonpayable",
      "type": "function"
    },
    {
      "inputs": [],
      "name": "lifeToken",
      "outputs": [
        {
          "internalType": "address",
          "name": "",
          "type": "address"
        }
      ],
      "stateMutability": "view",
      "type": "function"
    },
    {
      "inputs": [
        {
          "internalType": "uint256",
          "name": "tokenId",
          "type": "uint256"
        }
      ],
      "name": "lifeTokenIssuanceRate",
      "outputs": [
        {
          "internalType": "uint256",
          "name": "",
          "type": "uint256"
        }
      ],
      "stateMutability": "view",
      "type": "function"
    },
    {
      "inputs": [
        {
          "internalType": "uint256",
          "name": "quantity",
          "type": "uint256"
        }
      ],
      "name": "mint",
      "outputs": [],
      "stateMutability": "nonpayable",
      "type": "function"
    },
    {
      "inputs": [],
      "name": "name",
      "outputs": [
        {
          "internalType": "string",
          "name": "",
          "type": "string"
        }
      ],
      "stateMutability": "view",
      "type": "function"
    },
    {
      "inputs": [],
      "name": "owner",
      "outputs": [
        {
          "internalType": "address",
          "name": "",
          "type": "address"
        }
      ],
      "stateMutability": "view",
      "type": "function"
    },
    {
      "inputs": [
        {
          "internalType": "uint256",
          "name": "tokenId",
          "type": "uint256"
        }
      ],
      "name": "ownerOf",
      "outputs": [
        {
          "internalType": "address",
          "name": "",
          "type": "address"
        }
      ],
      "stateMutability": "view",
      "type": "function"
    },
    {
      "inputs": [
        {
          "internalType": "uint256",
          "name": "tokenId",
          "type": "uint256"
        }
      ],
      "name": "ownerOfTokenId",
      "outputs": [
        {
          "internalType": "address",
          "name": "",
          "type": "address"
        }
      ],
      "stateMutability": "view",
      "type": "function"
    },
    {
      "inputs": [],
      "name": "renounceOwnership",
      "outputs": [],
      "stateMutability": "nonpayable",
      "type": "function"
    },
    {
      "inputs": [
        {
          "internalType": "uint256",
          "name": "tokenId",
          "type": "uint256"
        }
      ],
      "name": "returnNftToML",
      "outputs": [],
      "stateMutability": "nonpayable",
      "type": "function"
    },
    {
      "inputs": [
        {
          "internalType": "address",
          "name": "from",
          "type": "address"
        },
        {
          "internalType": "address",
          "name": "to",
          "type": "address"
        },
        {
          "internalType": "uint256",
          "name": "tokenId",
          "type": "uint256"
        }
      ],
      "name": "safeTransferFrom",
      "outputs": [],
      "stateMutability": "payable",
      "type": "function"
    },
    {
      "inputs": [
        {
          "internalType": "address",
          "name": "from",
          "type": "address"
        },
        {
          "internalType": "address",
          "name": "to",
          "type": "address"
        },
        {
          "internalType": "uint256",
          "name": "tokenId",
          "type": "uint256"
        },
        {
          "internalType": "bytes",
          "name": "_data",
          "type": "bytes"
        }
      ],
      "name": "safeTransferFrom",
      "outputs": [],
      "stateMutability": "payable",
      "type": "function"
    },
    {
      "inputs": [
        {
          "internalType": "address",
          "name": "operator",
          "type": "address"
        },
        {
          "internalType": "bool",
          "name": "approved",
          "type": "bool"
        }
      ],
      "name": "setApprovalForAll",
      "outputs": [],
      "stateMutability": "nonpayable",
      "type": "function"
    },
    {
      "inputs": [
        {
          "internalType": "address",
          "name": "lifeToken_",
          "type": "address"
        }
      ],
      "name": "setLifeToken",
      "outputs": [],
      "stateMutability": "nonpayable",
      "type": "function"
    },
    {
      "inputs": [
        {
          "internalType": "uint256",
          "name": "tokenId",
          "type": "uint256"
        },
        {
          "internalType": "uint256",
          "name": "_newLockDate",
          "type": "uint256"
        }
      ],
      "name": "setLockDate",
      "outputs": [],
      "stateMutability": "nonpayable",
      "type": "function"
    },
    {
      "inputs": [
        {
          "internalType": "bytes4",
          "name": "interfaceId",
          "type": "bytes4"
        }
      ],
      "name": "supportsInterface",
      "outputs": [
        {
          "internalType": "bool",
          "name": "",
          "type": "bool"
        }
      ],
      "stateMutability": "view",
      "type": "function"
    },
    {
      "inputs": [],
      "name": "symbol",
      "outputs": [
        {
          "internalType": "string",
          "name": "",
          "type": "string"
        }
      ],
      "stateMutability": "view",
      "type": "function"
    },
    {
      "inputs": [],
      "name": "tokenBurningRate",
      "outputs": [
        {
          "internalType": "uint256",
          "name": "",
          "type": "uint256"
        }
      ],
      "stateMutability": "view",
      "type": "function"
    },
    {
      "inputs": [
        {
          "internalType": "uint256",
          "name": "tokenId",
          "type": "uint256"
        }
      ],
      "name": "tokenURI",
      "outputs": [
        {
          "internalType": "string",
          "name": "",
          "type": "string"
        }
      ],
      "stateMutability": "view",
      "type": "function"
    },
    {
      "inputs": [],
      "name": "totalSupply",
      "outputs": [
        {
          "internalType": "uint256",
          "name": "",
          "type": "uint256"
        }
      ],
      "stateMutability": "view",
      "type": "function"
    },
    {
      "inputs": [
        {
          "internalType": "address",
          "name": "from",
          "type": "address"
        },
        {
          "internalType": "address",
          "name": "to",
          "type": "address"
        },
        {
          "internalType": "uint256",
          "name": "tokenId",
          "type": "uint256"
        }
      ],
      "name": "transferFrom",
      "outputs": [],
      "stateMutability": "payable",
      "type": "function"
    },
    {
      "inputs": [
        {
          "internalType": "address",
          "name": "to",
          "type": "address"
        },
        {
          "internalType": "uint256",
          "name": "tokenId",
          "type": "uint256"
        }
      ],
      "name": "transferNft",
      "outputs": [],
      "stateMutability": "nonpayable",
      "type": "function"
    },
    {
      "inputs": [
        {
          "internalType": "address",
          "name": "newOwner",
          "type": "address"
        }
      ],
      "name": "transferOwnership",
      "outputs": [],
      "stateMutability": "nonpayable",
      "type": "function"
    },
    {
      "inputs": [
        {
          "internalType": "string",
          "name": "_newURIAddress",
          "type": "string"
        }
      ],
      "name": "updateBaseURI",
      "outputs": [],
      "stateMutability": "nonpayable",
      "type": "function"
    },
    {
      "inputs": [
        {
          "internalType": "uint256",
          "name": "tokenId",
          "type": "uint256"
        },
        {
          "internalType": "uint256",
          "name": "newLifeTokenIssuanceRate",
          "type": "uint256"
        }
      ],
      "name": "updateLifeTokenIssuanceRate",
      "outputs": [],
      "stateMutability": "nonpayable",
      "type": "function"
    },
    {
      "inputs": [
        {
          "internalType": "uint256",
          "name": "newTokenBurningRate",
          "type": "uint256"
        }
      ],
      "name": "updateTokenBurningRate",
      "outputs": [],
      "stateMutability": "nonpayable",
      "type": "function"
    }
  ],
  "bytecode": "0x60806040526040518060600160405280602d815260200162003f1d602d9139600d90816200002e919062000463565b5066f8b0a10e470000600e553480156200004757600080fd5b506040518060400160405280601881526020017f4d616e6167654c69666520496e766573746f7273204e465400000000000000008152506040518060400160405280600481526020017f4e465469000000000000000000000000000000000000000000000000000000008152508160029081620000c5919062000463565b508060039081620000d7919062000463565b50620000e86200011660201b60201c565b600081905550505062000110620001046200011b60201b60201c565b6200012360201b60201c565b6200054a565b600090565b600033905090565b6000600860009054906101000a900473ffffffffffffffffffffffffffffffffffffffff16905081600860006101000a81548173ffffffffffffffffffffffffffffffffffffffff021916908373ffffffffffffffffffffffffffffffffffffffff1602179055508173ffffffffffffffffffffffffffffffffffffffff168173ffffffffffffffffffffffffffffffffffffffff167f8be0079c531659141344cd1fd0a4f28419497f9722a3daafe3b4186f6b6457e060405160405180910390a35050565b600081519050919050565b7f4e487b7100000000000000000000000000000000000000000000000000000000600052604160045260246000fd5b7f4e487b7100000000000000000000000000000000000000000000000000000000600052602260045260246000fd5b600060028204905060018216806200026b57607f821691505b60208210810362000281576200028062000223565b5b50919050565b60008190508160005260206000209050919050565b60006020601f8301049050919050565b600082821b905092915050565b600060088302620002eb7fffffffffffffffffffffffffffffffffffffffffffffffffffffffffffffffff82620002ac565b620002f78683620002ac565b95508019841693508086168417925050509392505050565b6000819050919050565b6000819050919050565b6000620003446200033e62000338846200030f565b62000319565b6200030f565b9050919050565b6000819050919050565b620003608362000323565b620003786200036f826200034b565b848454620002b9565b825550505050565b600090565b6200038f62000380565b6200039c81848462000355565b505050565b5b81811015620003c457620003b860008262000385565b600181019050620003a2565b5050565b601f8211156200041357620003dd8162000287565b620003e8846200029c565b81016020851015620003f8578190505b6200041062000407856200029c565b830182620003a1565b50505b505050565b600082821c905092915050565b6000620004386000198460080262000418565b1980831691505092915050565b600062000453838362000425565b9150826002028217905092915050565b6200046e82620001e9565b67ffffffffffffffff8111156200048a5762000489620001f4565b5b62000496825462000252565b620004a3828285620003c8565b600060209050601f831160018114620004db5760008415620004c6578287015190505b620004d2858262000445565b86555062000542565b601f198416620004eb8662000287565b60005b828110156200051557848901518255600182019150602085019450602081019050620004ee565b8683101562000535578489015162000531601f89168262000425565b8355505b6001600288020188555050505b505050505050565b6139c3806200055a6000396000f3fe6080604052600436106102255760003560e01c8063715018a611610123578063a0712d68116100ab578063df028f4e1161006f578063df028f4e14610803578063e985e9c51461082c578063f117edc014610869578063f2fde38b14610892578063f67f031a146108bb57610225565b8063a0712d681461072f578063a22cb46514610758578063b88d4fde14610781578063b8c9c3331461079d578063c87b56dd146107c657610225565b80638ef6aa02116100f25780638ef6aa02146106605780638fad262714610689578063931688cb146106b257806395d89b41146106db57806396272dea1461070657610225565b8063715018a6146105ca578063755d16fd146105e15780638da5cb5b1461060c5780638e81c64d1461063757610225565b8063302f4b4e116101b1578063683741571161017557806368374157146104d35780636a308348146105105780636c0360eb1461053957806370a082311461056457806370bba727146105a157610225565b8063302f4b4e146103d75780633be2521c1461041457806342842e0e1461045157806360cc11211461046d5780636352211e1461049657610225565b806312e8ac06116101f857806312e8ac06146102eb57806318160ddd146103285780631b61f17e1461035357806323b872dd1461039057806330037c14146103ac57610225565b806301ffc9a71461022a57806306fdde0314610267578063081812fc14610292578063095ea7b3146102cf575b600080fd5b34801561023657600080fd5b50610251600480360381019061024c919061298e565b6108e4565b60405161025e91906129d6565b60405180910390f35b34801561027357600080fd5b5061027c610976565b6040516102899190612a81565b60405180910390f35b34801561029e57600080fd5b506102b960048036038101906102b49190612ad9565b610a08565b6040516102c69190612b47565b60405180910390f35b6102e960048036038101906102e49190612b8e565b610a87565b005b3480156102f757600080fd5b50610312600480360381019061030d9190612ad9565b610bcb565b60405161031f9190612b47565b60405180910390f35b34801561033457600080fd5b5061033d610bdd565b60405161034a9190612bdd565b60405180910390f35b34801561035f57600080fd5b5061037a60048036038101906103759190612ad9565b610bf4565b6040516103879190612bdd565b60405180910390f35b6103aa60048036038101906103a59190612bf8565b610c11565b005b3480156103b857600080fd5b506103c1610f33565b6040516103ce9190612b47565b60405180910390f35b3480156103e357600080fd5b506103fe60048036038101906103f99190612ad9565b610f5d565b60405161040b9190612bdd565b60405180910390f35b34801561042057600080fd5b5061043b60048036038101906104369190612ad9565b610fc1565b6040516104489190612bdd565b60405180910390f35b61046b60048036038101906104669190612bf8565b610fd9565b005b34801561047957600080fd5b50610494600480360381019061048f9190612b8e565b610ff9565b005b3480156104a257600080fd5b506104bd60048036038101906104b89190612ad9565b61116a565b6040516104ca9190612b47565b60405180910390f35b3480156104df57600080fd5b506104fa60048036038101906104f59190612ad9565b61117c565b6040516105079190612c6e565b60405180910390f35b34801561051c57600080fd5b5061053760048036038101906105329190612ad9565b6111a3565b005b34801561054557600080fd5b5061054e611260565b60405161055b9190612a81565b60405180910390f35b34801561057057600080fd5b5061058b60048036038101906105869190612c89565b6112ee565b6040516105989190612bdd565b60405180910390f35b3480156105ad57600080fd5b506105c860048036038101906105c39190612cb6565b6113a6565b005b3480156105d657600080fd5b506105df6114db565b005b3480156105ed57600080fd5b506105f66114ef565b6040516106039190612bdd565b60405180910390f35b34801561061857600080fd5b506106216114f5565b60405161062e9190612b47565b60405180910390f35b34801561064357600080fd5b5061065e60048036038101906106599190612cb6565b61151f565b005b34801561066c57600080fd5b5061068760048036038101906106829190612c89565b611602565b005b34801561069557600080fd5b506106b060048036038101906106ab9190612ad9565b61164e565b005b3480156106be57600080fd5b506106d960048036038101906106d49190612e2b565b611844565b005b3480156106e757600080fd5b506106f0611896565b6040516106fd9190612a81565b60405180910390f35b34801561071257600080fd5b5061072d60048036038101906107289190612ad9565b611928565b005b34801561073b57600080fd5b5061075660048036038101906107519190612ad9565b611973565b005b34801561076457600080fd5b5061077f600480360381019061077a9190612ea0565b611988565b005b61079b60048036038101906107969190612f81565b611a93565b005b3480156107a957600080fd5b506107c460048036038101906107bf9190612ad9565b611b06565b005b3480156107d257600080fd5b506107ed60048036038101906107e89190612ad9565b611b4f565b6040516107fa9190612a81565b60405180910390f35b34801561080f57600080fd5b5061082a60048036038101906108259190613004565b611bed565b005b34801561083857600080fd5b50610853600480360381019061084e9190613057565b611c57565b60405161086091906129d6565b60405180910390f35b34801561087557600080fd5b50610890600480360381019061088b9190612cb6565b611ceb565b005b34801561089e57600080fd5b506108b960048036038101906108b49190612c89565b611d0f565b005b3480156108c757600080fd5b506108e260048036038101906108dd9190612ad9565b611d92565b005b60006301ffc9a760e01b827bffffffffffffffffffffffffffffffffffffffffffffffffffffffff1916148061093f57506380ac58cd60e01b827bffffffffffffffffffffffffffffffffffffffffffffffffffffffff1916145b8061096f5750635b5e139f60e01b827bffffffffffffffffffffffffffffffffffffffffffffffffffffffff1916145b9050919050565b606060028054610985906130c6565b80601f01602080910402602001604051908101604052809291908181526020018280546109b1906130c6565b80156109fe5780601f106109d3576101008083540402835291602001916109fe565b820191906000526020600020905b8154815290600101906020018083116109e157829003601f168201915b5050505050905090565b6000610a1382611db0565b610a49576040517fcf4700e400000000000000000000000000000000000000000000000000000000815260040160405180910390fd5b6006600083815260200190815260200160002060000160009054906101000a900473ffffffffffffffffffffffffffffffffffffffff169050919050565b6000610a928261116a565b90508073ffffffffffffffffffffffffffffffffffffffff16610ab3611e0f565b73ffffffffffffffffffffffffffffffffffffffff1614610b1657610adf81610ada611e0f565b611c57565b610b15576040517fcfb3b94200000000000000000000000000000000000000000000000000000000815260040160405180910390fd5b5b826006600084815260200190815260200160002060000160006101000a81548173ffffffffffffffffffffffffffffffffffffffff021916908373ffffffffffffffffffffffffffffffffffffffff160217905550818373ffffffffffffffffffffffffffffffffffffffff168273ffffffffffffffffffffffffffffffffffffffff167f8c5be1e5ebec7d5bd14f71427d1e84f3dd0314c0f7b2291e5b200ac8c7c3b92560405160405180910390a4505050565b6000610bd68261116a565b9050919050565b6000610be7611e17565b6001546000540303905090565b6000600a6000838152602001908152602001600020549050919050565b6000610c1c82611e1c565b90508373ffffffffffffffffffffffffffffffffffffffff168173ffffffffffffffffffffffffffffffffffffffff1614610c83576040517fa114810000000000000000000000000000000000000000000000000000000000815260040160405180910390fd5b600080610c8f84611ee8565b91509150610ca58187610ca0611e0f565b611f0f565b610cf157610cba86610cb5611e0f565b611c57565b610cf0576040517f59c896be00000000000000000000000000000000000000000000000000000000815260040160405180910390fd5b5b600073ffffffffffffffffffffffffffffffffffffffff168573ffffffffffffffffffffffffffffffffffffffff1603610d57576040517fea553b3400000000000000000000000000000000000000000000000000000000815260040160405180910390fd5b610d648686866001611f53565b8015610d6f57600082555b600560008773ffffffffffffffffffffffffffffffffffffffff1673ffffffffffffffffffffffffffffffffffffffff168152602001908152602001600020600081546001900391905081905550600560008673ffffffffffffffffffffffffffffffffffffffff1673ffffffffffffffffffffffffffffffffffffffff1681526020019081526020016000206000815460010191905081905550610e3d85610e19888887611f59565b7c020000000000000000000000000000000000000000000000000000000017611f81565b600460008681526020019081526020016000208190555060007c0200000000000000000000000000000000000000000000000000000000841603610ec35760006001850190506000600460008381526020019081526020016000205403610ec1576000548114610ec0578360046000838152602001908152602001600020819055505b5b505b838573ffffffffffffffffffffffffffffffffffffffff168773ffffffffffffffffffffffffffffffffffffffff167fddf252ad1be2c89b69c2b068fc378daa952ba7f163c4a11628f55a4df523b3ef60405160405180910390a4610f2b8686866001611fac565b505050505050565b6000600960009054906101000a900473ffffffffffffffffffffffffffffffffffffffff16905090565b6000600a600083815260200190815260200160002054600b600084815260200190815260200160002060009054906101000a900467ffffffffffffffff1642610fa69190613126565b67ffffffffffffffff16610fba9190613162565b9050919050565b600c6020528060005260406000206000915090505481565b610ff483838360405180602001604052806000815250611a93565b505050565b6110028161116a565b73ffffffffffffffffffffffffffffffffffffffff163373ffffffffffffffffffffffffffffffffffffffff161461106f576040517f08c379a000000000000000000000000000000000000000000000000000000000815260040161106690613216565b60405180910390fd5b6110776114f5565b73ffffffffffffffffffffffffffffffffffffffff163373ffffffffffffffffffffffffffffffffffffffff16036110b9576110b4338383610fd9565b611135565b600c60008281526020019081526020016000205442101561110f576040517f08c379a0000000000000000000000000000000000000000000000000000000008152600401611106906132a8565b60405180910390fd5b600061111a82610f5d565b10611129576111288161164e565b5b611134338383610fd9565b5b6301e133804261114591906132c8565b67ffffffffffffffff16600c6000838152602001908152602001600020819055505050565b600061117582611e1c565b9050919050565b600b6020528060005260406000206000915054906101000a900467ffffffffffffffff1681565b6111ac8161116a565b73ffffffffffffffffffffffffffffffffffffffff163373ffffffffffffffffffffffffffffffffffffffff1614611219576040517f08c379a000000000000000000000000000000000000000000000000000000000815260040161121090613216565b60405180910390fd5b600061122482610f5d565b10611233576112328161164e565b5b42600c60008381526020019081526020016000208190555061125d336112576114f5565b83610fd9565b50565b600d805461126d906130c6565b80601f0160208091040260200160405190810160405280929190818152602001828054611299906130c6565b80156112e65780601f106112bb576101008083540402835291602001916112e6565b820191906000526020600020905b8154815290600101906020018083116112c957829003601f168201915b505050505081565b60008073ffffffffffffffffffffffffffffffffffffffff168273ffffffffffffffffffffffffffffffffffffffff1603611355576040517f8f4eb60400000000000000000000000000000000000000000000000000000000815260040160405180910390fd5b67ffffffffffffffff600560008473ffffffffffffffffffffffffffffffffffffffff1673ffffffffffffffffffffffffffffffffffffffff16815260200190815260200160002054169050919050565b6113ae611fb2565b600960009054906101000a900473ffffffffffffffffffffffffffffffffffffffff1673ffffffffffffffffffffffffffffffffffffffff1663834874986113f58461116a565b6113fe85610f5d565b6040518363ffffffff1660e01b815260040161141b929190613304565b600060405180830381600087803b15801561143557600080fd5b505af1158015611449573d6000803e3d6000fd5b5050505042600b600084815260200190815260200160002060006101000a81548167ffffffffffffffff021916908367ffffffffffffffff16021790555080600a600084815260200190815260200160002081905550817f18e383d3900bb5f9adbf556eb0f63226cfc096e78ae4c9a6aebc1353aeae1b62826040516114cf9190612bdd565b60405180910390a25050565b6114e3611fb2565b6114ed6000612030565b565b600e5481565b6000600860009054906101000a900473ffffffffffffffffffffffffffffffffffffffff16905090565b600960009054906101000a900473ffffffffffffffffffffffffffffffffffffffff1673ffffffffffffffffffffffffffffffffffffffff1663e5735f213384846040518463ffffffff1660e01b815260040161157e9392919061332d565b600060405180830381600087803b15801561159857600080fd5b505af11580156115ac573d6000803e3d6000fd5b505050503373ffffffffffffffffffffffffffffffffffffffff167f1af5163f80e79b5e554f61e1d052084d3a3fe1166e42a265798c4e2ddce8ffa2836040516115f69190612bdd565b60405180910390a25050565b61160a611fb2565b80600960006101000a81548173ffffffffffffffffffffffffffffffffffffffff021916908373ffffffffffffffffffffffffffffffffffffffff16021790555050565b6116578161116a565b73ffffffffffffffffffffffffffffffffffffffff163373ffffffffffffffffffffffffffffffffffffffff16146116c4576040517f08c379a00000000000000000000000000000000000000000000000000000000081526004016116bb906133d6565b60405180910390fd5b6116cc6114f5565b73ffffffffffffffffffffffffffffffffffffffff163373ffffffffffffffffffffffffffffffffffffffff1603611739576040517f08c379a000000000000000000000000000000000000000000000000000000000815260040161173090613442565b60405180910390fd5b600960009054906101000a900473ffffffffffffffffffffffffffffffffffffffff1673ffffffffffffffffffffffffffffffffffffffff1663834874983361178184610f5d565b6040518363ffffffff1660e01b815260040161179e929190613304565b600060405180830381600087803b1580156117b857600080fd5b505af11580156117cc573d6000803e3d6000fd5b5050505042600b600083815260200190815260200160002060006101000a81548167ffffffffffffffff021916908367ffffffffffffffff1602179055507f22906085912ba05ced8c7270a57831d70b0cac665d9034d839056a098ea2ffe1816040516118399190612bdd565b60405180910390a150565b61184c611fb2565b80600d908161185b919061360e565b507f6741b2fc379fad678116fe3d4d4b9a1a184ab53ba36b86ad0fa66340b1ab41ad8160405161188b9190612a81565b60405180910390a150565b6060600380546118a5906130c6565b80601f01602080910402602001604051908101604052809291908181526020018280546118d1906130c6565b801561191e5780601f106118f35761010080835404028352916020019161191e565b820191906000526020600020905b81548152906001019060200180831161190157829003601f168201915b5050505050905090565b611930611fb2565b611939816120f6565b7f6834152b13b14874ce1a95c7f53d552459481e9875ead957a619501238169a32816040516119689190612bdd565b60405180910390a150565b61197b611fb2565b6119853382612104565b50565b8060076000611995611e0f565b73ffffffffffffffffffffffffffffffffffffffff1673ffffffffffffffffffffffffffffffffffffffff16815260200190815260200160002060008473ffffffffffffffffffffffffffffffffffffffff1673ffffffffffffffffffffffffffffffffffffffff16815260200190815260200160002060006101000a81548160ff0219169083151502179055508173ffffffffffffffffffffffffffffffffffffffff16611a42611e0f565b73ffffffffffffffffffffffffffffffffffffffff167f17307eab39ab6107e8899845ad3d59bd9653f200f220920489ca2b5937696c3183604051611a8791906129d6565b60405180910390a35050565b611a9e848484610c11565b60008373ffffffffffffffffffffffffffffffffffffffff163b14611b0057611ac984848484612122565b611aff576040517fd1a57ed600000000000000000000000000000000000000000000000000000000815260040160405180910390fd5b5b50505050565b611b0e611fb2565b80600e819055507fd9a6d945e06693dbd732ce8a5690429b9d300bc81f1b9fc094297abaedb5d67c81604051611b449190612bdd565b60405180910390a150565b6060611b5a82611db0565b611b90576040517fa14c4b5000000000000000000000000000000000000000000000000000000000815260040160405180910390fd5b6000611b9a612272565b90506000815103611bba5760405180602001604052806000815250611be5565b80611bc484612304565b604051602001611bd592919061371c565b6040516020818303038152906040525b915050919050565b611bf5611fb2565b80600a600084815260200190815260200160002081905550611c18338484610fd9565b6301e1338042611c2891906132c8565b67ffffffffffffffff16600c600084815260200190815260200160002081905550611c5282612354565b505050565b6000600760008473ffffffffffffffffffffffffffffffffffffffff1673ffffffffffffffffffffffffffffffffffffffff16815260200190815260200160002060008373ffffffffffffffffffffffffffffffffffffffff1673ffffffffffffffffffffffffffffffffffffffff16815260200190815260200160002060009054906101000a900460ff16905092915050565b611cf3611fb2565b80600c6000848152602001908152602001600020819055505050565b611d17611fb2565b600073ffffffffffffffffffffffffffffffffffffffff168173ffffffffffffffffffffffffffffffffffffffff1603611d86576040517f08c379a0000000000000000000000000000000000000000000000000000000008152600401611d7d906137b2565b60405180910390fd5b611d8f81612030565b50565b611d9a611fb2565b611dad611da682610bcb565b3383610c11565b50565b600081611dbb611e17565b11158015611dca575060005482105b8015611e08575060007c0100000000000000000000000000000000000000000000000000000000600460008581526020019081526020016000205416145b9050919050565b600033905090565b600090565b60008082905080611e2b611e17565b11611eb157600054811015611eb05760006004600083815260200190815260200160002054905060007c0100000000000000000000000000000000000000000000000000000000821603611eae575b60008103611ea4576004600083600190039350838152602001908152602001600020549050611e7a565b8092505050611ee3565b505b5b6040517fdf2d9b4200000000000000000000000000000000000000000000000000000000815260040160405180910390fd5b919050565b60008060006006600085815260200190815260200160002090508092508254915050915091565b600073ffffffffffffffffffffffffffffffffffffffff8316925073ffffffffffffffffffffffffffffffffffffffff821691508382148383141790509392505050565b50505050565b60008060e883901c905060e8611f70868684612457565b62ffffff16901b9150509392505050565b600073ffffffffffffffffffffffffffffffffffffffff83169250814260a01b178317905092915050565b50505050565b611fba612460565b73ffffffffffffffffffffffffffffffffffffffff16611fd86114f5565b73ffffffffffffffffffffffffffffffffffffffff161461202e576040517f08c379a00000000000000000000000000000000000000000000000000000000081526004016120259061381e565b60405180910390fd5b565b6000600860009054906101000a900473ffffffffffffffffffffffffffffffffffffffff16905081600860006101000a81548173ffffffffffffffffffffffffffffffffffffffff021916908373ffffffffffffffffffffffffffffffffffffffff1602179055508173ffffffffffffffffffffffffffffffffffffffff168173ffffffffffffffffffffffffffffffffffffffff167f8be0079c531659141344cd1fd0a4f28419497f9722a3daafe3b4186f6b6457e060405160405180910390a35050565b612101816000612468565b50565b61211e8282604051806020016040528060008152506126ba565b5050565b60008373ffffffffffffffffffffffffffffffffffffffff1663150b7a02612148611e0f565b8786866040518563ffffffff1660e01b815260040161216a9493929190613893565b6020604051808303816000875af19250505080156121a657506040513d601f19601f820116820180604052508101906121a391906138f4565b60015b61221f573d80600081146121d6576040519150601f19603f3d011682016040523d82523d6000602084013e6121db565b606091505b506000815103612217576040517fd1a57ed600000000000000000000000000000000000000000000000000000000815260040160405180910390fd5b805181602001fd5b63150b7a0260e01b7bffffffffffffffffffffffffffffffffffffffffffffffffffffffff1916817bffffffffffffffffffffffffffffffffffffffffffffffffffffffff191614915050949350505050565b6060600d8054612281906130c6565b80601f01602080910402602001604051908101604052809291908181526020018280546122ad906130c6565b80156122fa5780601f106122cf576101008083540402835291602001916122fa565b820191906000526020600020905b8154815290600101906020018083116122dd57829003601f168201915b5050505050905090565b606060a060405101806040526020810391506000825281835b60011561233f57600184039350600a81066030018453600a810490508061231d575b50828103602084039350808452505050919050565b61235c611fb2565b600073ffffffffffffffffffffffffffffffffffffffff16600960009054906101000a900473ffffffffffffffffffffffffffffffffffffffff1673ffffffffffffffffffffffffffffffffffffffff16036123ed576040517f08c379a00000000000000000000000000000000000000000000000000000000081526004016123e49061396d565b60405180910390fd5b42600b600083815260200190815260200160002060006101000a81548167ffffffffffffffff021916908367ffffffffffffffff160217905550807f2746ab4492c39d74ce45fb53adf5bbfbe35aa35d6f3773991c019b4bbdcadda160405160405180910390a250565b60009392505050565b600033905090565b600061247383611e1c565b9050600081905060008061248686611ee8565b9150915084156124ef576124a2818461249d611e0f565b611f0f565b6124ee576124b7836124b2611e0f565b611c57565b6124ed576040517f59c896be00000000000000000000000000000000000000000000000000000000815260040160405180910390fd5b5b5b6124fd836000886001611f53565b801561250857600082555b600160806001901b03600560008573ffffffffffffffffffffffffffffffffffffffff1673ffffffffffffffffffffffffffffffffffffffff168152602001908152602001600020600082825401925050819055506125b08361256d85600088611f59565b7c02000000000000000000000000000000000000000000000000000000007c01000000000000000000000000000000000000000000000000000000001717611f81565b600460008881526020019081526020016000208190555060007c02000000000000000000000000000000000000000000000000000000008516036126365760006001870190506000600460008381526020019081526020016000205403612634576000548114612633578460046000838152602001908152602001600020819055505b5b505b85600073ffffffffffffffffffffffffffffffffffffffff168473ffffffffffffffffffffffffffffffffffffffff167fddf252ad1be2c89b69c2b068fc378daa952ba7f163c4a11628f55a4df523b3ef60405160405180910390a46126a0836000886001611fac565b600160008154809291906001019190505550505050505050565b6126c48383612757565b60008373ffffffffffffffffffffffffffffffffffffffff163b1461275257600080549050600083820390505b6127046000868380600101945086612122565b61273a576040517fd1a57ed600000000000000000000000000000000000000000000000000000000815260040160405180910390fd5b8181106126f157816000541461274f57600080fd5b50505b505050565b60008054905060008203612797576040517fb562e8dd00000000000000000000000000000000000000000000000000000000815260040160405180910390fd5b6127a46000848385611f53565b600160406001901b178202600560008573ffffffffffffffffffffffffffffffffffffffff1673ffffffffffffffffffffffffffffffffffffffff1681526020019081526020016000206000828254019250508190555061281b8361280c6000866000611f59565b61281585612912565b17611f81565b6004600083815260200190815260200160002081905550600080838301905073ffffffffffffffffffffffffffffffffffffffff85169150828260007fddf252ad1be2c89b69c2b068fc378daa952ba7f163c4a11628f55a4df523b3ef600080a4600183015b8181146128bc57808360007fddf252ad1be2c89b69c2b068fc378daa952ba7f163c4a11628f55a4df523b3ef600080a4600181019050612881565b50600082036128f7576040517f2e07630000000000000000000000000000000000000000000000000000000000815260040160405180910390fd5b80600081905550505061290d6000848385611fac565b505050565b60006001821460e11b9050919050565b6000604051905090565b600080fd5b600080fd5b60007fffffffff0000000000000000000000000000000000000000000000000000000082169050919050565b61296b81612936565b811461297657600080fd5b50565b60008135905061298881612962565b92915050565b6000602082840312156129a4576129a361292c565b5b60006129b284828501612979565b91505092915050565b60008115159050919050565b6129d0816129bb565b82525050565b60006020820190506129eb60008301846129c7565b92915050565b600081519050919050565b600082825260208201905092915050565b60005b83811015612a2b578082015181840152602081019050612a10565b60008484015250505050565b6000601f19601f8301169050919050565b6000612a53826129f1565b612a5d81856129fc565b9350612a6d818560208601612a0d565b612a7681612a37565b840191505092915050565b60006020820190508181036000830152612a9b8184612a48565b905092915050565b6000819050919050565b612ab681612aa3565b8114612ac157600080fd5b50565b600081359050612ad381612aad565b92915050565b600060208284031215612aef57612aee61292c565b5b6000612afd84828501612ac4565b91505092915050565b600073ffffffffffffffffffffffffffffffffffffffff82169050919050565b6000612b3182612b06565b9050919050565b612b4181612b26565b82525050565b6000602082019050612b5c6000830184612b38565b92915050565b612b6b81612b26565b8114612b7657600080fd5b50565b600081359050612b8881612b62565b92915050565b60008060408385031215612ba557612ba461292c565b5b6000612bb385828601612b79565b9250506020612bc485828601612ac4565b9150509250929050565b612bd781612aa3565b82525050565b6000602082019050612bf26000830184612bce565b92915050565b600080600060608486031215612c1157612c1061292c565b5b6000612c1f86828701612b79565b9350506020612c3086828701612b79565b9250506040612c4186828701612ac4565b9150509250925092565b600067ffffffffffffffff82169050919050565b612c6881612c4b565b82525050565b6000602082019050612c836000830184612c5f565b92915050565b600060208284031215612c9f57612c9e61292c565b5b6000612cad84828501612b79565b91505092915050565b60008060408385031215612ccd57612ccc61292c565b5b6000612cdb85828601612ac4565b9250506020612cec85828601612ac4565b9150509250929050565b600080fd5b600080fd5b7f4e487b7100000000000000000000000000000000000000000000000000000000600052604160045260246000fd5b612d3882612a37565b810181811067ffffffffffffffff82111715612d5757612d56612d00565b5b80604052505050565b6000612d6a612922565b9050612d768282612d2f565b919050565b600067ffffffffffffffff821115612d9657612d95612d00565b5b612d9f82612a37565b9050602081019050919050565b82818337600083830152505050565b6000612dce612dc984612d7b565b612d60565b905082815260208101848484011115612dea57612de9612cfb565b5b612df5848285612dac565b509392505050565b600082601f830112612e1257612e11612cf6565b5b8135612e22848260208601612dbb565b91505092915050565b600060208284031215612e4157612e4061292c565b5b600082013567ffffffffffffffff811115612e5f57612e5e612931565b5b612e6b84828501612dfd565b91505092915050565b612e7d816129bb565b8114612e8857600080fd5b50565b600081359050612e9a81612e74565b92915050565b60008060408385031215612eb757612eb661292c565b5b6000612ec585828601612b79565b9250506020612ed685828601612e8b565b9150509250929050565b600067ffffffffffffffff821115612efb57612efa612d00565b5b612f0482612a37565b9050602081019050919050565b6000612f24612f1f84612ee0565b612d60565b905082815260208101848484011115612f4057612f3f612cfb565b5b612f4b848285612dac565b509392505050565b600082601f830112612f6857612f67612cf6565b5b8135612f78848260208601612f11565b91505092915050565b60008060008060808587031215612f9b57612f9a61292c565b5b6000612fa987828801612b79565b9450506020612fba87828801612b79565b9350506040612fcb87828801612ac4565b925050606085013567ffffffffffffffff811115612fec57612feb612931565b5b612ff887828801612f53565b91505092959194509250565b60008060006060848603121561301d5761301c61292c565b5b600061302b86828701612b79565b935050602061303c86828701612ac4565b925050604061304d86828701612ac4565b9150509250925092565b6000806040838503121561306e5761306d61292c565b5b600061307c85828601612b79565b925050602061308d85828601612b79565b9150509250929050565b7f4e487b7100000000000000000000000000000000000000000000000000000000600052602260045260246000fd5b600060028204905060018216806130de57607f821691505b6020821081036130f1576130f0613097565b5b50919050565b7f4e487b7100000000000000000000000000000000000000000000000000000000600052601160045260246000fd5b600061313182612c4b565b915061313c83612c4b565b9250828203905067ffffffffffffffff81111561315c5761315b6130f7565b5b92915050565b600061316d82612aa3565b915061317883612aa3565b925082820261318681612aa3565b9150828204841483151761319d5761319c6130f7565b5b5092915050565b7f4572726f723a20596f75206d75737420626520746865206f776e6572206f662060008201527f74686973204e4654000000000000000000000000000000000000000000000000602082015250565b60006132006028836129fc565b915061320b826131a4565b604082019050919050565b6000602082019050818103600083015261322f816131f3565b9050919050565b7f4572726f723a204e4654206861736e27742066696e6973686564206c6f636b6560008201527f6420757020706572696f64000000000000000000000000000000000000000000602082015250565b6000613292602b836129fc565b915061329d82613236565b604082019050919050565b600060208201905081810360008301526132c181613285565b9050919050565b60006132d382612c4b565b91506132de83612c4b565b9250828201905067ffffffffffffffff8111156132fe576132fd6130f7565b5b92915050565b60006040820190506133196000830185612b38565b6133266020830184612bce565b9392505050565b60006060820190506133426000830186612b38565b61334f6020830185612bce565b61335c6040830184612bce565b949350505050565b7f4f6e6c7920746865206f776e6572206f662074686520746f6b656e496420636160008201527f6e20636c61696d20746865207265776172647300000000000000000000000000602082015250565b60006133c06033836129fc565b91506133cb82613364565b604082019050919050565b600060208201905081810360008301526133ef816133b3565b9050919050565b7f506c6174666f726d2077616c6c65742063616e6e6f7420636c61696d00000000600082015250565b600061342c601c836129fc565b9150613437826133f6565b602082019050919050565b6000602082019050818103600083015261345b8161341f565b9050919050565b60008190508160005260206000209050919050565b60006020601f8301049050919050565b600082821b905092915050565b6000600883026134c47fffffffffffffffffffffffffffffffffffffffffffffffffffffffffffffffff82613487565b6134ce8683613487565b95508019841693508086168417925050509392505050565b6000819050919050565b600061350b61350661350184612aa3565b6134e6565b612aa3565b9050919050565b6000819050919050565b613525836134f0565b61353961353182613512565b848454613494565b825550505050565b600090565b61354e613541565b61355981848461351c565b505050565b5b8181101561357d57613572600082613546565b60018101905061355f565b5050565b601f8211156135c25761359381613462565b61359c84613477565b810160208510156135ab578190505b6135bf6135b785613477565b83018261355e565b50505b505050565b600082821c905092915050565b60006135e5600019846008026135c7565b1980831691505092915050565b60006135fe83836135d4565b9150826002028217905092915050565b613617826129f1565b67ffffffffffffffff8111156136305761362f612d00565b5b61363a82546130c6565b613645828285613581565b600060209050601f8311600181146136785760008415613666578287015190505b61367085826135f2565b8655506136d8565b601f19841661368686613462565b60005b828110156136ae57848901518255600182019150602085019450602081019050613689565b868310156136cb57848901516136c7601f8916826135d4565b8355505b6001600288020188555050505b505050505050565b600081905092915050565b60006136f6826129f1565b61370081856136e0565b9350613710818560208601612a0d565b80840191505092915050565b600061372882856136eb565b915061373482846136eb565b91508190509392505050565b7f4f776e61626c653a206e6577206f776e657220697320746865207a65726f206160008201527f6464726573730000000000000000000000000000000000000000000000000000602082015250565b600061379c6026836129fc565b91506137a782613740565b604082019050919050565b600060208201905081810360008301526137cb8161378f565b9050919050565b7f4f776e61626c653a2063616c6c6572206973206e6f7420746865206f776e6572600082015250565b60006138086020836129fc565b9150613813826137d2565b602082019050919050565b60006020820190508181036000830152613837816137fb565b9050919050565b600081519050919050565b600082825260208201905092915050565b60006138658261383e565b61386f8185613849565b935061387f818560208601612a0d565b61388881612a37565b840191505092915050565b60006080820190506138a86000830187612b38565b6138b56020830186612b38565b6138c26040830185612bce565b81810360608301526138d4818461385a565b905095945050505050565b6000815190506138ee81612962565b92915050565b60006020828403121561390a5761390961292c565b5b6000613918848285016138df565b91505092915050565b7f4d616e6167654c69666520546f6b656e206973206e6f74207365740000000000600082015250565b6000613957601b836129fc565b915061396282613921565b602082019050919050565b600060208201905081810360008301526139868161394a565b905091905056fea2646970667358221220bd14f75215cac984717bc43e30e56612a303df6563ebd4a774419a6cfcebb35c64736f6c6343000811003368747470733a2f2f6d6c2d6170692d6465762e6865726f6b756170702e636f6d2f6170692f76312f6e6674732f",
  "linkReferences": {},
  "deployedLinkReferences": {}
}