{
  "_format": "hh-sol-artifact-1",
  "contractName": "ManageLifeInvestorsNFT",
  "sourceName": "contracts/MLInvestorsNFT.sol",
  "abi": [
    {
      "inputs": [],
      "stateMutability": "nonpayable",
      "type": "constructor"
    },
    {
      "inputs": [],
      "name": "ApprovalCallerNotOwnerNorApproved",
      "type": "error"
    },
    {
      "inputs": [],
      "name": "ApprovalQueryForNonexistentToken",
      "type": "error"
    },
    {
      "inputs": [],
      "name": "BalanceQueryForZeroAddress",
      "type": "error"
    },
    {
      "inputs": [],
      "name": "MintERC2309QuantityExceedsLimit",
      "type": "error"
    },
    {
      "inputs": [],
      "name": "MintToZeroAddress",
      "type": "error"
    },
    {
      "inputs": [],
      "name": "MintZeroQuantity",
      "type": "error"
    },
    {
      "inputs": [],
      "name": "OwnerQueryForNonexistentToken",
      "type": "error"
    },
    {
      "inputs": [],
      "name": "OwnershipNotInitializedForExtraData",
      "type": "error"
    },
    {
      "inputs": [],
      "name": "TransferCallerNotOwnerNorApproved",
      "type": "error"
    },
    {
      "inputs": [],
      "name": "TransferFromIncorrectOwner",
      "type": "error"
    },
    {
      "inputs": [],
      "name": "TransferToNonERC721ReceiverImplementer",
      "type": "error"
    },
    {
      "inputs": [],
      "name": "TransferToZeroAddress",
      "type": "error"
    },
    {
      "inputs": [],
      "name": "URIQueryForNonexistentToken",
      "type": "error"
    },
    {
      "anonymous": false,
      "inputs": [
        {
          "indexed": true,
          "internalType": "address",
          "name": "owner",
          "type": "address"
        },
        {
          "indexed": true,
          "internalType": "address",
          "name": "approved",
          "type": "address"
        },
        {
          "indexed": true,
          "internalType": "uint256",
          "name": "tokenId",
          "type": "uint256"
        }
      ],
      "name": "Approval",
      "type": "event"
    },
    {
      "anonymous": false,
      "inputs": [
        {
          "indexed": true,
          "internalType": "address",
          "name": "owner",
          "type": "address"
        },
        {
          "indexed": true,
          "internalType": "address",
          "name": "operator",
          "type": "address"
        },
        {
          "indexed": false,
          "internalType": "bool",
          "name": "approved",
          "type": "bool"
        }
      ],
      "name": "ApprovalForAll",
      "type": "event"
    },
    {
      "anonymous": false,
      "inputs": [
        {
          "indexed": false,
          "internalType": "string",
          "name": "_newURIAddress",
          "type": "string"
        }
      ],
      "name": "BaseURIUpdated",
      "type": "event"
    },
    {
      "anonymous": false,
      "inputs": [
        {
          "indexed": false,
          "internalType": "uint256",
          "name": "tokenId",
          "type": "uint256"
        }
      ],
      "name": "BurnedNft",
      "type": "event"
    },
    {
      "anonymous": false,
      "inputs": [
        {
          "indexed": false,
          "internalType": "uint256",
          "name": "newTokenBurningRate",
          "type": "uint256"
        }
      ],
      "name": "BurningRateUpdated",
      "type": "event"
    },
    {
      "anonymous": false,
      "inputs": [
        {
          "indexed": true,
          "internalType": "uint256",
          "name": "fromTokenId",
          "type": "uint256"
        },
        {
          "indexed": false,
          "internalType": "uint256",
          "name": "toTokenId",
          "type": "uint256"
        },
        {
          "indexed": true,
          "internalType": "address",
          "name": "from",
          "type": "address"
        },
        {
          "indexed": true,
          "internalType": "address",
          "name": "to",
          "type": "address"
        }
      ],
      "name": "ConsecutiveTransfer",
      "type": "event"
    },
    {
      "anonymous": false,
      "inputs": [
        {
          "indexed": true,
          "internalType": "address",
          "name": "previousOwner",
          "type": "address"
        },
        {
          "indexed": true,
          "internalType": "address",
          "name": "newOwner",
          "type": "address"
        }
      ],
      "name": "OwnershipTransferred",
      "type": "event"
    },
    {
      "anonymous": false,
      "inputs": [
        {
          "indexed": false,
          "internalType": "uint256",
          "name": "tokenId",
          "type": "uint256"
        }
      ],
      "name": "StakingClaimed",
      "type": "event"
    },
    {
      "anonymous": false,
      "inputs": [
        {
          "indexed": true,
          "internalType": "uint256",
          "name": "tokenId",
          "type": "uint256"
        }
      ],
      "name": "StakingInitiated",
      "type": "event"
    },
    {
      "anonymous": false,
      "inputs": [
        {
          "indexed": true,
          "internalType": "address",
          "name": "burnFrom",
          "type": "address"
        },
        {
          "indexed": false,
          "internalType": "uint256",
          "name": "amount",
          "type": "uint256"
        }
      ],
      "name": "TokenBurned",
      "type": "event"
    },
    {
      "anonymous": false,
      "inputs": [
        {
          "indexed": true,
          "internalType": "uint256",
          "name": "tokenId",
          "type": "uint256"
        },
        {
          "indexed": false,
          "internalType": "uint256",
          "name": "newLifeTokenIssuanceRate",
          "type": "uint256"
        }
      ],
      "name": "TokenIssuanceRateUpdates",
      "type": "event"
    },
    {
      "anonymous": false,
      "inputs": [
        {
          "indexed": true,
          "internalType": "address",
          "name": "from",
          "type": "address"
        },
        {
          "indexed": true,
          "internalType": "address",
          "name": "to",
          "type": "address"
        },
        {
          "indexed": true,
          "internalType": "uint256",
          "name": "tokenId",
          "type": "uint256"
        }
      ],
      "name": "Transfer",
      "type": "event"
    },
    {
      "inputs": [
        {
          "internalType": "uint256",
          "name": "",
          "type": "uint256"
        }
      ],
      "name": "_unlockDate",
      "outputs": [
        {
          "internalType": "uint256",
          "name": "",
          "type": "uint256"
        }
      ],
      "stateMutability": "view",
      "type": "function"
    },
    {
      "inputs": [
        {
          "internalType": "address",
          "name": "to",
          "type": "address"
        },
        {
          "internalType": "uint256",
          "name": "tokenId",
          "type": "uint256"
        }
      ],
      "name": "approve",
      "outputs": [],
      "stateMutability": "payable",
      "type": "function"
    },
    {
      "inputs": [
        {
          "internalType": "address",
          "name": "owner",
          "type": "address"
        }
      ],
      "name": "balanceOf",
      "outputs": [
        {
          "internalType": "uint256",
          "name": "",
          "type": "uint256"
        }
      ],
      "stateMutability": "view",
      "type": "function"
    },
    {
      "inputs": [],
      "name": "baseURI",
      "outputs": [
        {
          "internalType": "string",
          "name": "",
          "type": "string"
        }
      ],
      "stateMutability": "view",
      "type": "function"
    },
    {
      "inputs": [
        {
          "internalType": "uint256",
          "name": "tokenId",
          "type": "uint256"
        }
      ],
      "name": "burnNFt",
      "outputs": [],
      "stateMutability": "nonpayable",
      "type": "function"
    },
    {
      "inputs": [
        {
          "internalType": "uint256",
          "name": "amount",
          "type": "uint256"
        }
      ],
      "name": "burnTokens",
      "outputs": [],
      "stateMutability": "nonpayable",
      "type": "function"
    },
    {
      "inputs": [
        {
          "internalType": "uint256",
          "name": "tokenId",
          "type": "uint256"
        }
      ],
      "name": "checkClaimableStakingRewards",
      "outputs": [
        {
          "internalType": "uint256",
          "name": "",
          "type": "uint256"
        }
      ],
      "stateMutability": "view",
      "type": "function"
    },
    {
      "inputs": [
        {
          "internalType": "uint256",
          "name": "tokenId",
          "type": "uint256"
        }
      ],
      "name": "claimStakingRewards",
      "outputs": [],
      "stateMutability": "nonpayable",
      "type": "function"
    },
    {
      "inputs": [
        {
          "internalType": "uint256",
          "name": "tokenId",
          "type": "uint256"
        }
      ],
      "name": "forceClaimNft",
      "outputs": [],
      "stateMutability": "nonpayable",
      "type": "function"
    },
    {
      "inputs": [
        {
          "internalType": "uint256",
          "name": "tokenId",
          "type": "uint256"
        }
      ],
      "name": "getApproved",
      "outputs": [
        {
          "internalType": "address",
          "name": "",
          "type": "address"
        }
      ],
      "stateMutability": "view",
      "type": "function"
    },
    {
      "inputs": [
        {
          "internalType": "address",
          "name": "owner",
          "type": "address"
        },
        {
          "internalType": "address",
          "name": "operator",
          "type": "address"
        }
      ],
      "name": "isApprovedForAll",
      "outputs": [
        {
          "internalType": "bool",
          "name": "",
          "type": "bool"
        }
      ],
      "stateMutability": "view",
      "type": "function"
    },
    {
      "inputs": [
        {
          "internalType": "address",
          "name": "to",
          "type": "address"
        },
        {
          "internalType": "uint256",
          "name": "tokenId",
          "type": "uint256"
        },
        {
          "internalType": "uint256",
          "name": "lifeTokenIssuanceRate_",
          "type": "uint256"
        }
      ],
      "name": "issueNftToInvestor",
      "outputs": [],
      "stateMutability": "nonpayable",
      "type": "function"
    },
    {
      "inputs": [],
      "name": "lifeToken",
      "outputs": [
        {
          "internalType": "address",
          "name": "",
          "type": "address"
        }
      ],
      "stateMutability": "view",
      "type": "function"
    },
    {
      "inputs": [
        {
          "internalType": "uint256",
          "name": "tokenId",
          "type": "uint256"
        }
      ],
      "name": "lifeTokenIssuanceRate",
      "outputs": [
        {
          "internalType": "uint256",
          "name": "",
          "type": "uint256"
        }
      ],
      "stateMutability": "view",
      "type": "function"
    },
    {
      "inputs": [
        {
          "internalType": "uint256",
          "name": "quantity",
          "type": "uint256"
        }
      ],
      "name": "mint",
      "outputs": [],
      "stateMutability": "nonpayable",
      "type": "function"
    },
    {
      "inputs": [],
      "name": "name",
      "outputs": [
        {
          "internalType": "string",
          "name": "",
          "type": "string"
        }
      ],
      "stateMutability": "view",
      "type": "function"
    },
    {
      "inputs": [],
      "name": "owner",
      "outputs": [
        {
          "internalType": "address",
          "name": "",
          "type": "address"
        }
      ],
      "stateMutability": "view",
      "type": "function"
    },
    {
      "inputs": [
        {
          "internalType": "uint256",
          "name": "tokenId",
          "type": "uint256"
        }
      ],
      "name": "ownerOf",
      "outputs": [
        {
          "internalType": "address",
          "name": "",
          "type": "address"
        }
      ],
      "stateMutability": "view",
      "type": "function"
    },
    {
      "inputs": [
        {
          "internalType": "uint256",
          "name": "tokenId",
          "type": "uint256"
        }
      ],
      "name": "ownerOfTokenId",
      "outputs": [
        {
          "internalType": "address",
          "name": "",
          "type": "address"
        }
      ],
      "stateMutability": "view",
      "type": "function"
    },
    {
      "inputs": [],
      "name": "renounceOwnership",
      "outputs": [],
      "stateMutability": "nonpayable",
      "type": "function"
    },
    {
      "inputs": [
        {
          "internalType": "uint256",
          "name": "tokenId",
          "type": "uint256"
        }
      ],
      "name": "returnNftToML",
      "outputs": [],
      "stateMutability": "nonpayable",
      "type": "function"
    },
    {
      "inputs": [
        {
          "internalType": "address",
          "name": "from",
          "type": "address"
        },
        {
          "internalType": "address",
          "name": "to",
          "type": "address"
        },
        {
          "internalType": "uint256",
          "name": "tokenId",
          "type": "uint256"
        }
      ],
      "name": "safeTransferFrom",
      "outputs": [],
      "stateMutability": "payable",
      "type": "function"
    },
    {
      "inputs": [
        {
          "internalType": "address",
          "name": "from",
          "type": "address"
        },
        {
          "internalType": "address",
          "name": "to",
          "type": "address"
        },
        {
          "internalType": "uint256",
          "name": "tokenId",
          "type": "uint256"
        },
        {
          "internalType": "bytes",
          "name": "_data",
          "type": "bytes"
        }
      ],
      "name": "safeTransferFrom",
      "outputs": [],
      "stateMutability": "payable",
      "type": "function"
    },
    {
      "inputs": [
        {
          "internalType": "address",
          "name": "operator",
          "type": "address"
        },
        {
          "internalType": "bool",
          "name": "approved",
          "type": "bool"
        }
      ],
      "name": "setApprovalForAll",
      "outputs": [],
      "stateMutability": "nonpayable",
      "type": "function"
    },
    {
      "inputs": [
        {
          "internalType": "address",
          "name": "lifeToken_",
          "type": "address"
        }
      ],
      "name": "setLifeToken",
      "outputs": [],
      "stateMutability": "nonpayable",
      "type": "function"
    },
    {
      "inputs": [
        {
          "internalType": "uint256",
          "name": "tokenId",
          "type": "uint256"
        },
        {
          "internalType": "uint256",
          "name": "_newLockDate",
          "type": "uint256"
        }
      ],
      "name": "setLockDate",
      "outputs": [],
      "stateMutability": "nonpayable",
      "type": "function"
    },
    {
      "inputs": [
        {
          "internalType": "bytes4",
          "name": "interfaceId",
          "type": "bytes4"
        }
      ],
      "name": "supportsInterface",
      "outputs": [
        {
          "internalType": "bool",
          "name": "",
          "type": "bool"
        }
      ],
      "stateMutability": "view",
      "type": "function"
    },
    {
      "inputs": [],
      "name": "symbol",
      "outputs": [
        {
          "internalType": "string",
          "name": "",
          "type": "string"
        }
      ],
      "stateMutability": "view",
      "type": "function"
    },
    {
      "inputs": [],
      "name": "tokenBurningRate",
      "outputs": [
        {
          "internalType": "uint256",
          "name": "",
          "type": "uint256"
        }
      ],
      "stateMutability": "view",
      "type": "function"
    },
    {
      "inputs": [
        {
          "internalType": "uint256",
          "name": "tokenId",
          "type": "uint256"
        }
      ],
      "name": "tokenURI",
      "outputs": [
        {
          "internalType": "string",
          "name": "",
          "type": "string"
        }
      ],
      "stateMutability": "view",
      "type": "function"
    },
    {
      "inputs": [],
      "name": "totalSupply",
      "outputs": [
        {
          "internalType": "uint256",
          "name": "",
          "type": "uint256"
        }
      ],
      "stateMutability": "view",
      "type": "function"
    },
    {
      "inputs": [
        {
          "internalType": "address",
          "name": "from",
          "type": "address"
        },
        {
          "internalType": "address",
          "name": "to",
          "type": "address"
        },
        {
          "internalType": "uint256",
          "name": "tokenId",
          "type": "uint256"
        }
      ],
      "name": "transferFrom",
      "outputs": [],
      "stateMutability": "payable",
      "type": "function"
    },
    {
      "inputs": [
        {
          "internalType": "address",
          "name": "to",
          "type": "address"
        },
        {
          "internalType": "uint256",
          "name": "tokenId",
          "type": "uint256"
        }
      ],
      "name": "transferNft",
      "outputs": [],
      "stateMutability": "nonpayable",
      "type": "function"
    },
    {
      "inputs": [
        {
          "internalType": "address",
          "name": "newOwner",
          "type": "address"
        }
      ],
      "name": "transferOwnership",
      "outputs": [],
      "stateMutability": "nonpayable",
      "type": "function"
    },
    {
      "inputs": [
        {
          "internalType": "string",
          "name": "_newURIAddress",
          "type": "string"
        }
      ],
      "name": "updateBaseURI",
      "outputs": [],
      "stateMutability": "nonpayable",
      "type": "function"
    },
    {
      "inputs": [
        {
          "internalType": "uint256",
          "name": "tokenId",
          "type": "uint256"
        },
        {
          "internalType": "uint256",
          "name": "newLifeTokenIssuanceRate",
          "type": "uint256"
        }
      ],
      "name": "updateLifeTokenIssuanceRate",
      "outputs": [],
      "stateMutability": "nonpayable",
      "type": "function"
    },
    {
      "inputs": [
        {
          "internalType": "uint256",
          "name": "newTokenBurningRate",
          "type": "uint256"
        }
      ],
      "name": "updateTokenBurningRate",
      "outputs": [],
      "stateMutability": "nonpayable",
      "type": "function"
    }
  ],
  "bytecode": "0x60806040526040518060600160405280602d815260200162004089602d9139600d90816200002e919062000463565b5066f8b0a10e470000600e553480156200004757600080fd5b506040518060400160405280601881526020017f4d616e6167654c69666520496e766573746f7273204e465400000000000000008152506040518060400160405280600481526020017f4e465469000000000000000000000000000000000000000000000000000000008152508160029081620000c5919062000463565b508060039081620000d7919062000463565b50620000e86200011660201b60201c565b600081905550505062000110620001046200011b60201b60201c565b6200012360201b60201c565b6200054a565b600090565b600033905090565b6000600860009054906101000a900473ffffffffffffffffffffffffffffffffffffffff16905081600860006101000a81548173ffffffffffffffffffffffffffffffffffffffff021916908373ffffffffffffffffffffffffffffffffffffffff1602179055508173ffffffffffffffffffffffffffffffffffffffff168173ffffffffffffffffffffffffffffffffffffffff167f8be0079c531659141344cd1fd0a4f28419497f9722a3daafe3b4186f6b6457e060405160405180910390a35050565b600081519050919050565b7f4e487b7100000000000000000000000000000000000000000000000000000000600052604160045260246000fd5b7f4e487b7100000000000000000000000000000000000000000000000000000000600052602260045260246000fd5b600060028204905060018216806200026b57607f821691505b60208210810362000281576200028062000223565b5b50919050565b60008190508160005260206000209050919050565b60006020601f8301049050919050565b600082821b905092915050565b600060088302620002eb7fffffffffffffffffffffffffffffffffffffffffffffffffffffffffffffffff82620002ac565b620002f78683620002ac565b95508019841693508086168417925050509392505050565b6000819050919050565b6000819050919050565b6000620003446200033e62000338846200030f565b62000319565b6200030f565b9050919050565b6000819050919050565b620003608362000323565b620003786200036f826200034b565b848454620002b9565b825550505050565b600090565b6200038f62000380565b6200039c81848462000355565b505050565b5b81811015620003c457620003b860008262000385565b600181019050620003a2565b5050565b601f8211156200041357620003dd8162000287565b620003e8846200029c565b81016020851015620003f8578190505b6200041062000407856200029c565b830182620003a1565b50505b505050565b600082821c905092915050565b6000620004386000198460080262000418565b1980831691505092915050565b600062000453838362000425565b9150826002028217905092915050565b6200046e82620001e9565b67ffffffffffffffff8111156200048a5762000489620001f4565b5b62000496825462000252565b620004a3828285620003c8565b600060209050601f831160018114620004db5760008415620004c6578287015190505b620004d2858262000445565b86555062000542565b601f198416620004eb8662000287565b60005b828110156200051557848901518255600182019150602085019450602081019050620004ee565b8683101562000535578489015162000531601f89168262000425565b8355505b6001600288020188555050505b505050505050565b613b2f806200055a6000396000f3fe60806040526004361061021a5760003560e01c806370bba72711610123578063a0712d68116100ab578063df028f4e1161006f578063df028f4e146107bb578063e985e9c5146107e4578063f117edc014610821578063f2fde38b1461084a578063f67f031a146108735761021a565b8063a0712d68146106e7578063a22cb46514610710578063b88d4fde14610739578063b8c9c33314610755578063c87b56dd1461077e5761021a565b80638ef6aa02116100f25780638ef6aa02146106185780638fad262714610641578063931688cb1461066a57806395d89b411461069357806396272dea146106be5761021a565b806370bba72714610582578063715018a6146105ab578063755d16fd146105c25780638da5cb5b146105ed5761021a565b8063302f4b4e116101a65780636352211e116101755780636352211e1461048b5780636a308348146104c85780636c0360eb146104f15780636d1b229d1461051c57806370a08231146105455761021a565b8063302f4b4e146103cc5780633be2521c1461040957806342842e0e1461044657806360cc1121146104625761021a565b806312e8ac06116101ed57806312e8ac06146102e057806318160ddd1461031d5780631b61f17e1461034857806323b872dd1461038557806330037c14146103a15761021a565b806301ffc9a71461021f57806306fdde031461025c578063081812fc14610287578063095ea7b3146102c4575b600080fd5b34801561022b57600080fd5b5061024660048036038101906102419190612a55565b61089c565b6040516102539190612a9d565b60405180910390f35b34801561026857600080fd5b5061027161092e565b60405161027e9190612b48565b60405180910390f35b34801561029357600080fd5b506102ae60048036038101906102a99190612ba0565b6109c0565b6040516102bb9190612c0e565b60405180910390f35b6102de60048036038101906102d99190612c55565b610a3f565b005b3480156102ec57600080fd5b5061030760048036038101906103029190612ba0565b610b83565b6040516103149190612c0e565b60405180910390f35b34801561032957600080fd5b50610332610b95565b60405161033f9190612ca4565b60405180910390f35b34801561035457600080fd5b5061036f600480360381019061036a9190612ba0565b610bac565b60405161037c9190612ca4565b60405180910390f35b61039f600480360381019061039a9190612cbf565b610bc9565b005b3480156103ad57600080fd5b506103b6610eeb565b6040516103c39190612c0e565b60405180910390f35b3480156103d857600080fd5b506103f360048036038101906103ee9190612ba0565b610f15565b6040516104009190612ca4565b60405180910390f35b34801561041557600080fd5b50610430600480360381019061042b9190612ba0565b610f79565b60405161043d9190612ca4565b60405180910390f35b610460600480360381019061045b9190612cbf565b610f91565b005b34801561046e57600080fd5b5061048960048036038101906104849190612c55565b610fb1565b005b34801561049757600080fd5b506104b260048036038101906104ad9190612ba0565b611122565b6040516104bf9190612c0e565b60405180910390f35b3480156104d457600080fd5b506104ef60048036038101906104ea9190612ba0565b611134565b005b3480156104fd57600080fd5b506105066111f1565b6040516105139190612b48565b60405180910390f35b34801561052857600080fd5b50610543600480360381019061053e9190612ba0565b61127f565b005b34801561055157600080fd5b5061056c60048036038101906105679190612d12565b611420565b6040516105799190612ca4565b60405180910390f35b34801561058e57600080fd5b506105a960048036038101906105a49190612d3f565b6114d8565b005b3480156105b757600080fd5b506105c061160d565b005b3480156105ce57600080fd5b506105d7611621565b6040516105e49190612ca4565b60405180910390f35b3480156105f957600080fd5b50610602611627565b60405161060f9190612c0e565b60405180910390f35b34801561062457600080fd5b5061063f600480360381019061063a9190612d12565b611651565b005b34801561064d57600080fd5b5061066860048036038101906106639190612ba0565b61169d565b005b34801561067657600080fd5b50610691600480360381019061068c9190612eb4565b61190b565b005b34801561069f57600080fd5b506106a861195d565b6040516106b59190612b48565b60405180910390f35b3480156106ca57600080fd5b506106e560048036038101906106e09190612ba0565b6119ef565b005b3480156106f357600080fd5b5061070e60048036038101906107099190612ba0565b611a3a565b005b34801561071c57600080fd5b5061073760048036038101906107329190612f29565b611a4f565b005b610753600480360381019061074e919061300a565b611b5a565b005b34801561076157600080fd5b5061077c60048036038101906107779190612ba0565b611bcd565b005b34801561078a57600080fd5b506107a560048036038101906107a09190612ba0565b611c16565b6040516107b29190612b48565b60405180910390f35b3480156107c757600080fd5b506107e260048036038101906107dd919061308d565b611cb4565b005b3480156107f057600080fd5b5061080b600480360381019061080691906130e0565b611d1e565b6040516108189190612a9d565b60405180910390f35b34801561082d57600080fd5b5061084860048036038101906108439190612d3f565b611db2565b005b34801561085657600080fd5b50610871600480360381019061086c9190612d12565b611dd6565b005b34801561087f57600080fd5b5061089a60048036038101906108959190612ba0565b611e59565b005b60006301ffc9a760e01b827bffffffffffffffffffffffffffffffffffffffffffffffffffffffff191614806108f757506380ac58cd60e01b827bffffffffffffffffffffffffffffffffffffffffffffffffffffffff1916145b806109275750635b5e139f60e01b827bffffffffffffffffffffffffffffffffffffffffffffffffffffffff1916145b9050919050565b60606002805461093d9061314f565b80601f01602080910402602001604051908101604052809291908181526020018280546109699061314f565b80156109b65780601f1061098b576101008083540402835291602001916109b6565b820191906000526020600020905b81548152906001019060200180831161099957829003601f168201915b5050505050905090565b60006109cb82611e77565b610a01576040517fcf4700e400000000000000000000000000000000000000000000000000000000815260040160405180910390fd5b6006600083815260200190815260200160002060000160009054906101000a900473ffffffffffffffffffffffffffffffffffffffff169050919050565b6000610a4a82611122565b90508073ffffffffffffffffffffffffffffffffffffffff16610a6b611ed6565b73ffffffffffffffffffffffffffffffffffffffff1614610ace57610a9781610a92611ed6565b611d1e565b610acd576040517fcfb3b94200000000000000000000000000000000000000000000000000000000815260040160405180910390fd5b5b826006600084815260200190815260200160002060000160006101000a81548173ffffffffffffffffffffffffffffffffffffffff021916908373ffffffffffffffffffffffffffffffffffffffff160217905550818373ffffffffffffffffffffffffffffffffffffffff168273ffffffffffffffffffffffffffffffffffffffff167f8c5be1e5ebec7d5bd14f71427d1e84f3dd0314c0f7b2291e5b200ac8c7c3b92560405160405180910390a4505050565b6000610b8e82611122565b9050919050565b6000610b9f611ede565b6001546000540303905090565b6000600a6000838152602001908152602001600020549050919050565b6000610bd482611ee3565b90508373ffffffffffffffffffffffffffffffffffffffff168173ffffffffffffffffffffffffffffffffffffffff1614610c3b576040517fa114810000000000000000000000000000000000000000000000000000000000815260040160405180910390fd5b600080610c4784611faf565b91509150610c5d8187610c58611ed6565b611fd6565b610ca957610c7286610c6d611ed6565b611d1e565b610ca8576040517f59c896be00000000000000000000000000000000000000000000000000000000815260040160405180910390fd5b5b600073ffffffffffffffffffffffffffffffffffffffff168573ffffffffffffffffffffffffffffffffffffffff1603610d0f576040517fea553b3400000000000000000000000000000000000000000000000000000000815260040160405180910390fd5b610d1c868686600161201a565b8015610d2757600082555b600560008773ffffffffffffffffffffffffffffffffffffffff1673ffffffffffffffffffffffffffffffffffffffff168152602001908152602001600020600081546001900391905081905550600560008673ffffffffffffffffffffffffffffffffffffffff1673ffffffffffffffffffffffffffffffffffffffff1681526020019081526020016000206000815460010191905081905550610df585610dd1888887612020565b7c020000000000000000000000000000000000000000000000000000000017612048565b600460008681526020019081526020016000208190555060007c0200000000000000000000000000000000000000000000000000000000841603610e7b5760006001850190506000600460008381526020019081526020016000205403610e79576000548114610e78578360046000838152602001908152602001600020819055505b5b505b838573ffffffffffffffffffffffffffffffffffffffff168773ffffffffffffffffffffffffffffffffffffffff167fddf252ad1be2c89b69c2b068fc378daa952ba7f163c4a11628f55a4df523b3ef60405160405180910390a4610ee38686866001612073565b505050505050565b6000600960009054906101000a900473ffffffffffffffffffffffffffffffffffffffff16905090565b6000600a600083815260200190815260200160002054600b600084815260200190815260200160002060009054906101000a900467ffffffffffffffff1667ffffffffffffffff1642610f6891906131af565b610f7291906131e3565b9050919050565b600c6020528060005260406000206000915090505481565b610fac83838360405180602001604052806000815250611b5a565b505050565b610fba81611122565b73ffffffffffffffffffffffffffffffffffffffff163373ffffffffffffffffffffffffffffffffffffffff1614611027576040517f08c379a000000000000000000000000000000000000000000000000000000000815260040161101e90613297565b60405180910390fd5b61102f611627565b73ffffffffffffffffffffffffffffffffffffffff163373ffffffffffffffffffffffffffffffffffffffff16036110715761106c338383610f91565b6110ed565b600c6000828152602001908152602001600020544210156110c7576040517f08c379a00000000000000000000000000000000000000000000000000000000081526004016110be90613329565b60405180910390fd5b60006110d282610f15565b106110e1576110e08161169d565b5b6110ec338383610f91565b5b6301e13380426110fd919061335d565b67ffffffffffffffff16600c6000838152602001908152602001600020819055505050565b600061112d82611ee3565b9050919050565b61113d81611122565b73ffffffffffffffffffffffffffffffffffffffff163373ffffffffffffffffffffffffffffffffffffffff16146111aa576040517f08c379a00000000000000000000000000000000000000000000000000000000081526004016111a190613297565b60405180910390fd5b60006111b582610f15565b106111c4576111c38161169d565b5b42600c6000838152602001908152602001600020819055506111ee336111e8611627565b83610f91565b50565b600d80546111fe9061314f565b80601f016020809104026020016040519081016040528092919081815260200182805461122a9061314f565b80156112775780601f1061124c57610100808354040283529160200191611277565b820191906000526020600020905b81548152906001019060200180831161125a57829003601f168201915b505050505081565b6000600e54600960009054906101000a900473ffffffffffffffffffffffffffffffffffffffff1673ffffffffffffffffffffffffffffffffffffffff166370a08231336040518263ffffffff1660e01b81526004016112df9190612c0e565b602060405180830381865afa1580156112fc573d6000803e3d6000fd5b505050506040513d601f19601f8201168201806040525081019061132091906133ae565b61132a91906131e3565b9050600960009054906101000a900473ffffffffffffffffffffffffffffffffffffffff1673ffffffffffffffffffffffffffffffffffffffff1663e25a7f8933670de0b6b3a76400008461137f919061340a565b6040518363ffffffff1660e01b815260040161139c92919061343b565b600060405180830381600087803b1580156113b657600080fd5b505af11580156113ca573d6000803e3d6000fd5b505050503373ffffffffffffffffffffffffffffffffffffffff167f1af5163f80e79b5e554f61e1d052084d3a3fe1166e42a265798c4e2ddce8ffa2836040516114149190612ca4565b60405180910390a25050565b60008073ffffffffffffffffffffffffffffffffffffffff168273ffffffffffffffffffffffffffffffffffffffff1603611487576040517f8f4eb60400000000000000000000000000000000000000000000000000000000815260040160405180910390fd5b67ffffffffffffffff600560008473ffffffffffffffffffffffffffffffffffffffff1673ffffffffffffffffffffffffffffffffffffffff16815260200190815260200160002054169050919050565b6114e0612079565b600960009054906101000a900473ffffffffffffffffffffffffffffffffffffffff1673ffffffffffffffffffffffffffffffffffffffff16638348749861152784611122565b61153085610f15565b6040518363ffffffff1660e01b815260040161154d92919061343b565b600060405180830381600087803b15801561156757600080fd5b505af115801561157b573d6000803e3d6000fd5b5050505042600b600084815260200190815260200160002060006101000a81548167ffffffffffffffff021916908367ffffffffffffffff16021790555080600a600084815260200190815260200160002081905550817f18e383d3900bb5f9adbf556eb0f63226cfc096e78ae4c9a6aebc1353aeae1b62826040516116019190612ca4565b60405180910390a25050565b611615612079565b61161f60006120f7565b565b600e5481565b6000600860009054906101000a900473ffffffffffffffffffffffffffffffffffffffff16905090565b611659612079565b80600960006101000a81548173ffffffffffffffffffffffffffffffffffffffff021916908373ffffffffffffffffffffffffffffffffffffffff16021790555050565b806116a781611122565b73ffffffffffffffffffffffffffffffffffffffff163373ffffffffffffffffffffffffffffffffffffffff1614611714576040517f08c379a000000000000000000000000000000000000000000000000000000000815260040161170b906134b0565b60405180910390fd5b61171d82611122565b73ffffffffffffffffffffffffffffffffffffffff163373ffffffffffffffffffffffffffffffffffffffff161461178a576040517f08c379a000000000000000000000000000000000000000000000000000000000815260040161178190613542565b60405180910390fd5b611792611627565b73ffffffffffffffffffffffffffffffffffffffff163373ffffffffffffffffffffffffffffffffffffffff16036117ff576040517f08c379a00000000000000000000000000000000000000000000000000000000081526004016117f6906135ae565b60405180910390fd5b600960009054906101000a900473ffffffffffffffffffffffffffffffffffffffff1673ffffffffffffffffffffffffffffffffffffffff1663834874983361184785610f15565b6040518363ffffffff1660e01b815260040161186492919061343b565b600060405180830381600087803b15801561187e57600080fd5b505af1158015611892573d6000803e3d6000fd5b5050505042600b600084815260200190815260200160002060006101000a81548167ffffffffffffffff021916908367ffffffffffffffff1602179055507f22906085912ba05ced8c7270a57831d70b0cac665d9034d839056a098ea2ffe1826040516118ff9190612ca4565b60405180910390a15050565b611913612079565b80600d9081611922919061377a565b507f6741b2fc379fad678116fe3d4d4b9a1a184ab53ba36b86ad0fa66340b1ab41ad816040516119529190612b48565b60405180910390a150565b60606003805461196c9061314f565b80601f01602080910402602001604051908101604052809291908181526020018280546119989061314f565b80156119e55780601f106119ba576101008083540402835291602001916119e5565b820191906000526020600020905b8154815290600101906020018083116119c857829003601f168201915b5050505050905090565b6119f7612079565b611a00816121bd565b7f6834152b13b14874ce1a95c7f53d552459481e9875ead957a619501238169a3281604051611a2f9190612ca4565b60405180910390a150565b611a42612079565b611a4c33826121cb565b50565b8060076000611a5c611ed6565b73ffffffffffffffffffffffffffffffffffffffff1673ffffffffffffffffffffffffffffffffffffffff16815260200190815260200160002060008473ffffffffffffffffffffffffffffffffffffffff1673ffffffffffffffffffffffffffffffffffffffff16815260200190815260200160002060006101000a81548160ff0219169083151502179055508173ffffffffffffffffffffffffffffffffffffffff16611b09611ed6565b73ffffffffffffffffffffffffffffffffffffffff167f17307eab39ab6107e8899845ad3d59bd9653f200f220920489ca2b5937696c3183604051611b4e9190612a9d565b60405180910390a35050565b611b65848484610bc9565b60008373ffffffffffffffffffffffffffffffffffffffff163b14611bc757611b90848484846121e9565b611bc6576040517fd1a57ed600000000000000000000000000000000000000000000000000000000815260040160405180910390fd5b5b50505050565b611bd5612079565b80600e819055507fd9a6d945e06693dbd732ce8a5690429b9d300bc81f1b9fc094297abaedb5d67c81604051611c0b9190612ca4565b60405180910390a150565b6060611c2182611e77565b611c57576040517fa14c4b5000000000000000000000000000000000000000000000000000000000815260040160405180910390fd5b6000611c61612339565b90506000815103611c815760405180602001604052806000815250611cac565b80611c8b846123cb565b604051602001611c9c929190613888565b6040516020818303038152906040525b915050919050565b611cbc612079565b80600a600084815260200190815260200160002081905550611cdf338484610f91565b6301e1338042611cef919061335d565b67ffffffffffffffff16600c600084815260200190815260200160002081905550611d198261241b565b505050565b6000600760008473ffffffffffffffffffffffffffffffffffffffff1673ffffffffffffffffffffffffffffffffffffffff16815260200190815260200160002060008373ffffffffffffffffffffffffffffffffffffffff1673ffffffffffffffffffffffffffffffffffffffff16815260200190815260200160002060009054906101000a900460ff16905092915050565b611dba612079565b80600c6000848152602001908152602001600020819055505050565b611dde612079565b600073ffffffffffffffffffffffffffffffffffffffff168173ffffffffffffffffffffffffffffffffffffffff1603611e4d576040517f08c379a0000000000000000000000000000000000000000000000000000000008152600401611e449061391e565b60405180910390fd5b611e56816120f7565b50565b611e61612079565b611e74611e6d82610b83565b3383610bc9565b50565b600081611e82611ede565b11158015611e91575060005482105b8015611ecf575060007c0100000000000000000000000000000000000000000000000000000000600460008581526020019081526020016000205416145b9050919050565b600033905090565b600090565b60008082905080611ef2611ede565b11611f7857600054811015611f775760006004600083815260200190815260200160002054905060007c0100000000000000000000000000000000000000000000000000000000821603611f75575b60008103611f6b576004600083600190039350838152602001908152602001600020549050611f41565b8092505050611faa565b505b5b6040517fdf2d9b4200000000000000000000000000000000000000000000000000000000815260040160405180910390fd5b919050565b60008060006006600085815260200190815260200160002090508092508254915050915091565b600073ffffffffffffffffffffffffffffffffffffffff8316925073ffffffffffffffffffffffffffffffffffffffff821691508382148383141790509392505050565b50505050565b60008060e883901c905060e861203786868461251e565b62ffffff16901b9150509392505050565b600073ffffffffffffffffffffffffffffffffffffffff83169250814260a01b178317905092915050565b50505050565b612081612527565b73ffffffffffffffffffffffffffffffffffffffff1661209f611627565b73ffffffffffffffffffffffffffffffffffffffff16146120f5576040517f08c379a00000000000000000000000000000000000000000000000000000000081526004016120ec9061398a565b60405180910390fd5b565b6000600860009054906101000a900473ffffffffffffffffffffffffffffffffffffffff16905081600860006101000a81548173ffffffffffffffffffffffffffffffffffffffff021916908373ffffffffffffffffffffffffffffffffffffffff1602179055508173ffffffffffffffffffffffffffffffffffffffff168173ffffffffffffffffffffffffffffffffffffffff167f8be0079c531659141344cd1fd0a4f28419497f9722a3daafe3b4186f6b6457e060405160405180910390a35050565b6121c881600061252f565b50565b6121e5828260405180602001604052806000815250612781565b5050565b60008373ffffffffffffffffffffffffffffffffffffffff1663150b7a0261220f611ed6565b8786866040518563ffffffff1660e01b815260040161223194939291906139ff565b6020604051808303816000875af192505050801561226d57506040513d601f19601f8201168201806040525081019061226a9190613a60565b60015b6122e6573d806000811461229d576040519150601f19603f3d011682016040523d82523d6000602084013e6122a2565b606091505b5060008151036122de576040517fd1a57ed600000000000000000000000000000000000000000000000000000000815260040160405180910390fd5b805181602001fd5b63150b7a0260e01b7bffffffffffffffffffffffffffffffffffffffffffffffffffffffff1916817bffffffffffffffffffffffffffffffffffffffffffffffffffffffff191614915050949350505050565b6060600d80546123489061314f565b80601f01602080910402602001604051908101604052809291908181526020018280546123749061314f565b80156123c15780601f10612396576101008083540402835291602001916123c1565b820191906000526020600020905b8154815290600101906020018083116123a457829003601f168201915b5050505050905090565b606060a060405101806040526020810391506000825281835b60011561240657600184039350600a81066030018453600a81049050806123e4575b50828103602084039350808452505050919050565b612423612079565b600073ffffffffffffffffffffffffffffffffffffffff16600960009054906101000a900473ffffffffffffffffffffffffffffffffffffffff1673ffffffffffffffffffffffffffffffffffffffff16036124b4576040517f08c379a00000000000000000000000000000000000000000000000000000000081526004016124ab90613ad9565b60405180910390fd5b42600b600083815260200190815260200160002060006101000a81548167ffffffffffffffff021916908367ffffffffffffffff160217905550807f2746ab4492c39d74ce45fb53adf5bbfbe35aa35d6f3773991c019b4bbdcadda160405160405180910390a250565b60009392505050565b600033905090565b600061253a83611ee3565b9050600081905060008061254d86611faf565b9150915084156125b6576125698184612564611ed6565b611fd6565b6125b55761257e83612579611ed6565b611d1e565b6125b4576040517f59c896be00000000000000000000000000000000000000000000000000000000815260040160405180910390fd5b5b5b6125c483600088600161201a565b80156125cf57600082555b600160806001901b03600560008573ffffffffffffffffffffffffffffffffffffffff1673ffffffffffffffffffffffffffffffffffffffff168152602001908152602001600020600082825401925050819055506126778361263485600088612020565b7c02000000000000000000000000000000000000000000000000000000007c01000000000000000000000000000000000000000000000000000000001717612048565b600460008881526020019081526020016000208190555060007c02000000000000000000000000000000000000000000000000000000008516036126fd57600060018701905060006004600083815260200190815260200160002054036126fb5760005481146126fa578460046000838152602001908152602001600020819055505b5b505b85600073ffffffffffffffffffffffffffffffffffffffff168473ffffffffffffffffffffffffffffffffffffffff167fddf252ad1be2c89b69c2b068fc378daa952ba7f163c4a11628f55a4df523b3ef60405160405180910390a4612767836000886001612073565b600160008154809291906001019190505550505050505050565b61278b838361281e565b60008373ffffffffffffffffffffffffffffffffffffffff163b1461281957600080549050600083820390505b6127cb60008683806001019450866121e9565b612801576040517fd1a57ed600000000000000000000000000000000000000000000000000000000815260040160405180910390fd5b8181106127b857816000541461281657600080fd5b50505b505050565b6000805490506000820361285e576040517fb562e8dd00000000000000000000000000000000000000000000000000000000815260040160405180910390fd5b61286b600084838561201a565b600160406001901b178202600560008573ffffffffffffffffffffffffffffffffffffffff1673ffffffffffffffffffffffffffffffffffffffff168152602001908152602001600020600082825401925050819055506128e2836128d36000866000612020565b6128dc856129d9565b17612048565b6004600083815260200190815260200160002081905550600080838301905073ffffffffffffffffffffffffffffffffffffffff85169150828260007fddf252ad1be2c89b69c2b068fc378daa952ba7f163c4a11628f55a4df523b3ef600080a4600183015b81811461298357808360007fddf252ad1be2c89b69c2b068fc378daa952ba7f163c4a11628f55a4df523b3ef600080a4600181019050612948565b50600082036129be576040517f2e07630000000000000000000000000000000000000000000000000000000000815260040160405180910390fd5b8060008190555050506129d46000848385612073565b505050565b60006001821460e11b9050919050565b6000604051905090565b600080fd5b600080fd5b60007fffffffff0000000000000000000000000000000000000000000000000000000082169050919050565b612a32816129fd565b8114612a3d57600080fd5b50565b600081359050612a4f81612a29565b92915050565b600060208284031215612a6b57612a6a6129f3565b5b6000612a7984828501612a40565b91505092915050565b60008115159050919050565b612a9781612a82565b82525050565b6000602082019050612ab26000830184612a8e565b92915050565b600081519050919050565b600082825260208201905092915050565b60005b83811015612af2578082015181840152602081019050612ad7565b60008484015250505050565b6000601f19601f8301169050919050565b6000612b1a82612ab8565b612b248185612ac3565b9350612b34818560208601612ad4565b612b3d81612afe565b840191505092915050565b60006020820190508181036000830152612b628184612b0f565b905092915050565b6000819050919050565b612b7d81612b6a565b8114612b8857600080fd5b50565b600081359050612b9a81612b74565b92915050565b600060208284031215612bb657612bb56129f3565b5b6000612bc484828501612b8b565b91505092915050565b600073ffffffffffffffffffffffffffffffffffffffff82169050919050565b6000612bf882612bcd565b9050919050565b612c0881612bed565b82525050565b6000602082019050612c236000830184612bff565b92915050565b612c3281612bed565b8114612c3d57600080fd5b50565b600081359050612c4f81612c29565b92915050565b60008060408385031215612c6c57612c6b6129f3565b5b6000612c7a85828601612c40565b9250506020612c8b85828601612b8b565b9150509250929050565b612c9e81612b6a565b82525050565b6000602082019050612cb96000830184612c95565b92915050565b600080600060608486031215612cd857612cd76129f3565b5b6000612ce686828701612c40565b9350506020612cf786828701612c40565b9250506040612d0886828701612b8b565b9150509250925092565b600060208284031215612d2857612d276129f3565b5b6000612d3684828501612c40565b91505092915050565b60008060408385031215612d5657612d556129f3565b5b6000612d6485828601612b8b565b9250506020612d7585828601612b8b565b9150509250929050565b600080fd5b600080fd5b7f4e487b7100000000000000000000000000000000000000000000000000000000600052604160045260246000fd5b612dc182612afe565b810181811067ffffffffffffffff82111715612de057612ddf612d89565b5b80604052505050565b6000612df36129e9565b9050612dff8282612db8565b919050565b600067ffffffffffffffff821115612e1f57612e1e612d89565b5b612e2882612afe565b9050602081019050919050565b82818337600083830152505050565b6000612e57612e5284612e04565b612de9565b905082815260208101848484011115612e7357612e72612d84565b5b612e7e848285612e35565b509392505050565b600082601f830112612e9b57612e9a612d7f565b5b8135612eab848260208601612e44565b91505092915050565b600060208284031215612eca57612ec96129f3565b5b600082013567ffffffffffffffff811115612ee857612ee76129f8565b5b612ef484828501612e86565b91505092915050565b612f0681612a82565b8114612f1157600080fd5b50565b600081359050612f2381612efd565b92915050565b60008060408385031215612f4057612f3f6129f3565b5b6000612f4e85828601612c40565b9250506020612f5f85828601612f14565b9150509250929050565b600067ffffffffffffffff821115612f8457612f83612d89565b5b612f8d82612afe565b9050602081019050919050565b6000612fad612fa884612f69565b612de9565b905082815260208101848484011115612fc957612fc8612d84565b5b612fd4848285612e35565b509392505050565b600082601f830112612ff157612ff0612d7f565b5b8135613001848260208601612f9a565b91505092915050565b60008060008060808587031215613024576130236129f3565b5b600061303287828801612c40565b945050602061304387828801612c40565b935050604061305487828801612b8b565b925050606085013567ffffffffffffffff811115613075576130746129f8565b5b61308187828801612fdc565b91505092959194509250565b6000806000606084860312156130a6576130a56129f3565b5b60006130b486828701612c40565b93505060206130c586828701612b8b565b92505060406130d686828701612b8b565b9150509250925092565b600080604083850312156130f7576130f66129f3565b5b600061310585828601612c40565b925050602061311685828601612c40565b9150509250929050565b7f4e487b7100000000000000000000000000000000000000000000000000000000600052602260045260246000fd5b6000600282049050600182168061316757607f821691505b60208210810361317a57613179613120565b5b50919050565b7f4e487b7100000000000000000000000000000000000000000000000000000000600052601160045260246000fd5b60006131ba82612b6a565b91506131c583612b6a565b92508282039050818111156131dd576131dc613180565b5b92915050565b60006131ee82612b6a565b91506131f983612b6a565b925082820261320781612b6a565b9150828204841483151761321e5761321d613180565b5b5092915050565b7f4572726f723a20596f75206d75737420626520746865206f776e6572206f662060008201527f74686973204e4654000000000000000000000000000000000000000000000000602082015250565b6000613281602883612ac3565b915061328c82613225565b604082019050919050565b600060208201905081810360008301526132b081613274565b9050919050565b7f4572726f723a204e4654206861736e27742066696e6973686564206c6f636b6560008201527f6420757020706572696f64000000000000000000000000000000000000000000602082015250565b6000613313602b83612ac3565b915061331e826132b7565b604082019050919050565b6000602082019050818103600083015261334281613306565b9050919050565b600067ffffffffffffffff82169050919050565b600061336882613349565b915061337383613349565b9250828201905067ffffffffffffffff81111561339357613392613180565b5b92915050565b6000815190506133a881612b74565b92915050565b6000602082840312156133c4576133c36129f3565b5b60006133d284828501613399565b91505092915050565b7f4e487b7100000000000000000000000000000000000000000000000000000000600052601260045260246000fd5b600061341582612b6a565b915061342083612b6a565b9250826134305761342f6133db565b5b828204905092915050565b60006040820190506134506000830185612bff565b61345d6020830184612c95565b9392505050565b7f4f6e6c7920666f72204e46544973206f776e6572000000000000000000000000600082015250565b600061349a601483612ac3565b91506134a582613464565b602082019050919050565b600060208201905081810360008301526134c98161348d565b9050919050565b7f4f6e6c7920746865206f776e6572206f662074686520746f6b656e496420636160008201527f6e20636c61696d20746865207265776172647300000000000000000000000000602082015250565b600061352c603383612ac3565b9150613537826134d0565b604082019050919050565b6000602082019050818103600083015261355b8161351f565b9050919050565b7f506c6174666f726d2077616c6c65742063616e6e6f7420636c61696d00000000600082015250565b6000613598601c83612ac3565b91506135a382613562565b602082019050919050565b600060208201905081810360008301526135c78161358b565b9050919050565b60008190508160005260206000209050919050565b60006020601f8301049050919050565b600082821b905092915050565b6000600883026136307fffffffffffffffffffffffffffffffffffffffffffffffffffffffffffffffff826135f3565b61363a86836135f3565b95508019841693508086168417925050509392505050565b6000819050919050565b600061367761367261366d84612b6a565b613652565b612b6a565b9050919050565b6000819050919050565b6136918361365c565b6136a561369d8261367e565b848454613600565b825550505050565b600090565b6136ba6136ad565b6136c5818484613688565b505050565b5b818110156136e9576136de6000826136b2565b6001810190506136cb565b5050565b601f82111561372e576136ff816135ce565b613708846135e3565b81016020851015613717578190505b61372b613723856135e3565b8301826136ca565b50505b505050565b600082821c905092915050565b600061375160001984600802613733565b1980831691505092915050565b600061376a8383613740565b9150826002028217905092915050565b61378382612ab8565b67ffffffffffffffff81111561379c5761379b612d89565b5b6137a6825461314f565b6137b18282856136ed565b600060209050601f8311600181146137e457600084156137d2578287015190505b6137dc858261375e565b865550613844565b601f1984166137f2866135ce565b60005b8281101561381a578489015182556001820191506020850194506020810190506137f5565b868310156138375784890151613833601f891682613740565b8355505b6001600288020188555050505b505050505050565b600081905092915050565b600061386282612ab8565b61386c818561384c565b935061387c818560208601612ad4565b80840191505092915050565b60006138948285613857565b91506138a08284613857565b91508190509392505050565b7f4f776e61626c653a206e6577206f776e657220697320746865207a65726f206160008201527f6464726573730000000000000000000000000000000000000000000000000000602082015250565b6000613908602683612ac3565b9150613913826138ac565b604082019050919050565b60006020820190508181036000830152613937816138fb565b9050919050565b7f4f776e61626c653a2063616c6c6572206973206e6f7420746865206f776e6572600082015250565b6000613974602083612ac3565b915061397f8261393e565b602082019050919050565b600060208201905081810360008301526139a381613967565b9050919050565b600081519050919050565b600082825260208201905092915050565b60006139d1826139aa565b6139db81856139b5565b93506139eb818560208601612ad4565b6139f481612afe565b840191505092915050565b6000608082019050613a146000830187612bff565b613a216020830186612bff565b613a2e6040830185612c95565b8181036060830152613a4081846139c6565b905095945050505050565b600081519050613a5a81612a29565b92915050565b600060208284031215613a7657613a756129f3565b5b6000613a8484828501613a4b565b91505092915050565b7f4d616e6167654c69666520546f6b656e206973206e6f74207365740000000000600082015250565b6000613ac3601b83612ac3565b9150613ace82613a8d565b602082019050919050565b60006020820190508181036000830152613af281613ab6565b905091905056fea2646970667358221220f8408198b99fe07440e029a50e315805502ecb3b3d2ff48ebbd103fd04a5ca4d64736f6c6343000811003368747470733a2f2f6d6c2d6170692d6465762e6865726f6b756170702e636f6d2f6170692f76312f6e6674732f",
  "linkReferences": {},
  "deployedLinkReferences": {}
}