{
  "_format": "hh-sol-artifact-1",
  "contractName": "ManageLifeInvestorsNFT",
  "sourceName": "contracts/MLInvestorsNFT.sol",
  "abi": [
    {
      "inputs": [],
      "stateMutability": "nonpayable",
      "type": "constructor"
    },
    {
      "inputs": [],
      "name": "ApprovalCallerNotOwnerNorApproved",
      "type": "error"
    },
    {
      "inputs": [],
      "name": "ApprovalQueryForNonexistentToken",
      "type": "error"
    },
    {
      "inputs": [],
      "name": "BalanceQueryForZeroAddress",
      "type": "error"
    },
    {
      "inputs": [],
      "name": "MintERC2309QuantityExceedsLimit",
      "type": "error"
    },
    {
      "inputs": [],
      "name": "MintToZeroAddress",
      "type": "error"
    },
    {
      "inputs": [],
      "name": "MintZeroQuantity",
      "type": "error"
    },
    {
      "inputs": [],
      "name": "OwnerQueryForNonexistentToken",
      "type": "error"
    },
    {
      "inputs": [],
      "name": "OwnershipNotInitializedForExtraData",
      "type": "error"
    },
    {
      "inputs": [],
      "name": "TransferCallerNotOwnerNorApproved",
      "type": "error"
    },
    {
      "inputs": [],
      "name": "TransferFromIncorrectOwner",
      "type": "error"
    },
    {
      "inputs": [],
      "name": "TransferToNonERC721ReceiverImplementer",
      "type": "error"
    },
    {
      "inputs": [],
      "name": "TransferToZeroAddress",
      "type": "error"
    },
    {
      "inputs": [],
      "name": "URIQueryForNonexistentToken",
      "type": "error"
    },
    {
      "anonymous": false,
      "inputs": [
        {
          "indexed": true,
          "internalType": "address",
          "name": "owner",
          "type": "address"
        },
        {
          "indexed": true,
          "internalType": "address",
          "name": "approved",
          "type": "address"
        },
        {
          "indexed": true,
          "internalType": "uint256",
          "name": "tokenId",
          "type": "uint256"
        }
      ],
      "name": "Approval",
      "type": "event"
    },
    {
      "anonymous": false,
      "inputs": [
        {
          "indexed": true,
          "internalType": "address",
          "name": "owner",
          "type": "address"
        },
        {
          "indexed": true,
          "internalType": "address",
          "name": "operator",
          "type": "address"
        },
        {
          "indexed": false,
          "internalType": "bool",
          "name": "approved",
          "type": "bool"
        }
      ],
      "name": "ApprovalForAll",
      "type": "event"
    },
    {
      "anonymous": false,
      "inputs": [
        {
          "indexed": false,
          "internalType": "string",
          "name": "_newURIAddress",
          "type": "string"
        }
      ],
      "name": "BaseURIUpdated",
      "type": "event"
    },
    {
      "anonymous": false,
      "inputs": [
        {
          "indexed": false,
          "internalType": "uint256",
          "name": "tokenId",
          "type": "uint256"
        }
      ],
      "name": "BurnedNft",
      "type": "event"
    },
    {
      "anonymous": false,
      "inputs": [
        {
          "indexed": false,
          "internalType": "uint256",
          "name": "newTokenBurningRate",
          "type": "uint256"
        }
      ],
      "name": "BurningRateUpdated",
      "type": "event"
    },
    {
      "anonymous": false,
      "inputs": [
        {
          "indexed": true,
          "internalType": "uint256",
          "name": "fromTokenId",
          "type": "uint256"
        },
        {
          "indexed": false,
          "internalType": "uint256",
          "name": "toTokenId",
          "type": "uint256"
        },
        {
          "indexed": true,
          "internalType": "address",
          "name": "from",
          "type": "address"
        },
        {
          "indexed": true,
          "internalType": "address",
          "name": "to",
          "type": "address"
        }
      ],
      "name": "ConsecutiveTransfer",
      "type": "event"
    },
    {
      "anonymous": false,
      "inputs": [
        {
          "indexed": true,
          "internalType": "address",
          "name": "previousOwner",
          "type": "address"
        },
        {
          "indexed": true,
          "internalType": "address",
          "name": "newOwner",
          "type": "address"
        }
      ],
      "name": "OwnershipTransferred",
      "type": "event"
    },
    {
      "anonymous": false,
      "inputs": [
        {
          "indexed": false,
          "internalType": "uint256",
          "name": "tokenId",
          "type": "uint256"
        }
      ],
      "name": "StakingClaimed",
      "type": "event"
    },
    {
      "anonymous": false,
      "inputs": [
        {
          "indexed": true,
          "internalType": "uint256",
          "name": "tokenId",
          "type": "uint256"
        }
      ],
      "name": "StakingInitiated",
      "type": "event"
    },
    {
      "anonymous": false,
      "inputs": [
        {
          "indexed": true,
          "internalType": "address",
          "name": "burnFrom",
          "type": "address"
        },
        {
          "indexed": false,
          "internalType": "uint256",
          "name": "amount",
          "type": "uint256"
        }
      ],
      "name": "TokenBurned",
      "type": "event"
    },
    {
      "anonymous": false,
      "inputs": [
        {
          "indexed": true,
          "internalType": "uint256",
          "name": "tokenId",
          "type": "uint256"
        },
        {
          "indexed": false,
          "internalType": "uint256",
          "name": "newLifeTokenIssuanceRate",
          "type": "uint256"
        }
      ],
      "name": "TokenIssuanceRateUpdates",
      "type": "event"
    },
    {
      "anonymous": false,
      "inputs": [
        {
          "indexed": true,
          "internalType": "address",
          "name": "from",
          "type": "address"
        },
        {
          "indexed": true,
          "internalType": "address",
          "name": "to",
          "type": "address"
        },
        {
          "indexed": true,
          "internalType": "uint256",
          "name": "tokenId",
          "type": "uint256"
        }
      ],
      "name": "Transfer",
      "type": "event"
    },
    {
      "inputs": [
        {
          "internalType": "uint256",
          "name": "",
          "type": "uint256"
        }
      ],
      "name": "_unlockDate",
      "outputs": [
        {
          "internalType": "uint256",
          "name": "",
          "type": "uint256"
        }
      ],
      "stateMutability": "view",
      "type": "function"
    },
    {
      "inputs": [
        {
          "internalType": "address",
          "name": "to",
          "type": "address"
        },
        {
          "internalType": "uint256",
          "name": "tokenId",
          "type": "uint256"
        }
      ],
      "name": "approve",
      "outputs": [],
      "stateMutability": "payable",
      "type": "function"
    },
    {
      "inputs": [
        {
          "internalType": "address",
          "name": "owner",
          "type": "address"
        }
      ],
      "name": "balanceOf",
      "outputs": [
        {
          "internalType": "uint256",
          "name": "",
          "type": "uint256"
        }
      ],
      "stateMutability": "view",
      "type": "function"
    },
    {
      "inputs": [],
      "name": "baseURI",
      "outputs": [
        {
          "internalType": "string",
          "name": "",
          "type": "string"
        }
      ],
      "stateMutability": "view",
      "type": "function"
    },
    {
      "inputs": [
        {
          "internalType": "uint256",
          "name": "tokenId",
          "type": "uint256"
        }
      ],
      "name": "burnNFt",
      "outputs": [],
      "stateMutability": "nonpayable",
      "type": "function"
    },
    {
      "inputs": [
        {
          "internalType": "uint256",
          "name": "amount",
          "type": "uint256"
        }
      ],
      "name": "burnTokens",
      "outputs": [],
      "stateMutability": "nonpayable",
      "type": "function"
    },
    {
      "inputs": [
        {
          "internalType": "uint256",
          "name": "tokenId",
          "type": "uint256"
        }
      ],
      "name": "checkClaimableStakingRewards",
      "outputs": [
        {
          "internalType": "uint256",
          "name": "",
          "type": "uint256"
        }
      ],
      "stateMutability": "view",
      "type": "function"
    },
    {
      "inputs": [
        {
          "internalType": "uint256",
          "name": "tokenId",
          "type": "uint256"
        }
      ],
      "name": "claimStakingRewards",
      "outputs": [],
      "stateMutability": "nonpayable",
      "type": "function"
    },
    {
      "inputs": [
        {
          "internalType": "uint256",
          "name": "tokenId",
          "type": "uint256"
        }
      ],
      "name": "forceClaimNft",
      "outputs": [],
      "stateMutability": "nonpayable",
      "type": "function"
    },
    {
      "inputs": [
        {
          "internalType": "uint256",
          "name": "tokenId",
          "type": "uint256"
        }
      ],
      "name": "getApproved",
      "outputs": [
        {
          "internalType": "address",
          "name": "",
          "type": "address"
        }
      ],
      "stateMutability": "view",
      "type": "function"
    },
    {
      "inputs": [
        {
          "internalType": "address",
          "name": "owner",
          "type": "address"
        },
        {
          "internalType": "address",
          "name": "operator",
          "type": "address"
        }
      ],
      "name": "isApprovedForAll",
      "outputs": [
        {
          "internalType": "bool",
          "name": "",
          "type": "bool"
        }
      ],
      "stateMutability": "view",
      "type": "function"
    },
    {
      "inputs": [
        {
          "internalType": "address",
          "name": "to",
          "type": "address"
        },
        {
          "internalType": "uint256",
          "name": "tokenId",
          "type": "uint256"
        },
        {
          "internalType": "uint256",
          "name": "lifeTokenIssuanceRate_",
          "type": "uint256"
        }
      ],
      "name": "issueNftToInvestor",
      "outputs": [],
      "stateMutability": "nonpayable",
      "type": "function"
    },
    {
      "inputs": [],
      "name": "lifeToken",
      "outputs": [
        {
          "internalType": "address",
          "name": "",
          "type": "address"
        }
      ],
      "stateMutability": "view",
      "type": "function"
    },
    {
      "inputs": [
        {
          "internalType": "uint256",
          "name": "tokenId",
          "type": "uint256"
        }
      ],
      "name": "lifeTokenIssuanceRate",
      "outputs": [
        {
          "internalType": "uint256",
          "name": "",
          "type": "uint256"
        }
      ],
      "stateMutability": "view",
      "type": "function"
    },
    {
      "inputs": [
        {
          "internalType": "uint256",
          "name": "quantity",
          "type": "uint256"
        }
      ],
      "name": "mint",
      "outputs": [],
      "stateMutability": "nonpayable",
      "type": "function"
    },
    {
      "inputs": [],
      "name": "name",
      "outputs": [
        {
          "internalType": "string",
          "name": "",
          "type": "string"
        }
      ],
      "stateMutability": "view",
      "type": "function"
    },
    {
      "inputs": [],
      "name": "owner",
      "outputs": [
        {
          "internalType": "address",
          "name": "",
          "type": "address"
        }
      ],
      "stateMutability": "view",
      "type": "function"
    },
    {
      "inputs": [
        {
          "internalType": "uint256",
          "name": "tokenId",
          "type": "uint256"
        }
      ],
      "name": "ownerOf",
      "outputs": [
        {
          "internalType": "address",
          "name": "",
          "type": "address"
        }
      ],
      "stateMutability": "view",
      "type": "function"
    },
    {
      "inputs": [
        {
          "internalType": "uint256",
          "name": "tokenId",
          "type": "uint256"
        }
      ],
      "name": "ownerOfTokenId",
      "outputs": [
        {
          "internalType": "address",
          "name": "",
          "type": "address"
        }
      ],
      "stateMutability": "view",
      "type": "function"
    },
    {
      "inputs": [],
      "name": "renounceOwnership",
      "outputs": [],
      "stateMutability": "nonpayable",
      "type": "function"
    },
    {
      "inputs": [
        {
          "internalType": "uint256",
          "name": "tokenId",
          "type": "uint256"
        }
      ],
      "name": "returnNftToML",
      "outputs": [],
      "stateMutability": "nonpayable",
      "type": "function"
    },
    {
      "inputs": [
        {
          "internalType": "address",
          "name": "from",
          "type": "address"
        },
        {
          "internalType": "address",
          "name": "to",
          "type": "address"
        },
        {
          "internalType": "uint256",
          "name": "tokenId",
          "type": "uint256"
        }
      ],
      "name": "safeTransferFrom",
      "outputs": [],
      "stateMutability": "payable",
      "type": "function"
    },
    {
      "inputs": [
        {
          "internalType": "address",
          "name": "from",
          "type": "address"
        },
        {
          "internalType": "address",
          "name": "to",
          "type": "address"
        },
        {
          "internalType": "uint256",
          "name": "tokenId",
          "type": "uint256"
        },
        {
          "internalType": "bytes",
          "name": "_data",
          "type": "bytes"
        }
      ],
      "name": "safeTransferFrom",
      "outputs": [],
      "stateMutability": "payable",
      "type": "function"
    },
    {
      "inputs": [
        {
          "internalType": "address",
          "name": "operator",
          "type": "address"
        },
        {
          "internalType": "bool",
          "name": "approved",
          "type": "bool"
        }
      ],
      "name": "setApprovalForAll",
      "outputs": [],
      "stateMutability": "nonpayable",
      "type": "function"
    },
    {
      "inputs": [
        {
          "internalType": "address",
          "name": "lifeToken_",
          "type": "address"
        }
      ],
      "name": "setLifeToken",
      "outputs": [],
      "stateMutability": "nonpayable",
      "type": "function"
    },
    {
      "inputs": [
        {
          "internalType": "uint256",
          "name": "tokenId",
          "type": "uint256"
        },
        {
          "internalType": "uint256",
          "name": "_newLockDate",
          "type": "uint256"
        }
      ],
      "name": "setLockDate",
      "outputs": [],
      "stateMutability": "nonpayable",
      "type": "function"
    },
    {
      "inputs": [
        {
          "internalType": "bytes4",
          "name": "interfaceId",
          "type": "bytes4"
        }
      ],
      "name": "supportsInterface",
      "outputs": [
        {
          "internalType": "bool",
          "name": "",
          "type": "bool"
        }
      ],
      "stateMutability": "view",
      "type": "function"
    },
    {
      "inputs": [],
      "name": "symbol",
      "outputs": [
        {
          "internalType": "string",
          "name": "",
          "type": "string"
        }
      ],
      "stateMutability": "view",
      "type": "function"
    },
    {
      "inputs": [],
      "name": "tokenBurningRate",
      "outputs": [
        {
          "internalType": "uint256",
          "name": "",
          "type": "uint256"
        }
      ],
      "stateMutability": "view",
      "type": "function"
    },
    {
      "inputs": [
        {
          "internalType": "uint256",
          "name": "tokenId",
          "type": "uint256"
        }
      ],
      "name": "tokenURI",
      "outputs": [
        {
          "internalType": "string",
          "name": "",
          "type": "string"
        }
      ],
      "stateMutability": "view",
      "type": "function"
    },
    {
      "inputs": [],
      "name": "totalSupply",
      "outputs": [
        {
          "internalType": "uint256",
          "name": "",
          "type": "uint256"
        }
      ],
      "stateMutability": "view",
      "type": "function"
    },
    {
      "inputs": [
        {
          "internalType": "address",
          "name": "from",
          "type": "address"
        },
        {
          "internalType": "address",
          "name": "to",
          "type": "address"
        },
        {
          "internalType": "uint256",
          "name": "tokenId",
          "type": "uint256"
        }
      ],
      "name": "transferFrom",
      "outputs": [],
      "stateMutability": "payable",
      "type": "function"
    },
    {
      "inputs": [
        {
          "internalType": "address",
          "name": "to",
          "type": "address"
        },
        {
          "internalType": "uint256",
          "name": "tokenId",
          "type": "uint256"
        }
      ],
      "name": "transferNft",
      "outputs": [],
      "stateMutability": "nonpayable",
      "type": "function"
    },
    {
      "inputs": [
        {
          "internalType": "address",
          "name": "newOwner",
          "type": "address"
        }
      ],
      "name": "transferOwnership",
      "outputs": [],
      "stateMutability": "nonpayable",
      "type": "function"
    },
    {
      "inputs": [
        {
          "internalType": "string",
          "name": "_newURIAddress",
          "type": "string"
        }
      ],
      "name": "updateBaseURI",
      "outputs": [],
      "stateMutability": "nonpayable",
      "type": "function"
    },
    {
      "inputs": [
        {
          "internalType": "uint256",
          "name": "tokenId",
          "type": "uint256"
        },
        {
          "internalType": "uint256",
          "name": "newLifeTokenIssuanceRate",
          "type": "uint256"
        }
      ],
      "name": "updateLifeTokenIssuanceRate",
      "outputs": [],
      "stateMutability": "nonpayable",
      "type": "function"
    },
    {
      "inputs": [
        {
          "internalType": "uint256",
          "name": "newTokenBurningRate",
          "type": "uint256"
        }
      ],
      "name": "updateTokenBurningRate",
      "outputs": [],
      "stateMutability": "nonpayable",
      "type": "function"
    }
  ],
  "bytecode": "0x608060405260405180606001604052806036815260200162003fb060369139600d90816200002e919062000463565b5066f8b0a10e470000600e553480156200004757600080fd5b506040518060400160405280601881526020017f4d616e6167654c69666520496e766573746f7273204e465400000000000000008152506040518060400160405280600481526020017f4e465469000000000000000000000000000000000000000000000000000000008152508160029081620000c5919062000463565b508060039081620000d7919062000463565b50620000e86200011660201b60201c565b600081905550505062000110620001046200011b60201b60201c565b6200012360201b60201c565b6200054a565b600090565b600033905090565b6000600860009054906101000a900473ffffffffffffffffffffffffffffffffffffffff16905081600860006101000a81548173ffffffffffffffffffffffffffffffffffffffff021916908373ffffffffffffffffffffffffffffffffffffffff1602179055508173ffffffffffffffffffffffffffffffffffffffff168173ffffffffffffffffffffffffffffffffffffffff167f8be0079c531659141344cd1fd0a4f28419497f9722a3daafe3b4186f6b6457e060405160405180910390a35050565b600081519050919050565b7f4e487b7100000000000000000000000000000000000000000000000000000000600052604160045260246000fd5b7f4e487b7100000000000000000000000000000000000000000000000000000000600052602260045260246000fd5b600060028204905060018216806200026b57607f821691505b60208210810362000281576200028062000223565b5b50919050565b60008190508160005260206000209050919050565b60006020601f8301049050919050565b600082821b905092915050565b600060088302620002eb7fffffffffffffffffffffffffffffffffffffffffffffffffffffffffffffffff82620002ac565b620002f78683620002ac565b95508019841693508086168417925050509392505050565b6000819050919050565b6000819050919050565b6000620003446200033e62000338846200030f565b62000319565b6200030f565b9050919050565b6000819050919050565b620003608362000323565b620003786200036f826200034b565b848454620002b9565b825550505050565b600090565b6200038f62000380565b6200039c81848462000355565b505050565b5b81811015620003c457620003b860008262000385565b600181019050620003a2565b5050565b601f8211156200041357620003dd8162000287565b620003e8846200029c565b81016020851015620003f8578190505b6200041062000407856200029c565b830182620003a1565b50505b505050565b600082821c905092915050565b6000620004386000198460080262000418565b1980831691505092915050565b600062000453838362000425565b9150826002028217905092915050565b6200046e82620001e9565b67ffffffffffffffff8111156200048a5762000489620001f4565b5b62000496825462000252565b620004a3828285620003c8565b600060209050601f831160018114620004db5760008415620004c6578287015190505b620004d2858262000445565b86555062000542565b601f198416620004eb8662000287565b60005b828110156200051557848901518255600182019150602085019450602081019050620004ee565b8683101562000535578489015162000531601f89168262000425565b8355505b6001600288020188555050505b505050505050565b613a56806200055a6000396000f3fe60806040526004361061021a5760003560e01c806370bba72711610123578063a0712d68116100ab578063df028f4e1161006f578063df028f4e146107bb578063e985e9c5146107e4578063f117edc014610821578063f2fde38b1461084a578063f67f031a146108735761021a565b8063a0712d68146106e7578063a22cb46514610710578063b88d4fde14610739578063b8c9c33314610755578063c87b56dd1461077e5761021a565b80638ef6aa02116100f25780638ef6aa02146106185780638fad262714610641578063931688cb1461066a57806395d89b411461069357806396272dea146106be5761021a565b806370bba72714610582578063715018a6146105ab578063755d16fd146105c25780638da5cb5b146105ed5761021a565b8063302f4b4e116101a65780636352211e116101755780636352211e1461048b5780636a308348146104c85780636c0360eb146104f15780636d1b229d1461051c57806370a08231146105455761021a565b8063302f4b4e146103cc5780633be2521c1461040957806342842e0e1461044657806360cc1121146104625761021a565b806312e8ac06116101ed57806312e8ac06146102e057806318160ddd1461031d5780631b61f17e1461034857806323b872dd1461038557806330037c14146103a15761021a565b806301ffc9a71461021f57806306fdde031461025c578063081812fc14610287578063095ea7b3146102c4575b600080fd5b34801561022b57600080fd5b506102466004803603810190610241919061297c565b61089c565b60405161025391906129c4565b60405180910390f35b34801561026857600080fd5b5061027161092e565b60405161027e9190612a6f565b60405180910390f35b34801561029357600080fd5b506102ae60048036038101906102a99190612ac7565b6109c0565b6040516102bb9190612b35565b60405180910390f35b6102de60048036038101906102d99190612b7c565b610a3f565b005b3480156102ec57600080fd5b5061030760048036038101906103029190612ac7565b610b83565b6040516103149190612b35565b60405180910390f35b34801561032957600080fd5b50610332610b95565b60405161033f9190612bcb565b60405180910390f35b34801561035457600080fd5b5061036f600480360381019061036a9190612ac7565b610bac565b60405161037c9190612bcb565b60405180910390f35b61039f600480360381019061039a9190612be6565b610bc9565b005b3480156103ad57600080fd5b506103b6610eeb565b6040516103c39190612b35565b60405180910390f35b3480156103d857600080fd5b506103f360048036038101906103ee9190612ac7565b610f15565b6040516104009190612bcb565b60405180910390f35b34801561041557600080fd5b50610430600480360381019061042b9190612ac7565b610f79565b60405161043d9190612bcb565b60405180910390f35b610460600480360381019061045b9190612be6565b610f91565b005b34801561046e57600080fd5b5061048960048036038101906104849190612b7c565b610fb1565b005b34801561049757600080fd5b506104b260048036038101906104ad9190612ac7565b611122565b6040516104bf9190612b35565b60405180910390f35b3480156104d457600080fd5b506104ef60048036038101906104ea9190612ac7565b611134565b005b3480156104fd57600080fd5b506105066111f1565b6040516105139190612a6f565b60405180910390f35b34801561052857600080fd5b50610543600480360381019061053e9190612ac7565b61127f565b005b34801561055157600080fd5b5061056c60048036038101906105679190612c39565b611420565b6040516105799190612bcb565b60405180910390f35b34801561058e57600080fd5b506105a960048036038101906105a49190612c66565b6114d8565b005b3480156105b757600080fd5b506105c0611534565b005b3480156105ce57600080fd5b506105d7611548565b6040516105e49190612bcb565b60405180910390f35b3480156105f957600080fd5b5061060261154e565b60405161060f9190612b35565b60405180910390f35b34801561062457600080fd5b5061063f600480360381019061063a9190612c39565b611578565b005b34801561064d57600080fd5b5061066860048036038101906106639190612ac7565b6115c4565b005b34801561067657600080fd5b50610691600480360381019061068c9190612ddb565b611832565b005b34801561069f57600080fd5b506106a8611884565b6040516106b59190612a6f565b60405180910390f35b3480156106ca57600080fd5b506106e560048036038101906106e09190612ac7565b611916565b005b3480156106f357600080fd5b5061070e60048036038101906107099190612ac7565b611961565b005b34801561071c57600080fd5b5061073760048036038101906107329190612e50565b611976565b005b610753600480360381019061074e9190612f31565b611a81565b005b34801561076157600080fd5b5061077c60048036038101906107779190612ac7565b611af4565b005b34801561078a57600080fd5b506107a560048036038101906107a09190612ac7565b611b3d565b6040516107b29190612a6f565b60405180910390f35b3480156107c757600080fd5b506107e260048036038101906107dd9190612fb4565b611bdb565b005b3480156107f057600080fd5b5061080b60048036038101906108069190613007565b611c45565b60405161081891906129c4565b60405180910390f35b34801561082d57600080fd5b5061084860048036038101906108439190612c66565b611cd9565b005b34801561085657600080fd5b50610871600480360381019061086c9190612c39565b611cfd565b005b34801561087f57600080fd5b5061089a60048036038101906108959190612ac7565b611d80565b005b60006301ffc9a760e01b827bffffffffffffffffffffffffffffffffffffffffffffffffffffffff191614806108f757506380ac58cd60e01b827bffffffffffffffffffffffffffffffffffffffffffffffffffffffff1916145b806109275750635b5e139f60e01b827bffffffffffffffffffffffffffffffffffffffffffffffffffffffff1916145b9050919050565b60606002805461093d90613076565b80601f016020809104026020016040519081016040528092919081815260200182805461096990613076565b80156109b65780601f1061098b576101008083540402835291602001916109b6565b820191906000526020600020905b81548152906001019060200180831161099957829003601f168201915b5050505050905090565b60006109cb82611d9e565b610a01576040517fcf4700e400000000000000000000000000000000000000000000000000000000815260040160405180910390fd5b6006600083815260200190815260200160002060000160009054906101000a900473ffffffffffffffffffffffffffffffffffffffff169050919050565b6000610a4a82611122565b90508073ffffffffffffffffffffffffffffffffffffffff16610a6b611dfd565b73ffffffffffffffffffffffffffffffffffffffff1614610ace57610a9781610a92611dfd565b611c45565b610acd576040517fcfb3b94200000000000000000000000000000000000000000000000000000000815260040160405180910390fd5b5b826006600084815260200190815260200160002060000160006101000a81548173ffffffffffffffffffffffffffffffffffffffff021916908373ffffffffffffffffffffffffffffffffffffffff160217905550818373ffffffffffffffffffffffffffffffffffffffff168273ffffffffffffffffffffffffffffffffffffffff167f8c5be1e5ebec7d5bd14f71427d1e84f3dd0314c0f7b2291e5b200ac8c7c3b92560405160405180910390a4505050565b6000610b8e82611122565b9050919050565b6000610b9f611e05565b6001546000540303905090565b6000600a6000838152602001908152602001600020549050919050565b6000610bd482611e0a565b90508373ffffffffffffffffffffffffffffffffffffffff168173ffffffffffffffffffffffffffffffffffffffff1614610c3b576040517fa114810000000000000000000000000000000000000000000000000000000000815260040160405180910390fd5b600080610c4784611ed6565b91509150610c5d8187610c58611dfd565b611efd565b610ca957610c7286610c6d611dfd565b611c45565b610ca8576040517f59c896be00000000000000000000000000000000000000000000000000000000815260040160405180910390fd5b5b600073ffffffffffffffffffffffffffffffffffffffff168573ffffffffffffffffffffffffffffffffffffffff1603610d0f576040517fea553b3400000000000000000000000000000000000000000000000000000000815260040160405180910390fd5b610d1c8686866001611f41565b8015610d2757600082555b600560008773ffffffffffffffffffffffffffffffffffffffff1673ffffffffffffffffffffffffffffffffffffffff168152602001908152602001600020600081546001900391905081905550600560008673ffffffffffffffffffffffffffffffffffffffff1673ffffffffffffffffffffffffffffffffffffffff1681526020019081526020016000206000815460010191905081905550610df585610dd1888887611f47565b7c020000000000000000000000000000000000000000000000000000000017611f6f565b600460008681526020019081526020016000208190555060007c0200000000000000000000000000000000000000000000000000000000841603610e7b5760006001850190506000600460008381526020019081526020016000205403610e79576000548114610e78578360046000838152602001908152602001600020819055505b5b505b838573ffffffffffffffffffffffffffffffffffffffff168773ffffffffffffffffffffffffffffffffffffffff167fddf252ad1be2c89b69c2b068fc378daa952ba7f163c4a11628f55a4df523b3ef60405160405180910390a4610ee38686866001611f9a565b505050505050565b6000600960009054906101000a900473ffffffffffffffffffffffffffffffffffffffff16905090565b6000600a600083815260200190815260200160002054600b600084815260200190815260200160002060009054906101000a900467ffffffffffffffff1667ffffffffffffffff1642610f6891906130d6565b610f72919061310a565b9050919050565b600c6020528060005260406000206000915090505481565b610fac83838360405180602001604052806000815250611a81565b505050565b610fba81611122565b73ffffffffffffffffffffffffffffffffffffffff163373ffffffffffffffffffffffffffffffffffffffff1614611027576040517f08c379a000000000000000000000000000000000000000000000000000000000815260040161101e906131be565b60405180910390fd5b61102f61154e565b73ffffffffffffffffffffffffffffffffffffffff163373ffffffffffffffffffffffffffffffffffffffff16036110715761106c338383610f91565b6110ed565b600c6000828152602001908152602001600020544210156110c7576040517f08c379a00000000000000000000000000000000000000000000000000000000081526004016110be90613250565b60405180910390fd5b60006110d282610f15565b106110e1576110e0816115c4565b5b6110ec338383610f91565b5b6301e13380426110fd9190613284565b67ffffffffffffffff16600c6000838152602001908152602001600020819055505050565b600061112d82611e0a565b9050919050565b61113d81611122565b73ffffffffffffffffffffffffffffffffffffffff163373ffffffffffffffffffffffffffffffffffffffff16146111aa576040517f08c379a00000000000000000000000000000000000000000000000000000000081526004016111a1906131be565b60405180910390fd5b60006111b582610f15565b106111c4576111c3816115c4565b5b42600c6000838152602001908152602001600020819055506111ee336111e861154e565b83610f91565b50565b600d80546111fe90613076565b80601f016020809104026020016040519081016040528092919081815260200182805461122a90613076565b80156112775780601f1061124c57610100808354040283529160200191611277565b820191906000526020600020905b81548152906001019060200180831161125a57829003601f168201915b505050505081565b6000600e54600960009054906101000a900473ffffffffffffffffffffffffffffffffffffffff1673ffffffffffffffffffffffffffffffffffffffff166370a08231336040518263ffffffff1660e01b81526004016112df9190612b35565b602060405180830381865afa1580156112fc573d6000803e3d6000fd5b505050506040513d601f19601f8201168201806040525081019061132091906132d5565b61132a919061310a565b9050600960009054906101000a900473ffffffffffffffffffffffffffffffffffffffff1673ffffffffffffffffffffffffffffffffffffffff1663e25a7f8933670de0b6b3a76400008461137f9190613331565b6040518363ffffffff1660e01b815260040161139c929190613362565b600060405180830381600087803b1580156113b657600080fd5b505af11580156113ca573d6000803e3d6000fd5b505050503373ffffffffffffffffffffffffffffffffffffffff167f1af5163f80e79b5e554f61e1d052084d3a3fe1166e42a265798c4e2ddce8ffa2836040516114149190612bcb565b60405180910390a25050565b60008073ffffffffffffffffffffffffffffffffffffffff168273ffffffffffffffffffffffffffffffffffffffff1603611487576040517f8f4eb60400000000000000000000000000000000000000000000000000000000815260040160405180910390fd5b67ffffffffffffffff600560008473ffffffffffffffffffffffffffffffffffffffff1673ffffffffffffffffffffffffffffffffffffffff16815260200190815260200160002054169050919050565b6114e0611fa0565b80600a600084815260200190815260200160002081905550817f18e383d3900bb5f9adbf556eb0f63226cfc096e78ae4c9a6aebc1353aeae1b62826040516115289190612bcb565b60405180910390a25050565b61153c611fa0565b611546600061201e565b565b600e5481565b6000600860009054906101000a900473ffffffffffffffffffffffffffffffffffffffff16905090565b611580611fa0565b80600960006101000a81548173ffffffffffffffffffffffffffffffffffffffff021916908373ffffffffffffffffffffffffffffffffffffffff16021790555050565b806115ce81611122565b73ffffffffffffffffffffffffffffffffffffffff163373ffffffffffffffffffffffffffffffffffffffff161461163b576040517f08c379a0000000000000000000000000000000000000000000000000000000008152600401611632906133d7565b60405180910390fd5b61164482611122565b73ffffffffffffffffffffffffffffffffffffffff163373ffffffffffffffffffffffffffffffffffffffff16146116b1576040517f08c379a00000000000000000000000000000000000000000000000000000000081526004016116a890613469565b60405180910390fd5b6116b961154e565b73ffffffffffffffffffffffffffffffffffffffff163373ffffffffffffffffffffffffffffffffffffffff1603611726576040517f08c379a000000000000000000000000000000000000000000000000000000000815260040161171d906134d5565b60405180910390fd5b600960009054906101000a900473ffffffffffffffffffffffffffffffffffffffff1673ffffffffffffffffffffffffffffffffffffffff1663834874983361176e85610f15565b6040518363ffffffff1660e01b815260040161178b929190613362565b600060405180830381600087803b1580156117a557600080fd5b505af11580156117b9573d6000803e3d6000fd5b5050505042600b600084815260200190815260200160002060006101000a81548167ffffffffffffffff021916908367ffffffffffffffff1602179055507f22906085912ba05ced8c7270a57831d70b0cac665d9034d839056a098ea2ffe1826040516118269190612bcb565b60405180910390a15050565b61183a611fa0565b80600d908161184991906136a1565b507f6741b2fc379fad678116fe3d4d4b9a1a184ab53ba36b86ad0fa66340b1ab41ad816040516118799190612a6f565b60405180910390a150565b60606003805461189390613076565b80601f01602080910402602001604051908101604052809291908181526020018280546118bf90613076565b801561190c5780601f106118e15761010080835404028352916020019161190c565b820191906000526020600020905b8154815290600101906020018083116118ef57829003601f168201915b5050505050905090565b61191e611fa0565b611927816120e4565b7f6834152b13b14874ce1a95c7f53d552459481e9875ead957a619501238169a32816040516119569190612bcb565b60405180910390a150565b611969611fa0565b61197333826120f2565b50565b8060076000611983611dfd565b73ffffffffffffffffffffffffffffffffffffffff1673ffffffffffffffffffffffffffffffffffffffff16815260200190815260200160002060008473ffffffffffffffffffffffffffffffffffffffff1673ffffffffffffffffffffffffffffffffffffffff16815260200190815260200160002060006101000a81548160ff0219169083151502179055508173ffffffffffffffffffffffffffffffffffffffff16611a30611dfd565b73ffffffffffffffffffffffffffffffffffffffff167f17307eab39ab6107e8899845ad3d59bd9653f200f220920489ca2b5937696c3183604051611a7591906129c4565b60405180910390a35050565b611a8c848484610bc9565b60008373ffffffffffffffffffffffffffffffffffffffff163b14611aee57611ab784848484612110565b611aed576040517fd1a57ed600000000000000000000000000000000000000000000000000000000815260040160405180910390fd5b5b50505050565b611afc611fa0565b80600e819055507fd9a6d945e06693dbd732ce8a5690429b9d300bc81f1b9fc094297abaedb5d67c81604051611b329190612bcb565b60405180910390a150565b6060611b4882611d9e565b611b7e576040517fa14c4b5000000000000000000000000000000000000000000000000000000000815260040160405180910390fd5b6000611b88612260565b90506000815103611ba85760405180602001604052806000815250611bd3565b80611bb2846122f2565b604051602001611bc39291906137af565b6040516020818303038152906040525b915050919050565b611be3611fa0565b80600a600084815260200190815260200160002081905550611c06338484610f91565b6301e1338042611c169190613284565b67ffffffffffffffff16600c600084815260200190815260200160002081905550611c4082612342565b505050565b6000600760008473ffffffffffffffffffffffffffffffffffffffff1673ffffffffffffffffffffffffffffffffffffffff16815260200190815260200160002060008373ffffffffffffffffffffffffffffffffffffffff1673ffffffffffffffffffffffffffffffffffffffff16815260200190815260200160002060009054906101000a900460ff16905092915050565b611ce1611fa0565b80600c6000848152602001908152602001600020819055505050565b611d05611fa0565b600073ffffffffffffffffffffffffffffffffffffffff168173ffffffffffffffffffffffffffffffffffffffff1603611d74576040517f08c379a0000000000000000000000000000000000000000000000000000000008152600401611d6b90613845565b60405180910390fd5b611d7d8161201e565b50565b611d88611fa0565b611d9b611d9482610b83565b3383610bc9565b50565b600081611da9611e05565b11158015611db8575060005482105b8015611df6575060007c0100000000000000000000000000000000000000000000000000000000600460008581526020019081526020016000205416145b9050919050565b600033905090565b600090565b60008082905080611e19611e05565b11611e9f57600054811015611e9e5760006004600083815260200190815260200160002054905060007c0100000000000000000000000000000000000000000000000000000000821603611e9c575b60008103611e92576004600083600190039350838152602001908152602001600020549050611e68565b8092505050611ed1565b505b5b6040517fdf2d9b4200000000000000000000000000000000000000000000000000000000815260040160405180910390fd5b919050565b60008060006006600085815260200190815260200160002090508092508254915050915091565b600073ffffffffffffffffffffffffffffffffffffffff8316925073ffffffffffffffffffffffffffffffffffffffff821691508382148383141790509392505050565b50505050565b60008060e883901c905060e8611f5e868684612445565b62ffffff16901b9150509392505050565b600073ffffffffffffffffffffffffffffffffffffffff83169250814260a01b178317905092915050565b50505050565b611fa861244e565b73ffffffffffffffffffffffffffffffffffffffff16611fc661154e565b73ffffffffffffffffffffffffffffffffffffffff161461201c576040517f08c379a0000000000000000000000000000000000000000000000000000000008152600401612013906138b1565b60405180910390fd5b565b6000600860009054906101000a900473ffffffffffffffffffffffffffffffffffffffff16905081600860006101000a81548173ffffffffffffffffffffffffffffffffffffffff021916908373ffffffffffffffffffffffffffffffffffffffff1602179055508173ffffffffffffffffffffffffffffffffffffffff168173ffffffffffffffffffffffffffffffffffffffff167f8be0079c531659141344cd1fd0a4f28419497f9722a3daafe3b4186f6b6457e060405160405180910390a35050565b6120ef816000612456565b50565b61210c8282604051806020016040528060008152506126a8565b5050565b60008373ffffffffffffffffffffffffffffffffffffffff1663150b7a02612136611dfd565b8786866040518563ffffffff1660e01b81526004016121589493929190613926565b6020604051808303816000875af192505050801561219457506040513d601f19601f820116820180604052508101906121919190613987565b60015b61220d573d80600081146121c4576040519150601f19603f3d011682016040523d82523d6000602084013e6121c9565b606091505b506000815103612205576040517fd1a57ed600000000000000000000000000000000000000000000000000000000815260040160405180910390fd5b805181602001fd5b63150b7a0260e01b7bffffffffffffffffffffffffffffffffffffffffffffffffffffffff1916817bffffffffffffffffffffffffffffffffffffffffffffffffffffffff191614915050949350505050565b6060600d805461226f90613076565b80601f016020809104026020016040519081016040528092919081815260200182805461229b90613076565b80156122e85780601f106122bd576101008083540402835291602001916122e8565b820191906000526020600020905b8154815290600101906020018083116122cb57829003601f168201915b5050505050905090565b606060a060405101806040526020810391506000825281835b60011561232d57600184039350600a81066030018453600a810490508061230b575b50828103602084039350808452505050919050565b61234a611fa0565b600073ffffffffffffffffffffffffffffffffffffffff16600960009054906101000a900473ffffffffffffffffffffffffffffffffffffffff1673ffffffffffffffffffffffffffffffffffffffff16036123db576040517f08c379a00000000000000000000000000000000000000000000000000000000081526004016123d290613a00565b60405180910390fd5b42600b600083815260200190815260200160002060006101000a81548167ffffffffffffffff021916908367ffffffffffffffff160217905550807f2746ab4492c39d74ce45fb53adf5bbfbe35aa35d6f3773991c019b4bbdcadda160405160405180910390a250565b60009392505050565b600033905090565b600061246183611e0a565b9050600081905060008061247486611ed6565b9150915084156124dd57612490818461248b611dfd565b611efd565b6124dc576124a5836124a0611dfd565b611c45565b6124db576040517f59c896be00000000000000000000000000000000000000000000000000000000815260040160405180910390fd5b5b5b6124eb836000886001611f41565b80156124f657600082555b600160806001901b03600560008573ffffffffffffffffffffffffffffffffffffffff1673ffffffffffffffffffffffffffffffffffffffff1681526020019081526020016000206000828254019250508190555061259e8361255b85600088611f47565b7c02000000000000000000000000000000000000000000000000000000007c01000000000000000000000000000000000000000000000000000000001717611f6f565b600460008881526020019081526020016000208190555060007c02000000000000000000000000000000000000000000000000000000008516036126245760006001870190506000600460008381526020019081526020016000205403612622576000548114612621578460046000838152602001908152602001600020819055505b5b505b85600073ffffffffffffffffffffffffffffffffffffffff168473ffffffffffffffffffffffffffffffffffffffff167fddf252ad1be2c89b69c2b068fc378daa952ba7f163c4a11628f55a4df523b3ef60405160405180910390a461268e836000886001611f9a565b600160008154809291906001019190505550505050505050565b6126b28383612745565b60008373ffffffffffffffffffffffffffffffffffffffff163b1461274057600080549050600083820390505b6126f26000868380600101945086612110565b612728576040517fd1a57ed600000000000000000000000000000000000000000000000000000000815260040160405180910390fd5b8181106126df57816000541461273d57600080fd5b50505b505050565b60008054905060008203612785576040517fb562e8dd00000000000000000000000000000000000000000000000000000000815260040160405180910390fd5b6127926000848385611f41565b600160406001901b178202600560008573ffffffffffffffffffffffffffffffffffffffff1673ffffffffffffffffffffffffffffffffffffffff16815260200190815260200160002060008282540192505081905550612809836127fa6000866000611f47565b61280385612900565b17611f6f565b6004600083815260200190815260200160002081905550600080838301905073ffffffffffffffffffffffffffffffffffffffff85169150828260007fddf252ad1be2c89b69c2b068fc378daa952ba7f163c4a11628f55a4df523b3ef600080a4600183015b8181146128aa57808360007fddf252ad1be2c89b69c2b068fc378daa952ba7f163c4a11628f55a4df523b3ef600080a460018101905061286f565b50600082036128e5576040517f2e07630000000000000000000000000000000000000000000000000000000000815260040160405180910390fd5b8060008190555050506128fb6000848385611f9a565b505050565b60006001821460e11b9050919050565b6000604051905090565b600080fd5b600080fd5b60007fffffffff0000000000000000000000000000000000000000000000000000000082169050919050565b61295981612924565b811461296457600080fd5b50565b60008135905061297681612950565b92915050565b6000602082840312156129925761299161291a565b5b60006129a084828501612967565b91505092915050565b60008115159050919050565b6129be816129a9565b82525050565b60006020820190506129d960008301846129b5565b92915050565b600081519050919050565b600082825260208201905092915050565b60005b83811015612a195780820151818401526020810190506129fe565b60008484015250505050565b6000601f19601f8301169050919050565b6000612a41826129df565b612a4b81856129ea565b9350612a5b8185602086016129fb565b612a6481612a25565b840191505092915050565b60006020820190508181036000830152612a898184612a36565b905092915050565b6000819050919050565b612aa481612a91565b8114612aaf57600080fd5b50565b600081359050612ac181612a9b565b92915050565b600060208284031215612add57612adc61291a565b5b6000612aeb84828501612ab2565b91505092915050565b600073ffffffffffffffffffffffffffffffffffffffff82169050919050565b6000612b1f82612af4565b9050919050565b612b2f81612b14565b82525050565b6000602082019050612b4a6000830184612b26565b92915050565b612b5981612b14565b8114612b6457600080fd5b50565b600081359050612b7681612b50565b92915050565b60008060408385031215612b9357612b9261291a565b5b6000612ba185828601612b67565b9250506020612bb285828601612ab2565b9150509250929050565b612bc581612a91565b82525050565b6000602082019050612be06000830184612bbc565b92915050565b600080600060608486031215612bff57612bfe61291a565b5b6000612c0d86828701612b67565b9350506020612c1e86828701612b67565b9250506040612c2f86828701612ab2565b9150509250925092565b600060208284031215612c4f57612c4e61291a565b5b6000612c5d84828501612b67565b91505092915050565b60008060408385031215612c7d57612c7c61291a565b5b6000612c8b85828601612ab2565b9250506020612c9c85828601612ab2565b9150509250929050565b600080fd5b600080fd5b7f4e487b7100000000000000000000000000000000000000000000000000000000600052604160045260246000fd5b612ce882612a25565b810181811067ffffffffffffffff82111715612d0757612d06612cb0565b5b80604052505050565b6000612d1a612910565b9050612d268282612cdf565b919050565b600067ffffffffffffffff821115612d4657612d45612cb0565b5b612d4f82612a25565b9050602081019050919050565b82818337600083830152505050565b6000612d7e612d7984612d2b565b612d10565b905082815260208101848484011115612d9a57612d99612cab565b5b612da5848285612d5c565b509392505050565b600082601f830112612dc257612dc1612ca6565b5b8135612dd2848260208601612d6b565b91505092915050565b600060208284031215612df157612df061291a565b5b600082013567ffffffffffffffff811115612e0f57612e0e61291f565b5b612e1b84828501612dad565b91505092915050565b612e2d816129a9565b8114612e3857600080fd5b50565b600081359050612e4a81612e24565b92915050565b60008060408385031215612e6757612e6661291a565b5b6000612e7585828601612b67565b9250506020612e8685828601612e3b565b9150509250929050565b600067ffffffffffffffff821115612eab57612eaa612cb0565b5b612eb482612a25565b9050602081019050919050565b6000612ed4612ecf84612e90565b612d10565b905082815260208101848484011115612ef057612eef612cab565b5b612efb848285612d5c565b509392505050565b600082601f830112612f1857612f17612ca6565b5b8135612f28848260208601612ec1565b91505092915050565b60008060008060808587031215612f4b57612f4a61291a565b5b6000612f5987828801612b67565b9450506020612f6a87828801612b67565b9350506040612f7b87828801612ab2565b925050606085013567ffffffffffffffff811115612f9c57612f9b61291f565b5b612fa887828801612f03565b91505092959194509250565b600080600060608486031215612fcd57612fcc61291a565b5b6000612fdb86828701612b67565b9350506020612fec86828701612ab2565b9250506040612ffd86828701612ab2565b9150509250925092565b6000806040838503121561301e5761301d61291a565b5b600061302c85828601612b67565b925050602061303d85828601612b67565b9150509250929050565b7f4e487b7100000000000000000000000000000000000000000000000000000000600052602260045260246000fd5b6000600282049050600182168061308e57607f821691505b6020821081036130a1576130a0613047565b5b50919050565b7f4e487b7100000000000000000000000000000000000000000000000000000000600052601160045260246000fd5b60006130e182612a91565b91506130ec83612a91565b9250828203905081811115613104576131036130a7565b5b92915050565b600061311582612a91565b915061312083612a91565b925082820261312e81612a91565b91508282048414831517613145576131446130a7565b5b5092915050565b7f4572726f723a20596f75206d75737420626520746865206f776e6572206f662060008201527f74686973204e4654000000000000000000000000000000000000000000000000602082015250565b60006131a86028836129ea565b91506131b38261314c565b604082019050919050565b600060208201905081810360008301526131d78161319b565b9050919050565b7f4572726f723a204e4654206861736e27742066696e6973686564206c6f636b6560008201527f6420757020706572696f64000000000000000000000000000000000000000000602082015250565b600061323a602b836129ea565b9150613245826131de565b604082019050919050565b600060208201905081810360008301526132698161322d565b9050919050565b600067ffffffffffffffff82169050919050565b600061328f82613270565b915061329a83613270565b9250828201905067ffffffffffffffff8111156132ba576132b96130a7565b5b92915050565b6000815190506132cf81612a9b565b92915050565b6000602082840312156132eb576132ea61291a565b5b60006132f9848285016132c0565b91505092915050565b7f4e487b7100000000000000000000000000000000000000000000000000000000600052601260045260246000fd5b600061333c82612a91565b915061334783612a91565b92508261335757613356613302565b5b828204905092915050565b60006040820190506133776000830185612b26565b6133846020830184612bbc565b9392505050565b7f4f6e6c7920666f72204e46544973206f776e6572000000000000000000000000600082015250565b60006133c16014836129ea565b91506133cc8261338b565b602082019050919050565b600060208201905081810360008301526133f0816133b4565b9050919050565b7f4f6e6c7920746865206f776e6572206f662074686520746f6b656e496420636160008201527f6e20636c61696d20746865207265776172647300000000000000000000000000602082015250565b60006134536033836129ea565b915061345e826133f7565b604082019050919050565b6000602082019050818103600083015261348281613446565b9050919050565b7f506c6174666f726d2077616c6c65742063616e6e6f7420636c61696d00000000600082015250565b60006134bf601c836129ea565b91506134ca82613489565b602082019050919050565b600060208201905081810360008301526134ee816134b2565b9050919050565b60008190508160005260206000209050919050565b60006020601f8301049050919050565b600082821b905092915050565b6000600883026135577fffffffffffffffffffffffffffffffffffffffffffffffffffffffffffffffff8261351a565b613561868361351a565b95508019841693508086168417925050509392505050565b6000819050919050565b600061359e61359961359484612a91565b613579565b612a91565b9050919050565b6000819050919050565b6135b883613583565b6135cc6135c4826135a5565b848454613527565b825550505050565b600090565b6135e16135d4565b6135ec8184846135af565b505050565b5b81811015613610576136056000826135d9565b6001810190506135f2565b5050565b601f82111561365557613626816134f5565b61362f8461350a565b8101602085101561363e578190505b61365261364a8561350a565b8301826135f1565b50505b505050565b600082821c905092915050565b60006136786000198460080261365a565b1980831691505092915050565b60006136918383613667565b9150826002028217905092915050565b6136aa826129df565b67ffffffffffffffff8111156136c3576136c2612cb0565b5b6136cd8254613076565b6136d8828285613614565b600060209050601f83116001811461370b57600084156136f9578287015190505b6137038582613685565b86555061376b565b601f198416613719866134f5565b60005b828110156137415784890151825560018201915060208501945060208101905061371c565b8683101561375e578489015161375a601f891682613667565b8355505b6001600288020188555050505b505050505050565b600081905092915050565b6000613789826129df565b6137938185613773565b93506137a38185602086016129fb565b80840191505092915050565b60006137bb828561377e565b91506137c7828461377e565b91508190509392505050565b7f4f776e61626c653a206e6577206f776e657220697320746865207a65726f206160008201527f6464726573730000000000000000000000000000000000000000000000000000602082015250565b600061382f6026836129ea565b915061383a826137d3565b604082019050919050565b6000602082019050818103600083015261385e81613822565b9050919050565b7f4f776e61626c653a2063616c6c6572206973206e6f7420746865206f776e6572600082015250565b600061389b6020836129ea565b91506138a682613865565b602082019050919050565b600060208201905081810360008301526138ca8161388e565b9050919050565b600081519050919050565b600082825260208201905092915050565b60006138f8826138d1565b61390281856138dc565b93506139128185602086016129fb565b61391b81612a25565b840191505092915050565b600060808201905061393b6000830187612b26565b6139486020830186612b26565b6139556040830185612bbc565b818103606083015261396781846138ed565b905095945050505050565b60008151905061398181612950565b92915050565b60006020828403121561399d5761399c61291a565b5b60006139ab84828501613972565b91505092915050565b7f4d616e6167654c69666520546f6b656e206973206e6f74207365740000000000600082015250565b60006139ea601b836129ea565b91506139f5826139b4565b602082019050919050565b60006020820190508181036000830152613a19816139dd565b905091905056fea264697066735822122030e231574b36041b85b48d2f588fc04d41bd96bd331c2a74a4d9e94ae8e4578e64736f6c63430008110033697066733a2f2f516d65536a53696e4870506e6d586d73704d6a776958794e367a533445397a63636172694752336a7863615774712f",
  "linkReferences": {},
  "deployedLinkReferences": {}
}