{
  "_format": "hh-sol-artifact-1",
  "contractName": "ManageLifeInvestorsNFT",
  "sourceName": "contracts/MLInvestorsNFT.sol",
  "abi": [
    {
      "inputs": [],
      "stateMutability": "nonpayable",
      "type": "constructor"
    },
    {
      "inputs": [],
      "name": "ApprovalCallerNotOwnerNorApproved",
      "type": "error"
    },
    {
      "inputs": [],
      "name": "ApprovalQueryForNonexistentToken",
      "type": "error"
    },
    {
      "inputs": [],
      "name": "BalanceQueryForZeroAddress",
      "type": "error"
    },
    {
      "inputs": [],
      "name": "MintERC2309QuantityExceedsLimit",
      "type": "error"
    },
    {
      "inputs": [],
      "name": "MintToZeroAddress",
      "type": "error"
    },
    {
      "inputs": [],
      "name": "MintZeroQuantity",
      "type": "error"
    },
    {
      "inputs": [],
      "name": "OwnerQueryForNonexistentToken",
      "type": "error"
    },
    {
      "inputs": [],
      "name": "OwnershipNotInitializedForExtraData",
      "type": "error"
    },
    {
      "inputs": [],
      "name": "TransferCallerNotOwnerNorApproved",
      "type": "error"
    },
    {
      "inputs": [],
      "name": "TransferFromIncorrectOwner",
      "type": "error"
    },
    {
      "inputs": [],
      "name": "TransferToNonERC721ReceiverImplementer",
      "type": "error"
    },
    {
      "inputs": [],
      "name": "TransferToZeroAddress",
      "type": "error"
    },
    {
      "inputs": [],
      "name": "URIQueryForNonexistentToken",
      "type": "error"
    },
    {
      "anonymous": false,
      "inputs": [
        {
          "indexed": true,
          "internalType": "address",
          "name": "owner",
          "type": "address"
        },
        {
          "indexed": true,
          "internalType": "address",
          "name": "approved",
          "type": "address"
        },
        {
          "indexed": true,
          "internalType": "uint256",
          "name": "tokenId",
          "type": "uint256"
        }
      ],
      "name": "Approval",
      "type": "event"
    },
    {
      "anonymous": false,
      "inputs": [
        {
          "indexed": true,
          "internalType": "address",
          "name": "owner",
          "type": "address"
        },
        {
          "indexed": true,
          "internalType": "address",
          "name": "operator",
          "type": "address"
        },
        {
          "indexed": false,
          "internalType": "bool",
          "name": "approved",
          "type": "bool"
        }
      ],
      "name": "ApprovalForAll",
      "type": "event"
    },
    {
      "anonymous": false,
      "inputs": [
        {
          "indexed": false,
          "internalType": "string",
          "name": "_newURIAddress",
          "type": "string"
        }
      ],
      "name": "BaseURIUpdated",
      "type": "event"
    },
    {
      "anonymous": false,
      "inputs": [
        {
          "indexed": false,
          "internalType": "uint256",
          "name": "tokenId",
          "type": "uint256"
        }
      ],
      "name": "BurnedNft",
      "type": "event"
    },
    {
      "anonymous": false,
      "inputs": [
        {
          "indexed": false,
          "internalType": "uint256",
          "name": "newTokenBurningRate",
          "type": "uint256"
        }
      ],
      "name": "BurningRateUpdated",
      "type": "event"
    },
    {
      "anonymous": false,
      "inputs": [
        {
          "indexed": true,
          "internalType": "uint256",
          "name": "fromTokenId",
          "type": "uint256"
        },
        {
          "indexed": false,
          "internalType": "uint256",
          "name": "toTokenId",
          "type": "uint256"
        },
        {
          "indexed": true,
          "internalType": "address",
          "name": "from",
          "type": "address"
        },
        {
          "indexed": true,
          "internalType": "address",
          "name": "to",
          "type": "address"
        }
      ],
      "name": "ConsecutiveTransfer",
      "type": "event"
    },
    {
      "anonymous": false,
      "inputs": [
        {
          "indexed": true,
          "internalType": "address",
          "name": "previousOwner",
          "type": "address"
        },
        {
          "indexed": true,
          "internalType": "address",
          "name": "newOwner",
          "type": "address"
        }
      ],
      "name": "OwnershipTransferred",
      "type": "event"
    },
    {
      "anonymous": false,
      "inputs": [
        {
          "indexed": false,
          "internalType": "uint256",
          "name": "tokenId",
          "type": "uint256"
        }
      ],
      "name": "StakingClaimed",
      "type": "event"
    },
    {
      "anonymous": false,
      "inputs": [
        {
          "indexed": true,
          "internalType": "uint256",
          "name": "tokenId",
          "type": "uint256"
        }
      ],
      "name": "StakingInitiated",
      "type": "event"
    },
    {
      "anonymous": false,
      "inputs": [
        {
          "indexed": true,
          "internalType": "uint256",
          "name": "tokenId",
          "type": "uint256"
        },
        {
          "indexed": false,
          "internalType": "uint256",
          "name": "newLifeTokenIssuanceRate",
          "type": "uint256"
        }
      ],
      "name": "TokenIssuanceRateUpdates",
      "type": "event"
    },
    {
      "anonymous": false,
      "inputs": [
        {
          "indexed": true,
          "internalType": "address",
          "name": "from",
          "type": "address"
        },
        {
          "indexed": true,
          "internalType": "address",
          "name": "to",
          "type": "address"
        },
        {
          "indexed": true,
          "internalType": "uint256",
          "name": "tokenId",
          "type": "uint256"
        }
      ],
      "name": "Transfer",
      "type": "event"
    },
    {
      "inputs": [
        {
          "internalType": "uint256",
          "name": "",
          "type": "uint256"
        }
      ],
      "name": "_unlockDate",
      "outputs": [
        {
          "internalType": "uint256",
          "name": "",
          "type": "uint256"
        }
      ],
      "stateMutability": "view",
      "type": "function"
    },
    {
      "inputs": [
        {
          "internalType": "address",
          "name": "to",
          "type": "address"
        },
        {
          "internalType": "uint256",
          "name": "tokenId",
          "type": "uint256"
        }
      ],
      "name": "approve",
      "outputs": [],
      "stateMutability": "payable",
      "type": "function"
    },
    {
      "inputs": [
        {
          "internalType": "address",
          "name": "owner",
          "type": "address"
        }
      ],
      "name": "balanceOf",
      "outputs": [
        {
          "internalType": "uint256",
          "name": "",
          "type": "uint256"
        }
      ],
      "stateMutability": "view",
      "type": "function"
    },
    {
      "inputs": [],
      "name": "baseURI",
      "outputs": [
        {
          "internalType": "string",
          "name": "",
          "type": "string"
        }
      ],
      "stateMutability": "view",
      "type": "function"
    },
    {
      "inputs": [
        {
          "internalType": "uint256",
          "name": "tokenId",
          "type": "uint256"
        }
      ],
      "name": "burnNFt",
      "outputs": [],
      "stateMutability": "nonpayable",
      "type": "function"
    },
    {
      "inputs": [
        {
          "internalType": "uint256",
          "name": "tokenId",
          "type": "uint256"
        }
      ],
      "name": "checkClaimableStakingRewards",
      "outputs": [
        {
          "internalType": "uint256",
          "name": "",
          "type": "uint256"
        }
      ],
      "stateMutability": "view",
      "type": "function"
    },
    {
      "inputs": [
        {
          "internalType": "uint256",
          "name": "tokenId",
          "type": "uint256"
        }
      ],
      "name": "claimStakingRewards",
      "outputs": [],
      "stateMutability": "nonpayable",
      "type": "function"
    },
    {
      "inputs": [
        {
          "internalType": "uint256",
          "name": "tokenId",
          "type": "uint256"
        }
      ],
      "name": "forceClaimNft",
      "outputs": [],
      "stateMutability": "nonpayable",
      "type": "function"
    },
    {
      "inputs": [
        {
          "internalType": "uint256",
          "name": "tokenId",
          "type": "uint256"
        }
      ],
      "name": "getApproved",
      "outputs": [
        {
          "internalType": "address",
          "name": "",
          "type": "address"
        }
      ],
      "stateMutability": "view",
      "type": "function"
    },
    {
      "inputs": [
        {
          "internalType": "address",
          "name": "owner",
          "type": "address"
        },
        {
          "internalType": "address",
          "name": "operator",
          "type": "address"
        }
      ],
      "name": "isApprovedForAll",
      "outputs": [
        {
          "internalType": "bool",
          "name": "",
          "type": "bool"
        }
      ],
      "stateMutability": "view",
      "type": "function"
    },
    {
      "inputs": [
        {
          "internalType": "address",
          "name": "to",
          "type": "address"
        },
        {
          "internalType": "uint256",
          "name": "tokenId",
          "type": "uint256"
        },
        {
          "internalType": "uint256",
          "name": "lifeTokenIssuanceRate_",
          "type": "uint256"
        }
      ],
      "name": "issueNftToInvestor",
      "outputs": [],
      "stateMutability": "nonpayable",
      "type": "function"
    },
    {
      "inputs": [],
      "name": "lifeToken",
      "outputs": [
        {
          "internalType": "address",
          "name": "",
          "type": "address"
        }
      ],
      "stateMutability": "view",
      "type": "function"
    },
    {
      "inputs": [
        {
          "internalType": "uint256",
          "name": "tokenId",
          "type": "uint256"
        }
      ],
      "name": "lifeTokenIssuanceRate",
      "outputs": [
        {
          "internalType": "uint256",
          "name": "",
          "type": "uint256"
        }
      ],
      "stateMutability": "view",
      "type": "function"
    },
    {
      "inputs": [
        {
          "internalType": "uint256",
          "name": "quantity",
          "type": "uint256"
        }
      ],
      "name": "mint",
      "outputs": [],
      "stateMutability": "nonpayable",
      "type": "function"
    },
    {
      "inputs": [],
      "name": "name",
      "outputs": [
        {
          "internalType": "string",
          "name": "",
          "type": "string"
        }
      ],
      "stateMutability": "view",
      "type": "function"
    },
    {
      "inputs": [],
      "name": "owner",
      "outputs": [
        {
          "internalType": "address",
          "name": "",
          "type": "address"
        }
      ],
      "stateMutability": "view",
      "type": "function"
    },
    {
      "inputs": [
        {
          "internalType": "uint256",
          "name": "tokenId",
          "type": "uint256"
        }
      ],
      "name": "ownerOf",
      "outputs": [
        {
          "internalType": "address",
          "name": "",
          "type": "address"
        }
      ],
      "stateMutability": "view",
      "type": "function"
    },
    {
      "inputs": [
        {
          "internalType": "uint256",
          "name": "tokenId",
          "type": "uint256"
        }
      ],
      "name": "ownerOfTokenId",
      "outputs": [
        {
          "internalType": "address",
          "name": "",
          "type": "address"
        }
      ],
      "stateMutability": "view",
      "type": "function"
    },
    {
      "inputs": [],
      "name": "renounceOwnership",
      "outputs": [],
      "stateMutability": "nonpayable",
      "type": "function"
    },
    {
      "inputs": [
        {
          "internalType": "uint256",
          "name": "tokenId",
          "type": "uint256"
        }
      ],
      "name": "returnNftToML",
      "outputs": [],
      "stateMutability": "nonpayable",
      "type": "function"
    },
    {
      "inputs": [
        {
          "internalType": "address",
          "name": "from",
          "type": "address"
        },
        {
          "internalType": "address",
          "name": "to",
          "type": "address"
        },
        {
          "internalType": "uint256",
          "name": "tokenId",
          "type": "uint256"
        }
      ],
      "name": "safeTransferFrom",
      "outputs": [],
      "stateMutability": "payable",
      "type": "function"
    },
    {
      "inputs": [
        {
          "internalType": "address",
          "name": "from",
          "type": "address"
        },
        {
          "internalType": "address",
          "name": "to",
          "type": "address"
        },
        {
          "internalType": "uint256",
          "name": "tokenId",
          "type": "uint256"
        },
        {
          "internalType": "bytes",
          "name": "_data",
          "type": "bytes"
        }
      ],
      "name": "safeTransferFrom",
      "outputs": [],
      "stateMutability": "payable",
      "type": "function"
    },
    {
      "inputs": [
        {
          "internalType": "address",
          "name": "operator",
          "type": "address"
        },
        {
          "internalType": "bool",
          "name": "approved",
          "type": "bool"
        }
      ],
      "name": "setApprovalForAll",
      "outputs": [],
      "stateMutability": "nonpayable",
      "type": "function"
    },
    {
      "inputs": [
        {
          "internalType": "address",
          "name": "lifeToken_",
          "type": "address"
        }
      ],
      "name": "setLifeToken",
      "outputs": [],
      "stateMutability": "nonpayable",
      "type": "function"
    },
    {
      "inputs": [
        {
          "internalType": "uint256",
          "name": "tokenId",
          "type": "uint256"
        },
        {
          "internalType": "uint256",
          "name": "_newLockDate",
          "type": "uint256"
        }
      ],
      "name": "setLockDate",
      "outputs": [],
      "stateMutability": "nonpayable",
      "type": "function"
    },
    {
      "inputs": [
        {
          "internalType": "bytes4",
          "name": "interfaceId",
          "type": "bytes4"
        }
      ],
      "name": "supportsInterface",
      "outputs": [
        {
          "internalType": "bool",
          "name": "",
          "type": "bool"
        }
      ],
      "stateMutability": "view",
      "type": "function"
    },
    {
      "inputs": [],
      "name": "symbol",
      "outputs": [
        {
          "internalType": "string",
          "name": "",
          "type": "string"
        }
      ],
      "stateMutability": "view",
      "type": "function"
    },
    {
      "inputs": [],
      "name": "tokenBurningRate",
      "outputs": [
        {
          "internalType": "uint256",
          "name": "",
          "type": "uint256"
        }
      ],
      "stateMutability": "view",
      "type": "function"
    },
    {
      "inputs": [
        {
          "internalType": "uint256",
          "name": "tokenId",
          "type": "uint256"
        }
      ],
      "name": "tokenURI",
      "outputs": [
        {
          "internalType": "string",
          "name": "",
          "type": "string"
        }
      ],
      "stateMutability": "view",
      "type": "function"
    },
    {
      "inputs": [],
      "name": "totalSupply",
      "outputs": [
        {
          "internalType": "uint256",
          "name": "",
          "type": "uint256"
        }
      ],
      "stateMutability": "view",
      "type": "function"
    },
    {
      "inputs": [
        {
          "internalType": "address",
          "name": "from",
          "type": "address"
        },
        {
          "internalType": "address",
          "name": "to",
          "type": "address"
        },
        {
          "internalType": "uint256",
          "name": "tokenId",
          "type": "uint256"
        }
      ],
      "name": "transferFrom",
      "outputs": [],
      "stateMutability": "payable",
      "type": "function"
    },
    {
      "inputs": [
        {
          "internalType": "address",
          "name": "to",
          "type": "address"
        },
        {
          "internalType": "uint256",
          "name": "tokenId",
          "type": "uint256"
        }
      ],
      "name": "transferNft",
      "outputs": [],
      "stateMutability": "nonpayable",
      "type": "function"
    },
    {
      "inputs": [
        {
          "internalType": "address",
          "name": "newOwner",
          "type": "address"
        }
      ],
      "name": "transferOwnership",
      "outputs": [],
      "stateMutability": "nonpayable",
      "type": "function"
    },
    {
      "inputs": [
        {
          "internalType": "string",
          "name": "_newURIAddress",
          "type": "string"
        }
      ],
      "name": "updateBaseURI",
      "outputs": [],
      "stateMutability": "nonpayable",
      "type": "function"
    },
    {
      "inputs": [
        {
          "internalType": "uint256",
          "name": "tokenId",
          "type": "uint256"
        },
        {
          "internalType": "uint256",
          "name": "newLifeTokenIssuanceRate",
          "type": "uint256"
        }
      ],
      "name": "updateLifeTokenIssuanceRate",
      "outputs": [],
      "stateMutability": "nonpayable",
      "type": "function"
    },
    {
      "inputs": [
        {
          "internalType": "uint256",
          "name": "newTokenBurningRate",
          "type": "uint256"
        }
      ],
      "name": "updateTokenBurningRate",
      "outputs": [],
      "stateMutability": "nonpayable",
      "type": "function"
    }
  ],
  "bytecode": "0x608060405260405180606001604052806036815260200162003b4260369139600d908051906020019062000035929190620001fe565b5066f8b0a10e470000600e553480156200004e57600080fd5b506040518060400160405280601881526020017f4d616e6167654c69666520496e766573746f7273204e465400000000000000008152506040518060400160405280600481526020017f4e465469000000000000000000000000000000000000000000000000000000008152508160029080519060200190620000d3929190620001fe565b508060039080519060200190620000ec929190620001fe565b50620000fd6200012b60201b60201c565b600081905550505062000125620001196200013060201b60201c565b6200013860201b60201c565b62000312565b600090565b600033905090565b6000600860009054906101000a900473ffffffffffffffffffffffffffffffffffffffff16905081600860006101000a81548173ffffffffffffffffffffffffffffffffffffffff021916908373ffffffffffffffffffffffffffffffffffffffff1602179055508173ffffffffffffffffffffffffffffffffffffffff168173ffffffffffffffffffffffffffffffffffffffff167f8be0079c531659141344cd1fd0a4f28419497f9722a3daafe3b4186f6b6457e060405160405180910390a35050565b8280546200020c90620002dd565b90600052602060002090601f0160209004810192826200023057600085556200027c565b82601f106200024b57805160ff19168380011785556200027c565b828001600101855582156200027c579182015b828111156200027b5782518255916020019190600101906200025e565b5b5090506200028b91906200028f565b5090565b5b80821115620002aa57600081600090555060010162000290565b5090565b7f4e487b7100000000000000000000000000000000000000000000000000000000600052602260045260246000fd5b60006002820490506001821680620002f657607f821691505b6020821081036200030c576200030b620002ae565b5b50919050565b61382080620003226000396000f3fe60806040526004361061020f5760003560e01c8063715018a611610118578063a22cb465116100a0578063df028f4e1161006f578063df028f4e14610787578063e985e9c5146107b0578063f117edc0146107ed578063f2fde38b14610816578063f67f031a1461083f5761020f565b8063a22cb465146106dc578063b88d4fde14610705578063b8c9c33314610721578063c87b56dd1461074a5761020f565b80638fad2627116100e75780638fad26271461060d578063931688cb1461063657806395d89b411461065f57806396272dea1461068a578063a0712d68146106b35761020f565b8063715018a614610577578063755d16fd1461058e5780638da5cb5b146105b95780638ef6aa02146105e45761020f565b8063302f4b4e1161019b5780636352211e1161016a5780636352211e146104805780636a308348146104bd5780636c0360eb146104e657806370a082311461051157806370bba7271461054e5761020f565b8063302f4b4e146103c15780633be2521c146103fe57806342842e0e1461043b57806360cc1121146104575761020f565b806312e8ac06116101e257806312e8ac06146102d557806318160ddd146103125780631b61f17e1461033d57806323b872dd1461037a57806330037c14146103965761020f565b806301ffc9a71461021457806306fdde0314610251578063081812fc1461027c578063095ea7b3146102b9575b600080fd5b34801561022057600080fd5b5061023b600480360381019061023691906129a1565b610868565b60405161024891906129e9565b60405180910390f35b34801561025d57600080fd5b506102666108fa565b6040516102739190612a9d565b60405180910390f35b34801561028857600080fd5b506102a3600480360381019061029e9190612af5565b61098c565b6040516102b09190612b63565b60405180910390f35b6102d360048036038101906102ce9190612baa565b610a0b565b005b3480156102e157600080fd5b506102fc60048036038101906102f79190612af5565b610b4f565b6040516103099190612b63565b60405180910390f35b34801561031e57600080fd5b50610327610b61565b6040516103349190612bf9565b60405180910390f35b34801561034957600080fd5b50610364600480360381019061035f9190612af5565b610b78565b6040516103719190612bf9565b60405180910390f35b610394600480360381019061038f9190612c14565b610b95565b005b3480156103a257600080fd5b506103ab610eb7565b6040516103b89190612b63565b60405180910390f35b3480156103cd57600080fd5b506103e860048036038101906103e39190612af5565b610ee1565b6040516103f59190612bf9565b60405180910390f35b34801561040a57600080fd5b5061042560048036038101906104209190612af5565b610f45565b6040516104329190612bf9565b60405180910390f35b61045560048036038101906104509190612c14565b610f5d565b005b34801561046357600080fd5b5061047e60048036038101906104799190612baa565b610f7d565b005b34801561048c57600080fd5b506104a760048036038101906104a29190612af5565b6110ee565b6040516104b49190612b63565b60405180910390f35b3480156104c957600080fd5b506104e460048036038101906104df9190612af5565b611100565b005b3480156104f257600080fd5b506104fb6111bd565b6040516105089190612a9d565b60405180910390f35b34801561051d57600080fd5b5061053860048036038101906105339190612c67565b61124b565b6040516105459190612bf9565b60405180910390f35b34801561055a57600080fd5b5061057560048036038101906105709190612c94565b611303565b005b34801561058357600080fd5b5061058c61135f565b005b34801561059a57600080fd5b506105a3611373565b6040516105b09190612bf9565b60405180910390f35b3480156105c557600080fd5b506105ce611379565b6040516105db9190612b63565b60405180910390f35b3480156105f057600080fd5b5061060b60048036038101906106069190612c67565b6113a3565b005b34801561061957600080fd5b50610634600480360381019061062f9190612af5565b6113ef565b005b34801561064257600080fd5b5061065d60048036038101906106589190612e09565b6117ad565b005b34801561066b57600080fd5b50610674611806565b6040516106819190612a9d565b60405180910390f35b34801561069657600080fd5b506106b160048036038101906106ac9190612af5565b611898565b005b3480156106bf57600080fd5b506106da60048036038101906106d59190612af5565b6118e3565b005b3480156106e857600080fd5b5061070360048036038101906106fe9190612e7e565b6118f8565b005b61071f600480360381019061071a9190612f5f565b611a03565b005b34801561072d57600080fd5b5061074860048036038101906107439190612af5565b611a76565b005b34801561075657600080fd5b50610771600480360381019061076c9190612af5565b611abf565b60405161077e9190612a9d565b60405180910390f35b34801561079357600080fd5b506107ae60048036038101906107a99190612fe2565b611b5d565b005b3480156107bc57600080fd5b506107d760048036038101906107d29190613035565b611bc7565b6040516107e491906129e9565b60405180910390f35b3480156107f957600080fd5b50610814600480360381019061080f9190612c94565b611c5b565b005b34801561082257600080fd5b5061083d60048036038101906108389190612c67565b611c7f565b005b34801561084b57600080fd5b5061086660048036038101906108619190612af5565b611d02565b005b60006301ffc9a760e01b827bffffffffffffffffffffffffffffffffffffffffffffffffffffffff191614806108c357506380ac58cd60e01b827bffffffffffffffffffffffffffffffffffffffffffffffffffffffff1916145b806108f35750635b5e139f60e01b827bffffffffffffffffffffffffffffffffffffffffffffffffffffffff1916145b9050919050565b606060028054610909906130a4565b80601f0160208091040260200160405190810160405280929190818152602001828054610935906130a4565b80156109825780601f1061095757610100808354040283529160200191610982565b820191906000526020600020905b81548152906001019060200180831161096557829003601f168201915b5050505050905090565b600061099782611d20565b6109cd576040517fcf4700e400000000000000000000000000000000000000000000000000000000815260040160405180910390fd5b6006600083815260200190815260200160002060000160009054906101000a900473ffffffffffffffffffffffffffffffffffffffff169050919050565b6000610a16826110ee565b90508073ffffffffffffffffffffffffffffffffffffffff16610a37611d7f565b73ffffffffffffffffffffffffffffffffffffffff1614610a9a57610a6381610a5e611d7f565b611bc7565b610a99576040517fcfb3b94200000000000000000000000000000000000000000000000000000000815260040160405180910390fd5b5b826006600084815260200190815260200160002060000160006101000a81548173ffffffffffffffffffffffffffffffffffffffff021916908373ffffffffffffffffffffffffffffffffffffffff160217905550818373ffffffffffffffffffffffffffffffffffffffff168273ffffffffffffffffffffffffffffffffffffffff167f8c5be1e5ebec7d5bd14f71427d1e84f3dd0314c0f7b2291e5b200ac8c7c3b92560405160405180910390a4505050565b6000610b5a826110ee565b9050919050565b6000610b6b611d87565b6001546000540303905090565b6000600a6000838152602001908152602001600020549050919050565b6000610ba082611d8c565b90508373ffffffffffffffffffffffffffffffffffffffff168173ffffffffffffffffffffffffffffffffffffffff1614610c07576040517fa114810000000000000000000000000000000000000000000000000000000000815260040160405180910390fd5b600080610c1384611e58565b91509150610c298187610c24611d7f565b611e7f565b610c7557610c3e86610c39611d7f565b611bc7565b610c74576040517f59c896be00000000000000000000000000000000000000000000000000000000815260040160405180910390fd5b5b600073ffffffffffffffffffffffffffffffffffffffff168573ffffffffffffffffffffffffffffffffffffffff1603610cdb576040517fea553b3400000000000000000000000000000000000000000000000000000000815260040160405180910390fd5b610ce88686866001611ec3565b8015610cf357600082555b600560008773ffffffffffffffffffffffffffffffffffffffff1673ffffffffffffffffffffffffffffffffffffffff168152602001908152602001600020600081546001900391905081905550600560008673ffffffffffffffffffffffffffffffffffffffff1673ffffffffffffffffffffffffffffffffffffffff1681526020019081526020016000206000815460010191905081905550610dc185610d9d888887611ec9565b7c020000000000000000000000000000000000000000000000000000000017611ef1565b600460008681526020019081526020016000208190555060007c0200000000000000000000000000000000000000000000000000000000841603610e475760006001850190506000600460008381526020019081526020016000205403610e45576000548114610e44578360046000838152602001908152602001600020819055505b5b505b838573ffffffffffffffffffffffffffffffffffffffff168773ffffffffffffffffffffffffffffffffffffffff167fddf252ad1be2c89b69c2b068fc378daa952ba7f163c4a11628f55a4df523b3ef60405160405180910390a4610eaf8686866001611f1c565b505050505050565b6000600960009054906101000a900473ffffffffffffffffffffffffffffffffffffffff16905090565b6000600a600083815260200190815260200160002054600b600084815260200190815260200160002060009054906101000a900467ffffffffffffffff1667ffffffffffffffff1642610f349190613104565b610f3e9190613138565b9050919050565b600c6020528060005260406000206000915090505481565b610f7883838360405180602001604052806000815250611a03565b505050565b610f86816110ee565b73ffffffffffffffffffffffffffffffffffffffff163373ffffffffffffffffffffffffffffffffffffffff1614610ff3576040517f08c379a0000000000000000000000000000000000000000000000000000000008152600401610fea90613204565b60405180910390fd5b610ffb611379565b73ffffffffffffffffffffffffffffffffffffffff163373ffffffffffffffffffffffffffffffffffffffff160361103d57611038338383610f5d565b6110b9565b600c600082815260200190815260200160002054421015611093576040517f08c379a000000000000000000000000000000000000000000000000000000000815260040161108a90613296565b60405180910390fd5b600061109e82610ee1565b106110ad576110ac816113ef565b5b6110b8338383610f5d565b5b6301e13380426110c991906132ca565b67ffffffffffffffff16600c6000838152602001908152602001600020819055505050565b60006110f982611d8c565b9050919050565b611109816110ee565b73ffffffffffffffffffffffffffffffffffffffff163373ffffffffffffffffffffffffffffffffffffffff1614611176576040517f08c379a000000000000000000000000000000000000000000000000000000000815260040161116d90613204565b60405180910390fd5b600061118182610ee1565b106111905761118f816113ef565b5b42600c6000838152602001908152602001600020819055506111ba336111b4611379565b83610f5d565b50565b600d80546111ca906130a4565b80601f01602080910402602001604051908101604052809291908181526020018280546111f6906130a4565b80156112435780601f1061121857610100808354040283529160200191611243565b820191906000526020600020905b81548152906001019060200180831161122657829003601f168201915b505050505081565b60008073ffffffffffffffffffffffffffffffffffffffff168273ffffffffffffffffffffffffffffffffffffffff16036112b2576040517f8f4eb60400000000000000000000000000000000000000000000000000000000815260040160405180910390fd5b67ffffffffffffffff600560008473ffffffffffffffffffffffffffffffffffffffff1673ffffffffffffffffffffffffffffffffffffffff16815260200190815260200160002054169050919050565b61130b611f22565b80600a600084815260200190815260200160002081905550817f18e383d3900bb5f9adbf556eb0f63226cfc096e78ae4c9a6aebc1353aeae1b62826040516113539190612bf9565b60405180910390a25050565b611367611f22565b6113716000611fa0565b565b600e5481565b6000600860009054906101000a900473ffffffffffffffffffffffffffffffffffffffff16905090565b6113ab611f22565b80600960006101000a81548173ffffffffffffffffffffffffffffffffffffffff021916908373ffffffffffffffffffffffffffffffffffffffff16021790555050565b806113f9816110ee565b73ffffffffffffffffffffffffffffffffffffffff163373ffffffffffffffffffffffffffffffffffffffff1614611466576040517f08c379a000000000000000000000000000000000000000000000000000000000815260040161145d90613354565b60405180910390fd5b61146f826110ee565b73ffffffffffffffffffffffffffffffffffffffff163373ffffffffffffffffffffffffffffffffffffffff16146114dc576040517f08c379a00000000000000000000000000000000000000000000000000000000081526004016114d3906133e6565b60405180910390fd5b6114e4611379565b73ffffffffffffffffffffffffffffffffffffffff163373ffffffffffffffffffffffffffffffffffffffff1603611551576040517f08c379a000000000000000000000000000000000000000000000000000000000815260040161154890613452565b60405180910390fd5b600960009054906101000a900473ffffffffffffffffffffffffffffffffffffffff1673ffffffffffffffffffffffffffffffffffffffff1663834874983361159985610ee1565b6040518363ffffffff1660e01b81526004016115b6929190613472565b600060405180830381600087803b1580156115d057600080fd5b505af11580156115e4573d6000803e3d6000fd5b5050505042600b600084815260200190815260200160002060006101000a81548167ffffffffffffffff021916908367ffffffffffffffff1602179055506000600e54600960009054906101000a900473ffffffffffffffffffffffffffffffffffffffff1673ffffffffffffffffffffffffffffffffffffffff166370a08231336040518263ffffffff1660e01b81526004016116829190612b63565b602060405180830381865afa15801561169f573d6000803e3d6000fd5b505050506040513d601f19601f820116820180604052508101906116c391906134b0565b6116cd9190613138565b9050600960009054906101000a900473ffffffffffffffffffffffffffffffffffffffff1673ffffffffffffffffffffffffffffffffffffffff1663e25a7f8933670de0b6b3a764000084611722919061350c565b6040518363ffffffff1660e01b815260040161173f929190613472565b600060405180830381600087803b15801561175957600080fd5b505af115801561176d573d6000803e3d6000fd5b505050507f22906085912ba05ced8c7270a57831d70b0cac665d9034d839056a098ea2ffe1836040516117a09190612bf9565b60405180910390a1505050565b6117b5611f22565b80600d90805190602001906117cb929190612892565b507f6741b2fc379fad678116fe3d4d4b9a1a184ab53ba36b86ad0fa66340b1ab41ad816040516117fb9190612a9d565b60405180910390a150565b606060038054611815906130a4565b80601f0160208091040260200160405190810160405280929190818152602001828054611841906130a4565b801561188e5780601f106118635761010080835404028352916020019161188e565b820191906000526020600020905b81548152906001019060200180831161187157829003601f168201915b5050505050905090565b6118a0611f22565b6118a981612066565b7f6834152b13b14874ce1a95c7f53d552459481e9875ead957a619501238169a32816040516118d89190612bf9565b60405180910390a150565b6118eb611f22565b6118f53382612074565b50565b8060076000611905611d7f565b73ffffffffffffffffffffffffffffffffffffffff1673ffffffffffffffffffffffffffffffffffffffff16815260200190815260200160002060008473ffffffffffffffffffffffffffffffffffffffff1673ffffffffffffffffffffffffffffffffffffffff16815260200190815260200160002060006101000a81548160ff0219169083151502179055508173ffffffffffffffffffffffffffffffffffffffff166119b2611d7f565b73ffffffffffffffffffffffffffffffffffffffff167f17307eab39ab6107e8899845ad3d59bd9653f200f220920489ca2b5937696c31836040516119f791906129e9565b60405180910390a35050565b611a0e848484610b95565b60008373ffffffffffffffffffffffffffffffffffffffff163b14611a7057611a3984848484612092565b611a6f576040517fd1a57ed600000000000000000000000000000000000000000000000000000000815260040160405180910390fd5b5b50505050565b611a7e611f22565b80600e819055507fd9a6d945e06693dbd732ce8a5690429b9d300bc81f1b9fc094297abaedb5d67c81604051611ab49190612bf9565b60405180910390a150565b6060611aca82611d20565b611b00576040517fa14c4b5000000000000000000000000000000000000000000000000000000000815260040160405180910390fd5b6000611b0a6121e2565b90506000815103611b2a5760405180602001604052806000815250611b55565b80611b3484612274565b604051602001611b45929190613579565b6040516020818303038152906040525b915050919050565b611b65611f22565b80600a600084815260200190815260200160002081905550611b88338484610f5d565b6301e1338042611b9891906132ca565b67ffffffffffffffff16600c600084815260200190815260200160002081905550611bc2826122c4565b505050565b6000600760008473ffffffffffffffffffffffffffffffffffffffff1673ffffffffffffffffffffffffffffffffffffffff16815260200190815260200160002060008373ffffffffffffffffffffffffffffffffffffffff1673ffffffffffffffffffffffffffffffffffffffff16815260200190815260200160002060009054906101000a900460ff16905092915050565b611c63611f22565b80600c6000848152602001908152602001600020819055505050565b611c87611f22565b600073ffffffffffffffffffffffffffffffffffffffff168173ffffffffffffffffffffffffffffffffffffffff1603611cf6576040517f08c379a0000000000000000000000000000000000000000000000000000000008152600401611ced9061360f565b60405180910390fd5b611cff81611fa0565b50565b611d0a611f22565b611d1d611d1682610b4f565b3383610b95565b50565b600081611d2b611d87565b11158015611d3a575060005482105b8015611d78575060007c0100000000000000000000000000000000000000000000000000000000600460008581526020019081526020016000205416145b9050919050565b600033905090565b600090565b60008082905080611d9b611d87565b11611e2157600054811015611e205760006004600083815260200190815260200160002054905060007c0100000000000000000000000000000000000000000000000000000000821603611e1e575b60008103611e14576004600083600190039350838152602001908152602001600020549050611dea565b8092505050611e53565b505b5b6040517fdf2d9b4200000000000000000000000000000000000000000000000000000000815260040160405180910390fd5b919050565b60008060006006600085815260200190815260200160002090508092508254915050915091565b600073ffffffffffffffffffffffffffffffffffffffff8316925073ffffffffffffffffffffffffffffffffffffffff821691508382148383141790509392505050565b50505050565b60008060e883901c905060e8611ee08686846123c7565b62ffffff16901b9150509392505050565b600073ffffffffffffffffffffffffffffffffffffffff83169250814260a01b178317905092915050565b50505050565b611f2a6123d0565b73ffffffffffffffffffffffffffffffffffffffff16611f48611379565b73ffffffffffffffffffffffffffffffffffffffff1614611f9e576040517f08c379a0000000000000000000000000000000000000000000000000000000008152600401611f959061367b565b60405180910390fd5b565b6000600860009054906101000a900473ffffffffffffffffffffffffffffffffffffffff16905081600860006101000a81548173ffffffffffffffffffffffffffffffffffffffff021916908373ffffffffffffffffffffffffffffffffffffffff1602179055508173ffffffffffffffffffffffffffffffffffffffff168173ffffffffffffffffffffffffffffffffffffffff167f8be0079c531659141344cd1fd0a4f28419497f9722a3daafe3b4186f6b6457e060405160405180910390a35050565b6120718160006123d8565b50565b61208e82826040518060200160405280600081525061262a565b5050565b60008373ffffffffffffffffffffffffffffffffffffffff1663150b7a026120b8611d7f565b8786866040518563ffffffff1660e01b81526004016120da94939291906136f0565b6020604051808303816000875af192505050801561211657506040513d601f19601f820116820180604052508101906121139190613751565b60015b61218f573d8060008114612146576040519150601f19603f3d011682016040523d82523d6000602084013e61214b565b606091505b506000815103612187576040517fd1a57ed600000000000000000000000000000000000000000000000000000000815260040160405180910390fd5b805181602001fd5b63150b7a0260e01b7bffffffffffffffffffffffffffffffffffffffffffffffffffffffff1916817bffffffffffffffffffffffffffffffffffffffffffffffffffffffff191614915050949350505050565b6060600d80546121f1906130a4565b80601f016020809104026020016040519081016040528092919081815260200182805461221d906130a4565b801561226a5780601f1061223f5761010080835404028352916020019161226a565b820191906000526020600020905b81548152906001019060200180831161224d57829003601f168201915b5050505050905090565b606060a060405101806040526020810391506000825281835b6001156122af57600184039350600a81066030018453600a810490508061228d575b50828103602084039350808452505050919050565b6122cc611f22565b600073ffffffffffffffffffffffffffffffffffffffff16600960009054906101000a900473ffffffffffffffffffffffffffffffffffffffff1673ffffffffffffffffffffffffffffffffffffffff160361235d576040517f08c379a0000000000000000000000000000000000000000000000000000000008152600401612354906137ca565b60405180910390fd5b42600b600083815260200190815260200160002060006101000a81548167ffffffffffffffff021916908367ffffffffffffffff160217905550807f2746ab4492c39d74ce45fb53adf5bbfbe35aa35d6f3773991c019b4bbdcadda160405160405180910390a250565b60009392505050565b600033905090565b60006123e383611d8c565b905060008190506000806123f686611e58565b91509150841561245f57612412818461240d611d7f565b611e7f565b61245e5761242783612422611d7f565b611bc7565b61245d576040517f59c896be00000000000000000000000000000000000000000000000000000000815260040160405180910390fd5b5b5b61246d836000886001611ec3565b801561247857600082555b600160806001901b03600560008573ffffffffffffffffffffffffffffffffffffffff1673ffffffffffffffffffffffffffffffffffffffff16815260200190815260200160002060008282540192505081905550612520836124dd85600088611ec9565b7c02000000000000000000000000000000000000000000000000000000007c01000000000000000000000000000000000000000000000000000000001717611ef1565b600460008881526020019081526020016000208190555060007c02000000000000000000000000000000000000000000000000000000008516036125a657600060018701905060006004600083815260200190815260200160002054036125a45760005481146125a3578460046000838152602001908152602001600020819055505b5b505b85600073ffffffffffffffffffffffffffffffffffffffff168473ffffffffffffffffffffffffffffffffffffffff167fddf252ad1be2c89b69c2b068fc378daa952ba7f163c4a11628f55a4df523b3ef60405160405180910390a4612610836000886001611f1c565b600160008154809291906001019190505550505050505050565b61263483836126c7565b60008373ffffffffffffffffffffffffffffffffffffffff163b146126c257600080549050600083820390505b6126746000868380600101945086612092565b6126aa576040517fd1a57ed600000000000000000000000000000000000000000000000000000000815260040160405180910390fd5b8181106126615781600054146126bf57600080fd5b50505b505050565b60008054905060008203612707576040517fb562e8dd00000000000000000000000000000000000000000000000000000000815260040160405180910390fd5b6127146000848385611ec3565b600160406001901b178202600560008573ffffffffffffffffffffffffffffffffffffffff1673ffffffffffffffffffffffffffffffffffffffff1681526020019081526020016000206000828254019250508190555061278b8361277c6000866000611ec9565b61278585612882565b17611ef1565b6004600083815260200190815260200160002081905550600080838301905073ffffffffffffffffffffffffffffffffffffffff85169150828260007fddf252ad1be2c89b69c2b068fc378daa952ba7f163c4a11628f55a4df523b3ef600080a4600183015b81811461282c57808360007fddf252ad1be2c89b69c2b068fc378daa952ba7f163c4a11628f55a4df523b3ef600080a46001810190506127f1565b5060008203612867576040517f2e07630000000000000000000000000000000000000000000000000000000000815260040160405180910390fd5b80600081905550505061287d6000848385611f1c565b505050565b60006001821460e11b9050919050565b82805461289e906130a4565b90600052602060002090601f0160209004810192826128c05760008555612907565b82601f106128d957805160ff1916838001178555612907565b82800160010185558215612907579182015b828111156129065782518255916020019190600101906128eb565b5b5090506129149190612918565b5090565b5b80821115612931576000816000905550600101612919565b5090565b6000604051905090565b600080fd5b600080fd5b60007fffffffff0000000000000000000000000000000000000000000000000000000082169050919050565b61297e81612949565b811461298957600080fd5b50565b60008135905061299b81612975565b92915050565b6000602082840312156129b7576129b661293f565b5b60006129c58482850161298c565b91505092915050565b60008115159050919050565b6129e3816129ce565b82525050565b60006020820190506129fe60008301846129da565b92915050565b600081519050919050565b600082825260208201905092915050565b60005b83811015612a3e578082015181840152602081019050612a23565b83811115612a4d576000848401525b50505050565b6000601f19601f8301169050919050565b6000612a6f82612a04565b612a798185612a0f565b9350612a89818560208601612a20565b612a9281612a53565b840191505092915050565b60006020820190508181036000830152612ab78184612a64565b905092915050565b6000819050919050565b612ad281612abf565b8114612add57600080fd5b50565b600081359050612aef81612ac9565b92915050565b600060208284031215612b0b57612b0a61293f565b5b6000612b1984828501612ae0565b91505092915050565b600073ffffffffffffffffffffffffffffffffffffffff82169050919050565b6000612b4d82612b22565b9050919050565b612b5d81612b42565b82525050565b6000602082019050612b786000830184612b54565b92915050565b612b8781612b42565b8114612b9257600080fd5b50565b600081359050612ba481612b7e565b92915050565b60008060408385031215612bc157612bc061293f565b5b6000612bcf85828601612b95565b9250506020612be085828601612ae0565b9150509250929050565b612bf381612abf565b82525050565b6000602082019050612c0e6000830184612bea565b92915050565b600080600060608486031215612c2d57612c2c61293f565b5b6000612c3b86828701612b95565b9350506020612c4c86828701612b95565b9250506040612c5d86828701612ae0565b9150509250925092565b600060208284031215612c7d57612c7c61293f565b5b6000612c8b84828501612b95565b91505092915050565b60008060408385031215612cab57612caa61293f565b5b6000612cb985828601612ae0565b9250506020612cca85828601612ae0565b9150509250929050565b600080fd5b600080fd5b7f4e487b7100000000000000000000000000000000000000000000000000000000600052604160045260246000fd5b612d1682612a53565b810181811067ffffffffffffffff82111715612d3557612d34612cde565b5b80604052505050565b6000612d48612935565b9050612d548282612d0d565b919050565b600067ffffffffffffffff821115612d7457612d73612cde565b5b612d7d82612a53565b9050602081019050919050565b82818337600083830152505050565b6000612dac612da784612d59565b612d3e565b905082815260208101848484011115612dc857612dc7612cd9565b5b612dd3848285612d8a565b509392505050565b600082601f830112612df057612def612cd4565b5b8135612e00848260208601612d99565b91505092915050565b600060208284031215612e1f57612e1e61293f565b5b600082013567ffffffffffffffff811115612e3d57612e3c612944565b5b612e4984828501612ddb565b91505092915050565b612e5b816129ce565b8114612e6657600080fd5b50565b600081359050612e7881612e52565b92915050565b60008060408385031215612e9557612e9461293f565b5b6000612ea385828601612b95565b9250506020612eb485828601612e69565b9150509250929050565b600067ffffffffffffffff821115612ed957612ed8612cde565b5b612ee282612a53565b9050602081019050919050565b6000612f02612efd84612ebe565b612d3e565b905082815260208101848484011115612f1e57612f1d612cd9565b5b612f29848285612d8a565b509392505050565b600082601f830112612f4657612f45612cd4565b5b8135612f56848260208601612eef565b91505092915050565b60008060008060808587031215612f7957612f7861293f565b5b6000612f8787828801612b95565b9450506020612f9887828801612b95565b9350506040612fa987828801612ae0565b925050606085013567ffffffffffffffff811115612fca57612fc9612944565b5b612fd687828801612f31565b91505092959194509250565b600080600060608486031215612ffb57612ffa61293f565b5b600061300986828701612b95565b935050602061301a86828701612ae0565b925050604061302b86828701612ae0565b9150509250925092565b6000806040838503121561304c5761304b61293f565b5b600061305a85828601612b95565b925050602061306b85828601612b95565b9150509250929050565b7f4e487b7100000000000000000000000000000000000000000000000000000000600052602260045260246000fd5b600060028204905060018216806130bc57607f821691505b6020821081036130cf576130ce613075565b5b50919050565b7f4e487b7100000000000000000000000000000000000000000000000000000000600052601160045260246000fd5b600061310f82612abf565b915061311a83612abf565b92508282101561312d5761312c6130d5565b5b828203905092915050565b600061314382612abf565b915061314e83612abf565b9250817fffffffffffffffffffffffffffffffffffffffffffffffffffffffffffffffff0483118215151615613187576131866130d5565b5b828202905092915050565b7f4572726f723a20596f75206d75737420626520746865206f776e6572206f662060008201527f74686973204e4654000000000000000000000000000000000000000000000000602082015250565b60006131ee602883612a0f565b91506131f982613192565b604082019050919050565b6000602082019050818103600083015261321d816131e1565b9050919050565b7f4572726f723a204e4654206861736e27742066696e6973686564206c6f636b6560008201527f6420757020706572696f64000000000000000000000000000000000000000000602082015250565b6000613280602b83612a0f565b915061328b82613224565b604082019050919050565b600060208201905081810360008301526132af81613273565b9050919050565b600067ffffffffffffffff82169050919050565b60006132d5826132b6565b91506132e0836132b6565b92508267ffffffffffffffff038211156132fd576132fc6130d5565b5b828201905092915050565b7f4f6e6c7920666f72204e46544973206f776e6572000000000000000000000000600082015250565b600061333e601483612a0f565b915061334982613308565b602082019050919050565b6000602082019050818103600083015261336d81613331565b9050919050565b7f4f6e6c7920746865206f776e6572206f662074686520746f6b656e496420636160008201527f6e20636c61696d20746865207265776172647300000000000000000000000000602082015250565b60006133d0603383612a0f565b91506133db82613374565b604082019050919050565b600060208201905081810360008301526133ff816133c3565b9050919050565b7f506c6174666f726d2077616c6c65742063616e6e6f7420636c61696d00000000600082015250565b600061343c601c83612a0f565b915061344782613406565b602082019050919050565b6000602082019050818103600083015261346b8161342f565b9050919050565b60006040820190506134876000830185612b54565b6134946020830184612bea565b9392505050565b6000815190506134aa81612ac9565b92915050565b6000602082840312156134c6576134c561293f565b5b60006134d48482850161349b565b91505092915050565b7f4e487b7100000000000000000000000000000000000000000000000000000000600052601260045260246000fd5b600061351782612abf565b915061352283612abf565b925082613532576135316134dd565b5b828204905092915050565b600081905092915050565b600061355382612a04565b61355d818561353d565b935061356d818560208601612a20565b80840191505092915050565b60006135858285613548565b91506135918284613548565b91508190509392505050565b7f4f776e61626c653a206e6577206f776e657220697320746865207a65726f206160008201527f6464726573730000000000000000000000000000000000000000000000000000602082015250565b60006135f9602683612a0f565b91506136048261359d565b604082019050919050565b60006020820190508181036000830152613628816135ec565b9050919050565b7f4f776e61626c653a2063616c6c6572206973206e6f7420746865206f776e6572600082015250565b6000613665602083612a0f565b91506136708261362f565b602082019050919050565b6000602082019050818103600083015261369481613658565b9050919050565b600081519050919050565b600082825260208201905092915050565b60006136c28261369b565b6136cc81856136a6565b93506136dc818560208601612a20565b6136e581612a53565b840191505092915050565b60006080820190506137056000830187612b54565b6137126020830186612b54565b61371f6040830185612bea565b818103606083015261373181846136b7565b905095945050505050565b60008151905061374b81612975565b92915050565b6000602082840312156137675761376661293f565b5b60006137758482850161373c565b91505092915050565b7f4d616e6167654c69666520546f6b656e206973206e6f74207365740000000000600082015250565b60006137b4601b83612a0f565b91506137bf8261377e565b602082019050919050565b600060208201905081810360008301526137e3816137a7565b905091905056fea2646970667358221220e0d876a977b980b6b68f8e845c2563823cfb80f5192700e067395026c85422b564736f6c634300080d0033697066733a2f2f516d65536a53696e4870506e6d586d73704d6a776958794e367a533445397a63636172694752336a7863615774712f",
  "linkReferences": {},
  "deployedLinkReferences": {}
}