{
  "_format": "hh-sol-artifact-1",
  "contractName": "Marketplace",
  "sourceName": "contracts/Marketplace.sol",
  "abi": [
    {
      "inputs": [],
      "stateMutability": "nonpayable",
      "type": "constructor"
    },
    {
      "anonymous": false,
      "inputs": [
        {
          "indexed": true,
          "internalType": "uint256",
          "name": "id",
          "type": "uint256"
        },
        {
          "indexed": false,
          "internalType": "uint256",
          "name": "value",
          "type": "uint256"
        },
        {
          "indexed": true,
          "internalType": "address",
          "name": "bidder",
          "type": "address"
        }
      ],
      "name": "BidCancelled",
      "type": "event"
    },
    {
      "anonymous": false,
      "inputs": [
        {
          "indexed": true,
          "internalType": "uint256",
          "name": "id",
          "type": "uint256"
        },
        {
          "indexed": false,
          "internalType": "uint256",
          "name": "value",
          "type": "uint256"
        },
        {
          "indexed": true,
          "internalType": "address",
          "name": "fromAddress",
          "type": "address"
        }
      ],
      "name": "BidEntered",
      "type": "event"
    },
    {
      "anonymous": false,
      "inputs": [
        {
          "indexed": true,
          "internalType": "uint256",
          "name": "id",
          "type": "uint256"
        },
        {
          "indexed": false,
          "internalType": "uint256",
          "name": "value",
          "type": "uint256"
        }
      ],
      "name": "BidWithdrawn",
      "type": "event"
    },
    {
      "anonymous": false,
      "inputs": [
        {
          "indexed": true,
          "internalType": "uint256",
          "name": "id",
          "type": "uint256"
        },
        {
          "indexed": false,
          "internalType": "uint256",
          "name": "value",
          "type": "uint256"
        },
        {
          "indexed": true,
          "internalType": "address",
          "name": "fromAddress",
          "type": "address"
        },
        {
          "indexed": true,
          "internalType": "address",
          "name": "toAddress",
          "type": "address"
        },
        {
          "indexed": false,
          "internalType": "bool",
          "name": "isInstant",
          "type": "bool"
        }
      ],
      "name": "Bought",
      "type": "event"
    },
    {
      "anonymous": false,
      "inputs": [
        {
          "indexed": true,
          "internalType": "uint256",
          "name": "id",
          "type": "uint256"
        }
      ],
      "name": "Cancelled",
      "type": "event"
    },
    {
      "anonymous": false,
      "inputs": [
        {
          "indexed": true,
          "internalType": "uint256",
          "name": "id",
          "type": "uint256"
        },
        {
          "indexed": false,
          "internalType": "uint256",
          "name": "minValue",
          "type": "uint256"
        },
        {
          "indexed": true,
          "internalType": "address",
          "name": "toAddress",
          "type": "address"
        }
      ],
      "name": "Offered",
      "type": "event"
    },
    {
      "anonymous": false,
      "inputs": [
        {
          "indexed": true,
          "internalType": "address",
          "name": "previousOwner",
          "type": "address"
        },
        {
          "indexed": true,
          "internalType": "address",
          "name": "newOwner",
          "type": "address"
        }
      ],
      "name": "OwnershipTransferred",
      "type": "event"
    },
    {
      "anonymous": false,
      "inputs": [
        {
          "indexed": false,
          "internalType": "address",
          "name": "account",
          "type": "address"
        }
      ],
      "name": "Paused",
      "type": "event"
    },
    {
      "anonymous": false,
      "inputs": [
        {
          "indexed": false,
          "internalType": "bool",
          "name": "_isTradingAllowed",
          "type": "bool"
        }
      ],
      "name": "TradingStatus",
      "type": "event"
    },
    {
      "anonymous": false,
      "inputs": [
        {
          "indexed": false,
          "internalType": "address",
          "name": "account",
          "type": "address"
        }
      ],
      "name": "Unpaused",
      "type": "event"
    },
    {
      "inputs": [],
      "name": "PERCENTS_DIVIDER",
      "outputs": [
        {
          "internalType": "uint256",
          "name": "",
          "type": "uint256"
        }
      ],
      "stateMutability": "view",
      "type": "function"
    },
    {
      "inputs": [
        {
          "internalType": "uint256",
          "name": "id",
          "type": "uint256"
        },
        {
          "internalType": "uint256",
          "name": "minPrice",
          "type": "uint256"
        }
      ],
      "name": "acceptBid",
      "outputs": [],
      "stateMutability": "nonpayable",
      "type": "function"
    },
    {
      "inputs": [],
      "name": "adminPending",
      "outputs": [
        {
          "internalType": "uint256",
          "name": "",
          "type": "uint256"
        }
      ],
      "stateMutability": "view",
      "type": "function"
    },
    {
      "inputs": [],
      "name": "adminPercent",
      "outputs": [
        {
          "internalType": "uint256",
          "name": "",
          "type": "uint256"
        }
      ],
      "stateMutability": "view",
      "type": "function"
    },
    {
      "inputs": [],
      "name": "allowTrading",
      "outputs": [
        {
          "internalType": "bool",
          "name": "",
          "type": "bool"
        }
      ],
      "stateMutability": "view",
      "type": "function"
    },
    {
      "inputs": [
        {
          "internalType": "uint256",
          "name": "",
          "type": "uint256"
        }
      ],
      "name": "bids",
      "outputs": [
        {
          "internalType": "uint256",
          "name": "id",
          "type": "uint256"
        },
        {
          "internalType": "address",
          "name": "bidder",
          "type": "address"
        },
        {
          "internalType": "uint256",
          "name": "value",
          "type": "uint256"
        }
      ],
      "stateMutability": "view",
      "type": "function"
    },
    {
      "inputs": [
        {
          "internalType": "uint256",
          "name": "id",
          "type": "uint256"
        }
      ],
      "name": "buy",
      "outputs": [],
      "stateMutability": "payable",
      "type": "function"
    },
    {
      "inputs": [
        {
          "internalType": "uint256",
          "name": "id",
          "type": "uint256"
        }
      ],
      "name": "cancelForSale",
      "outputs": [],
      "stateMutability": "nonpayable",
      "type": "function"
    },
    {
      "inputs": [],
      "name": "mlAdmin",
      "outputs": [
        {
          "internalType": "address",
          "name": "",
          "type": "address"
        }
      ],
      "stateMutability": "view",
      "type": "function"
    },
    {
      "inputs": [],
      "name": "mlifeAddress",
      "outputs": [
        {
          "internalType": "address",
          "name": "",
          "type": "address"
        }
      ],
      "stateMutability": "view",
      "type": "function"
    },
    {
      "inputs": [
        {
          "internalType": "uint256",
          "name": "id",
          "type": "uint256"
        },
        {
          "internalType": "uint256",
          "name": "minSalePrice",
          "type": "uint256"
        }
      ],
      "name": "offerForSale",
      "outputs": [],
      "stateMutability": "nonpayable",
      "type": "function"
    },
    {
      "inputs": [
        {
          "internalType": "uint256",
          "name": "id",
          "type": "uint256"
        },
        {
          "internalType": "uint256",
          "name": "minSalePrice",
          "type": "uint256"
        },
        {
          "internalType": "address",
          "name": "toAddress",
          "type": "address"
        }
      ],
      "name": "offerForSaleToAddress",
      "outputs": [],
      "stateMutability": "nonpayable",
      "type": "function"
    },
    {
      "inputs": [
        {
          "internalType": "uint256",
          "name": "",
          "type": "uint256"
        }
      ],
      "name": "offers",
      "outputs": [
        {
          "internalType": "bool",
          "name": "isForSale",
          "type": "bool"
        },
        {
          "internalType": "uint256",
          "name": "id",
          "type": "uint256"
        },
        {
          "internalType": "address",
          "name": "seller",
          "type": "address"
        },
        {
          "internalType": "uint256",
          "name": "minValue",
          "type": "uint256"
        },
        {
          "internalType": "address",
          "name": "onlySellTo",
          "type": "address"
        }
      ],
      "stateMutability": "view",
      "type": "function"
    },
    {
      "inputs": [],
      "name": "owner",
      "outputs": [
        {
          "internalType": "address",
          "name": "",
          "type": "address"
        }
      ],
      "stateMutability": "view",
      "type": "function"
    },
    {
      "inputs": [],
      "name": "pause",
      "outputs": [],
      "stateMutability": "nonpayable",
      "type": "function"
    },
    {
      "inputs": [],
      "name": "paused",
      "outputs": [
        {
          "internalType": "bool",
          "name": "",
          "type": "bool"
        }
      ],
      "stateMutability": "view",
      "type": "function"
    },
    {
      "inputs": [
        {
          "internalType": "uint256",
          "name": "id",
          "type": "uint256"
        }
      ],
      "name": "placeBid",
      "outputs": [],
      "stateMutability": "payable",
      "type": "function"
    },
    {
      "inputs": [],
      "name": "renounceOwnership",
      "outputs": [],
      "stateMutability": "nonpayable",
      "type": "function"
    },
    {
      "inputs": [
        {
          "internalType": "uint256",
          "name": "_percent",
          "type": "uint256"
        }
      ],
      "name": "setAdminPercent",
      "outputs": [],
      "stateMutability": "nonpayable",
      "type": "function"
    },
    {
      "inputs": [
        {
          "internalType": "address",
          "name": "newAdminAddress",
          "type": "address"
        }
      ],
      "name": "setMLAdmin",
      "outputs": [],
      "stateMutability": "nonpayable",
      "type": "function"
    },
    {
      "inputs": [
        {
          "internalType": "address",
          "name": "newAddress",
          "type": "address"
        }
      ],
      "name": "setNftContract",
      "outputs": [],
      "stateMutability": "nonpayable",
      "type": "function"
    },
    {
      "inputs": [
        {
          "internalType": "bool",
          "name": "_isTradingAllowed",
          "type": "bool"
        }
      ],
      "name": "setTrading",
      "outputs": [],
      "stateMutability": "nonpayable",
      "type": "function"
    },
    {
      "inputs": [
        {
          "internalType": "address",
          "name": "newOwner",
          "type": "address"
        }
      ],
      "name": "transferOwnership",
      "outputs": [],
      "stateMutability": "nonpayable",
      "type": "function"
    },
    {
      "inputs": [],
      "name": "unpause",
      "outputs": [],
      "stateMutability": "nonpayable",
      "type": "function"
    },
    {
      "inputs": [],
      "name": "withdraw",
      "outputs": [],
      "stateMutability": "nonpayable",
      "type": "function"
    },
    {
      "inputs": [
        {
          "internalType": "uint256",
          "name": "id",
          "type": "uint256"
        }
      ],
      "name": "withdrawBid",
      "outputs": [],
      "stateMutability": "nonpayable",
      "type": "function"
    },
    {
      "stateMutability": "payable",
      "type": "receive"
    }
  ],
  "bytecode": "0x60806040526001600260146101000a81548160ff02191690831515021790555060c86004553480156200003157600080fd5b5060016000819055506000600160006101000a81548160ff0219169083151502179055506200007562000069620000bc60201b60201c565b620000c460201b60201c565b33600260006101000a81548173ffffffffffffffffffffffffffffffffffffffff021916908373ffffffffffffffffffffffffffffffffffffffff16021790555062000187565b600033905090565b600060018054906101000a900473ffffffffffffffffffffffffffffffffffffffff169050816001806101000a81548173ffffffffffffffffffffffffffffffffffffffff021916908373ffffffffffffffffffffffffffffffffffffffff1602179055508173ffffffffffffffffffffffffffffffffffffffff168173ffffffffffffffffffffffffffffffffffffffff167f8be0079c531659141344cd1fd0a4f28419497f9722a3daafe3b4186f6b6457e060405160405180910390a35050565b61544e80620001976000396000f3fe6080604052600436106101855760003560e01c8063715018a6116100d15780638f70ccf71161008a5780639979ef45116100645780639979ef451461050b578063c0dab51614610527578063d96a094a14610552578063f2fde38b1461056e5761018c565b80638f70ccf71461048e578063968513e8146104b757806396bb4223146104e05761018c565b8063715018a6146103a257806377386df3146103b95780638456cb59146103e25780638a72ea6a146103f95780638d6a4d8c1461043a5780638da5cb5b146104635761018c565b80632e5b4c431161013e5780634423c5f1116101185780634423c5f1146102e45780634e4f85581461032357806352f5ad771461034e5780635c975abb146103775761018c565b80632e5b4c431461028b5780633ccfd60b146102b65780633f4ba83a146102cd5761018c565b806301c234a81461019157806302e9d5e4146101bc5780630eaaf4c8146101e557806317076f601461020e57806318cc4ebc14610239578063255e1b27146102625761018c565b3661018c57005b600080fd5b34801561019d57600080fd5b506101a6610597565b6040516101b391906144f2565b60405180910390f35b3480156101c857600080fd5b506101e360048036038101906101de919061453e565b61059d565b005b3480156101f157600080fd5b5061020c6004803603810190610207919061457e565b611144565b005b34801561021a57600080fd5b506102236116c2565b60405161023091906145ec565b60405180910390f35b34801561024557600080fd5b50610260600480360381019061025b9190614633565b6116e8565b005b34801561026e57600080fd5b506102896004803603810190610284919061457e565b611b5a565b005b34801561029757600080fd5b506102a0611dc5565b6040516102ad91906146a1565b60405180910390f35b3480156102c257600080fd5b506102cb611dd8565b005b3480156102d957600080fd5b506102e2611e51565b005b3480156102f057600080fd5b5061030b6004803603810190610306919061457e565b611e6b565b60405161031a939291906146bc565b60405180910390f35b34801561032f57600080fd5b50610338611eb5565b60405161034591906144f2565b60405180910390f35b34801561035a57600080fd5b50610375600480360381019061037091906146f3565b611ebb565b005b34801561038357600080fd5b5061038c611f76565b60405161039991906146a1565b60405180910390f35b3480156103ae57600080fd5b506103b7611f8d565b005b3480156103c557600080fd5b506103e060048036038101906103db919061453e565b611fa1565b005b3480156103ee57600080fd5b506103f7612465565b005b34801561040557600080fd5b50610420600480360381019061041b919061457e565b61247f565b604051610431959493929190614720565b60405180910390f35b34801561044657600080fd5b50610461600480360381019061045c91906146f3565b612502565b005b34801561046f57600080fd5b5061047861254e565b60405161048591906145ec565b60405180910390f35b34801561049a57600080fd5b506104b560048036038101906104b0919061479f565b612576565b005b3480156104c357600080fd5b506104de60048036038101906104d9919061457e565b6125d2565b005b3480156104ec57600080fd5b506104f5612628565b60405161050291906145ec565b60405180910390f35b6105256004803603810190610520919061457e565b612652565b005b34801561053357600080fd5b5061053c612e71565b60405161054991906144f2565b60405180910390f35b61056c6004803603810190610567919061457e565b612e77565b005b34801561057a57600080fd5b50610595600480360381019061059091906146f3565b6140b3565b005b61271081565b6105a5614136565b6002600054036105ea576040517f08c379a00000000000000000000000000000000000000000000000000000000081526004016105e190614829565b60405180910390fd5b600260008190555060001515600260149054906101000a900460ff16151503610b6857600260009054906101000a900473ffffffffffffffffffffffffffffffffffffffff1673ffffffffffffffffffffffffffffffffffffffff163373ffffffffffffffffffffffffffffffffffffffff161461069d576040517f08c379a0000000000000000000000000000000000000000000000000000000008152600401610694906148bb565b60405180910390fd5b6000339050600060076000858152602001908152602001600020604051806060016040529081600082015481526020016001820160009054906101000a900473ffffffffffffffffffffffffffffffffffffffff1673ffffffffffffffffffffffffffffffffffffffff1673ffffffffffffffffffffffffffffffffffffffff16815260200160028201548152505090506000816040015190506000810361077a576040517f08c379a000000000000000000000000000000000000000000000000000000000815260040161077190614927565b60405180910390fd5b838110156107bd576040517f08c379a00000000000000000000000000000000000000000000000000000000081526004016107b490614993565b60405180910390fd5b6000826020015190508073ffffffffffffffffffffffffffffffffffffffff168473ffffffffffffffffffffffffffffffffffffffff1603610834576040517f08c379a000000000000000000000000000000000000000000000000000000000815260040161082b906149ff565b60405180910390fd5b6040518060a001604052806000151581526020018781526020018273ffffffffffffffffffffffffffffffffffffffff16815260200160008152602001600073ffffffffffffffffffffffffffffffffffffffff168152506006600088815260200190815260200160002060008201518160000160006101000a81548160ff0219169083151502179055506020820151816001015560408201518160020160006101000a81548173ffffffffffffffffffffffffffffffffffffffff021916908373ffffffffffffffffffffffffffffffffffffffff1602179055506060820151816003015560808201518160040160006101000a81548173ffffffffffffffffffffffffffffffffffffffff021916908373ffffffffffffffffffffffffffffffffffffffff1602179055509050506040518060600160405280878152602001600073ffffffffffffffffffffffffffffffffffffffff1681526020016000815250600760008881526020019081526020016000206000820151816000015560208201518160010160006101000a81548173ffffffffffffffffffffffffffffffffffffffff021916908373ffffffffffffffffffffffffffffffffffffffff16021790555060408201518160020155905050600360009054906101000a900473ffffffffffffffffffffffffffffffffffffffff1673ffffffffffffffffffffffffffffffffffffffff166342842e0e3383896040518463ffffffff1660e01b8152600401610a6793929190614a1f565b600060405180830381600087803b158015610a8157600080fd5b505af1158015610a95573d6000803e3d6000fd5b505050506000806004541115610adc5761271060045484610ab69190614a85565b610ac09190614b0e565b90508060056000828254610ad49190614b3f565b925050819055505b610af1858285610aec9190614b95565b614180565b8173ffffffffffffffffffffffffffffffffffffffff168573ffffffffffffffffffffffffffffffffffffffff16887f2f2a63eb296ab08f60230cc7091859535031769ba942e64e0386588ef5a3872387604001516000604051610b56929190614bc9565b60405180910390a45050505050611138565b600360009054906101000a900473ffffffffffffffffffffffffffffffffffffffff1673ffffffffffffffffffffffffffffffffffffffff16636352211e836040518263ffffffff1660e01b8152600401610bc391906144f2565b602060405180830381865afa158015610be0573d6000803e3d6000fd5b505050506040513d601f19601f82011682018060405250810190610c049190614c07565b73ffffffffffffffffffffffffffffffffffffffff163373ffffffffffffffffffffffffffffffffffffffff1614610c71576040517f08c379a0000000000000000000000000000000000000000000000000000000008152600401610c6890614c80565b60405180910390fd5b6000339050600060076000858152602001908152602001600020604051806060016040529081600082015481526020016001820160009054906101000a900473ffffffffffffffffffffffffffffffffffffffff1673ffffffffffffffffffffffffffffffffffffffff1673ffffffffffffffffffffffffffffffffffffffff168152602001600282015481525050905060008160400151905060008103610d4e576040517f08c379a0000000000000000000000000000000000000000000000000000000008152600401610d4590614927565b60405180910390fd5b83811015610d91576040517f08c379a0000000000000000000000000000000000000000000000000000000008152600401610d8890614993565b60405180910390fd5b6000826020015190508073ffffffffffffffffffffffffffffffffffffffff168473ffffffffffffffffffffffffffffffffffffffff1603610e08576040517f08c379a0000000000000000000000000000000000000000000000000000000008152600401610dff906149ff565b60405180910390fd5b6040518060a001604052806000151581526020018781526020018273ffffffffffffffffffffffffffffffffffffffff16815260200160008152602001600073ffffffffffffffffffffffffffffffffffffffff168152506006600088815260200190815260200160002060008201518160000160006101000a81548160ff0219169083151502179055506020820151816001015560408201518160020160006101000a81548173ffffffffffffffffffffffffffffffffffffffff021916908373ffffffffffffffffffffffffffffffffffffffff1602179055506060820151816003015560808201518160040160006101000a81548173ffffffffffffffffffffffffffffffffffffffff021916908373ffffffffffffffffffffffffffffffffffffffff1602179055509050506040518060600160405280878152602001600073ffffffffffffffffffffffffffffffffffffffff1681526020016000815250600760008881526020019081526020016000206000820151816000015560208201518160010160006101000a81548173ffffffffffffffffffffffffffffffffffffffff021916908373ffffffffffffffffffffffffffffffffffffffff16021790555060408201518160020155905050600360009054906101000a900473ffffffffffffffffffffffffffffffffffffffff1673ffffffffffffffffffffffffffffffffffffffff166342842e0e3383896040518463ffffffff1660e01b815260040161103b93929190614a1f565b600060405180830381600087803b15801561105557600080fd5b505af1158015611069573d6000803e3d6000fd5b5050505060008060045411156110b0576127106004548461108a9190614a85565b6110949190614b0e565b905080600560008282546110a89190614b3f565b925050819055505b6110c58582856110c09190614b95565b614180565b8173ffffffffffffffffffffffffffffffffffffffff168573ffffffffffffffffffffffffffffffffffffffff16887f2f2a63eb296ab08f60230cc7091859535031769ba942e64e0386588ef5a387238760400151600060405161112a929190614bc9565b60405180910390a450505050505b60016000819055505050565b600260005403611189576040517f08c379a000000000000000000000000000000000000000000000000000000000815260040161118090614829565b60405180910390fd5b600260008190555060001515600260149054906101000a900460ff161515036113be57600260009054906101000a900473ffffffffffffffffffffffffffffffffffffffff1673ffffffffffffffffffffffffffffffffffffffff163373ffffffffffffffffffffffffffffffffffffffff161461123c576040517f08c379a0000000000000000000000000000000000000000000000000000000008152600401611233906148bb565b60405180910390fd5b600060076000838152602001908152602001600020604051806060016040529081600082015481526020016001820160009054906101000a900473ffffffffffffffffffffffffffffffffffffffff1673ffffffffffffffffffffffffffffffffffffffff1673ffffffffffffffffffffffffffffffffffffffff1681526020016002820154815250509050600081604001519050827f6415d97b7a9df23899954c482911f3fc2cb8afff4b6b15e788859e1307de227a8260405161130191906144f2565b60405180910390a26040518060600160405280848152602001600073ffffffffffffffffffffffffffffffffffffffff1681526020016000815250600760008581526020019081526020016000206000820151816000015560208201518160010160006101000a81548173ffffffffffffffffffffffffffffffffffffffff021916908373ffffffffffffffffffffffffffffffffffffffff160217905550604082015181600201559050506113b73382614180565b50506116b7565b600360009054906101000a900473ffffffffffffffffffffffffffffffffffffffff1673ffffffffffffffffffffffffffffffffffffffff16636352211e826040518263ffffffff1660e01b815260040161141991906144f2565b602060405180830381865afa158015611436573d6000803e3d6000fd5b505050506040513d601f19601f8201168201806040525081019061145a9190614c07565b73ffffffffffffffffffffffffffffffffffffffff163373ffffffffffffffffffffffffffffffffffffffff16146114c7576040517f08c379a00000000000000000000000000000000000000000000000000000000081526004016114be90614c80565b60405180910390fd5b600060076000838152602001908152602001600020604051806060016040529081600082015481526020016001820160009054906101000a900473ffffffffffffffffffffffffffffffffffffffff1673ffffffffffffffffffffffffffffffffffffffff1673ffffffffffffffffffffffffffffffffffffffff16815260200160028201548152505090503373ffffffffffffffffffffffffffffffffffffffff16816020015173ffffffffffffffffffffffffffffffffffffffff16146115c5576040517f08c379a00000000000000000000000000000000000000000000000000000000081526004016115bc90614d12565b60405180910390fd5b600081604001519050827f6415d97b7a9df23899954c482911f3fc2cb8afff4b6b15e788859e1307de227a826040516115fe91906144f2565b60405180910390a26040518060600160405280848152602001600073ffffffffffffffffffffffffffffffffffffffff1681526020016000815250600760008581526020019081526020016000206000820151816000015560208201518160010160006101000a81548173ffffffffffffffffffffffffffffffffffffffff021916908373ffffffffffffffffffffffffffffffffffffffff160217905550604082015181600201559050506116b43382614180565b50505b600160008190555050565b600260009054906101000a900473ffffffffffffffffffffffffffffffffffffffff1681565b6116f0614136565b60001515600260149054906101000a900460ff161515036118ce57600260009054906101000a900473ffffffffffffffffffffffffffffffffffffffff1673ffffffffffffffffffffffffffffffffffffffff163373ffffffffffffffffffffffffffffffffffffffff161461179b576040517f08c379a0000000000000000000000000000000000000000000000000000000008152600401611792906148bb565b60405180910390fd5b6040518060a001604052806001151581526020018481526020013373ffffffffffffffffffffffffffffffffffffffff1681526020018381526020018273ffffffffffffffffffffffffffffffffffffffff168152506006600085815260200190815260200160002060008201518160000160006101000a81548160ff0219169083151502179055506020820151816001015560408201518160020160006101000a81548173ffffffffffffffffffffffffffffffffffffffff021916908373ffffffffffffffffffffffffffffffffffffffff1602179055506060820151816003015560808201518160040160006101000a81548173ffffffffffffffffffffffffffffffffffffffff021916908373ffffffffffffffffffffffffffffffffffffffff160217905550905050611b55565b600360009054906101000a900473ffffffffffffffffffffffffffffffffffffffff1673ffffffffffffffffffffffffffffffffffffffff16636352211e846040518263ffffffff1660e01b815260040161192991906144f2565b602060405180830381865afa158015611946573d6000803e3d6000fd5b505050506040513d601f19601f8201168201806040525081019061196a9190614c07565b73ffffffffffffffffffffffffffffffffffffffff163373ffffffffffffffffffffffffffffffffffffffff16146119d7576040517f08c379a00000000000000000000000000000000000000000000000000000000081526004016119ce90614c80565b60405180910390fd5b6040518060a001604052806001151581526020018481526020013373ffffffffffffffffffffffffffffffffffffffff1681526020018381526020018273ffffffffffffffffffffffffffffffffffffffff168152506006600085815260200190815260200160002060008201518160000160006101000a81548160ff0219169083151502179055506020820151816001015560408201518160020160006101000a81548173ffffffffffffffffffffffffffffffffffffffff021916908373ffffffffffffffffffffffffffffffffffffffff1602179055506060820151816003015560808201518160040160006101000a81548173ffffffffffffffffffffffffffffffffffffffff021916908373ffffffffffffffffffffffffffffffffffffffff1602179055509050508073ffffffffffffffffffffffffffffffffffffffff16837f1ab3864560512bcd762f59576711bc5e90d3ef93e9253b43cd6be191b4a5814e84604051611b4c91906144f2565b60405180910390a35b505050565b80600360009054906101000a900473ffffffffffffffffffffffffffffffffffffffff1673ffffffffffffffffffffffffffffffffffffffff16636352211e826040518263ffffffff1660e01b8152600401611bb691906144f2565b602060405180830381865afa158015611bd3573d6000803e3d6000fd5b505050506040513d601f19601f82011682018060405250810190611bf79190614c07565b73ffffffffffffffffffffffffffffffffffffffff163373ffffffffffffffffffffffffffffffffffffffff1614611c64576040517f08c379a0000000000000000000000000000000000000000000000000000000008152600401611c5b90614c80565b60405180910390fd5b6040518060a001604052806000151581526020018381526020013373ffffffffffffffffffffffffffffffffffffffff16815260200160008152602001600073ffffffffffffffffffffffffffffffffffffffff168152506006600084815260200190815260200160002060008201518160000160006101000a81548160ff0219169083151502179055506020820151816001015560408201518160020160006101000a81548173ffffffffffffffffffffffffffffffffffffffff021916908373ffffffffffffffffffffffffffffffffffffffff1602179055506060820151816003015560808201518160040160006101000a81548173ffffffffffffffffffffffffffffffffffffffff021916908373ffffffffffffffffffffffffffffffffffffffff160217905550905050817fc41d93b8bfbf9fd7cf5bfe271fd649ab6a6fec0ea101c23b82a2a28eca2533a960405160405180910390a25050565b600260149054906101000a900460ff1681565b611de061418e565b600260005403611e25576040517f08c379a0000000000000000000000000000000000000000000000000000000008152600401611e1c90614829565b60405180910390fd5b6002600081905550600060055490506000600581905550611e463382614180565b506001600081905550565b611e5961420c565b611e6161418e565b611e69614255565b565b60076020528060005260406000206000915090508060000154908060010160009054906101000a900473ffffffffffffffffffffffffffffffffffffffff16908060020154905083565b60055481565b611ec361418e565b600073ffffffffffffffffffffffffffffffffffffffff168173ffffffffffffffffffffffffffffffffffffffff1603611f32576040517f08c379a0000000000000000000000000000000000000000000000000000000008152600401611f2990614d7e565b60405180910390fd5b80600360006101000a81548173ffffffffffffffffffffffffffffffffffffffff021916908373ffffffffffffffffffffffffffffffffffffffff16021790555050565b6000600160009054906101000a900460ff16905090565b611f9561418e565b611f9f60006142b8565b565b611fa9614136565b60001515600260149054906101000a900460ff161515036121d857600260009054906101000a900473ffffffffffffffffffffffffffffffffffffffff1673ffffffffffffffffffffffffffffffffffffffff163373ffffffffffffffffffffffffffffffffffffffff1614612054576040517f08c379a000000000000000000000000000000000000000000000000000000000815260040161204b906148bb565b60405180910390fd5b6040518060a001604052806001151581526020018381526020013373ffffffffffffffffffffffffffffffffffffffff168152602001828152602001600073ffffffffffffffffffffffffffffffffffffffff168152506006600084815260200190815260200160002060008201518160000160006101000a81548160ff0219169083151502179055506020820151816001015560408201518160020160006101000a81548173ffffffffffffffffffffffffffffffffffffffff021916908373ffffffffffffffffffffffffffffffffffffffff1602179055506060820151816003015560808201518160040160006101000a81548173ffffffffffffffffffffffffffffffffffffffff021916908373ffffffffffffffffffffffffffffffffffffffff160217905550905050600073ffffffffffffffffffffffffffffffffffffffff16827f1ab3864560512bcd762f59576711bc5e90d3ef93e9253b43cd6be191b4a5814e836040516121cb91906144f2565b60405180910390a3612461565b600360009054906101000a900473ffffffffffffffffffffffffffffffffffffffff1673ffffffffffffffffffffffffffffffffffffffff16636352211e836040518263ffffffff1660e01b815260040161223391906144f2565b602060405180830381865afa158015612250573d6000803e3d6000fd5b505050506040513d601f19601f820116820180604052508101906122749190614c07565b73ffffffffffffffffffffffffffffffffffffffff163373ffffffffffffffffffffffffffffffffffffffff16146122e1576040517f08c379a00000000000000000000000000000000000000000000000000000000081526004016122d890614c80565b60405180910390fd5b6040518060a001604052806001151581526020018381526020013373ffffffffffffffffffffffffffffffffffffffff168152602001828152602001600073ffffffffffffffffffffffffffffffffffffffff168152506006600084815260200190815260200160002060008201518160000160006101000a81548160ff0219169083151502179055506020820151816001015560408201518160020160006101000a81548173ffffffffffffffffffffffffffffffffffffffff021916908373ffffffffffffffffffffffffffffffffffffffff1602179055506060820151816003015560808201518160040160006101000a81548173ffffffffffffffffffffffffffffffffffffffff021916908373ffffffffffffffffffffffffffffffffffffffff160217905550905050600073ffffffffffffffffffffffffffffffffffffffff16827f1ab3864560512bcd762f59576711bc5e90d3ef93e9253b43cd6be191b4a5814e8360405161245891906144f2565b60405180910390a35b5050565b61246d614136565b61247561418e565b61247d61437b565b565b60066020528060005260406000206000915090508060000160009054906101000a900460ff16908060010154908060020160009054906101000a900473ffffffffffffffffffffffffffffffffffffffff16908060030154908060040160009054906101000a900473ffffffffffffffffffffffffffffffffffffffff16905085565b61250a61418e565b80600260006101000a81548173ffffffffffffffffffffffffffffffffffffffff021916908373ffffffffffffffffffffffffffffffffffffffff16021790555050565b600060018054906101000a900473ffffffffffffffffffffffffffffffffffffffff16905090565b61257e61418e565b80600260146101000a81548160ff0219169083151502179055507f6481faded63842e4c5bb4367bf33ac32b141cd941b0160d448a61af7a7361ff3816040516125c791906146a1565b60405180910390a150565b6125da61418e565b6101f4811061261e576040517f08c379a000000000000000000000000000000000000000000000000000000000815260040161261590614dea565b60405180910390fd5b8060048190555050565b6000600360009054906101000a900473ffffffffffffffffffffffffffffffffffffffff16905090565b61265a614136565b60026000540361269f576040517f08c379a000000000000000000000000000000000000000000000000000000000815260040161269690614829565b60405180910390fd5b600260008190555060001515600260149054906101000a900460ff161515036129d557600260009054906101000a900473ffffffffffffffffffffffffffffffffffffffff1673ffffffffffffffffffffffffffffffffffffffff163373ffffffffffffffffffffffffffffffffffffffff1614612752576040517f08c379a0000000000000000000000000000000000000000000000000000000008152600401612749906148bb565b60405180910390fd5b60003403612795576040517f08c379a000000000000000000000000000000000000000000000000000000000815260040161278c90614927565b60405180910390fd5b600060076000838152602001908152602001600020604051806060016040529081600082015481526020016001820160009054906101000a900473ffffffffffffffffffffffffffffffffffffffff1673ffffffffffffffffffffffffffffffffffffffff1673ffffffffffffffffffffffffffffffffffffffff168152602001600282015481525050905080604001513411612867576040517f08c379a000000000000000000000000000000000000000000000000000000000815260040161285e90614e56565b60405180910390fd5b6000816040015111156128de5761288681602001518260400151614180565b806020015173ffffffffffffffffffffffffffffffffffffffff16827f26ad9a48a900ea965adb7d7fd3f9552c907540683bac6687640cac5a933b9c6683604001516040516128d591906144f2565b60405180910390a35b60405180606001604052808381526020013373ffffffffffffffffffffffffffffffffffffffff16815260200134815250600760008481526020019081526020016000206000820151816000015560208201518160010160006101000a81548173ffffffffffffffffffffffffffffffffffffffff021916908373ffffffffffffffffffffffffffffffffffffffff160217905550604082015181600201559050503373ffffffffffffffffffffffffffffffffffffffff16827f9796f88ad49087bb03d61590c355e54df8c99ae841bdfcd3c93d43fa380314cc346040516129c791906144f2565b60405180910390a350612e66565b600360009054906101000a900473ffffffffffffffffffffffffffffffffffffffff1673ffffffffffffffffffffffffffffffffffffffff16636352211e826040518263ffffffff1660e01b8152600401612a3091906144f2565b602060405180830381865afa158015612a4d573d6000803e3d6000fd5b505050506040513d601f19601f82011682018060405250810190612a719190614c07565b73ffffffffffffffffffffffffffffffffffffffff163373ffffffffffffffffffffffffffffffffffffffff1614612ade576040517f08c379a0000000000000000000000000000000000000000000000000000000008152600401612ad590614c80565b60405180910390fd5b3373ffffffffffffffffffffffffffffffffffffffff16600360009054906101000a900473ffffffffffffffffffffffffffffffffffffffff1673ffffffffffffffffffffffffffffffffffffffff16636352211e836040518263ffffffff1660e01b8152600401612b5091906144f2565b602060405180830381865afa158015612b6d573d6000803e3d6000fd5b505050506040513d601f19601f82011682018060405250810190612b919190614c07565b73ffffffffffffffffffffffffffffffffffffffff1603612be7576040517f08c379a0000000000000000000000000000000000000000000000000000000008152600401612bde90614ec2565b60405180910390fd5b60003403612c2a576040517f08c379a0000000000000000000000000000000000000000000000000000000008152600401612c2190614927565b60405180910390fd5b600060076000838152602001908152602001600020604051806060016040529081600082015481526020016001820160009054906101000a900473ffffffffffffffffffffffffffffffffffffffff1673ffffffffffffffffffffffffffffffffffffffff1673ffffffffffffffffffffffffffffffffffffffff168152602001600282015481525050905080604001513411612cfc576040517f08c379a0000000000000000000000000000000000000000000000000000000008152600401612cf390614e56565b60405180910390fd5b600081604001511115612d7357612d1b81602001518260400151614180565b806020015173ffffffffffffffffffffffffffffffffffffffff16827f26ad9a48a900ea965adb7d7fd3f9552c907540683bac6687640cac5a933b9c668360400151604051612d6a91906144f2565b60405180910390a35b60405180606001604052808381526020013373ffffffffffffffffffffffffffffffffffffffff16815260200134815250600760008481526020019081526020016000206000820151816000015560208201518160010160006101000a81548173ffffffffffffffffffffffffffffffffffffffff021916908373ffffffffffffffffffffffffffffffffffffffff160217905550604082015181600201559050503373ffffffffffffffffffffffffffffffffffffffff16827f9796f88ad49087bb03d61590c355e54df8c99ae841bdfcd3c93d43fa380314cc34604051612e5c91906144f2565b60405180910390a3505b600160008190555050565b60045481565b612e7f614136565b600260005403612ec4576040517f08c379a0000000000000000000000000000000000000000000000000000000008152600401612ebb90614829565b60405180910390fd5b600260008190555060001515600260149054906101000a900460ff1615150361378d57600260009054906101000a900473ffffffffffffffffffffffffffffffffffffffff1673ffffffffffffffffffffffffffffffffffffffff163373ffffffffffffffffffffffffffffffffffffffff1614612f77576040517f08c379a0000000000000000000000000000000000000000000000000000000008152600401612f6e906148bb565b60405180910390fd5b6000600660008381526020019081526020016000206040518060a00160405290816000820160009054906101000a900460ff16151515158152602001600182015481526020016002820160009054906101000a900473ffffffffffffffffffffffffffffffffffffffff1673ffffffffffffffffffffffffffffffffffffffff1673ffffffffffffffffffffffffffffffffffffffff168152602001600382015481526020016004820160009054906101000a900473ffffffffffffffffffffffffffffffffffffffff1673ffffffffffffffffffffffffffffffffffffffff1673ffffffffffffffffffffffffffffffffffffffff16815250509050600034905081600001516130bd576040517f08c379a00000000000000000000000000000000000000000000000000000000081526004016130b490614f2e565b60405180910390fd5b600073ffffffffffffffffffffffffffffffffffffffff16826080015173ffffffffffffffffffffffffffffffffffffffff16148061312b57503373ffffffffffffffffffffffffffffffffffffffff16826080015173ffffffffffffffffffffffffffffffffffffffff16145b61316a576040517f08c379a000000000000000000000000000000000000000000000000000000000815260040161316190614f9a565b60405180910390fd5b816060015181146131b0576040517f08c379a00000000000000000000000000000000000000000000000000000000081526004016131a790615006565b60405180910390fd5b6000826040015190503373ffffffffffffffffffffffffffffffffffffffff168173ffffffffffffffffffffffffffffffffffffffff1603613227576040517f08c379a000000000000000000000000000000000000000000000000000000000815260040161321e90615072565b60405180910390fd5b600360009054906101000a900473ffffffffffffffffffffffffffffffffffffffff1673ffffffffffffffffffffffffffffffffffffffff16636352211e856040518263ffffffff1660e01b815260040161328291906144f2565b602060405180830381865afa15801561329f573d6000803e3d6000fd5b505050506040513d601f19601f820116820180604052508101906132c39190614c07565b73ffffffffffffffffffffffffffffffffffffffff168173ffffffffffffffffffffffffffffffffffffffff1614613330576040517f08c379a0000000000000000000000000000000000000000000000000000000008152600401613327906150de565b60405180910390fd5b6040518060a001604052806000151581526020018581526020013373ffffffffffffffffffffffffffffffffffffffff16815260200160008152602001600073ffffffffffffffffffffffffffffffffffffffff168152506006600086815260200190815260200160002060008201518160000160006101000a81548160ff0219169083151502179055506020820151816001015560408201518160020160006101000a81548173ffffffffffffffffffffffffffffffffffffffff021916908373ffffffffffffffffffffffffffffffffffffffff1602179055506060820151816003015560808201518160040160006101000a81548173ffffffffffffffffffffffffffffffffffffffff021916908373ffffffffffffffffffffffffffffffffffffffff160217905550905050600360009054906101000a900473ffffffffffffffffffffffffffffffffffffffff1673ffffffffffffffffffffffffffffffffffffffff166342842e0e8233876040518463ffffffff1660e01b81526004016134bf93929190614a1f565b600060405180830381600087803b1580156134d957600080fd5b505af11580156134ed573d6000803e3d6000fd5b505050506000806004541115613534576127106004548461350e9190614a85565b6135189190614b0e565b9050806005600082825461352c9190614b3f565b925050819055505b6135498282856135449190614b95565b614180565b3373ffffffffffffffffffffffffffffffffffffffff168273ffffffffffffffffffffffffffffffffffffffff16867f2f2a63eb296ab08f60230cc7091859535031769ba942e64e0386588ef5a387238660016040516135aa929190614bc9565b60405180910390a4600060076000878152602001908152602001600020604051806060016040529081600082015481526020016001820160009054906101000a900473ffffffffffffffffffffffffffffffffffffffff1673ffffffffffffffffffffffffffffffffffffffff1673ffffffffffffffffffffffffffffffffffffffff16815260200160028201548152505090503373ffffffffffffffffffffffffffffffffffffffff16816020015173ffffffffffffffffffffffffffffffffffffffff16036137835761368781602001518260400151614180565b806020015173ffffffffffffffffffffffffffffffffffffffff16867f26ad9a48a900ea965adb7d7fd3f9552c907540683bac6687640cac5a933b9c6683604001516040516136d691906144f2565b60405180910390a36040518060600160405280878152602001600073ffffffffffffffffffffffffffffffffffffffff1681526020016000815250600760008881526020019081526020016000206000820151816000015560208201518160010160006101000a81548173ffffffffffffffffffffffffffffffffffffffff021916908373ffffffffffffffffffffffffffffffffffffffff160217905550604082015181600201559050505b50505050506140a8565b600360009054906101000a900473ffffffffffffffffffffffffffffffffffffffff1673ffffffffffffffffffffffffffffffffffffffff16636352211e826040518263ffffffff1660e01b81526004016137e891906144f2565b602060405180830381865afa158015613805573d6000803e3d6000fd5b505050506040513d601f19601f820116820180604052508101906138299190614c07565b73ffffffffffffffffffffffffffffffffffffffff163373ffffffffffffffffffffffffffffffffffffffff1614613896576040517f08c379a000000000000000000000000000000000000000000000000000000000815260040161388d90614c80565b60405180910390fd5b6000600660008381526020019081526020016000206040518060a00160405290816000820160009054906101000a900460ff16151515158152602001600182015481526020016002820160009054906101000a900473ffffffffffffffffffffffffffffffffffffffff1673ffffffffffffffffffffffffffffffffffffffff1673ffffffffffffffffffffffffffffffffffffffff168152602001600382015481526020016004820160009054906101000a900473ffffffffffffffffffffffffffffffffffffffff1673ffffffffffffffffffffffffffffffffffffffff1673ffffffffffffffffffffffffffffffffffffffff16815250509050600034905081600001516139dc576040517f08c379a00000000000000000000000000000000000000000000000000000000081526004016139d390614f2e565b60405180910390fd5b600073ffffffffffffffffffffffffffffffffffffffff16826080015173ffffffffffffffffffffffffffffffffffffffff161480613a4a57503373ffffffffffffffffffffffffffffffffffffffff16826080015173ffffffffffffffffffffffffffffffffffffffff16145b613a89576040517f08c379a0000000000000000000000000000000000000000000000000000000008152600401613a8090614f9a565b60405180910390fd5b81606001518114613acf576040517f08c379a0000000000000000000000000000000000000000000000000000000008152600401613ac690615006565b60405180910390fd5b6000826040015190503373ffffffffffffffffffffffffffffffffffffffff168173ffffffffffffffffffffffffffffffffffffffff1603613b46576040517f08c379a0000000000000000000000000000000000000000000000000000000008152600401613b3d90615072565b60405180910390fd5b600360009054906101000a900473ffffffffffffffffffffffffffffffffffffffff1673ffffffffffffffffffffffffffffffffffffffff16636352211e856040518263ffffffff1660e01b8152600401613ba191906144f2565b602060405180830381865afa158015613bbe573d6000803e3d6000fd5b505050506040513d601f19601f82011682018060405250810190613be29190614c07565b73ffffffffffffffffffffffffffffffffffffffff168173ffffffffffffffffffffffffffffffffffffffff1614613c4f576040517f08c379a0000000000000000000000000000000000000000000000000000000008152600401613c46906150de565b60405180910390fd5b6040518060a001604052806000151581526020018581526020013373ffffffffffffffffffffffffffffffffffffffff16815260200160008152602001600073ffffffffffffffffffffffffffffffffffffffff168152506006600086815260200190815260200160002060008201518160000160006101000a81548160ff0219169083151502179055506020820151816001015560408201518160020160006101000a81548173ffffffffffffffffffffffffffffffffffffffff021916908373ffffffffffffffffffffffffffffffffffffffff1602179055506060820151816003015560808201518160040160006101000a81548173ffffffffffffffffffffffffffffffffffffffff021916908373ffffffffffffffffffffffffffffffffffffffff160217905550905050600360009054906101000a900473ffffffffffffffffffffffffffffffffffffffff1673ffffffffffffffffffffffffffffffffffffffff166342842e0e8233876040518463ffffffff1660e01b8152600401613dde93929190614a1f565b600060405180830381600087803b158015613df857600080fd5b505af1158015613e0c573d6000803e3d6000fd5b505050506000806004541115613e535761271060045484613e2d9190614a85565b613e379190614b0e565b90508060056000828254613e4b9190614b3f565b925050819055505b613e68828285613e639190614b95565b614180565b3373ffffffffffffffffffffffffffffffffffffffff168273ffffffffffffffffffffffffffffffffffffffff16867f2f2a63eb296ab08f60230cc7091859535031769ba942e64e0386588ef5a38723866001604051613ec9929190614bc9565b60405180910390a4600060076000878152602001908152602001600020604051806060016040529081600082015481526020016001820160009054906101000a900473ffffffffffffffffffffffffffffffffffffffff1673ffffffffffffffffffffffffffffffffffffffff1673ffffffffffffffffffffffffffffffffffffffff16815260200160028201548152505090503373ffffffffffffffffffffffffffffffffffffffff16816020015173ffffffffffffffffffffffffffffffffffffffff16036140a257613fa681602001518260400151614180565b806020015173ffffffffffffffffffffffffffffffffffffffff16867f26ad9a48a900ea965adb7d7fd3f9552c907540683bac6687640cac5a933b9c668360400151604051613ff591906144f2565b60405180910390a36040518060600160405280878152602001600073ffffffffffffffffffffffffffffffffffffffff1681526020016000815250600760008881526020019081526020016000206000820151816000015560208201518160010160006101000a81548173ffffffffffffffffffffffffffffffffffffffff021916908373ffffffffffffffffffffffffffffffffffffffff160217905550604082015181600201559050505b50505050505b600160008190555050565b6140bb61418e565b600073ffffffffffffffffffffffffffffffffffffffff168173ffffffffffffffffffffffffffffffffffffffff160361412a576040517f08c379a000000000000000000000000000000000000000000000000000000000815260040161412190615170565b60405180910390fd5b614133816142b8565b50565b61413e611f76565b1561417e576040517f08c379a0000000000000000000000000000000000000000000000000000000008152600401614175906151dc565b60405180910390fd5b565b61418a82826143dd565b5050565b6141966144d1565b73ffffffffffffffffffffffffffffffffffffffff166141b461254e565b73ffffffffffffffffffffffffffffffffffffffff161461420a576040517f08c379a000000000000000000000000000000000000000000000000000000000815260040161420190615248565b60405180910390fd5b565b614214611f76565b614253576040517f08c379a000000000000000000000000000000000000000000000000000000000815260040161424a906152b4565b60405180910390fd5b565b61425d61420c565b6000600160006101000a81548160ff0219169083151502179055507f5db9ee0a495bf2e6ff9c91a7834c1ba4fdd244a5e8aa4e537bd38aeae4b073aa6142a16144d1565b6040516142ae91906145ec565b60405180910390a1565b600060018054906101000a900473ffffffffffffffffffffffffffffffffffffffff169050816001806101000a81548173ffffffffffffffffffffffffffffffffffffffff021916908373ffffffffffffffffffffffffffffffffffffffff1602179055508173ffffffffffffffffffffffffffffffffffffffff168173ffffffffffffffffffffffffffffffffffffffff167f8be0079c531659141344cd1fd0a4f28419497f9722a3daafe3b4186f6b6457e060405160405180910390a35050565b614383614136565b60018060006101000a81548160ff0219169083151502179055507f62e78cea01bee320cd4e420270b5ea74000d11b0c9f74754ebdbfc544b05a2586143c66144d1565b6040516143d391906145ec565b60405180910390a1565b80471015614420576040517f08c379a000000000000000000000000000000000000000000000000000000000815260040161441790615320565b60405180910390fd5b60008273ffffffffffffffffffffffffffffffffffffffff168260405161444690615371565b60006040518083038185875af1925050503d8060008114614483576040519150601f19603f3d011682016040523d82523d6000602084013e614488565b606091505b50509050806144cc576040517f08c379a00000000000000000000000000000000000000000000000000000000081526004016144c3906153f8565b60405180910390fd5b505050565b600033905090565b6000819050919050565b6144ec816144d9565b82525050565b600060208201905061450760008301846144e3565b92915050565b600080fd5b61451b816144d9565b811461452657600080fd5b50565b60008135905061453881614512565b92915050565b600080604083850312156145555761455461450d565b5b600061456385828601614529565b925050602061457485828601614529565b9150509250929050565b6000602082840312156145945761459361450d565b5b60006145a284828501614529565b91505092915050565b600073ffffffffffffffffffffffffffffffffffffffff82169050919050565b60006145d6826145ab565b9050919050565b6145e6816145cb565b82525050565b600060208201905061460160008301846145dd565b92915050565b614610816145cb565b811461461b57600080fd5b50565b60008135905061462d81614607565b92915050565b60008060006060848603121561464c5761464b61450d565b5b600061465a86828701614529565b935050602061466b86828701614529565b925050604061467c8682870161461e565b9150509250925092565b60008115159050919050565b61469b81614686565b82525050565b60006020820190506146b66000830184614692565b92915050565b60006060820190506146d160008301866144e3565b6146de60208301856145dd565b6146eb60408301846144e3565b949350505050565b6000602082840312156147095761470861450d565b5b60006147178482850161461e565b91505092915050565b600060a0820190506147356000830188614692565b61474260208301876144e3565b61474f60408301866145dd565b61475c60608301856144e3565b61476960808301846145dd565b9695505050505050565b61477c81614686565b811461478757600080fd5b50565b60008135905061479981614773565b92915050565b6000602082840312156147b5576147b461450d565b5b60006147c38482850161478a565b91505092915050565b600082825260208201905092915050565b7f5265656e7472616e637947756172643a207265656e7472616e742063616c6c00600082015250565b6000614813601f836147cc565b915061481e826147dd565b602082019050919050565b6000602082019050818103600083015261484281614806565b9050919050565b7f54726164696e672069732064697361626c65642061742074686973206d6f6d6560008201527f6e742c206f6e6c792041646d696e2063616e2074726164650000000000000000602082015250565b60006148a56038836147cc565b91506148b082614849565b604082019050919050565b600060208201905081810360008301526148d481614898565b9050919050565b7f63616e6e6f7420656e74657220626964206f66207a65726f0000000000000000600082015250565b60006149116018836147cc565b915061491c826148db565b602082019050919050565b6000602082019050818103600083015261494081614904565b9050919050565b7f7468652062696420697320746f6f206c6f770000000000000000000000000000600082015250565b600061497d6012836147cc565b915061498882614947565b602082019050919050565b600060208201905081810360008301526149ac81614970565b9050919050565b7f796f7520616c7265616479206f776e207468697320746f6b656e000000000000600082015250565b60006149e9601a836147cc565b91506149f4826149b3565b602082019050919050565b60006020820190508181036000830152614a18816149dc565b9050919050565b6000606082019050614a3460008301866145dd565b614a4160208301856145dd565b614a4e60408301846144e3565b949350505050565b7f4e487b7100000000000000000000000000000000000000000000000000000000600052601160045260246000fd5b6000614a90826144d9565b9150614a9b836144d9565b9250817fffffffffffffffffffffffffffffffffffffffffffffffffffffffffffffffff0483118215151615614ad457614ad3614a56565b5b828202905092915050565b7f4e487b7100000000000000000000000000000000000000000000000000000000600052601260045260246000fd5b6000614b19826144d9565b9150614b24836144d9565b925082614b3457614b33614adf565b5b828204905092915050565b6000614b4a826144d9565b9150614b55836144d9565b9250827fffffffffffffffffffffffffffffffffffffffffffffffffffffffffffffffff03821115614b8a57614b89614a56565b5b828201905092915050565b6000614ba0826144d9565b9150614bab836144d9565b925082821015614bbe57614bbd614a56565b5b828203905092915050565b6000604082019050614bde60008301856144e3565b614beb6020830184614692565b9392505050565b600081519050614c0181614607565b92915050565b600060208284031215614c1d57614c1c61450d565b5b6000614c2b84828501614bf2565b91505092915050565b7f4f6e6c7920666f7220746865204d4c494645206f776e65720000000000000000600082015250565b6000614c6a6018836147cc565b9150614c7582614c34565b602082019050919050565b60006020820190508181036000830152614c9981614c5d565b9050919050565b7f5468652053656e646572206973206e6f74206f726967696e616c20626964646560008201527f7200000000000000000000000000000000000000000000000000000000000000602082015250565b6000614cfc6021836147cc565b9150614d0782614ca0565b604082019050919050565b60006020820190508181036000830152614d2b81614cef565b9050919050565b7f7a65726f20616464726573730000000000000000000000000000000000000000600082015250565b6000614d68600c836147cc565b9150614d7382614d32565b602082019050919050565b60006020820190508181036000830152614d9781614d5b565b9050919050565b7f696e76616c69642070657263656e740000000000000000000000000000000000600082015250565b6000614dd4600f836147cc565b9150614ddf82614d9e565b602082019050919050565b60006020820190508181036000830152614e0381614dc7565b9050919050565b7f796f75722062696420697320746f6f206c6f7700000000000000000000000000600082015250565b6000614e406013836147cc565b9150614e4b82614e0a565b602082019050919050565b60006020820190508181036000830152614e6f81614e33565b9050919050565b7f596f7520616c7265616479206f776e2074686973204d4c494645000000000000600082015250565b6000614eac601a836147cc565b9150614eb782614e76565b602082019050919050565b60006020820190508181036000830152614edb81614e9f565b9050919050565b7f4d4c494645206973206e6f7420666f722073616c650000000000000000000000600082015250565b6000614f186015836147cc565b9150614f2382614ee2565b602082019050919050565b60006020820190508181036000830152614f4781614f0b565b9050919050565b7f74686973206f66666572206973206e6f7420666f7220796f7500000000000000600082015250565b6000614f846019836147cc565b9150614f8f82614f4e565b602082019050919050565b60006020820190508181036000830152614fb381614f77565b9050919050565b7f6e6f7420656e6f75676820657468657200000000000000000000000000000000600082015250565b6000614ff06010836147cc565b9150614ffb82614fba565b602082019050919050565b6000602082019050818103600083015261501f81614fe3565b9050919050565b7f73656c6c6572203d3d206d73672e73656e646572000000000000000000000000600082015250565b600061505c6014836147cc565b915061506782615026565b602082019050919050565b6000602082019050818103600083015261508b8161504f565b9050919050565b7f73656c6c6572206e6f206c6f6e676572206f776e6572206f66204d4c49464500600082015250565b60006150c8601f836147cc565b91506150d382615092565b602082019050919050565b600060208201905081810360008301526150f7816150bb565b9050919050565b7f4f776e61626c653a206e6577206f776e657220697320746865207a65726f206160008201527f6464726573730000000000000000000000000000000000000000000000000000602082015250565b600061515a6026836147cc565b9150615165826150fe565b604082019050919050565b600060208201905081810360008301526151898161514d565b9050919050565b7f5061757361626c653a2070617573656400000000000000000000000000000000600082015250565b60006151c66010836147cc565b91506151d182615190565b602082019050919050565b600060208201905081810360008301526151f5816151b9565b9050919050565b7f4f776e61626c653a2063616c6c6572206973206e6f7420746865206f776e6572600082015250565b60006152326020836147cc565b915061523d826151fc565b602082019050919050565b6000602082019050818103600083015261526181615225565b9050919050565b7f5061757361626c653a206e6f7420706175736564000000000000000000000000600082015250565b600061529e6014836147cc565b91506152a982615268565b602082019050919050565b600060208201905081810360008301526152cd81615291565b9050919050565b7f416464726573733a20696e73756666696369656e742062616c616e6365000000600082015250565b600061530a601d836147cc565b9150615315826152d4565b602082019050919050565b60006020820190508181036000830152615339816152fd565b9050919050565b600081905092915050565b50565b600061535b600083615340565b91506153668261534b565b600082019050919050565b600061537c8261534e565b9150819050919050565b7f416464726573733a20756e61626c6520746f2073656e642076616c75652c207260008201527f6563697069656e74206d61792068617665207265766572746564000000000000602082015250565b60006153e2603a836147cc565b91506153ed82615386565b604082019050919050565b60006020820190508181036000830152615411816153d5565b905091905056fea26469706673582212202a895ac53a948aaaf24d899454b348df6dfa5de6b810dab8cd15e50b00cd6f8664736f6c634300080d0033",
  "linkReferences": {},
  "deployedLinkReferences": {}
}